S012000041737369676E6D656E742E73726563F9
S11300000C94F3000C9410010C9410010C94100146
S11300100C9410010C9450010C9410010C941001D8
S11300200C9410010C9410010C9410010C94100108
S11300300C9410010C9410010C9410010C941001F8
S11300400C9421120C9410010C9410010C941001C6
S11300500C946B0E0C94290E0C9410010C9410014A
S11300600C9410010C9410010C9410010C941001C8
S11300700C9410010C9410010C94100123232348B8
S11300804947482053434F5245532323230050727A
S1130090657373206120627574746F6E20746F20B1
S11300A0737461727420616761696E0047414D45E4
S11300B0204F5645520021011E011A01160112015A
S11300C00E010A0106010201FE0090018C01880163
S11300D0840180017C017801740171016D01690161
S11300E0650160015C01580154014F014B01470156
S11300F042013E01390134012F012A012501649294
S1130100927D6C92926D809EA0C17C92924DE4A2ED
S1130110A29D182848FF4492926D468A926342FE3B
S1130120037C92A27D868A92A2C3E0100E10E1C6DF
S1130130281028C7FC021C02FDF8040204F9FC0282
S113014002FD8080FE80816492924DFE9098677CCF
S1130150828A7C03FE9090617C82827DFE2010FF67
S1130160FE403040FFFE020203FE1028C7040202D4
S1130170FD82FE83FE1010FF7C82925DFE909081D2
S1130180FE929283FE82827D7C828245FE92926DF3
S11301907E90907F43535345323031302F37323085
S11301A03120536E616B652050726F6A65637420F1
S11301B06279204A61636B20456164696500536E0E
S11301C0616B65001B5B3F323568001B5B3F32355A
S11301D06C001B5B25646D001B5B324A001B5B25B6
S11301E0643B2564480011241FBECFEFD8E0DEBF76
S11301F0CDBF12E0A0E0B1E0EAE8F1E302C005906F
S11302000D92A836B107D9F723E0A8E6B2E001C001
S11302101D92A43EB207E1F70E943E0B0C94C31852
S11302200C940000E8E6F0E0808182608083D99A33
S1130230ECE6F0E080818F6080831092680208957C
S11302401092680208958091680218163CF5809116
S113025069026FB7F894909168029230B4F021E08B
S113026030E091E0F901E759FD4F4081F901E85987
S1130270FD4F40839F5F292F30E040916802042E98
S1130280000C550B241735076CF3909168029150BC
S11302909093680266231CF4789408958FEF089570
S11302A01F920F920FB60F9211242F933F934F93E7
S11302B05F936F937F938F939F93EF93FF9343B1D8
S11302C04F7080916802883064F580E090E0642F7C
S11302D070E09B01082E02C0359527950A94E2F739
S11302E020FF1BC02091710230E0082E02C035951A
S11302F027950A94E2F720FD10C0E091680221E0FE
S11303002E0F209368020E2E000CFF0BE759FD4FB1
S1130310808320916802283024F40196843091056A
S1130320C1F640937102FF91EF919F918F917F915C
S11303306F915F914F913F912F910F900FBE0F904E
S11303401F901895089589B183FB882780F9089533
S1130350CF92DF92EF92FF920F931F930E94D611D8
S113036040917202509173026A01550FEE08FF0822
S11303700091B3021091B4022091B5023091B602FB
S1130380C00ED11EE21EF31E21E030E06C157D0587
S11303908E059F0510F020E030E0C9011F910F91F8
S11303A0FF90EF90DF90CF900895E091B002EF5F5F
S11303B0E093B002A091B102B091B202F0E0EE0F6E
S11303C0FF1F8D919C91E80FF91F808191810E94FC
S11303D075120E94D6116093B3027093B402809395
S11303E0B5029093B602A091B102B091B202E0912D
S11303F0B002F0E0EE0FFF1F12968D919C911397BF
S1130400E80FF91F808191819093730280937202A7
S1130410089555981092B2021092B10208958DE099
S113042091E09093B2028093B1028FEF8093B00277
S11304300E94D5010E94A30181110E947A1208959D
S113044088E091E09093B2028093B1028FEF8093A1
S1130450B0020E94D5010E94A30181110E947A1268
S1130460089582E191E09093B2028093B1028FEFFC
S11304708093B0020E94D5010E94A30181110E94C1
S11304807A1208952091B00230E02F5F3F4FE0913F
S1130490B102F091B202448150E081E090E024176F
S11304A0350714F480E090E008950E94A801892B98
S11304B039F40E944202892B19F00E94090208951E
S11304C00E94A801892B11F40E94D501089580E8A7
S11304D091E00E943F1821E0611572418105910568
S11304E009F020E0822F0895DF92EF92FF920F939C
S11304F01F93CF93DF93CDB7DEB762970FB6F8940F
S1130500DEBF0FBECDBFF89440E052E160E070E082
S113051080E891E00E945D1880E00E948207898350
S113052081E00E9482078A8382E00E9482078B8393
S113053083E00E9482078C830E945A0B8E830E9460
S11305408D0C69877A878B879C870E9468089887B7
S11305508F830E94F60E8D870E94D6116E877F8747
S1130560888B998B0E94140F8A8B0E9454108823C5
S113057021F00E949E108D8302C088E08D8342E1A9
S113058050E060EA71E0CE0101960E9445180E9495
S1130590110F182F0E940E0F811708F043C00E94FC
S11305A0110FD82E082F10E0013211051CF50F2E63
S11305B0F0E3EF2EF2E0FF2EF02D802F0E94F90ED3
S11305C0682FC7010E944F1888E0E80EF11C0F5FE6
S11305D01F4F0132110589F70D2D10E0119501957A
S11305E01109000F111F000F111F000F111F085CCC
S11305F01C4F02C000E312E0E12CF12C0CC08E2D44
S11306000E94F90E682FC8010E944F18085F1F4FFF
S11306108FEFE81AF80A0E940E0F90E08E159F05DE
S113062074F719C00E94110FE82EF12C00E312E0B8
S11306300CC08E2D0E94F90E682FC8010E944F181D
S1130640085F1F4F8FEFE81AF80A0E940E0F90E020
S11306508E159F0574F768E0C8010E944F187894BE
S113066062960FB6F894DEBF0FBECDBFDF91CF9177
S11306701F910F91FF90EF90DF900895CF93C82FB3
S11306800E945C09882389F0E091BC020E2E000CC4
S1130690FF0BE354FD4FC08363E38C2F0E94A2073A
S11306A08091BC028F5F8093BC02CF910895CF9359
S11306B0C82F0E945C09882321F08C2F0E945D0BB7
S11306C002C00E94FA0BCF910895CF93C82F0E94C5
S11306D05C09882321F08C2F0E944E1002C00E94D6
S11306E07D10CF9108950F931F93CF93DF9380E0F4
S11306F00E940B0F0E94F60E81500E94080F10E01A
S1130700C0E3D2E0CE010E943718082F612F0E9467
S1130710020F60EF802F0E94A20728961F5FCE0170
S11307200E9437180E945C098111ECCF0E94DF0EF1
S11307306FE00E94A207DF91CF911F910F9108955E
S1130740CF93DF93CDB7DEB762970FB6F894DEBFD1
S11307500FBECDBF0E946702882309F442C00E94E5
S113076031110E9453090E947A1142E150E060EA7B
S113077071E0CE0101960E94271869857A858B85E0
S11307809C850E94960C6E857F85888999890E9434
S1130790E1110E9495118F8198850E946D088E81C8
S11307A00E9457030E945E1289810E943E038A813F
S11307B00E943E038B810E943E038C810E943E0373
S11307C08D810E9465038D850E94FF0E8A890E9497
S11307D0E80E0E9473030E9420010E94240E1092CE
S11307E0780262960FB6F894DEBF0FBECDBFDF91DC
S11307F0CF9108950F931F93CF93DF93CDB7DEB7B7
S113080027970FB6F894DEBF0FBECDBF8C0147E02B
S113081050E0BC01CE0101960E942718B801605C2B
S11308207F4F47E050E0CE0101960E94451827967D
S11308300FB6F894DEBF0FBECDBFDF91CF911F91ED
S11308400F91089580E091E00E94FA0308950E94B8
S1130850220480EC90E00E94FA0308950E94270489
S113086080E890E00E94FA0308950E942E0480E438
S113087090E00E94FA030895CF93DF93CDB7DEB7DB
S113088027970FB6F894DEBF0FBECDBF44E352E105
S113089060E070E080E090E00E945D1880E289836F
S11308A08A838B831C821D821E821F8247E050E054
S11308B060E470E0CE0101960E94451847E050E0E4
S11308C060E870E0CE0101960E94451847E050E0D0
S11308D060EC70E0CE0101960E94451847E050E0BC
S11308E060E071E0CE0101960E94451847E050E0B7
S11308F060E471E0CE0101960E94451827960FB678
S1130900F894DEBF0FBECDBFDF91CF91089580E094
S113091090E00E943F1821E0643372418105910503
S113092009F020E0822F0895CF92DF92EF92FF9298
S1130930CF93DF93CDB7DEB727970FB6F894DEBF1A
S11309400FBECDBF0E948D0C6B017C0147E050E0CF
S113095060E471E0CE0101960E9427188C819D818C
S1130960AE81BF81C816D906EA06FB0638F40E9498
S1130970870491E0811190E0892F01C081E02796DE
S11309800FB6F894DEBF0FBECDBFDF91CF91FF90BD
S1130990EF90DF90CF900895CF92DF92EF92FF9285
S11309A0CF93DF93CDB7DEB727970FB6F894DEBFAA
S11309B00FBECDBF0E948704882309F45DC00E9446
S11309C08D0C6B017C0147E050E060E470E0CE01E7
S11309D001960E9427188C819D81AE81BF818C1560
S11309E09D05AE05BF0508F44AC047E050E060E845
S11309F070E0CE0101960E9427188C819D81AE8102
S1130A00BF818C159D05AE05BF05E0F147E050E0C0
S1130A1060EC70E0CE0101960E9427188C819D81C4
S1130A20AE81BF818C159D05AE05BF0570F147E011
S1130A3050E060E071E0CE0101960E9427188C819D
S1130A409D81AE81BF818C159D05AE05BF0500F16A
S1130A5047E050E060E471E0CE0101960E9427185F
S1130A608C819D81AE81BF818C159D05AE05BF052E
S1130A7090F080E090E011C080E490E00EC080E44B
S1130A8090E00BC080E890E008C080EC90E005C0E6
S1130A9080E091E002C080E491E027960FB6F894DC
S1130AA0DEBF0FBECDBFDF91CF91FF90EF90DF90FF
S1130AB0CF9008950F931F93CF93DF93CDB7DEB7F5
S1130AC027970FB6F894DEBF0FBECDBF44E352E1C3
S1130AD060E070E080E090E00E945D180E94CC0429
S1130AE08C018038910591F020F48034910589F0CF
S1130AF012C0803C910539F0011581E0180759F4C2
S1130B000E94220408C00E94270405C00E942E04EB
S1130B1002C00E943504E4E7F2E080818983818188
S1130B208A8382818B830E948D0C6C837D838E8368
S1130B309F8347E050E0B801CE0101960E9445181A
S1130B4027960FB6F894DEBF0FBECDBFDF91CF91CD
S1130B501F910F910895EF92FF920F931F93CF93DC
S1130B60DF9368E08AE00E94181180E791E09F9388
S1130B708F930E9423150F900F9000E010E00F2E2A
S1130B80FEEDEF2EF3E0FF2EF02D0E9450110E9497
S1130B901D0E8823D1F3F701808191810E94E51411
S1130BA0EC01982F91549A3398F40330110584F48E
S1130BB069E08AE0800F0E941811F801EC58FD4F9B
S1130BC0C083CE0199270E945F150F5F1F4FDDCFB1
S1130BD08A3021F402301105C4F211C08F37A9F60E
S1130BE080E290E00E945F151016110614F4015083
S1130BF0110969E08AE0800F0E941811C6CFF999A3
S1130C00FECF0E945A05E4E7F2E080E2808381830C
S1130C108283DF91CF911F910F91FF90EF90089500
S1130C20CF93DF93CDB7DEB727970FB6F894DEBF27
S1130C300FBECDBF6BE08AE00E9418118CE790E0F4
S1130C409F938F930E9439156DE08AE00E941811DA
S1130C500E9487040F900F90882309F4B6C047E0E0
S1130C6050E060E470E0CE0101960E9427188F8165
S1130C708F938E818F938D818F938C818F938B81B2
S1130C801F928F938A811F928F9389811F928F93D2
S1130C9089EA91E09F938F930E9423156EE08AE086
S1130CA00E94181147E050E060E870E0CE01019620
S1130CB00E9427188F818F938E818F938D818F93BC
S1130CC08C818F938B811F928F938A811F928F9334
S1130CD089811F928F938BEB91E09F938F930E9456
S1130CE023156FE08AE00E94181147E050E060ECA1
S1130CF070E0CE0101960E9427188F818F938E8118
S1130D008F938D818F938C818F938B811F928F937F
S1130D108A811F928F9389811F928F938EEC91E029
S1130D209F938F930E9423150FB6F894DEBF0FBED6
S1130D30CDBF60E18AE00E94181147E050E060E016
S1130D4071E0CE0101960E9427188F818F938E81C6
S1130D508F938D818F938C818F938B811F928F932F
S1130D608A811F928F9389811F928F9380EE91E0E5
S1130D709F938F930E94231561E18AE00E941811CA
S1130D8047E050E060E471E0CE0101960E9427182C
S1130D908F818F938E818F938D818F938C818F938D
S1130DA08B811F928F938A811F928F9389811F92C7
S1130DB08F9383EF91E09F938F930E9423150FB637
S1130DC0F894DEBF0FBECDBF0AC00E943C0485E08C
S1130DD092E09F938F930E9423150F900F90279674
S1130DE00FB6F894DEBF0FBECDBFDF91CF9108954B
S1130DF01092BC0208953091BC02131684F49091B1
S1130E00BD02891771F0EEEBF2E090E003C021918E
S1130E10281749F09F5F3913FACF8FEF08958FEFAA
S1130E20089580E00895892F08950E94FB0691E0BB
S1130E308F3F09F490E0892F0895FF920F931F9339
S1130E40CF93DF938091BC0288300CF044C000E063
S1130E5010E0D0E0C0E002C00F5F1F4F2C2FCC0F7A
S1130E60330B2D5F3F4F200F311F2F70307833230A
S1130E7034F421503109206F3F6F2F5F3F4F822F91
S1130E80C22F6D2FDD0F770B6B5F7F4F677070780C
S1130E90772334F461507109686F7F6F6F5F7F4F00
S1130EA0D62F0E946209F82E03361105B1F00E9474
S1130EB04C0F8111D1CF8F2D0E9415078111CCCFFA
S1130EC08F2D0E94A1108111C7CF8F2D0E94F30B8B
S1130ED08111C2CF04C088E00FC088E00DC08091AA
S1130EE0BC02E82F082E000CFF0BE354FD4FF082E8
S1130EF08F5F8093BC028F2DDF91CF911F910F9153
S1130F00FF900895E82F880FFF0BE354FD4F808175
S1130F1008958823B4F02091BC02821794F48F5F63
S1130F20821764F4E82F082E000CFF0BE354FD4FE6
S1130F309081319790838F5F8217A4F3215020937F
S1130F40BC0208951F93CF93DF93C82F162F0E94DE
S1130F505A09D82F8C2F0E945709412F6D2F0E94B8
S1130F601009DF91CF911F910895CF93DF930E94D1
S1130F7053090E947A1188E592E09093440180938A
S1130F8043010E94FA0B0E940F020E94BE0E0E94AF
S1130F90DF0E6FE00E94A2070E94ED0E60EF0E9438
S1130FA0A2070E94F806C3E00E941D07D82F0E94E2
S1130FB05C09882321F063E38D2F0E94A207C150AE
S1130FC099F7DF91CF910895809143019091440165
S1130FD08B3F9105A4F0609143017091440180E03E
S1130FE090E00E94AB1226E636E646E65FE30E94F6
S1130FF011130E947C12709344016093430108957D
S11310000F931F93CF93DF930E94DF0ED82F0E947C
S11310106F0FC82F88230CF455C081E090E00E9424
S1131020780C0E94DF0E182F8EEF8C0F8230C0F4E4
S1131030812F0E94FB060E9489070E94200282E001
S113104090E00E94780C0E94E4070E941D07082F7C
S11310500E945C09882321F063E3802F0E94A20789
S11310608CEF8C0F823050F40E94951089E090E050
S11310700E94780C0E94E4070E9420028AEF8C0FE1
S1131080823050F40E94FA0B84E090E00E94780CC5
S11310900E94E4070E942002CD7FC13011F0C530C8
S11310A029F40E94170F60E00E94A20760EF8D2FC1
S11310B00E94A2076FE0812F0E94A2070E9495114F
S11310C081E001C080E0DF91CF911F910F910895DD
S11310D08091430190914401089590934401809339
S11310E04301089540E060E07BE480E090E00E94EA
S11310F0D60D789480E480937C0086E880937A000F
S113110087E292E00E94661508958091770281112A
S113111006C0ECE7F0E080818E7F808305C0ECE7B9
S1131120F0E0808181608083EAE7F0E08081806480
S11311308083808186FDFDCF2091780030917900F5
S11311403093C6022093C5028091770291E09827DC
S113115090937702C90108950F931F93CF93DF9360
S113116080917702882399F00E9485082091450197
S113117030914601EC01C21BD30B0E9485082091DB
S11311804501309146018C01021B130B12C00E94D1
S1131190850820914501309146018C01021B130BF7
S11311A00E9485082091450130914601EC01C21B43
S11311B0D30B9E01DD2324F4222733272C1B3D0B64
S11311C0C801112324F488279927801B910B8217C7
S11311D0930764F440914701509148014217530723
S11311E028F41C161D0674F082E011C020914701FA
S11311F0309148012817390738F41016110634F0D5
S113120083E005C080E003C08FEF01C081E0DF917F
S1131210CF911F910F91089580E80E9420100895A6
S11312201F93CF93DF938031B0F46830A0F4142F70
S1131230C62FD82F81E00E9448106C2F677080E180
S1131240689F900111248D2F8F70822B0E9448106B
S1131250812F0E944810DF91CF911F9108950F9321
S11312601F93CF93DF93803190F48B01C82F83E0D9
S11312700E9448108C2F8F700E944810E801085F6C
S11312801F4F89910E944810C017D107D1F7DF91F1
S1131290CF911F910F91089584E00E94481082E03D
S11312A00E94481008958FE00E9448100895829586
S11312B08F7008958F70089583FB882780F991E0DB
S11312C08927089520E1829FC00111246770862B2D
S11312D008950E940C090E9472080E94120140E0C5
S11312E060E07BE480E090E00E94D60D0E94AE11A5
S11312F078940895FF920F931F93CF93DF9380E028
S11313000E943A110E9431110E9447110E94591102
S11313100E945309CFE00F2EFFE0FF2EF02D0FEFB8
S113132010EFD5E16C2F80E392E00E949F0C0DC07A
S11313302FE78CE293E0215080409040E1F700C019
S113134000000E9423018F3FA9F50E94AE0C811179
S1131350EFCF0E948E14DC01CB0183709927AA275A
S1131360B078BB2354F40197A109B1098C6F9F6F26
S1131370AF6FBF6F0196A11DB11D81309105A1050D
S1131380B10591F02CF4892B8A2B8B2B59F0CACF01
S113139082309105A105B10549F00397A105B10576
S11313A039F0C0CFCD2FBECFCF2DBCCFC02FBACFF9
S11313B0C12FB8CFDF91CF911F910F91FF90089566
S11313C00E9431110E94B5070E946F0C0E942001F7
S11313D00E94240E08954F925F927F928F929F9263
S11313E0AF92BF92CF92DF92EF92FF920F931F932F
S11313F0CF93DF930E94D6114B015C0100E01FEFF5
S11314000F2EFFED7F2EF02D0F2EFEED4F2EF3E06D
S11314105F2EF02D0E94571081110E94AE100E9481
S11314206D1081110E947D100E945D0C81110E943B
S11314307D0B0E94CD11892B19F00E94200106C05A
S11314400E942301D82F8F3F09F09FC00E941D0ED8
S1131450882309F4A9C0F201808191810E94E514D6
S1131460C82F011103C08B3151F49BC0013019F412
S11314708B3529F498C0023009F48DC080C00E94D5
S1131480CD11892B09F044C008C0D11109C001C095
S113149000E081E00E942E0F55C000E0D12F01C072
S11314A0C12FD23019F0812F813421F480E00E94C1
S11314B02E0F48C0D33011F0843421F483E00E940D
S11314C02E0F40C0D13011F0823429F482E00E9402
S11314D02E0F38C000E08C2F8F7D803519F40E94C8
S11314E0C61130C0C33719F40E9474022BC00E9485
S11314F06702882341F08C2F8F7D8F3421F481E0A3
S11315008093780268C08C2F8F7D8E34D9F463C0A9
S11315108C2F8F7D803521F40E94C61100E012C00B
S113152000E0833519F40E9474020CC00E94670223
S1131530882341F08C2F8F7D8F3421F481E08093B8
S1131540780249C00E94D6116B017C010E94680890
S1131550092E000CAA0BBB0B880D991DAA1DBB1DDF
S1131560C816D906EA06FB0608F454CF0E94000800
S1131570882389F10E94D6114B015C014BCF0E9454
S1131580CD11892B09F4A6CFC3CF0E94CD11892B8D
S113159009F47BCF1DC00E94CD11892B51F000E0CE
S11315A014C001E001C002E00E94CD11892B69F44E
S11315B008C0C33409F46CCF8C2F00E0C12FD12FA5
S11315C073CF0E946702C12F9ECFC12F872DA9CF51
S11315D00E946702B7CFDF91CF911F910F91FF90C7
S11315E0EF90DF90CF90BF90AF909F908F907F90BF
S11315F05F904F9008950E9431020E94311165E07E
S11316008AE00E9418118CEA90E09F938F930E94C5
S1131610391567E08AE00E9418110E948D0C9F938F
S11316208F937F936F9382E492E09F938F930E94B2
S113163023150E9410060E9494042DB73EB7285F1C
S11316403F4F0FB6F8943EBF0FBE2DBF81110E94CD
S1131650AB0569E08AE00E9418118EE890E09F9340
S11316608F930E9439150E9410060F900F900E94CC
S113167023018F3FE1F30E94311108950E9469090B
S11316808FEF87B9529A53980E945E120E947A098A
S113169080917802882319F00E94A00302C00E945E
S11316A0E0090E94EB09809178028111F1CF0E9438
S11316B0FB0AEECF8091C7020895CF93DF93C82F22
S11316C08091C7020E945A09D82F8091C7020E94B4
S11316D0570940E06D2F0E941009C093C7028C2F58
S11316E00E945A09D82F8C2F0E94570943E36D2F6B
S11316F00E941009DF91CF9108951F93CF93DF9338
S113170060E080E00E946209182F0E943314837005
S11317109078992324F401978C6F9F6F0196C82FBA
S1131720D0E0C130A9F028F0C23009F1C33071F122
S11317303BC08091C7020E945A09182F8091C702AA
S11317400E94570961E0610F0E946209182F2CC0A2
S11317508091C7020E945A09182F8091C7020E94E3
S113176057096FEF610F0E946209182F1DC0809105
S1131770C7020E945A09182F8091C7020E94570974
S1131780612F8F5F0E946209182F0EC08091C702DB
S11317900E945A09182F8091C7020E945709612F8D
S11317A081500E946209182FDF5F8C2F90E0019610
S11317B083709078992324F401978C6F9F6F01961E
S11317C0C82F812F0E944C0F882321F0D43009F0B8
S11317D0A8CF02C0D53018F4812F0E945D0BDF9191
S11317E0CF911F91089591E02091C702281390E0B2
S11317F0892F08951F93CF93DF930E943314EC0134
S11318000E943314BC0167707078772334F46150FC
S11318107109686F7F6F6F5F7F4FCE018F70907813
S1131820992324F40197806F9F6F01960E946209A7
S1131830C82F13E61EC00E943314EC010E94331417
S1131840BC0167707078772334F461507109686F54
S11318507F6F6F5F7F4FCE018F709078992324F450
S11318600197806F9F6F01960E946209C82F1150E3
S113187091F08C2F0E944C0F8111DDCF8C2F0E9490
S113188015078111D8CF0E949E108C17A1F2809168
S1131890C7028C1781F2C093C7028C2F0E945A0989
S11318A0C82F8091C7020E94570943E36C2F0E94FE
S11318B01009DF91CF911F9108950E94D6112091B4
S11318C0490130914A0140E050E00E94A61321E012
S11318D0672B682B692B09F020E0822F0895109262
S11318E0790210927A0210927B0210927C0208957F
S11318F04091790250917A0260917B0270917C024E
S1131900480F591F611D711D4093790250937A024B
S113191060937B0270937C020895609179027091C8
S11319207A0280917B0290917C02089560937902FF
S113193070937A0280937B0290937C020895609363
S11319404B01909381028093800210928302109243
S1131950820210927F0210927E0208950F931F93C9
S1131960CF93DF93CDB7DEB728970FB6F894DEBFD9
S11319700FBECDBFE0918202F0918302309781F0D7
S1131980149110FF06C0109283021092820200E0AC
S11319906BC03196F0938302E093820200E064C04E
S11319A0E0917E02F0917F02309709F449C0CF01A3
S11319B0019690937F0280937E02E081E1110AC038
S11319C010927F0210927E0280E180937D0200E0FB
S11319D010E04AC08FE98E0F8A3170F4F0E0EE0F08
S11319E0FF1FE85FFF4F859194919093830280934A
S11319F0820200E010E038C08FEB8E0F8A3170F461
S1131A00F0E0EE0FFF1FE85BFF4F859194919093F8
S1131A1083028093820200E010E026C080ED8E0FE6
S1131A208A3000F5F0E0EE0FFF1FEA5AFF4F859170
S1131A309491909383028093820200E010E014C09A
S1131A40809180029091810201E0009709F000E00A
S1131A5090937F0280937E02109281021092800202
S1131A6010E002C000E010E00E944C0920914B01FC
S1131A70FE013896CE010196112314F4208301C08F
S1131A801082110F3197E817F907B1F71982BE01D7
S1131A906F5F7F4F8FE00E942F0980917D02882322
S1131AA089F0815080937D02002311F0882311F086
S1131AB090E003C091E001C091E081E0992329F016
S1131AC080E003C00023A1F3F7CF28960FB6F89463
S1131AD0DEBF0FBECDBFDF91CF911F910F9108954F
S1131AE0CF93C82F8A3019F48DE00E94700D9FB7F0
S1131AF0907802C0992329F18091C9028F3FD1F3D4
S1131B00F894E091C80281E08E0F8093C802F0E05F
S1131B10E653FD4FC0838091C9028F5F8093C90251
S1131B208091C8028F3F11F41092C802E1ECF0E0FA
S1131B30808180628083992339F0789480E090E0FA
S1131B4005C081E090E002C080E090E0CF9108956C
S1131B508091DB038823E1F32FB72078F8948091F8
S1131B60C9033091DB0390E0831B91095AF4E0919F
S1131B70C9038091DB03F0E0E81BF109E652FC4F56
S1131B8080810AC0E091C9038091DB03F0E0E81B87
S1131B90F109E653FC4F80819091DB0391509093BF
S1131BA0DB03222309F0789490E008951092C80290
S1131BB01092C9021092C9031092DB031092DA0347
S1131BC040938402DC01CB01880F991FAA1FBB1F1D
S1131BD0880F991FAA1FBB1F9C01AD01220F331F41
S1131BE0441F551F60E072E18AE790E00E94C81329
S1131BF0BA01A9014F5F5F4F6F4F7F4FDB01CA01ED
S1131C001AF40196A11DB11DB595A79597958795D1
S1131C1001979093C5008093C400E1ECF0E088E163
S1131C208083808180688083EEEDF3E08CE491E032
S1131C30938382839183808308959091DB0381E071
S1131C40911101C080E008951092C9031092DB0342
S1131C5008951F920F920FB60F9211242F938F9312
S1131C609F93EF93FF938091C902882329F1809178
S1131C70C8022091C90290E0821B91095AF4E091B4
S1131C80C8028091C902F0E0E81BF109E753FC4F58
S1131C9090810AC0E091C8028091C902F0E0E81B7B
S1131CA0F109E653FD4F90818091C90281508093E0
S1131CB0C9029093C60005C0E1ECF0E080818F7DFD
S1131CC08083FF91EF919F918F912F910F900FBE81
S1131CD00F901F9018951F920F920FB60F92112418
S1131CE02F933F934F935F936F937F938F939F9320
S1131CF0AF93BF93CF93EF93FF93C091C6008091AE
S1131D008402882349F08091C9028F3F29F060E062
S1131D1070E08C2F0E94700D8091DB03803120F0E5
S1131D2081E08093DA0318C0CD3009F4CAE0E09171
S1131D30C90381E08E0F8093C903F0E0E653FC4FA2
S1131D40C0838091DB038F5F8093DB038091C903A1
S1131D50803111F41092C903FF91EF91CF91BF919B
S1131D60AF919F918F917F916F915F914F913F912F
S1131D702F910F900FBE0F901F9018950F931F93E4
S1131D80CF9382E08093890210928702C1E0C093CE
S1131D90880261E081E00E9462090AE812E0F80129
S1131DA0808361E082E00E946209F8018183C0932C
S1131DB08602C0938502CF911F910F910895E091FF
S1131DC088020E2E000CFF0BE657FD4F808108950C
S1131DD080938602809385020895E09187020E2EF7
S1131DE0000CFF0BE657FD4F808108958091890216
S1131DF00895E82FF0E0E657FD4F80810895809321
S1131E0089020895E62FF0E0E657FD4F8083089598
S1131E1080938802089580938702089580918802B0
S1131E200895809187020895809186020895909183
S1131E308702E92F092E000CFF0BE657FD4F808126
S1131E409F5F913219F09093870202C0109287022B
S1131E5090918902915090938902089590918602FD
S1131E609130A9F028F0923041F0933059F0089560
S1131E70823089F0809385020895882361F08093ED
S1131E8085020895813039F0809385020895833066
S1131E9011F0809385020895909187023091880211
S1131EA040E00DC0E92F092E000CFF0BE657FD4F53
S1131EB02081281789F09F5F91320CF0942F93139F
S1131EC0F1CFE32F330FFF0BE657FD4F91E0208155
S1131ED0281719F090E001C091E0892F08950F931D
S1131EE01F93CF93DF9380918902813208F098C0C9
S1131EF0E09188020E2E000CFF0BE657FD4F808107
S1131F000E945709182FC82FE09188020E2E000C4A
S1131F10FF0BE657FD4F80810E945A09082FD82FE6
S1131F200E94AC088F3F21F00E94AC080E942E0F43
S1131F3080918502813059F028F0823069F0833035
S1131F4081F01BC0D73091F0D1E0D00F16C0CF3054
S1131F5079F0C1E0C10F11C0DD2361F0DFEFD00FD4
S1131F600CC0CC2349F0CFEFC10F07C0D0E005C0AF
S1131F70C0E003C0D7E001C0CFE06D2F8C2F0E94DA
S1131F806209C82F809185029091860298138093EC
S1131F9086028C2F0E944C0F882351F0E091870217
S1131FA00E2E000CFF0BE657FD4F8081C8133AC07C
S1131FB0809188028F5F813219F08093880202C079
S1131FC010928802E09188020E2E000CFF0BE65757
S1131FD0FD4FC083809189028F5F809389028C2F8B
S1131FE00E94F30B882331F0809189028132E0F062
S1131FF087E021C08C2F0E94A110882331F08091AA
S11320008902813298F085E016C08C2F0E94150752
S1132010882371F080918902813260F083E00BC0E3
S11320208DEF09C08EEF07C086E005C084E003C0D1
S113203081E001C082E0DF91CF911F910F9108955B
S113204094B1906B94B92C9A90E59CBD883021F0A2
S1132050803211F0823019F491E09DBD01C01DBCA5
S1132060803269F028F4883071F0803161F00EC05C
S1132070803429F0803851F48CB581608CBD8CB5E6
S113208082608CBD03C08CB581608CBD2C98089592
S11320908EBD0DB407FEFDCF8EB508958093DC038D
S11320A081E08093DD0308958091DD0308950E940B
S11320B0D61168597A438109910920E23EE440E04F
S11320C050E00E94A613672B682B692B21F40E9411
S11320D0D61181E0089580E008950E94D61120E28F
S11320E03EE440E050E00E94A61321E0672B682BF9
S11320F0692B09F020E0822F0895CF938091DC03AF
S11321000E945A09C82F8091DC030E94570940E0BD
S11321106C2F0E94100960E080E00E9462098093A5
S1132120DC031092DD03CF91089560E080E00E940B
S113213062098093DC031092DD0308958091DC032F
S113214008959091DD03992339F091E02091DC0307
S1132150281390E0892F089580E008951F93CF936A
S1132160DF930E947D100E943314EC010E9433140B
S1132170BC0167707078772334F461507109686F1B
S11321807F6F6F5F7F4FCE018F709078992324F417
S11321900197806F9F6F01960E946209C82F13E612
S11321A01EC00E943314EC010E943314BC016770FA
S11321B07078772334F461507109686F7F6F6F5FB3
S11321C07F4FCE018F709078992324F40197806F0C
S11321D09F6F01960E946209C82F1150A1F08C2FA5
S11321E00E944C0F8111DDCF8C2F0E9415078111A5
S11321F0D8CF8C2F0E94A1108111D3CF8C2F0E9495
S1132200F30B8111CECFC093DC038C2F0E945A09AB
S1132210C82F8091DC030E9457094CE36C2F0E9465
S1132220100981E08093DD03DF91CF911F91089520
S1132230282F082E000C330B3F938F93862F062EE6
S1132240000C990B9F936F938DED91E09F938F9367
S11322500E9439150F900F900F900F900F900F90D0
S1132260089588ED91E09F938F930E9439150F9004
S11322700F9008951F928F9382ED91E09F938F9317
S11322800E9439150F900F900F900F9008958BECCA
S113229091E09F938F930E9439150F900F900895AA
S11322A084EC91E09F938F930E9439150F900F90C7
S11322B0089563E083E00E9418118EEB91E09F93F0
S11322C08F930E94391565E083E00E94181180E223
S11322D00E943A1184E991E09F938F930E943915EB
S11322E085E20E943A110E9410060F900F900F9001
S11322F00F9008950E94471161E08AE00E9418112E
S11323008DE492E09F938F930E94231563E081E014
S11323100E94181183E592E09F938F930E942315E6
S11323200F900F900F900F9008950E94471163E053
S113233081E00E9418110E948D0C9F938F937F93CC
S11323406F938CE592E09F938F930E9423150F90D7
S11323500F900F900F900F900F9008951092AB0272
S11323601092AC021092AD021092AE0216BC8CE731
S113237087BD82E084BD83E085BDEEE6F0E0808128
S11323808260808385B3827085BB089590916F01CC
S113239081E0891B80936F01089520916F0181E092
S11323A090E0222311F080E090E00895F894609189
S11323B0AB027091AC028091AD029091AE02789420
S11323C00895F8946093AB027093AC028093AD02CD
S11323D09093AE027894089580916E01882381F0E1
S11323E05A9A0E94F60EEDEC8E9FE12D1124E6958B
S11323F0E695E695F0E0EC59FE4F808188B916C069
S11324005A980E94F60E9DEC899F912D1124969561
S113241096959695990F292F220F220F920F891BBB
S1132420E82FF0E0E65AFE4F808188B982E08A9571
S1132430F1F700C090916E0181E0891B80936E01D9
S113244008951F920F920FB60F9211242F933F936A
S11324504F935F936F937F938F939F93AF93BF93A8
S1132460EF93FF9380916F01882399F08091AB02E1
S11324709091AC02A091AD02B091AE020196A11D63
S1132480B11D8093AB029093AC02A093AD02B093C4
S1132490AE020E94EC110E945502FF91EF91BF9190
S11324A0AF919F918F917F916F915F914F913F91E8
S11324B02F910F900FBE0F901F90189510928500CA
S11324C010928400E1E8F0E080818A60808380E4F7
S11324D08093800088EE93E0909389008093880035
S11324E0559853980E94A20108959093890080936F
S11324F088000895559A08950E94F01288F09F5715
S113250098F0B92F9927B751B0F0E1F0660F771F13
S1132510881F991F1AF0BA95C9F714C0B13091F009
S11325200E940A13B1E008950C940A13672F782FC0
S11325308827B85F39F0B93FCCF3869577956795CE
S1132540B395D9F73EF490958095709561957F4F3A
S11325508F4F9F4F0895E89409C097FB3EF49095E0
S11325608095709561957F4F8F4F9F4F9923A9F068
S1132570F92F96E9BB279395F695879577956795F7
S1132580B795F111F8CFFAF4BB0F11F460FF1BC03B
S11325906F5F7F4F8F4F9F4F16C0882311F096E9CE
S11325A011C0772321F09EE8872F762F05C066237C
S11325B071F096E8862F70E060E02AF09A95660F35
S11325C0771F881FDAF7880F9695879597F90895EE
S11325D057FD9058440F551F59F05F3F71F04795D0
S11325E0880F97FB991F61F09F3F79F087950895B5
S11325F0121613061406551FF2CF4695F1DF08C0D4
S1132600161617061806991FF1CF869571056105F0
S113261008940895E894BB2766277727CB0197F998
S113262008950E9424130C9495130E94871338F084
S11326300E948E1320F0952311F00C947E130C94B9
S1132640841311240C940B130E94E81270F3959FC9
S1132650C1F3950F50E0551F629FF001729FBB2795
S1132660F00DB11D639FAA27F00DB11DAA1F649F31
S11326706627B00DA11D661F829F2227B00DA11DE4
S1132680621F739FB00DA11D621F839FA00D611D6A
S1132690221F749F3327A00D611D231F849F600D8B
S11326A0211D822F762F6A2F11249F5750409AF0B4
S11326B0F1F088234AF0EE0FFF1FBB1F661F771F40
S11326C0881F91505040A9F79E3F510580F00C940B
S11326D07E130C940B135F3FE4F3983ED4F386957A
S11326E077956795B795F795E7959F5FC1F7FE2BAB
S11326F0880F911D9695879597F9089597F99F6787
S113270080E870E060E008959FEF80EC0895002475
S11327100A941616170618060906089500240A9442
S113272012161306140605060895092E0394000CC8
S113273011F4882352F0BB0F40F4BF2B11F460FF57
S113274004C06F5F7F4F8F4F9F4F0895A1E21A2EF1
S1132750AA1BBB1BFD010DC0AA1FBB1FEE1FFF1F41
S1132760A217B307E407F50720F0A21BB30BE40B91
S1132770F50B661F771F881F991F1A9469F76095D8
S11327807095809590959B01AC01BD01CF01089592
S1132790052E97FB1EF400940E94DF1357FD07D00B
S11327A00E94A61307FC03D04EF40C94DF1350953B
S11327B04095309521953F4F4F4F5F4F0895909529
S11327C08095709561957F4F8F4F9F4F08958F929D
S11327D09F92AF92BF92CF92DF92EF92FF92CF93EC
S11327E0DF93EC01688179818A819B816115710590
S11327F08105910521F464E279ED8BE597E02DE103
S113280033EF41E050E00E94C81349015A019B0193
S1132810AC01A7EAB1E40E946A186B017C01ACEE3A
S1132820B4EFA50194010E947818DC01CB018C0D52
S11328309D1DAE1DBF1DB7FF03C00197A109B04880
S113284088839983AA83BB839F77DF91CF91FF907D
S1132850EF90DF90CF90BF90AF909F908F900895AE
S11328600E94E713089580E091E00E94E713089521
S1132870A0E0B0E08093000190930101A0930201D5
S1132880B093030108958F929F92AF92BF92CF921B
S1132890DF92EF92FF92CF93DF93EC01688179810D
S11328A08A819B81611571058105910521F464E29A
S11328B079ED8BE597E02DE133EF41E050E00E94A4
S11328C0C81349015A019B01AC01A7EAB1E40E9473
S11328D06A186B017C01ACEEB4EFA50194010E946F
S11328E07818DC01CB018C0D9D1DAE1DBF1DB7FFFB
S11328F003C00197A109B04888839983AA83BB8345
S1132900BC01CD019F77DF91CF91FF90EF90DF90D5
S1132910CF90BF90AF909F908F9008958F929F9289
S1132920AF92BF92CF92DF92EF92FF926091040137
S1132930709105018091060190910701611571055F
S11329408105910521F464E279ED8BE597E02DE1B1
S113295033EF41E050E00E94C81349015A019B0142
S1132960AC01A7EAB1E40E946A186B017C01ACEEE9
S1132970B4EFA50194010E947818DC01CB018C0D01
S11329809D1DAE1DBF1DB7FF03C00197A109B0482F
S11329908093040190930501A0930601B09307016D
S11329A0BC01CD019F77FF90EF90DF90CF90BF9057
S11329B0AF909F908F9008956093040170930501E8
S11329C080930601909307010895CF93DF93EC0160
S11329D02B8120FF33C026FF0AC02F7B2B838E81DF
S11329E09F8101969F838E838A8190E029C022FF74
S11329F00FC0E881F9818081082E000C990B0097A3
S1132A0019F420622B831AC03196F983E8830EC02F
S1132A10EA85FB85099597FF09C02B81019611F082
S1132A2080E201C080E1822B8B8308C02E813F812C
S1132A302F5F3F4F3F832E83992702C08FEF9FEF75
S1132A40DF91CF910895A0E0B0E0E9E2F5E10C94C4
S1132A508D18AE014B5F5F4FFA0161917191AF0127
S1132A608091E0039091E1030E949615E2E00C94BA
S1132A70A918A0E0B0E0EFE3F5E10C948B18AE01E7
S1132A80495F5F4FDA016D917D91AD010EED13E069
S1132A90F80182819381DC0113962C9113972860AD
S1132AA013962C930E949615D8011296ED91FC91E1
S1132AB013972381277F2383E4E00C94A718609164
S1132AC0E0037091E1030E948D1708950F931F9303
S1132AD0CF93DF93E091E003F091E103238121FFA1
S1132AE01BC08C01D0E0C0E0F80181918F0160919E
S1132AF0E0037091E103DB011896ED91FC911997C5
S1132B00882331F00995892B79F3DFEFCFEFECCFF0
S1132B108AE00995892B19F08FEF9FEF02C08D2F62
S1132B209C2FDF91CF911F910F910895ABE0B0E0FE
S1132B30ECE9F5E10C947D186C017B018A01FC0140
S1132B4017821682838181FFCCC1CE0101963C019C
S1132B50F6019381F70193FD859193FF81917F01A4
S1132B60882309F4BAC1853239F493FD859193FF22
S1132B7081917F01853229F4B60190E00E948D177E
S1132B80E7CF912C212C312CFFE1F315D8F08B32B7
S1132B9079F038F4803279F08332A1F4232D206166
S1132BA01DC08D3261F0803369F4232D216016C07D
S1132BB0832D8260382EE32DE4603E2E2AC0F32D4F
S1132BC0F8601DC037FC2DC020ED280F2A3040F0DE
S1132BD08E32B9F436FC81C1232D2064322E19C003
S1132BE036FE06C08AE0989E200D1124922E11C054
S1132BF0EAE02E9E200D1124222EF32DF0623F2EAA
S1132C0008C08C3621F4832D8068382E02C08836A3
S1132C1041F4F70193FD859193FF81917F01811127
S1132C20B3CF982F9F7D9554933028F40C5F1F4F9A
S1132C309FE399830DC0833631F0833771F0833578
S1132C4009F059C021C0F801808189830E5F1F4FAC
S1132C5088248394912C530113C02801F2E04F0E71
S1132C60511CF801A080B18036FE03C0692D70E0CC
S1132C7002C06FEF7FEFC5010E9482174C018201F1
S1132C80F32DFF773F2E16C0280122E0420E511C7F
S1132C90F801A080B18036FE03C0692D70E002C047
S1132CA06FEF7FEFC5010E9477174C01F32DF06899
S1132CB03F2E820133FC1BC0822D90E088169906BA
S1132CC0B0F4B60180E290E00E948D172A94F4CF0C
S1132CD0F50137FC859137FE81915F01B60190E0E3
S1132CE00E948D1721102A9421E0821A91088114E0
S1132CF0910471F7E8C0843611F0893641F5F80182
S1132D0037FE07C060817181828193810C5F1F4F00
S1132D1008C060817181072E000C880B990B0E5F2F
S1132D201F4FF32DFF763F2E97FF09C09095809596
S1132D30709561957F4F8F4F9F4FF0683F2E2AE02B
S1132D4030E0A3010E94C917882E861845C0853734
S1132D5031F4232D2F7EB22E2AE030E025C0932DAE
S1132D60997FB92E8F36C1F018F4883579F0B5C043
S1132D70803719F0883721F0B0C0E92FE061BE2E0A
S1132D80B4FE0DC0FB2DF460BF2E09C034FE0AC092
S1132D90292F2660B22E06C028E030E005C020E1CD
S1132DA030E002C020E132E0F801B7FE07C06081E4
S1132DB07181828193810C5F1F4F06C06081718194
S1132DC080E090E00E5F1F4FA3010E94C917882E78
S1132DD08618FB2DFF773F2E36FE0DC0232D2E7F48
S1132DE0A22E891458F434FE0BC032FC09C0832D82
S1132DF08E7EA82E05C0B82CA32C03C0B82C01C00D
S1132E00B92CA4FE0FC0FE01E80DF11D80818033B2
S1132E1021F49A2D997EA92E09C0A2FE06C0B3946E
S1132E20B39404C08A2D867809F0B394A3FC11C02E
S1132E30A0FE06C0B21488F4280C922C9B180EC075
S1132E40B21460F4B60180E290E00E948D17B3944E
S1132E50F7CFB21418F42B1802C0982C212CA4FE1E
S1132E6010C0B60180E390E00E948D17A2FE17C047
S1132E70A1FC03C088E790E002C088E590E0B601B9
S1132E800CC08A2D867859F0A1FE02C08BE201C0E5
S1132E9080E2A7FC8DE2B60190E00E948D178914B0
S1132EA038F4B60180E390E00E948D179A94F7CF2E
S1132EB08A94F301E80DF11D8081B60190E00E942F
S1132EC08D178110F5CF222009F442CEB60180E29D
S1132ED090E00E948D172A94F6CFF601868197819F
S1132EE002C08FEF9FEF2B96E2E10C949918FC013E
S1132EF00590615070400110D8F7809590958E0F21
S1132F009F1F0895FC016150704001900110D8F793
S1132F10809590958E0F9F1F08950F931F93CF93C5
S1132F20DF93FB01238121FD03C08FEF9FEF2CC0B2
S1132F3022FF16C0468157812481358142175307E9
S1132F4044F4A081B1819D012F5F3F4F31832083E1
S1132F508C93268137812F5F3F4F3783268314C09C
S1132F608B01EC01FB010084F185E02D0995892B8F
S1132F70E1F6D80116968D919C91179701961796B4
S1132F809C938E931697CE01DF91CF911F910F9151
S1132F900895FA01AA27283051F1203181F1E894EB
S1132FA06F936E7F6E5F7F4F8F4F9F4FAF4FB1E038
S1132FB03ED0B4E03CD0670F781F891F9A1FA11D33
S1132FC0680F791F8A1F911DA11D6A0F711D811D34
S1132FD0911DA11D20D009F468943F912AE0269FF9
S1132FE011243019305D3193DEF6CF010895462F58
S1132FF04770405D4193B3E00FD0C9F7F6CF462F39
S11330004F70405D4A3318F0495D31FD40524193A1
S113301002D0A9F7EACFB4E0A6959795879577955E
S11330206795BA95C9F700976105710508959B01E5
S1133030AC010A2E06945795479537952795BA956E
S1133040C9F7620F731F841F951FA01D0895DC012B
S1133050CB01FC01F999FECF06C0F2BDE1BDF89A9F
S1133060319600B40D9241505040B8F70895F99943
S1133070FECF92BD81BDF89A992780B50895A6E147
S1133080B0E044E050E00C942918DC01CB0103C00B
S11330902D910E94501841505040D0F70895262F8A
S11330A0F999FECF1FBA92BD81BD20BD0FB6F89429
S11330B0FA9AF99A0FBE01960895242F0E94501887
S11330C0252F0E9450180C9465180E944F18272F22
S11330D00C9450180E94B418A59F900DB49F900DA5
S11330E0A49F800D911D11240895B7FF0C946A18B4
S11330F00E946A18821B930B08952F923F924F925D
S11331005F926F927F928F929F92AF92BF92CF9273
S1133110DF92EF92FF920F931F93CF93DF93CDB77C
S1133120DEB7CA1BDB0B0FB6F894DEBF0FBECDBFF4
S113313009942A88398848885F846E847D848C84C5
S11331409B84AA84B984C884DF80EE80FD800C81CE
S11331501B81AA81B981CE0FD11D0FB6F894DEBFB1
S11331600FBECDBFED010895A29FB001B39FC00172
S1133170A39F700D811D1124911DB29F700D811D9F
S10D31801124911D0895F894FFCF67
S113318A01000000010000003D013701022F012760
S113319A01041F01170104F40190012C010000DC51
S11331AA05B80B941101002C019001F4010000945C
S11331BA11B80BDC050100F401C8000000B80BDCEF
S11331CA0500005802FE014B00B0040F0000000382
S11331DA00000000700DA80D00003F065B4F666DED
S11331EA7D077F6F00065B4F666D7D077F6F010168
S11331FA596F75277665207365742061206869673D
S113320A682073636F72652E20706C656173652024
S113321A73657420796F757220696E697469616C5B
S113322A2062656C6F773A200046697273743A209B
S113323A25632563256320256C75005365636F6ECA
S113324A643A2025632563256320256C7500546838
S113325A6972643A2025632563256320256C750009
S113326A466F757274683A202563256325632025A1
S113327A6C750046696674683A202563256325637C
S113328A20256C7500546865726520417265204377
S113329A757272656E746C79204E6F20486967681E
S11332AA53636F7265730041444320546573740019
S11332BA534E414B45204279203434333534333626
S11332CA390053636F72653A20256C7500536E6139
S11332DA6B650053636F72653A20200053636F7203
S10B32EA653A2025386C7500DB
S9030000FC
