:100000000C9420010C943D010C943D010C943D0195
:100010000C943D010C947D010C943D010C943D0128
:100020000C943D010C943D010C943D010C943D0158
:100030000C943D010C943D010C943D010C943D0148
:100040000C94B1120C943D010C943D010C943D01B3
:100050000C94D90E0C94970E0C943D010C943D0118
:100060000C943D010C943D010C943D010C943D0118
:100070000C943D010C943D010C943D0108000000DE
:10008000BE922449123EABAAAA2ABECDCCCC4C3E8D
:1000900000000080BEABAAAAAA3E00000000BF007C
:1000A0000000803F0000000000084178D3BB438778
:1000B000D1133D190E3CC3BD4282AD2B3E68EC828C
:1000C00076BED98FE1A93E4C80EFFFBE01C4FF7F11
:1000D0003F000000000023232348494748205343A2
:1000E0004F524553232323005072657373206120C0
:1000F000627574746F6E20746F20737461727420F3
:10010000616761696E0047414D45204F5645520079
:100110007B017801740170016C0168016401600168
:100120005C015801EA01E601E201DE01DA01D601D3
:10013000D201CE01CB01C701C301BF01BA01B60193
:10014000B201AE01A901A501A1019C019801930191
:100150008E01890184017F016492927D6C92926D7F
:10016000809EA0C17C92924DE4A2A29D182848FFD7
:100170004492926D468A926342FE037C92A27D86EF
:100180008A92A2C3E0100E10E1C6281028C7FC0214
:100190001C02FDF8040204F9FC0202FD8080FE80CE
:1001A000816492924DFE9098677C828A7C03FE90D7
:1001B00090617C82827DFE2010FFFE403040FFFE79
:1001C000020203FE1028C7040202FD82FE83FE1015
:1001D00010FF7C82925DFE909081FE929283FE825F
:1001E000827D7C828245FE92926D7E90907F435309
:1001F0005345323031302F3732303120536E616BFE
:10020000652050726F6A656374206279204A616369
:100210006B20456164696500536E616B65001B5B13
:100220003F323568001B5B3F32356C001B5B256439
:100230006D001B5B324A001B5B25643B2564480054
:1002400011241FBECFEFD8E0DEBFCDBF12E0A0E08B
:10025000B1E0ECE3F4E302C005900D92AA31B107DE
:10026000D9F723E0AAE1B2E001C01D92A13AB2079A
:10027000E1F70E94350B0C941C1A0C940000E8E680
:10028000F0E0808182608083D99AECE6F0E08081A2
:100290008F60808310921A02089510921A020895B6
:1002A00080911A0218163CF580911B026FB7F894E2
:1002B00090911A029230B4F021E030E091E0F9011F
:1002C000E55EFD4F4081F901E65EFD4F40839F5F93
:1002D000292F30E040911A02042E000C550B2417F0
:1002E00035076CF390911A02915090931A0266238D
:1002F0001CF4789408958FEF08951F920F920FB613
:100300000F9211242F933F934F935F936F937F939B
:100310008F939F93EF93FF9343B14F7080911A0295
:10032000883064F580E090E0642F70E09B01082E37
:1003300002C0359527950A94E2F720FF1BC0209153
:10034000230230E0082E02C0359527950A94E2F783
:1003500020FD10C0E0911A0221E02E0F20931A0216
:100360000E2E000CFF0BE55EFD4F808320911A02DC
:10037000283024F4019684309105C1F6409323027D
:10038000FF91EF919F918F917F916F915F914F912D
:100390003F912F910F900FBE0F901F90189589B12C
:1003A00083FB882780F90895CF92DF92EF92FF9226
:1003B0000F931F930E9464124091240250912502D2
:1003C0006A01550FEE08FF0800917702109178023C
:1003D0002091790230917A02C00ED11EE21EF31EE6
:1003E00021E030E06C157D058E059F0510F020E0C2
:1003F00030E0C9011F910F91FF90EF90DF90CF90F7
:100400000895809108019091090101969093090146
:1004100080930801880F991FFC01ED59FD4F8081E1
:1004200091810E9401130E9464126093770270937D
:1004300078028093790290937A02E0910801F0911A
:100440000901EE0FFF1FE359FD4F808191819093C9
:10045000250280932402089555988FEF9FEF909383
:10046000090180930801089583E090E0909362026F
:1004700080936102EDE6F2E084EF91E09183808366
:1004800028EC30E03383228395838483E3E6F2E033
:1004900080ED97E09183808328EE33E033832283DD
:1004A000958384838FEF9FEF9093090180930801D8
:1004B0000E9401020E94CF0181110E94061308953B
:1004C00082E090E09093620280936102EDE6F2E0B8
:1004D00082E390E09183808384E690E0938382833B
:1004E000E3E6F2E080ED97E09183808388EE93E08D
:1004F000938382838FEF9FEF90930901809308018C
:100500000E9401020E94CF0181110E9406130895EA
:1005100020916102309162022150310981E090E026
:1005200040910801509109014217530714F480E0EB
:1005300090E008950E94D401892B59F40E9488020A
:10054000892B39F067E08AE00E9480110E942C021A
:1005500008950E94D401892B11F40E94010208958C
:1005600080E891E00E948C1921E0611572418105BB
:10057000910509F020E0822F0895FF920F931F93B9
:10058000CF93DF93F89440E052E160E070E080E8C0
:1005900091E00E94A61980E00E941908682F80EA65
:1005A00091E00E94981981E00E941908682F88EA5A
:1005B00091E00E94981982E00E941908682F80EB50
:1005C00091E00E94981983E00E941908682F88EB37
:1005D00091E00E9498190E944F0B682F80EC91E0E7
:1005E0000E9498190E94BC10882341F00E940611B5
:1005F000682F88EC91E00E94981905C068E088ECAB
:1006000091E00E9498190E940109BC0180ED91E0DF
:100610000E94AE190E94DE0CAC01990F660B770B9D
:1006200080EE91E00E94A6190E94640F682F80E07E
:1006300092E00E9498190E946412AC01990F660B17
:10064000770B88E092E00E94A6190E94820F682F23
:1006500088E192E00E9498190E947F0FC82F0E94A3
:100660007C0F8C17E8F50E947F0FF82EC82FD0E082
:10067000C132D105ECF400E212E08C2F0E94670F2A
:10068000682FC8010E9498192196085F1F4FC13238
:10069000D10599F7CF2DD0E0D195C195D109CC0FD7
:1006A000DD1FCC0FDD1FCC0FDD1FC85FDE4F02C08A
:1006B000C0E0D0E000E010E00CC0802F0E94670F87
:1006C000682FCE01805E9D4F0E94981928960F5F7B
:1006D0001F4F0E947C0F90E08017910774F719C09C
:1006E0000E947F0F082F10E0C0E0D0E00CC0802FE8
:1006F0000E94670F682FCE01805E9D4F0E9498195F
:1007000028960F5F1F4F0E947C0F90E08017910783
:1007100074F768E0CE01805E9D4F0E94981978942E
:10072000DF91CF911F910F91FF900895CF93C82F24
:100730000E945B09882399F0E0917B020E2E000C49
:10074000FF0BE458FD4FC08363E370E08C2F90E013
:100750000E94390880917B028F5F80937B02CF914A
:1007600008950E948F0780EA91E00E94841990E02A
:100770000E94960388EA91E00E94841990E00E940A
:10078000960380EB91E00E94841990E00E9496030A
:1007900088EB91E00E94841990E00E9496030895EE
:1007A000CF9380EC91E00E948419C82F0E945B09CE
:1007B000882321F08C2F0E94520B02C00E944B0C08
:1007C000CF910895CF9388EC91E00E948419C82FAF
:1007D0000E945B09882321F08C2F0E94B61002C072
:1007E0000E94E510CF9108950F931F93CF93DF934D
:1007F00080E092E00E9484190E946D0F80E00E94C8
:10080000790F0E94640F81500E94760F10E0C0E2C1
:10081000D2E0CE010E948419082F612F0E94700F30
:1008200060EF70E0802F90E00E94390828961F5FEB
:10083000CE010E9484190E945B098111EACF0E94B7
:100840004D0F6FE070E090E00E94390888E192E07F
:100850000E9484190E94560FDF91CF911F910F9132
:1008600008950E94B002882361F10E94991188E0E6
:1008700092E00E948C190E94721280EE91E00E9418
:100880008C190E94E70C0E9452090E94E21180ED2F
:1008900091E00E9492190E9406090E944B0C0E944E
:1008A000EC120E9434020E94B1030E94D0030E9405
:1008B000E2030E94F4030E944D010E94920E1092E6
:1008C0002A020895811521E09207E9F038F4803C6E
:1008D000910591F0803E910561F011C0803221E0D8
:1008E000920721F08034914059F009C080E890E0EF
:1008F000089580E490E0089580E290E008950895DE
:1009000080EA90E0089580E690E008958F929F92AB
:10091000AF92BF92DF92EF92FF920F931F93CF930C
:10092000DF938C01EB010E948C194B015C01CE011D
:100930000E948419D82ECE0108960E948419E82EB0
:10094000CE0140960E948419F82EB501A401C80179
:1009500080960E94A6196D2DCE0180960E9498194E
:100960006E2DCE0188960E9498196F2DCE01C096EB
:100970000E949819DF91CF911F910F91FF90EF90F6
:10098000DF90BF90AF909F908F90089560E870E0E7
:1009900080E291E00E94860408950E94C60460E609
:1009A00070E080E091E00E94860408950E94CD04EA
:1009B00060E470E080EE90E00E94860408950E945A
:1009C000D60460E270E080EC90E00E948604089516
:1009D000CF93DF93EC016FE50E9498196FE5CE018C
:1009E00008960E9498196FE5CE0140960E949819CA
:1009F000DF91CF91089540E050E0BA0180EC90E0A3
:100A00000E94A61940E050E0BA0180EE90E00E94FA
:100A1000A61940E050E0BA0180E091E00E94A619DA
:100A200040E050E0BA0180E291E00E94A61940E067
:100A300050E0BA0180E491E00E94A61980E290E0C3
:100A40000E94E80480E490E00E94E80480E690E0E0
:100A50000E94E80480E890E00E94E80480EA90E0C8
:100A60000E94E80444E352E160E070E080E691E037
:100A70000E94A619089580E691E00E948C1921E059
:100A800030E0643372418105910511F020E030E0DF
:100A9000C9010895CF92DF92EF92FF920E94DE0C7F
:100AA0006B017C0180E491E00E948C19C616D70688
:100AB000E806F90640F40E943B0521E0892B09F085
:100AC00020E0822F01C081E0FF90EF90DF90CF9077
:100AD0000895CF92DF92EF92FF920E943B05892BFF
:100AE00009F442C00E94DE0C6B017C0180EC90E0B6
:100AF0000E948C196C157D058E059F05C0F10E9422
:100B0000DE0C6B017C0180EE90E00E948C196C156C
:100B10007D058E059F0570F10E94DE0C6B017C0146
:100B200080E091E00E948C196C157D058E059F0573
:100B300020F10E94DE0C6B017C0180E291E00E94BA
:100B40008C196C157D058E059F05D0F00E94DE0C7A
:100B50006B017C0180E491E00E948C196C157D058D
:100B60008E059F0580F011C080EC90E00EC080ECF7
:100B700090E00BC080EE90E008C080E091E005C0FE
:100B800080E291E002C080E491E0FF90EF90DF907E
:100B9000CF900895CF92DF92EF92FF921F93CF9361
:100BA000DF9344E352E160E070E080E691E00E9470
:100BB000A6190E946905803E910591F020F4803CC1
:100BC000910589F012C0811521E0920731F0803241
:100BD000914059F40E94C60408C00E94CD0405C08B
:100BE0000E94D60402C00E94DF040E94DE0C6B014A
:100BF0007C010E946905B701A6010E94A619C6E200
:100C0000D2E018810E9469050E946204612F0E944F
:100C1000981919810E9469050E946204612F089643
:100C20000E949819CA810E9469050E9462046C2F73
:100C300040960E9498190E949911DF91CF911F91BF
:100C4000FF90EF90DF90CF900895EF92FF920F9377
:100C50001F93CF93DF9368E08AE00E94801183E3C3
:100C600091E09F938F930E94B0160F900F9000E039
:100C700010E00F2EFBE9EF2EF3E0FF2EF02D0E9487
:100C8000B8110E948B0E8823D1F3F70180819181E6
:100C90000E947216EC01982F91549A3398F4033005
:100CA000110584F469E08AE0800F0E948011F80148
:100CB000EA5DFD4FC083CE0199270E94EC160F5FBD
:100CC0001F4FDDCF8A3021F410161106C4F611C073
:100CD0008F37A9F680E290E00E94EC1610161106FC
:100CE00014F40150110969E08AE0800F0E9480111C
:100CF000C6CFF999FECF0E94CA05DF91CF911F910F
:100D00000F91FF90EF900895EF92FF920F931F9332
:100D1000CF93DF936BE08AE00E94801186ED90E034
:100D20009F938F930E94C6166DE08AE00E94801107
:100D30000E943B050F900F90892B09F4DFC080ECD7
:100D400090E00E948C19162F072FF82EE92E80E3D1
:100D500090E00E948419D82F88E290E00E948419C4
:100D6000C82F80E290E00E948419EF92FF920F93C7
:100D70001F931F92DF931F92CF931F928F938CE646
:100D800091E09F938F930E94B0166EE08AE00E94DC
:100D9000801180EE90E00E948C19162F072FF82EFC
:100DA000E92E80E590E00E948419D82F88E490E035
:100DB0000E948419C82F80E490E00E948419EF9269
:100DC000FF920F931F931F92DF931F92CF931F9257
:100DD0008F938DE791E09F938F930E94B0166FE001
:100DE0008AE00E94801180E091E00E948C19162F09
:100DF000072FF82EE92E80E790E00E948419D82F63
:100E000088E690E00E948419C82F80E690E00E9456
:100E10008419EF92FF920F931F931F92DF931F92FB
:100E2000CF931F928F938FE891E09F938F930E94AF
:100E3000B0168DB79EB784960FB6F8949EBF0FBEBE
:100E40008DBF60E18AE00E94801180E291E00E9403
:100E50008C19162F072FF82EE92E80E990E00E94BA
:100E60008419D82F88E890E00E948419C82F80E860
:100E700090E00E948419EF92FF920F931F931F92AC
:100E8000DF931F92CF931F928F9380EA91E09F93FD
:100E90008F930E94B01661E18AE00E94801180E485
:100EA00091E00E948C19162F072FF82EE92E80EB67
:100EB00090E00E948419D82F88EA90E00E9484195B
:100EC000C82F80EA90E00E948419EF92FF920F935E
:100ED0001F931F92DF931F92CF931F928F9382EBEA
:100EE00091E09F938F930E94B0168DB79EB748965E
:100EF0000FB6F8949EBF0FBE8DBF0AC00E94FB04C0
:100F000082EC91E09F938F930E94B0160F900F9008
:100F1000DF91CF911F910F91FF90EF900895109264
:100F20007B02089530917B02131684F490917C0229
:100F3000891771F0EDE7F2E090E003C021912817E6
:100F400049F09F5F3913FACF8FEF08958FEF08951F
:100F500080E00895892F08950E94920791E08F3FC5
:100F600009F490E0892F0895FF920F931F93CF9378
:100F7000DF9380917B0288300CF044C000E010E0E9
:100F8000D0E0C0E002C00F5F1F4F2C2FCC0F330BFF
:100F90002D5F3F4F200F311F2F703078332334F4F3
:100FA00021503109206F3F6F2F5F3F4F822FC22F9B
:100FB0006D2FDD0F770B6B5F7F4F67707078772336
:100FC00034F461507109686F7F6F6F5F7F4FD62F68
:100FD0000E946109F82E03361105B1F00E94BA0F84
:100FE0008111D1CF8F2D0E94AC078111CCCF8F2DD5
:100FF0000E9409118111C7CF8F2D0E94440C8111CD
:10100000C2CF04C088E00FC088E00DC080917B0291
:10101000E82F082E000CFF0BE458FD4FF0828F5F85
:1010200080937B028F2DDF91CF911F910F91FF90C5
:101030000895E82F880FFF0BE458FD4F8081089535
:101040008823B4F020917B02821794F48F5F82177B
:1010500064F4E82F082E000CFF0BE458FD4F90813C
:10106000319790838F5F8217A4F3215020937B02E6
:1010700008951F93CF93DF93C82F162F0E9459090D
:10108000D82F8C2F0E945609412F6D2F0E940F09D7
:10109000DF91CF911F910895CF93DF930E94520962
:1010A0000E94E21188E592E090930B0180930A017F
:1010B0000E944B0C0E94EC120E9434020E942C0FE2
:1010C0000E944D0F6FE00E9439080E945B0F60EF95
:1010D0000E9439080E948F07C3E00E94B407D82FEE
:1010E0000E945B09882321F063E38D2F0E94390859
:1010F000C15099F7DF91CF91089580910A019091A5
:101100000B018B3F9105A4F060910A0170910B01D6
:1011100080E090E00E94AB1326E636E646E65FE309
:101120000E9491140E947C1370930B0160930A013A
:1011300008950F931F93CF93DF930E944D0FD82FE5
:101140000E94DD0FC82F88230CF455C081E090E089
:101150000E94C90C0E944D0F182F8EEF8C0F823009
:10116000C0F4812F0E9492070E9420080E94600212
:1011700082E090E00E94C90C0E947D080E94B407A2
:10118000082F0E945B09882321F063E3802F0E94CF
:1011900039088CEF8C0F823050F40E94FD1089E0EA
:1011A00090E00E94C90C0E947D080E9460028AEFB4
:1011B0008C0F823050F40E944B0C84E090E00E942F
:1011C000C90C0E947D080E946002CD7FC13011F0E1
:1011D000C53029F40E94850F60E00E94390860EF55
:1011E0008D2F0E9439086FE0812F0E9439080E94DC
:1011F0001F1281E001C080E0DF91CF911F910F911C
:10120000089580910A0190910B01089590930B012C
:1012100080930A01089580E80E94881008951F9322
:10122000CF93DF938031B0F46830A0F4142FC62F31
:10123000D82F81E00E94B0106C2F677080E1689F0A
:10124000900111248D2F8F70822B0E94B010812F5E
:101250000E94B010DF91CF911F9108950F931F93BB
:10126000CF93DF93803190F48B01C82F83E00E94ED
:10127000B0108C2F8F700E94B010E801085F1F4FD4
:1012800089910E94B010C017D107D1F7DF91CF919B
:101290001F910F91089584E00E94B01082E00E9497
:1012A000B01008958FE00E94B010089582958F705D
:1012B00008958F70089583FB882780F991E089272E
:1012C000089520E1829FC00111246770862B089544
:1012D0000E940B090E943F0140E060E07BE480E057
:1012E00090E00E94440E0E943C1278940895FF9270
:1012F0000F931F93CF93DF9380E00E94A2110E946F
:1013000099110E94AF110E94C1110E945209CFE0B1
:101310000F2EFFE0FF2EF02D0FEF10EFD5E16C2F19
:1013200084EE91E00E940D0D0DC02FE78CE293E05A
:10133000215080409040E1F700C000000E94500121
:101340008F3FA9F50E941C0D8111EFCF0E941B1643
:10135000DC01CB0183709927AA27B078BB2354F412
:101360000197A109B1098C6F9F6FAF6FBF6F019695
:10137000A11DB11D81309105A105B10591F02CF49D
:10138000892B8A2B8B2B59F0CACF82309105A1056E
:10139000B10549F00397A105B10539F0C0CFCD2FB4
:1013A000BECFCF2DBCCFC02FBACFC12FB8CFDF91CA
:1013B000CF911F910F91FF9008950E9499110E9463
:1013C0004C080E94C00C0E944D010E94920E08958C
:1013D0004F925F927F928F929F92AF92BF92CF92E5
:1013E000DF92EF92FF920F931F93CF93DF930E94B0
:1013F00064124B015C0100E01FEF0F2EFFED7F2E0A
:10140000F02D0F2EFBE94F2EF3E05F2EF02D0E9402
:10141000BF1081110E9416110E94D51081110E94E7
:10142000E5100E94AE0C81110E94C90B0E949A0225
:101430000E945B12892B19F00E944D0106C00E9488
:101440005001D82F8F3F09F09AC00E948B0E88233D
:1014500009F4A4C0F201808191810E947216C82F04
:10146000011103C08B3151F496C0013019F48B3552
:1014700029F493C0023009F488C07BC00E945B123B
:10148000892B09F03FC008C0D11109C001C000E09C
:1014900081E00E949C0F50C000E0D12F01C0C12FFD
:1014A000D23019F0812F813421F480E00E949C0F0A
:1014B00043C0D33011F0843421F483E00E949C0FA8
:1014C0003BC0D13011F0823429F482E00E949C0F9D
:1014D00033C000E08C2F8F7D803519F40E945412A8
:1014E0002BC0C33719F40E94BD0226C00E94B0026F
:1014F000892B11F18C2F8F7D8F34F1F481E0809353
:101500002A0262C08C2F8F7D803521F40E945412F4
:1015100000E012C000E0833519F40E94BD020CC047
:101520000E94B002892B41F08C2F8F7D8F3421F4E3
:1015300081E080932A0248C00E9464126B017C0102
:101540000E940109092E000CAA0BBB0B880D991DE6
:10155000AA1DBB1DC816D906EA06FB0608F457CF1C
:101560000E949908882381F10E9464124B015C015A
:101570004ECF0E945B12892B09F4ABCFC3CF0E94E0
:101580005B12892B09F480CF1CC00E945B12892B4F
:1015900051F000E013C001E001C002E00E945B12C4
:1015A000892B61F408C0C33409F471CF8C2F00E09B
:1015B000C12FD12F78CF0E94B002BECFC12F872D6F
:1015C000AACF0E94B002B8CFDF91CF911F910F91A7
:1015D000FF90EF90DF90CF90BF90AF909F908F9053
:1015E0007F905F904F9008950E94991165E08AE086
:1015F0000E94801186E091E09F938F930E94C6160F
:1016000067E08AE00E9480110E94DE0C9F938F9316
:101610007F936F9386EF91E09F938F930E94B01614
:101620000E9484060E944A052DB73EB7285F3F4FAF
:101630000FB6F8943EBF0FBE2DBF81110E94250644
:1016400069E08AE00E94801188EE90E09F938F937A
:101650000E94C6160E9484060F900F900E945001AF
:101660008F3FE1F30E94991108950E9468098FEF5E
:1016700081B9529A53980E94770980912A0288234F
:1016800019F00E94310402C00E94DD090E94E8099D
:1016900080912A028111F1CF0E94F40AEECF80914D
:1016A00084020895CF93DF93C82F809184020E9413
:1016B0005909D82F809184020E94560940E06D2F6D
:1016C0000E940F09C09384028C2F0E945909D82FC1
:1016D0008C2F0E94560943E36D2F0E940F09DF9162
:1016E000CF910895CF93C82F0E94BA0F81110DC0DA
:1016F0008C2F0E94AC0781110AC08C2F0E94091107
:1017000091E0811105C090E003C091E001C091E03B
:10171000892FCF9108951F93CF93DF93182F809136
:1017200084020E945609C82F809184020E945909A0
:10173000D82F8FEF8C0F8E3020F48FEF8D0F8630E7
:10174000E8F0C11106C0812F0E9456098F3041F484
:1017500017C0CF3029F4812F0E945609882391F0B9
:10176000D11105C0812F0E94590981E00EC0D730E8
:1017700059F4812F0E94590981E007C080E005C01B
:1017800081E003C081E001C081E0DF91CF911F9132
:1017900008950F931F93CF93DF9360E080E00E9442
:1017A0006109082F0E94C01583709078992324F452
:1017B00001978C6F9F6F019610E009C0CE01837076
:1017C0009078992324F401978C6F9F6F0196813054
:1017D000A9F028F0823009F1833071F13BC080918B
:1017E00084020E945909C82F809184020E945609E0
:1017F00061E06C0F0E946109082F2CC08091840267
:101800000E945909C82F809184020E9456096FEFE7
:101810006C0F0E946109082F1DC0809184020E94F4
:101820005909C82F809184020E9456096C2F8F5F3E
:101830000E946109082F0EC0809184020E945909FC
:10184000C82F809184020E9456096C2F81500E94FB
:101850006109082F1F5F0E94C015EC01143061F070
:10186000802F0E94720B8111A9CF802F0E948B0BB9
:101870008111A4CF153018F4802F0E94520BDF91F4
:10188000CF911F910F91089591E020918402281328
:1018900090E0892F08951F93CF93DF930E94C01586
:1018A000EC010E94C015BC0167707078772334F496
:1018B00061507109686F7F6F6F5F7F4FCE018F70CE
:1018C0009078992324F40197806F9F6F01960E946E
:1018D0006109C82F13E61EC00E94C015EC010E94CA
:1018E000C015BC0167707078772334F461507109BA
:1018F000686F7F6F6F5F7F4FCE018F7090789923F5
:1019000024F40197806F9F6F01960E946109C82F90
:10191000115091F08C2F0E94BA0F8111DDCF8C2FC6
:101920000E94AC078111D8CF0E9406118C17A1F23A
:10193000809184028C1781F2C09384028C2F0E94C4
:101940005909C82F809184020E9456094CE36C2FDC
:101950000E940F09DF91CF911F9108950E94641298
:1019600020910C0130910D0140E050E00E943315B0
:1019700021E0672B682B692B09F020E0822F089566
:1019800010922B0210922C0210922D0210922E0215
:10199000089540912B0250912C0260912D0270917C
:1019A0002E02480F591F611D711D40932B02509349
:1019B0002C0260932D0270932E02089560912B02E9
:1019C00070912C0280912D0290912E0208956093C7
:1019D0002B0270932C0280932D0290932E02089577
:1019E00060912B0270912C0280912D0290912E0219
:1019F000611571058105910571F00E94AB130E947C
:101A0000391420E030E040E85FE30E9409130E94AF
:101A10007513862F089581E0089560930E019093C9
:101A200033028093320210923502109234021092E7
:101A300031021092300208950F931F93CF93DF93DA
:101A4000CDB7DEB728970FB6F894DEBF0FBECDBF77
:101A5000E0913402F0913502309781F0149110FF3B
:101A600006C0109235021092340200E06BC031962D
:101A7000F0933502E093340200E064C0E09130025C
:101A8000F0913102309709F449C0CF01019690934B
:101A9000310280933002E081E1110AC010923102DC
:101AA0001092300280E180932F0200E010E04AC0E3
:101AB0008FE98E0F8A3170F4F0E0EE0FFF1FEE59C0
:101AC000FF4F85919491909335028093340200E00A
:101AD00010E038C08FEB8E0F8A3170F4F0E0EE0F1B
:101AE000FF1FEE55FF4F859194919093350280939F
:101AF000340200E010E026C080ED8E0F8A3000F541
:101B0000F0E0EE0FFF1FE055FF4F85919491909309
:101B100035028093340200E010E014C0809132025C
:101B20009091330201E0009709F000E090933102B8
:101B300080933002109233021092320210E002C001
:101B400000E010E00E944B0920910E01FE01389642
:101B5000CE010196112314F4208301C01082110FCD
:101B60003197E817F907B1F71982BE016F5F7F4F10
:101B70008FE00E942E0980912F02882389F08150E6
:101B800080932F02002311F0882311F090E003C00E
:101B900091E001C091E081E0992329F080E003C049
:101BA0000023A1F3F7CF28960FB6F894DEBF0FBE3F
:101BB000CDBFDF91CF911F910F910895CF93C82F83
:101BC0008A3019F48DE00E94DE0D9FB7907802C034
:101BD000992329F1809186028F3FD1F3F894E09107
:101BE000850281E08E0F80938502F0E0E957FD4F7A
:101BF000C083809186028F5F8093860280918502E8
:101C00008F3F11F410928502E1ECF0E08081806258
:101C10008083992339F0789480E090E005C081E0DA
:101C200090E002C080E090E0CF9108958091980309
:101C30008823E1F32FB72078F894809186033091C0
:101C4000980390E0831B91095AF4E09186038091F8
:101C50009803F0E0E81BF109E956FC4F80810AC0C7
:101C6000E091860380919803F0E0E81BF109E957C1
:101C7000FC4F808190919803915090939803222378
:101C800009F0789490E008951092850210928602EF
:101C90001092860310929803109297034093360295
:101CA000DC01CB01880F991FAA1FBB1F880F991F4A
:101CB000AA1FBB1F9C01AD01220F331F441F551FDC
:101CC00060E072E18AE790E00E945515BA01A9012F
:101CD0004F5F5F4F6F4F7F4FDB01CA011AF40196D0
:101CE000A11DB11DB595A7959795879501979093DF
:101CF000C5008093C400E1ECF0E088E1808380813E
:101D000080688083EBE9F3E08FE091E09383828346
:101D10009183808308959091980381E0911101C08F
:101D200080E00895109286031092980308951F9200
:101D30000F920FB60F9211242F938F939F93EF93CF
:101D4000FF9380918602882329F18091850220915A
:101D5000860290E0821B91095AF4E09185028091FD
:101D60008602F0E0E81BF109EA57FC4F90810AC0B7
:101D7000E091850280918602F0E0E81BF109E957C5
:101D8000FD4F9081809186028150809386029093CE
:101D9000C60005C0E1ECF0E080818F7D8083FF917B
:101DA000EF919F918F912F910F900FBE0F901F90E9
:101DB00018951F920F920FB60F9211242F933F93F5
:101DC0004F935F936F937F938F939F93AF93BF9343
:101DD000CF93EF93FF93C091C60080913602882382
:101DE00049F0809186028F3F29F060E070E08C2FEF
:101DF0000E94DE0D80919803803120F081E0809375
:101E0000970318C0CD3009F4CAE0E091860381E061
:101E10008E0F80938603F0E0E957FC4FC0838091DA
:101E200098038F5F8093980380918603803111F42B
:101E300010928603FF91EF91CF91BF91AF919F9147
:101E40008F917F916F915F914F913F912F910F9063
:101E50000FBE0F901F9018950F931F93CF9382E0A2
:101E600080933B0210923902C1E0C0933A0261E0D4
:101E700081E00E9461090CE312E0F801808361E0D7
:101E800082E00E946109F8018183C0933802C09307
:101E90003702CF911F910F910895E0913A020E2ED3
:101EA000000CFF0BE45CFD4F8081089580933802A5
:101EB000809337020895E09139020E2E000CFF0B3B
:101EC000E45CFD4F8081089580913B020895E82FE6
:101ED000F0E0E45CFD4F8081089580933B0208951B
:101EE000E62FF0E0E45CFD4F8083089580933A0292
:101EF000089580933902089580913A02089580915F
:101F00003902089580913802089590913902E92F9D
:101F1000092E000CFF0BE45CFD4F80819F5F913226
:101F200019F09093390202C01092390290913B024D
:101F3000915090933B020895909138029130A9F00E
:101F400028F0923041F0933059F00895823089F0B2
:101F5000809337020895882361F0809337020895B3
:101F6000813039F0809337020895833011F08093E7
:101F7000370208959091390230913A0240E00DC045
:101F8000E92F092E000CFF0BE45CFD4F2081281780
:101F900089F09F5F91320CF0942F9313F1CFE32FD0
:101FA000330FFF0BE45CFD4F91E02081281719F0FF
:101FB00090E001C091E0892F0895CF93DF93809145
:101FC0003B02813208F096C0E0913A020E2E000CDE
:101FD000FF0BE45CFD4F80810E945609D82FC82F6B
:101FE000E0913A020E2E000CFF0BE45CFD4F808165
:101FF0000E945909682F90913702913059F028F0CA
:10200000923069F0933081F01BC0873091F061E02D
:10201000680F16C0DF3079F0C1E0CD0F11C0882302
:1020200061F06FEF680F0CC0DD2349F0CFEFCD0FEB
:1020300007C060E005C0C0E003C067E001C0CFE0BA
:102040008C2F0E946109C82F80913702909138022D
:10205000981741F0809338020E94CF01892B11F02C
:102060000E9460028C2F0E94BA0F882351F0E091E9
:1020700039020E2E000CFF0BE45CFD4F8081C8136B
:102080003BC080913A028F5F813219F080933A020F
:1020900002C010923A02E0913A020E2E000CFF0BA1
:1020A000E45CFD4FC08380913B028F5F80933B02D5
:1020B0008C2F90E00E94440C892B31F080913B02E0
:1020C0008132E0F087E021C08C2F0E940911882323
:1020D00031F080913B02813298F085E016C08C2F60
:1020E0000E94AC07882371F080913B02813260F03E
:1020F00083E00BC08DEF09C08EEF07C086E005C0FE
:1021000084E003C081E001C082E0DF91CF910895B7
:1021100094B1906B94B92C9A90E59CBD883021F0D5
:10212000803211F0823019F491E09DBD01C01DBCD8
:10213000803269F028F4883071F0803161F00EC08F
:10214000803429F0803851F48CB581608CBD8CB519
:1021500082608CBD03C08CB581608CBD2C980895C5
:102160008EBD0DB407FEFDCF8EB508958093990303
:1021700081E080939A03089580919A0308950E94C4
:10218000641268597A438109910920E23EE440E0F3
:1021900050E00E943315672B682B692B21F40E94B5
:1021A000641281E0089580E008950E94641220E2A4
:1021B0003EE440E050E00E94331521E0672B682B9D
:1021C000692B09F020E0822F0895CF938091990325
:1021D0000E945909C82F809199030E94560940E036
:1021E0006C2F0E940F0960E080E00E9461098093DB
:1021F000990310929A03CF91089560E080E00E94C5
:1022000061098093990310929A030895809199032C
:10221000089590919A03992339F091E020919903C0
:10222000281390E0892F089580E008951F93CF939D
:10223000DF930E94E5100E94C015EC010E94C015BA
:10224000BC0167707078772334F461507109686F4E
:102250007F6F6F5F7F4FCE018F709078992324F44A
:102260000197806F9F6F01960E946109C82F13E646
:102270001EC00E94C015EC010E94C015BC01677011
:102280007078772334F461507109686F7F6F6F5FE6
:102290007F4FCE018F709078992324F40197806F3F
:1022A0009F6F01960E946109C82F1150A1F08C2FD9
:1022B0000E94BA0F8111DDCF8C2F0E94AC078111D3
:1022C000D8CF8C2F0E9409118111D3CF8C2F0E945F
:1022D000440C8111CECFC09399038C2F0E945909D1
:1022E000C82F809199030E9456094CE36C2F0E94DD
:1022F0000F0981E080939A03DF91CF911F91089598
:10230000282F082E000C330B3F938F93862F062E19
:10231000000C990B9F936F9387E392E09F938F93A9
:102320000E94C6160F900F900F900F900F900F9075
:10233000089582E392E09F938F930E94C6160F90B8
:102340000F9008951F928F938CE292E09F938F934A
:102350000E94C6160F900F900F900F90089585E27F
:1023600092E09F938F930E94C6160F900F9008954E
:102370008EE192E09F938F930E94C6160F900F906C
:10238000089563E083E00E94801188E192E09F93CA
:102390008F930E94C61665E083E00E94801180E260
:1023A0000E94A2118EEE91E09F938F930E94C61619
:1023B00085E20E94A2110E9484060F900F900F9058
:1023C0000F9008950E94AF1161E08AE00E94801191
:1023D00080E092E09F938F930E94B01663E081E0CB
:1023E0000E9480110E94DE0C9F938F937F936F93C6
:1023F00086E092E09F938F930E94B0160E94F00CAB
:1024000063E094E1981B892F0E9480110E94DE0CEA
:102410009F938F937F936F938DEF91E09F938F9313
:102420000E94B01663E08AE00E9480118DB79EB7CB
:102430000E960FB6F8949EBF0FBE8DBF08950E94F2
:10244000AF110E94F00C63E094E1981B892F0E9469
:1024500080110E94DE0C9F938F937F936F938DEF7B
:1024600091E09F938F930E94B0160F900F900F9062
:102470000F900F900F90089510925D0210925E02DF
:1024800010925F021092600216BC8CE787BD82E05A
:1024900084BD83E085BDEEE6F0E0808182608083CC
:1024A00085B3827085BB089590911D0181E0891BE1
:1024B00080931D01089520911D0181E090E0222369
:1024C00011F080E090E008952FB7F89460915D02DC
:1024D00070915E0280915F029091600222230CF461
:1024E000789408952FB7F89460935D0270935E021C
:1024F00080935F029093600222230CF478940895F5
:1025000080913201882381F05A9A0E94640FEDEC89
:102510008E9FE12D1124E695E695E695F0E0E85DC5
:10252000FE4F808182B916C05A980E94640F9DECBC
:10253000899F912D1124969596959695990F292FFF
:10254000220F220F920F891BE82FF0E0E25EFE4F70
:10255000808182B99091320181E0891B80933201A0
:1025600008951F920F920FB60F9211242F933F934D
:102570004F935F936F937F938F939F93AF93BF938B
:10258000EF93FF9380911D01882399F080915D0264
:1025900090915E02A0915F02B09160020196A11D30
:1025A000B11D80935D0290935E02A0935F02B09391
:1025B00060020E948012FF91EF91BF91AF919F91B5
:1025C0008F917F916F915F914F913F912F910F90DC
:1025D0000FBE0F901F9018951092850010928400E6
:1025E000E1E8F0E080818A60808380E4809380006D
:1025F00088EE93E0909389008093880055985398D3
:10260000089590938900809388000895559A0895BD
:102610005058BB27AA270E9420130C94FF130E9436
:10262000F11338F00E94F81320F039F49F3F19F4A9
:1026300026F40C94EE130EF4E095E7FB0C94E813EB
:10264000E92F0E94101458F3BA1762077307840722
:10265000950720F079F4A6F50C9432140EF4E09569
:102660000B2EBA2FA02D0B01B90190010C01CA014C
:10267000A0011124FF27591B99F0593F50F4503EF7
:1026800068F11A16F040A22F232F342F4427585FE9
:10269000F3CF469537952795A795F0405395C9F701
:1026A0007EF41F16BA0B620B730B840BBAF09150B9
:1026B000A1F0FF0FBB1F661F771F881FC2F70EC058
:1026C000BA0F621F731F841F48F48795779567952B
:1026D000B795F7959E3F08F0B0CF9395880F08F017
:1026E0009927EE0F9795879508950E947C1368941B
:1026F000B1110C94331408950E94181488F09F5758
:1027000098F0B92F9927B751B0F0E1F0660F771F15
:10271000881F991F1AF0BA95C9F714C0B13091F00B
:102720000E943214B1E008950C943214672F782F70
:102730008827B85F39F0B93FCCF3869577956795D0
:10274000B395D9F73EF490958095709561957F4F3C
:102750008F4F9F4F0895E89409C097FB3EF49095E2
:102760008095709561957F4F8F4F9F4F9923A9F06A
:10277000F92F96E9BB279395F695879577956795F9
:10278000B795F111F8CFFAF4BB0F11F460FF1BC03D
:102790006F5F7F4F8F4F9F4F16C0882311F096E9D0
:1027A00011C0772321F09EE8872F762F05C066237E
:1027B00071F096E8862F70E060E02AF09A95660F37
:1027C000771F881FDAF7880F9695879597F90895F0
:1027D00097F99F6780E870E060E008959FEF80ECD4
:1027E000089500240A941616170618060906089577
:1027F00000240A9412161306140605060895092EDD
:102800000394000C11F4882352F0BB0F40F4BF2B4B
:1028100011F460FF04C06F5F7F4F8F4F9F4F08958B
:1028200057FD9058440F551F59F05F3F71F0479581
:10283000880F97FB991F61F09F3F79F08795089566
:10284000121613061406551FF2CF4695F1DF08C085
:10285000161617061806991FF1CF869571056105A2
:1028600008940895E894BB2766277727CB0197F94A
:1028700008950E94491429ED3BE54EED5EE30C946A
:10288000911416F00C94FE140C94EE1368940C94AE
:10289000E8130E941814A8F39923C1F3AEF3DF9351
:1028A000CF931F930F93FF92C92FDD2788232AF020
:1028B0002197660F771F881FDAF720E030E040E8A5
:1028C0005FEB9FE3883920F0803E38F021968F77C8
:1028D0000E940913ECE7F0E004C00E940913E9EA42
:1028E000F0E00E940C158B01BE01EC01FB2E6F572E
:1028F00071097595771F880B990B0E94AD1328E11C
:1029000032E741E35FE30E94A414AF2D9801AE01CA
:10291000FF900F911F91CF91DF910E9420130C9493
:10292000FF130E94A4140C94FF130E94F11338F0BB
:102930000E94F81320F0952311F00C94E8130C94E6
:10294000EE1311240C9433140E94101470F3959F0D
:10295000C1F3950F50E0551F629FF001729FBB2796
:10296000F00DB11D639FAA27F00DB11DAA1F649F32
:102970006627B00DA11D661F829F2227B00DA11DE5
:10298000621F739FB00DA11D621F839FA00D611D6B
:10299000221F749F3327A00D611D231F849F600D8C
:1029A000211D822F762F6A2F11249F5750409AF0B5
:1029B000F1F088234AF0EE0FFF1FBB1F661F771F41
:1029C000881F91505040A9F79E3F510580F00C940C
:1029D000E8130C9433145F3FE4F3983ED4F38695E8
:1029E00077956795B795F795E7959F5FC1F7FE2BAC
:1029F000880F911D9695879597F908959F3F31F01F
:102A0000915020F4879577956795B795880F911D1C
:102A10009695879597F90895DF93CF931F930F931A
:102A2000FF92EF92DF927B018C01689406C0DA2E50
:102A3000EF010E94A414FE01E894A591259135911F
:102A400045915591A6F3EF010E942013FE019701D5
:102A5000A801DA9469F7DF90EF90FF900F911F9132
:102A6000CF91DF910895A1E21A2EAA1BBB1BFD0195
:102A70000DC0AA1FBB1FEE1FFF1FA217B307E4075D
:102A8000F50720F0A21BB30BE40BF50B661F771FB5
:102A9000881F991F1A9469F7609570958095909595
:102AA0009B01AC01BD01CF010895052E97FB1EF4DB
:102AB00000940E946C1557FD07D00E94331507FC47
:102AC00003D04EF40C946C1550954095309521959B
:102AD0003F4F4F4F5F4F089590958095709561954A
:102AE0007F4F8F4F9F4F08958F929F92AF92BF92CB
:102AF000CF92DF92EF92FF92CF93DF93EC01688148
:102B000079818A819B81611571058105910521F487
:102B100064E279ED8BE597E02DE133EF41E050E0A1
:102B20000E94551549015A019B01AC01A7EAB1E485
:102B30000E94C3196B017C01ACEEB4EFA5019401B6
:102B40000E94D119DC01CB018C0D9D1DAE1DBF1D56
:102B5000B7FF03C00197A109B04888839983AA836E
:102B6000BB839F77DF91CF91FF90EF90DF90CF9065
:102B7000BF90AF909F908F9008950E947415089514
:102B800080E091E00E9474150895A0E0B0E0809389
:102B9000000190930101A0930201B09303010895F5
:102BA0008F929F92AF92BF92CF92DF92EF92FF925D
:102BB000CF93DF93EC01688179818A819B816115D4
:102BC00071058105910521F464E279ED8BE597E0CB
:102BD0002DE133EF41E050E00E94551549015A01C3
:102BE0009B01AC01A7EAB1E40E94C3196B017C010F
:102BF000ACEEB4EFA50194010E94D119DC01CB0128
:102C00008C0D9D1DAE1DBF1DB7FF03C00197A1090F
:102C1000B04888839983AA83BB83BC01CD019F7789
:102C2000DF91CF91FF90EF90DF90CF90BF90AF906A
:102C30009F908F9008958F929F92AF92BF92CF9264
:102C4000DF92EF92FF9260910401709105018091F3
:102C5000060190910701611571058105910521F427
:102C600064E279ED8BE597E02DE133EF41E050E050
:102C70000E94551549015A019B01AC01A7EAB1E434
:102C80000E94C3196B017C01ACEEB4EFA501940165
:102C90000E94D119DC01CB018C0D9D1DAE1DBF1D05
:102CA000B7FF03C00197A109B04880930401909336
:102CB0000501A0930601B0930701BC01CD019F77E8
:102CC000FF90EF90DF90CF90BF90AF909F908F904C
:102CD0000895609304017093050180930601909319
:102CE00007010895CF93DF93EC012B8120FF33C0C0
:102CF00026FF0AC02F7B2B838E819F8101969F83A5
:102D00008E838A8190E029C022FF0FC0E881F9817B
:102D10008081082E000C990B009719F420622B83F8
:102D20001AC03196F983E8830EC0EA85FB850995C0
:102D300097FF09C02B81019611F080E201C080E16C
:102D4000822B8B8308C02E813F812F5F3F4F3F83B3
:102D50002E83992702C08FEF9FEFDF91CF910895C7
:102D6000A0E0B0E0E6EBF6E10C94E619AE014B5FB3
:102D70005F4FFA0161917191AF0180919D03909134
:102D80009E030E94F316E2E00C94021AA0E0B0E069
:102D9000ECECF6E10C94E419AE01495F5F4FDA0107
:102DA0006D917D91AD010BE913E0F8018281938172
:102DB000DC0113962C911397286013962C930E9494
:102DC000F316D8011296ED91FC9113972381277F7A
:102DD0002383E4E00C94001A60919D0370919E039C
:102DE0000E94EA180895ABE0B0E0E9EFF6E10C9438
:102DF000D6196C017B018A01FC011782168283813E
:102E000081FFCCC1CE0101963C01F6019381F7010F
:102E100093FD859193FF81917F01882309F4BAC1C5
:102E2000853239F493FD859193FF81917F0185323D
:102E300029F4B60190E00E94EA18E7CF912C212CEA
:102E4000312CFFE1F315D8F08B3279F038F4803271
:102E500079F08332A1F4232D20611DC08D3261F001
:102E6000803369F4232D216016C0832D8260382EB3
:102E7000E32DE4603E2E2AC0F32DF8601DC037FC20
:102E80002DC020ED280F2A3040F08E32B9F436FCE8
:102E900081C1232D2064322E19C036FE06C08AE07F
:102EA000989E200D1124922E11C0EAE02E9E200D36
:102EB0001124222EF32DF0623F2E08C08C3621F40F
:102EC000832D8068382E02C0883641F4F70193FDC7
:102ED000859193FF81917F018111B3CF982F9F7DC1
:102EE0009554933028F40C5F1F4F9FE399830DC0D6
:102EF000833631F0833771F0833509F059C021C032
:102F0000F801808189830E5F1F4F88248394912C60
:102F1000530113C02801F2E04F0E511CF801A080AC
:102F2000B18036FE03C0692D70E002C06FEF7FEF05
:102F3000C5010E94DF184C018201F32DFF773F2E5F
:102F400016C0280122E0420E511CF801A080B18079
:102F500036FE03C0692D70E002C06FEF7FEFC50140
:102F60000E94D4184C01F32DF0683F2E820133FCEF
:102F70001BC0822D90E088169906B0F4B60180E25D
:102F800090E00E94EA182A94F4CFF50137FC85916D
:102F900037FE81915F01B60190E00E94EA1821108E
:102FA0002A9421E0821A91088114910471F7E8C0F3
:102FB000843611F0893641F5F80137FE07C060818B
:102FC0007181828193810C5F1F4F08C06081718184
:102FD000072E000C880B990B0E5F1F4FF32DFF7609
:102FE0003F2E97FF09C090958095709561957F4F12
:102FF0008F4F9F4FF0683F2E2AE030E0A3010E94E0
:103000002619882E861845C0853731F4232D2F7E4A
:10301000B22E2AE030E025C0932D997FB92E8F364D
:10302000C1F018F4883579F0B5C0803719F08837C9
:1030300021F0B0C0E92FE061BE2EB4FE0DC0FB2D23
:10304000F460BF2E09C034FE0AC0292F2660B22EBC
:1030500006C028E030E005C020E130E002C020E1F9
:1030600032E0F801B7FE07C06081718182819381EF
:103070000C5F1F4F06C06081718180E090E00E5FA1
:103080001F4FA3010E942619882E8618FB2DFF775B
:103090003F2E36FE0DC0232D2E7FA22E891458F40C
:1030A00034FE0BC032FC09C0832D8E7EA82E05C0D5
:1030B000B82CA32C03C0B82C01C0B92CA4FE0FC09F
:1030C000FE01E80DF11D8081803321F49A2D997E57
:1030D000A92E09C0A2FE06C0B394B39404C08A2DE1
:1030E000867809F0B394A3FC11C0A0FE06C0B21408
:1030F00088F4280C922C9B180EC0B21460F4B60110
:1031000080E290E00E94EA18B394F7CFB21418F46A
:103110002B1802C0982C212CA4FE10C0B60180E30D
:1031200090E00E94EA18A2FE17C0A1FC03C088E745
:1031300090E002C088E590E0B6010CC08A2D867848
:1031400059F0A1FE02C08BE201C080E2A7FC8DE233
:10315000B60190E00E94EA18891438F4B60180E3C1
:1031600090E00E94EA189A94F7CF8A94F301E80D50
:10317000F11D8081B60190E00E94EA188110F5CF20
:10318000222009F442CEB60180E290E00E94EA18C3
:103190002A94F6CFF6018681978102C08FEF9FEFC8
:1031A0002B96E2E10C94F219FC01059061507040FD
:1031B0000110D8F7809590958E0F9F1F0895FC0100
:1031C0006150704001900110D8F7809590958E0F56
:1031D0009F1F08950F931F93CF93DF93FB012381CC
:1031E00021FD03C08FEF9FEF2CC022FF16C0468148
:1031F0005781248135814217530744F4A081B1815E
:103200009D012F5F3F4F318320838C93268137812F
:103210002F5F3F4F3783268314C08B01EC01FB01E6
:103220000084F185E02D0995892BE1F6D8011696E9
:103230008D919C911797019617969C938E93169754
:10324000CE01DF91CF911F910F910895FA01AA2726
:10325000283051F1203181F1E8946F936E7F6E5FD9
:103260007F4F8F4F9F4FAF4FB1E03ED0B4E03CD087
:10327000670F781F891F9A1FA11D680F791F8A1F6A
:10328000911DA11D6A0F711D811D911DA11D20D0D1
:1032900009F468943F912AE0269F11243019305D8B
:1032A0003193DEF6CF010895462F4770405D41937C
:1032B000B3E00FD0C9F7F6CF462F4F70405D4A33C9
:1032C00018F0495D31FD4052419302D0A9F7EACF91
:1032D000B4E0A6959795879577956795BA95C9F7C0
:1032E00000976105710508959B01AC010A2E0694B3
:1032F0005795479537952795BA95C9F7620F731F6C
:10330000841F951FA01D0895F999FECF92BD81BD20
:10331000F89A992780B50895A6E1B0E044E050E01E
:103320000C94B519A8E1B0E042E050E00C94B51956
:10333000262FF999FECF1FBA92BD81BD20BD0FB6D1
:10334000F894FA9AF99A0FBE01960895242F0E94D4
:103350009919252F0E9499190C94AE190E94981959
:10336000272F0C949919DC01CB01FC01F999FECFB0
:1033700006C0F2BDE1BDF89A319600B40D924150FD
:103380005040B8F708950E940D1AA59F900DB49F64
:10339000900DA49F800D911D11240895B7FF0C94EA
:1033A000C3190E94C319821B930B08952F923F9259
:1033B0004F925F926F927F928F929F92AF92BF9245
:1033C000CF92DF92EF92FF920F931F93CF93DF93F1
:1033D000CDB7DEB7CA1BDB0B0FB6F894DEBF0FBE4E
:1033E000CDBF09942A88398848885F846E847D849B
:1033F0008C849B84AA84B984C884DF80EE80FD809D
:103400000C811B81AA81B981CE0FD11D0FB6F89412
:10341000DEBF0FBECDBFED010895A29FB001B39FE7
:10342000C001A39F700D811D1124911DB29F700DCD
:0C343000811D1124911D0895F894FFCF18
:10343C000100000001000000FFFF5802B0040F0063
:10344C0000000300000000DE0D160E0000013F0618
:10345C005B4F666D7D077F6F00065B4F666D7D076A
:10346C007F6F01596F752776652073657420612015
:10347C00686967682073636F72652E20706C656174
:10348C0073652073657420796F757220696E697429
:10349C0069616C2062656C6F773A200046697273C3
:1034AC00743A2025632563256320256400536563E6
:1034BC006F6E643A202563256325632025640054D0
:1034CC00686972643A2025632563256320256400AE
:1034DC00466F75723A202563256325632025642089
:1034EC000A00466976653A20256325632563202505
:1034FC006400546865726520417265204375727270
:10350C00656E746C79204E6F204869676853636FE1
:10351C0072657300534E414B45204279203434334D
:10352C0035343336390053636F72653A2025750094
:10353C00536E616B650053636F72653A0909090933
:0A354C000909202020202020200083
:00000001FF
