S012000041737369676E6D656E742E73726563F9
S11300000C94F3000C9410010C9410010C94100146
S11300100C9410010C9450010C9410010C941001D8
S11300200C9410010C9410010C9410010C94100108
S11300300C9410010C9410010C9410010C941001F8
S11300400C94FF110C9410010C9410010C941001E9
S11300500C942F0E0C94ED0D0C9410010C941001C3
S11300600C9410010C9410010C9410010C941001C8
S11300700C9410010C9410010C94100123232348B8
S11300804947482053434F5245532323230050727A
S1130090657373206120627574746F6E20746F20B1
S11300A0737461727420616761696E0047414D45E4
S11300B0204F5645520021011E011A01160112015A
S11300C00E010A0106010201FE0090018C01880163
S11300D0840180017C017801740171016D01690161
S11300E0650160015C01580154014F014B01470156
S11300F042013E01390134012F012A012501649294
S1130100927D6C92926D809EA0C17C92924DE4A2ED
S1130110A29D182848FF4492926D468A926342FE3B
S1130120037C92A27D868A92A2C3E0100E10E1C6DF
S1130130281028C7FC021C02FDF8040204F9FC0282
S113014002FD8080FE80816492924DFE9098677CCF
S1130150828A7C03FE9090617C82827DFE2010FF67
S1130160FE403040FFFE020203FE1028C7040202D4
S1130170FD82FE83FE1010FF7C82925DFE909081D2
S1130180FE929283FE82827D7C828245FE92926DF3
S11301907E90907F43535345323031302F37323085
S11301A03120536E616B652050726F6A65637420F1
S11301B06279204A61636B20456164696500536E0E
S11301C0616B65001B5B3F323568001B5B3F32355A
S11301D06C001B5B25646D001B5B324A001B5B25B6
S11301E0643B2564480011241FBECFEFD8E0DEBF76
S11301F0CDBF12E0A0E0B1E0EAEEF0E302C005906A
S11302000D92A63AB107D9F724E0A6EAB2E001C0FC
S11302101D92AC32B207E1F70E94F00A0C947318F5
S11302200C940000E8E6F0E0808182608083D99A33
S1130230ECE6F0E080818F6080831092A60208953E
S11302401092A60208958091A60218163CF580919A
S1130250A7026FB7F8949091A6029230B4F021E00F
S113026030E091E0F901E955FD4F4081F901EA558B
S1130270FD4F40839F5F292F30E04091A602042E5A
S1130280000C550B241735076CF39091A60291507E
S11302909093A60266231CF4789408958FEF089532
S11302A01F920F920FB60F9211242F933F934F93E7
S11302B05F936F937F938F939F93EF93FF9343B1D8
S11302C04F708091A602883064F580E090E0642F3E
S11302D070E09B01082E02C0359527950A94E2F739
S11302E020FF1BC02091AF0230E0082E02C03595DC
S11302F027950A94E2F720FD10C0E091A60221E0C0
S11303002E0F2093A6020E2E000CFF0BE955FD4F75
S113031080832091A602283024F40196843091052C
S1130320C1F64093AF02FF91EF919F918F917F911E
S11303306F915F914F913F912F910F900FBE0F904E
S11303401F90189589B183FB882780F90895CF926F
S1130350DF92EF92FF920F931F930E94B21140918C
S1130360B0025091B1026A01550FEE08FF080091E6
S11303700203109103032091040330910503C00E7E
S1130380D11EE21EF31E21E030E06C157D058E05C2
S11303909F0510F020E030E0C9011F910F91FF90FC
S11303A0EF90DF90CF90089580910801909109011A
S11303B001969093090180930801880F991FFC010D
S11303C0E251FD4F808191810E944F120E94B2112F
S11303D060930203709303038093040390930503D3
S11303E0E0910801F0910901EE0FFF1FE850FD4F65
S11303F0808191819093B1028093B00208955598C1
S11304008FEF9FEF9093090180930801089583E093
S113041090E09093ED028093EC02E8EFF2E084EF39
S113042091E09183808328EC30E0338322839583A9
S11304308483EEEEF2E080ED97E09183808328EEF2
S113044033E033832283958384838FEF9FEF9093EC
S11304500901809308010E94D4010E94A201811124
S11304600E945412089582E090E09093ED028093EC
S1130470EC02E8EFF2E082E390E09183808384E68B
S113048090E093838283EEEEF2E080ED97E0918337
S1130490808388EE93E0938382838FEF9FEF909322
S11304A00901809308010E94D4010E94A2018111D4
S11304B00E94541208952091EC023091ED022150D3
S11304C0310981E090E040910801509109014217FF
S11304D0530714F480E090E008950E94A701892B4B
S11304E059F40E945B02892B39F067E08AE00E948C
S11304F0D6100E94FF0108950E94A701892B11F4D0
S11305000E94D401089580E891E00E94E91721E057
S1130510611572418105910509F020E0822F08954B
S1130520FF920F931F93CF93DF93F89440E052E12F
S113053060E070E080E891E00E940D1880E00E9485
S1130540D407682F80EA91E00E94FF1781E00E949F
S1130550D407682F88EA91E00E94FF1782E00E9486
S1130560D407682F80EB91E00E94FF1783E00E947C
S1130570D407682F88EB91E00E94FF170E940A0BB2
S1130580682F80EC91E00E94FF170E9412108823CC
S113059041F00E945C10682F88EC91E00E94FF17E4
S11305A005C068E088EC91E00E94FF170E94BC0837
S11305B0BC0180ED91E00E9415180E94510CAC0121
S11305C0990F660B770B80EE91E00E940D1880EE78
S11305D091E00E94E9179F938F937F936F9383E336
S11305E091E09F938F930E94FD140E94BA0E682F8E
S11305F080E092E00E94FF170E94B211AC01990FB3
S1130600660B770B88E092E00E940D180E94D80ECA
S1130610682F88E192E00E94FF170E94D50EC82F30
S11306200E94D20E0F900F900F900F900F900F908A
S11306308C17E8F50E94D50EF82EC82FD0E0C132F1
S1130640D105ECF400E212E08C2F0E94BD0E682F5D
S1130650C8010E94FF172196085F1F4FC132D105C0
S113066099F7CF2DD0E0D195C195D109CC0FDD1FDD
S1130670CC0FDD1FCC0FDD1FC85FDE4F02C0C0E012
S1130680D0E000E010E00CC0802F0E94BD0E682F67
S1130690CE01805E9D4F0E94FF1728960F5F1F4F6B
S11306A00E94D20E90E08017910774F719C00E943F
S11306B0D50E082F10E0C0E0D0E00CC0802F0E94BF
S11306C0BD0E682FCE01805E9D4F0E94FF172896B5
S11306D00F5F1F4F0E94D20E90E08017910774F7AE
S11306E068E0CE01805E9D4F0E94FF177894DF91F1
S11306F0CF911F910F91FF900895CF93C82F0E941F
S11307001609882399F0E09106030E2E000CFF0BC6
S1130710E95FFC4FC08363E370E08C2F90E00E949C
S1130720F407809106038F5F80930603CF910895A9
S11307300E944A0780EA91E00E94E11790E00E943B
S11307407D0388EA91E00E94E11790E00E947D0316
S113075080EB91E00E94E11790E00E947D0388EB1A
S113076091E00E94E11790E00E947D030895CF93E9
S113077080EC91E00E94E117C82F0E94160988239B
S113078021F08C2F0E940D0B02C00E94BE0BCF9152
S11307900895CF9388EC91E00E94E117C82F0E943E
S11307A01609882321F08C2F0E940C1002C00E948D
S11307B03B10CF9108950F931F93CF93DF9380E065
S11307C092E00E94E1170E94C30E80E00E94CF0EC7
S11307D00E94BA0E81500E94CC0E10E0C0E2D2E01A
S11307E0CE010E94E117082F612F0E94C60E60EF10
S11307F070E0802F90E00E94F40728961F5FCE01DE
S11308000E94E1170E9416098111EACF0E94A30EEB
S11308106FE070E090E00E94F40788E192E00E94AB
S1130820E1170E94AC0EDF91CF911F910F910895B3
S11308300E948302882361F10E94EF1088E092E015
S11308400E94E9170E94C01180EE91E00E94E9170E
S11308500E945A0C0E940D090E94381180ED91E00B
S11308600E94EF170E94C1080E94BE0B0E943A1218
S11308700E9407020E9498030E94B7030E94C903C2
S11308800E94DB030E9420010E94E80D1092B50231
S113089008950F931F93CF93DF93CDB7DEB72797B8
S11308A00FB6F894DEBF0FBECDBF8C0147E050E019
S11308B0BC01CE0101960E94D117B801605C7F4F44
S11308C047E050E0CE0101960E94F51727960FB637
S11308D0F894DEBF0FBECDBFDF91CF911F910F9172
S11308E0089580E091E00E94490408950E947104F3
S11308F080EC90E00E94490408950E94760480E808
S113090090E00E94490408950E947D0480E490E0F0
S11309100E9449040895CF93DF93CDB7DEB727979C
S11309200FB6F894DEBF0FBECDBF44E352E160E0E2
S113093070E080E090E00E940D1880E289838A8351
S11309408B831C821D821E821F8247E050E060E47C
S113095070E0CE0101960E94F51747E050E060E890
S113096070E0CE0101960E94F51747E050E060EC7C
S113097070E0CE0101960E94F51747E050E060E078
S113098071E0CE0101960E94F51747E050E060E463
S113099071E0CE0101960E94F51727960FB6F894E0
S11309A0DEBF0FBECDBFDF91CF91089580E090E010
S11309B00E94E91721E030E064337241810591051A
S11309C011F020E030E0C9010895CF92DF92EF9258
S11309D0FF92CF93DF93CDB7DEB727970FB6F89486
S11309E0DEBF0FBECDBF0E94510C6B017C0147E0FE
S11309F050E060E471E0CE0101960E94D1178C8131
S1130A009D81AE81BF81C816D906EA06FB0640F473
S1130A100E94D60421E0892B09F020E0822F01C036
S1130A2081E027960FB6F894DEBF0FBECDBFDF91ED
S1130A30CF91FF90EF90DF90CF900895CF92DF9207
S1130A40EF92FF92CF93DF93CDB7DEB727970FB620
S1130A50F894DEBF0FBECDBF0E94D604892B09F4E3
S1130A605BC00E94510C6B017C0147E050E060E4E4
S1130A7070E0CE0101960E94D1178C819D81AE81D8
S1130A80BF818C159D05AE05BF0508F448C047E03D
S1130A9050E060E870E0CE0101960E94D1178C818D
S1130AA09D81AE81BF818C159D05AE05BF05D0F13A
S1130AB047E050E060EC70E0CE0101960E94D1174F
S1130AC08C819D81AE81BF818C159D05AE05BF05CE
S1130AD060F147E050E060E071E0CE0101960E94D1
S1130AE0D1178C819D81AE81BF818C159D05AE058A
S1130AF0BF05F0F047E050E060E471E0CE010196FC
S1130B000E94D1178C819D81AE81BF818C159D057A
S1130B10AE05BF0580F011C080E490E00EC080E413
S1130B2090E00BC080E890E008C080EC90E005C045
S1130B3080E091E002C080E491E027960FB6F8943B
S1130B40DEBF0FBECDBFDF91CF91FF90EF90DF905E
S1130B50CF9008950F931F93CF93DF93CDB7DEB754
S1130B6027970FB6F894DEBF0FBECDBF44E352E122
S1130B7060E070E080E090E00E940D180E941E0585
S1130B808C018038910591F020F48034910589F02E
S1130B9012C0803C910539F0011581E0180759F421
S1130BA00E94710408C00E94760405C00E947D045E
S1130BB002C00E948404E2EBF2E080818983818197
S1130BC08A8382818B830E94510C6C837D838E8304
S1130BD09F8347E050E0B801CE0101960E94F517CB
S1130BE00E94EF1027960FB6F894DEBF0FBECDBF5C
S1130BF0DF91CF911F910F910895EF92FF920F9380
S1130C001F93CF93DF9368E08AE00E94D61088EBAD
S1130C1091E09F938F930E94FD140F900F9000E03A
S1130C2010E00F2EF6E2EF2EF4E0FF2EF02D0E94DE
S1130C300E110E94E10D8823D1F3F7018081918187
S1130C400E94BF14EC01982F91549A3398F4033006
S1130C50110584F469E08AE0800F0E94D610F8013F
S1130C60EE54FD4FC083CE0199270E9439150F5FC2
S1130C701F4FDDCF8A3021F402301105C4F211C0B8
S1130C808F37A9F680E290E00E94391510161106FC
S1130C9014F40150110969E08AE0800F0E94D61013
S1130CA0C6CFF999FECF0E94AA05E2EBF2E080E2FA
S1130CB0808381838283DF91CF911F910F91FF9075
S1130CC0EF900895CF93DF93CDB7DEB727970FB694
S1130CD0F894DEBF0FBECDBF6BE08AE00E94D61051
S1130CE08CE790E09F938F930E9413156DE08AE048
S1130CF00E94D6100E94D6040F900F90892B09F4FD
S1130D00B6C047E050E060E470E0CE0101960E9476
S1130D10D1178F818F938E818F938D818F938C8147
S1130D208F938B811F928F938A811F928F938981D6
S1130D301F928F9381EF91E09F938F930E94FD14F4
S1130D406EE08AE00E94D61047E050E060E870E070
S1130D50CE0101960E94D1178F818F938E818F933C
S1130D608D818F938C818F938B811F928F938A8136
S1130D701F928F9389811F928F9382E092E09F93B9
S1130D808F930E94FD146FE08AE00E94D61047E022
S1130D9050E060EC70E0CE0101960E94D1178F8183
S1130DA08F938E818F938D818F938C818F938B8181
S1130DB01F928F938A811F928F9389811F928F93A1
S1130DC084E192E09F938F930E94FD140FB6F894F0
S1130DD0DEBF0FBECDBF60E18AE00E94D61047E0BF
S1130DE050E060E071E0CE0101960E94D1178F813E
S1130DF08F938E818F938D818F938C818F938B8131
S1130E001F928F938A811F928F9389811F928F9350
S1130E1085E292E09F938F930E94FD1461E18AE042
S1130E200E94D61047E050E060E471E0CE010196E4
S1130E300E94D1178F818F938E818F938D818F9391
S1130E408C818F938B811F928F938A811F928F93B2
S1130E5089811F928F9387E392E09F938F930E94DF
S1130E60FD140FB6F894DEBF0FBECDBF0AC00E94BA
S1130E708B0488E492E09F938F930E94FD140F905B
S1130E800F9027960FB6F894DEBF0FBECDBFDF914B
S1130E90CF91089510920603089530910603131616
S1130EA084F490910703891771F0E8E0F3E090E08F
S1130EB003C02191281749F09F5F3913FACF8FEFB0
S1130EC008958FEF089580E00895892F08950E9472
S1130ED04D0791E08F3F09F490E0892F0895FF9228
S1130EE00F931F93CF93DF938091060388300CF008
S1130EF044C000E010E0D0E0C0E002C00F5F1F4F2C
S1130F002C2FCC0F330B2D5F3F4F200F311F2F7031
S1130F103078332334F421503109206F3F6F2F5F31
S1130F203F4F822FC22F6D2FDD0F770B6B5F7F4FEB
S1130F3067707078772334F461507109686F7F6F3C
S1130F406F5F7F4FD62F0E941C09F82E03361105C0
S1130F50B1F00E94100F8111D1CF8F2D0E9467072D
S1130F608111CCCF8F2D0E945F108111C7CF8F2D9F
S1130F700E94B70B8111C2CF04C088E00FC088E083
S1130F800DC080910603E82F082E000CFF0BE95FCB
S1130F90FC4FF0828F5F809306038F2DDF91CF91FA
S1130FA01F910F91FF900895E82F880FFF0BE95FC1
S1130FB0FC4F808108958823B4F0209106038217A2
S1130FC094F48F5F821764F4E82F082E000CFF0B53
S1130FD0E95FFC4F9081319790838F5F8217A4F370
S1130FE021502093060308951F93CF93DF93C82FB6
S1130FF0162F0E941409D82F8C2F0E941109412FFB
S11310006D2F0E94CA08DF91CF911F910895CF934D
S1131010DF930E940D090E94381188E592E09093B5
S11310200B0180930A010E94BE0B0E943A120E9497
S113103007020E94820E0E94A30E6FE00E94F40732
S11310400E94B10E60EF0E94F4070E944A07C3E0B9
S11310500E946F07D82F0E941609882321F063E3AA
S11310608D2F0E94F407C15099F7DF91CF91089515
S113107080910A0190910B018B3F9105A4F060913E
S11310800A0170910B0180E090E00E94851226E62F
S113109036E646E65FE30E9413130E9456127093ED
S11310A00B0160930A0108950F931F93CF93DF936D
S11310B00E94A30ED82F0E94330FC82F88230CF44C
S11310C055C081E090E00E943C0C0E94A30E182FB2
S11310D08EEF8C0F8230C0F4812F0E944D070E9446
S11310E0DB070E94330282E090E00E943C0C0E94E5
S11310F038080E946F07082F0E941609882321F0E0
S113110063E3802F0E94F4078CEF8C0F823050F43D
S11311100E94531089E090E00E943C0C0E94380821
S11311200E9433028AEF8C0F823050F40E94BE0B6F
S113113084E090E00E943C0C0E9438080E94330234
S1131140CD7FC13011F0C53029F40E94DB0E60E080
S11311500E94F40760EF8D2F0E94F4076FE0812F47
S11311600E94F4070E94711181E001C080E0DF91C8
S1131170CF911F910F91089580910A0190910B01D5
S1131180089590930B0180930A01089580E80E94CA
S1131190DE0F08951F93CF93DF938031B0F468304E
S11311A0A0F4142FC62FD82F81E00E9406106C2FB4
S11311B0677080E1689F900111248D2F8F70822BBE
S11311C00E940610812F0E940610DF91CF911F917B
S11311D008950F931F93CF93DF93803190F48B0185
S11311E0C82F83E00E9406108C2F8F700E94061077
S11311F0E801085F1F4F89910E940610C017D107AC
S1131200D1F7DF91CF911F910F91089584E00E944F
S1131210061082E00E94061008958FE00E940610D6
S1131220089582958F7008958F70089583FB8827A1
S113123080F991E08927089520E1829FC00111245B
S11312406770862B08950E94C6080E94120140E030
S113125060E07BE480E090E00E949A0D0E948A1195
S113126078940895FF920F931F93CF93DF9380E0B8
S11312700E94F8100E94EF100E9405110E9417119D
S11312800E940D09CFE00F2EFFE0FF2EF02D0FEF8F
S113129010EFD5E16C2F8AE692E00E94630C0DC03A
S11312A02FE78CE293E0215080409040E1F700C0AA
S11312B000000E9423018F3FA9F50E94720C811146
S11312C0EFCF0E946814DC01CB0183709927AA2711
S11312D0B078BB2354F40197A109B1098C6F9F6FB7
S11312E0AF6FBF6F0196A11DB11D81309105A1059E
S11312F0B10591F02CF4892B8A2B8B2B59F0CACF92
S113130082309105A105B10549F00397A105B10506
S113131039F0C0CFCD2FBECFCF2DBCCFC02FBACF89
S1131320C12FB8CFDF91CF911F910F91FF900895F6
S11313300E94EF100E9407080E94330C0E942001B3
S11313400E94E80D08954F925F927F928F929F9230
S1131350AF92BF92CF92DF92EF92FF920F931F93BF
S1131360CF93DF930E94B2114B015C0100E01FEFA9
S11313700F2EFFED7F2EF02D0F2EF6E24F2EF4E010
S11313805F2EF02D0E94151081110E946C100E9496
S11313902B1081110E943B100E94210C81110E948C
S11313A0460B0E946D020E94A911892B19F00E941C
S11313B0200106C00E942301D82F8F3F09F09AC054
S11313C00E94E10D882309F4A4C0F2018081918177
S11313D00E94BF14C82F011103C08B3151F496C071
S11313E0013019F48B3529F493C0023009F488C014
S11313F07BC00E94A911892B09F03FC008C0D111FC
S113140009C001C000E081E00E94F20E50C000E07B
S1131410D12F01C0C12FD23019F0812F813421F492
S113142080E00E94F20E43C0D33011F0843421F4E2
S113143083E00E94F20E3BC0D13011F0823429F4D3
S113144082E00E94F20E33C000E08C2F8F7D803545
S113145019F40E94A2112BC0C33719F40E94900200
S113146026C00E948302892B11F18C2F8F7D8F342B
S1131470F1F481E08093B50262C08C2F8F7D8035BA
S113148021F40E94A21100E012C000E0833519F497
S11314900E9490020CC00E948302892B41F08C2F81
S11314A08F7D8F3421F481E08093B50248C00E947F
S11314B0B2116B017C010E94BC08092E000CAA0B1E
S11314C0BB0B880D991DAA1DBB1DC816D906EA06BB
S11314D0FB0608F457CF0E945408882381F10E9428
S11314E0B2114B015C014ECF0E94A911892B09F462
S11314F0ABCFC3CF0E94A911892B09F480CF1CC0A4
S11315000E94A911892B51F000E013C001E001C031
S113151002E00E94A911892B61F408C0C33409F4C4
S113152071CF8C2F00E0C12FD12F78CF0E9483027E
S1131530BECFC12F872DAACF0E948302B8CFDF91DF
S1131540CF911F910F91FF90EF90DF90CF90BF90BC
S1131550AF909F908F907F905F904F9008950E94DE
S1131560EF1065E08AE00E94D6108CEA90E09F9329
S11315708F930E94131567E08AE00E94D6100E94A0
S1131580510C9F938F937F936F938CE792E09F937B
S11315908F930E94FD140E9462060E94E5042DB7F9
S11315A03EB7285F3F4F0FB6F8943EBF0FBE2DBF26
S11315B081110E94FD0569E08AE00E94D6108EE840
S11315C090E09F938F930E9413150E9462060F90E0
S11315D00F900E9423018F3FE1F30E94EF100895C2
S11315E00E9423098FEF81B9529A53980E943209BD
S11315F08091B502882319F00E94180402C00E9449
S113160098090E94A3098091B5028111F1CF0E942B
S1131610AF0AEECF80910F030895CF93DF93C82FC5
S113162080910F030E941409D82F80910F030E9408
S1131630110940E06D2F0E94CA08C0930F038C2F3C
S11316400E941409D82F8C2F0E94110943E36D2F97
S11316500E94CA08DF91CF910895CF93C82F0E94AA
S1131660100F81110DC08C2F0E94670781110AC0D1
S11316708C2F0E945F1091E0811105C090E003C09F
S113168091E001C091E0892FCF9108951F93CF93EA
S1131690DF9360E080E00E941C09182F0E940D1463
S11316A083709078992324F401978C6F9F6F01962F
S11316B0C82FD0E0C130A9F028F0C23009F1C330FE
S11316C071F13BC080910F030E941409C82F8091CF
S11316D00F030E94110961E06C0F0E941C09182F6E
S11316E02CC080910F030E941409C82F80910F030E
S11316F00E9411096FEF6C0F0E941C09182F1DC066
S113170080910F030E941409C82F80910F030E9437
S113171011096C2F8F5F0E941C09182F0EC0809135
S11317200F030E941409C82F80910F030E9411090E
S11317306C2F81500E941C09182FDF5F0E940D142A
S113174083709078992324F401978C6F9F6F01968E
S1131750C82F812F0E942D0B8111ACCFD53018F4E6
S1131760812F0E940D0BDF91CF911F91089591E07D
S113177020910F03281390E0892F08951F93CF938E
S1131780DF930E940D14EC010E940D14BC016770DC
S11317907078772334F461507109686F7F6F6F5FDD
S11317A07F4FCE018F709078992324F40197806F36
S11317B09F6F01960E941C09C82F13E61EC00E9449
S11317C00D14EC010E940D14BC016770707877232E
S11317D034F461507109686F7F6F6F5F7F4FCE0182
S11317E08F709078992324F40197806F9F6F0196EE
S11317F00E941C09C82F115091F08C2F0E94100FC9
S11318008111DDCF8C2F0E9467078111D8CF0E94F0
S11318105C108C17A1F280910F038C1781F2C09396
S11318200F038C2F0E941409C82F80910F030E946C
S113183011094CE36C2F0E94CA08DF91CF911F91CC
S113184008950E94B21120910C0130910D0140E0E5
S113185050E00E94801321E0672B682B692B09F06C
S113186020E0822F08951092B6021092B7021092CF
S1131870B8021092B90208954091B6025091B7028D
S11318806091B8027091B902480F591F611D711D12
S11318904093B6025093B7026093B8027093B902B2
S11318A008956091B6027091B7028091B802909148
S11318B0B90208956093B6027093B7028093B80298
S11318C09093B902089560930E019093BE028093A1
S11318D0BD021092C0021092BF021092BC0210927C
S11318E0BB0208950F931F93CF93DF93CDB7DEB759
S11318F028970FB6F894DEBF0FBECDBFE091BF02AC
S1131900F091C002309781F0149110FF06C010923C
S1131910C0021092BF0200E06BC03196F093C00287
S1131920E093BF0200E064C0E091BB02F091BC020E
S1131930309709F449C0CF0101969093BC0280937B
S1131940BB02E081E1110AC01092BC021092BB02FA
S113195080E18093BA0200E010E04AC08FE98E0F64
S11319608A3170F4F0E0EE0FFF1FE85FFF4F8591BE
S113197094919093C0028093BF0200E010E038C0BD
S11319808FEB8E0F8A3170F4F0E0EE0FFF1FE85BEF
S1131990FF4F859194919093C0028093BF0200E021
S11319A010E026C080ED8E0F8A3000F5F0E0EE0FD7
S11319B0FF1FEA5AFF4F859194919093C002809340
S11319C0BF0200E010E014C08091BD029091BE02FD
S11319D001E0009709F000E09093BC028093BB0201
S11319E01092BE021092BD0210E002C000E010E0AE
S11319F00E94060920910E01FE013896CE0101963F
S1131A00112314F4208301C01082110F3197E817B9
S1131A10F907B1F71982BE016F5F7F4F8FE00E9413
S1131A20E9088091BA02882389F081508093BA0230
S1131A30002311F0882311F090E003C091E001C06D
S1131A4091E081E0992329F080E003C00023A1F311
S1131A50F7CF28960FB6F894DEBF0FBECDBFDF9147
S1131A60CF911F910F910895CF93C82F8A3019F405
S1131A708DE00E94340D9FB7907802C0992329F11C
S1131A80809111038F3FD1F3F894E091100381E02A
S1131A908E0F80931003F0E0EE5EFC4FC0838091C4
S1131AA011038F5F80931103809110038F3F11F412
S1131AB010921003E1ECF0E080818062808399232E
S1131AC039F0789480E090E005C081E090E002C0B5
S1131AD080E090E0CF910895809123048823E1F37E
S1131AE02FB72078F894809111043091230490E06A
S1131AF0831B91095AF4E091110480912304F0E0CE
S1131B00E81BF109EE5DFB4F80810AC0E0911104EE
S1131B1080912304F0E0E81BF109EE5EFB4F808125
S1131B2090912304915090932304222309F07894F4
S1131B3090E0089510921003109211031092110472
S1131B4010922304109222044093C102DC01CB01C1
S1131B50880F991FAA1FBB1F880F991FAA1FBB1F9D
S1131B609C01AD01220F331F441F551F60E072E139
S1131B708AE790E00E94A213BA01A9014F5F5F4F68
S1131B806F4F7F4FDB01CA011AF40196A11DB11DED
S1131B90B595A7959795879501979093C5008093E0
S1131BA0C400E1ECF0E088E1808380818068808378
S1131BB0E6E2F4E08FE091E0938382839183808373
S1131BC008959091230481E0911101C080E008956B
S1131BD0109211041092230408951F920F920FB6CD
S1131BE00F9211242F938F939F93EF93FF938091E0
S1131BF01103882329F1809110032091110390E0AF
S1131C00821B91095AF4E091100380911103F0E0D2
S1131C10E81BF109EF5EFB4F90810AC0E0911003CD
S1131C2080911103F0E0E81BF109EE5EFC4F908116
S1131C30809111038150809311039093C60005C0D5
S1131C40E1ECF0E080818F7D8083FF91EF919F91A3
S1131C508F912F910F900FBE0F901F9018951F9288
S1131C600F920FB60F9211242F933F934F935F93CC
S1131C706F937F938F939F93AF93BF93CF93EF9380
S1131C80FF93C091C6008091C102882349F08091DE
S1131C9011038F3F29F060E070E08C2F0E94340D17
S1131CA080912304803120F081E08093220418C0C5
S1131CB0CD3009F4CAE0E091110481E08E0F8093E5
S1131CC01104F0E0EE5EFB4FC083809123048F5F2C
S1131CD08093230480911104803111F41092110433
S1131CE0FF91EF91CF91BF91AF919F918F917F9190
S1131CF06F915F914F913F912F910F900FBE0F9075
S1131D001F9018950F931F93CF9382E08093C60280
S1131D101092C402C1E0C093C50261E081E00E9458
S1131D201C0907EC12E0F801808361E082E00E9464
S1131D301C09F8018183C093C302C093C202CF91EE
S1131D401F910F910895E091C5020E2E000CFF0B18
S1131D50E953FD4F808108958093C3028093C202AA
S1131D600895E091C4020E2E000CFF0BE953FD4FC1
S1131D70808108958091C6020895E82FF0E0E95328
S1131D80FD4F808108958093C6020895E62FF0E008
S1131D90E953FD4F808308958093C502089580938D
S1131DA0C40208958091C50208958091C4020895E3
S1131DB08091C30208959091C402E92F092E000C6A
S1131DC0FF0BE953FD4F80819F5F913219F090938F
S1131DD0C40202C01092C4029091C6029150909322
S1131DE0C60208959091C3029130A9F028F0923070
S1131DF041F0933059F00895823089F08093C20203
S1131E000895882361F08093C2020895813039F0E7
S1131E108093C2020895833011F08093C202089522
S1131E209091C4023091C50240E00DC0E92F092E03
S1131E30000CFF0BE953FD4F2081281789F09F5FA9
S1131E4091320CF0942F9313F1CFE32F330FFF0B48
S1131E50E953FD4F91E02081281719F090E001C06B
S1131E6091E0892F0895CF93DF938091C602813248
S1131E7008F096C0E091C5020E2E000CFF0BE9534A
S1131E80FD4F80810E941109D82FC82FE091C5020F
S1131E900E2E000CFF0BE953FD4F80810E941409A4
S1131EA0682F9091C202913059F028F0923069F075
S1131EB0933081F01BC0873091F061E0680F16C049
S1131EC0DF3079F0C1E0CD0F11C0882361F06FEFEE
S1131ED0680F0CC0DD2349F0CFEFCD0F07C060E0E1
S1131EE005C0C0E003C067E001C0CFE08C2F0E94B2
S1131EF01C09C82F8091C2029091C302981741F027
S1131F008093C3020E94A201892B11F00E94330224
S1131F108C2F0E94100F882351F0E091C4020E2EE2
S1131F20000CFF0BE953FD4F8081C8133BC0809127
S1131F30C5028F5F813219F08093C50202C01092EE
S1131F40C502E091C5020E2E000CFF0BE953FD4FB4
S1131F50C0838091C6028F5F8093C6028C2F90E06D
S1131F600E94B70B892B31F08091C6028132E0F0D8
S1131F7087E021C08C2F0E945F10882331F080916C
S1131F80C602813298F085E016C08C2F0E94670744
S1131F90882371F08091C602813260F083E00BC027
S1131FA08DEF09C08EEF07C086E005C084E003C052
S1131FB081E001C082E0DF91CF91089594B1906BEC
S1131FC094B92C9A90E59CBD883021F0803211F0B0
S1131FD0823019F491E09DBD01C01DBC803269F0CE
S1131FE028F4883071F0803161F00EC0803429F01B
S1131FF0803851F48CB581608CBD8CB582608CBD09
S113200003C08CB581608CBD2C9808958EBD0DB431
S113201007FEFDCF8EB508958093240481E080935C
S1132020250408958091250408950E94B2116859E9
S11320307A438109910920E23EE440E050E00E94A5
S11320408013672B682B692B21F40E94B21181E065
S1132050089580E008950E94B21120E23EE440E039
S113206050E00E94801321E0672B682B692B09F054
S113207020E0822F0895CF93809124040E941409B4
S1132080C82F809124040E94110940E06C2F0E9403
S1132090CA0860E080E00E941C0980932404109226
S11320A02504CF91089560E080E00E941C0980938C
S11320B02404109225040895809124040895909195
S11320C02504992339F091E020912404281390E009
S11320D0892F089580E008951F93CF93DF930E9482
S11320E03B100E940D14EC010E940D14BC0167709A
S11320F07078772334F461507109686F7F6F6F5F74
S11321007F4FCE018F709078992324F40197806FCC
S11321109F6F01960E941C09C82F13E61EC00E94DF
S11321200D14EC010E940D14BC01677070787723C4
S113213034F461507109686F7F6F6F5F7F4FCE0118
S11321408F709078992324F40197806F9F6F019684
S11321500E941C09C82F1150A1F08C2F0E94100F4F
S11321608111DDCF8C2F0E9467078111D8CF8C2F6E
S11321700E945F108111D3CF8C2F0E94B70B811165
S1132180CECFC09324048C2F0E941409C82F8091B1
S113219024040E9411094CE36C2F0E94CA0881E0B8
S11321A080932504DF91CF911F910895282F082E45
S11321B0000C330B3F938F93862F062E000C990B44
S11321C09F936F938DED91E09F938F930E941315CE
S11321D00F900F900F900F900F900F90089588ED2F
S11321E091E09F938F930E9413150F900F90089581
S11321F01F928F9382ED91E09F938F930E9413150A
S11322000F900F900F900F9008958BEC91E09F9397
S11322108F930E9413150F900F90089584EC91E012
S11322209F938F930E9413150F900F90089563E06E
S113223083E00E94D6108EEB91E09F938F930E94CF
S1132240131565E083E00E94D61080E20E94F81026
S113225084E991E09F938F930E94131585E20E9475
S1132260F8100E9462060F900F900F900F9008953F
S11322700E94051161E08AE00E94D61086E892E08F
S11322809F938F930E94FD1463E081E00E94D61017
S11322900E94510C9F938F937F936F938CE892E0ED
S11322A09F938F930E94FD1463E08AE00E94D610EE
S11322B00E94510C9F938F937F936F9380EA92E0D7
S11322C09F938F930E94FD1463E08AE00E94D610CE
S11322D08DB79EB70E960FB6F8949EBF0FBE8DBFF6
S11322E008950E94051163E08AE00E94D6100E94BE
S11322F0510C9F938F937F936F9380EA92E09F9307
S11323008F930E94FD140F900F900F900F900F90D9
S11323100F9008951092E8021092E9021092EA02D6
S11323201092EB0216BC8CE787BD82E084BD83E08B
S113233085BDEEE6F0E080818260808385B38270A3
S113234085BB089590911D0181E0891B80931D0137
S1132350089520911D0181E090E0222311F080E096
S113236090E008952FB7F8946091E8027091E90223
S11323708091EA029091EB0222230CF47894089560
S11323802FB7F8946093E8027093E9028093EA020D
S11323909093EB0222230CF47894089580913201F7
S11323A0882381F05A9A0E94BA0EEDEC8E9FE12D9B
S11323B01124E695E695E695F0E0E85DFE4F808110
S11323C082B916C05A980E94BA0E9DEC899F912D2D
S11323D01124969596959695990F292F220F220FE1
S11323E0920F891BE82FF0E0E25EFE4F808182B9F4
S11323F09091320181E0891B8093320108951F92EC
S11324000F920FB60F9211242F933F934F935F9324
S11324106F937F938F939F93AF93BF93EF93FF93A8
S113242080911D01882399F08091E8029091E9023E
S1132430A091EA02B091EB020196A11DB11D809317
S1132440E8029093E902A093EA02B093EB020E949F
S1132450CE11FF91EF91BF91AF919F918F917F9199
S11324606F915F914F913F912F910F900FBE0F90FD
S11324701F9018951092850010928400E1E8F0E016
S113248080818A60808380E48093800088EE93E07A
S11324909093890080938800559853980895909359
S11324A08900809388000895559A08950E94F21235
S11324B088F09F5798F0B92F9927B751B0F0E1F001
S11324C0660F771F881F991F1AF0BA95C9F714C0B1
S11324D0B13091F00E940C13B1E008950C940C13E8
S11324E0672F782F8827B85F39F0B93FCCF38695EA
S11324F077956795B395D9F73EF490958095709547
S113250061957F4F8F4F9F4F0895E89409C097FBC3
S11325103EF490958095709561957F4F8F4F9F4FB6
S11325209923A9F0F92F96E9BB279395F6958795FA
S113253077956795B795F111F8CFFAF4BB0F11F4BD
S113254060FF1BC06F5F7F4F8F4F9F4F16C0882364
S113255011F096E911C0772321F09EE8872F762F9A
S113256005C0662371F096E8862F70E060E02AF0DB
S11325709A95660F771F881FDAF7880F96958795C7
S113258097F9089597F99F6780E870E060E00895EF
S11325909FEF80EC089500240A9416161706180677
S11325A00906089500240A94121613061406050653
S11325B00895092E0394000C11F4882352F0BB0FE4
S11325C040F4BF2B11F460FF04C06F5F7F4F8F4F47
S11325D09F4F089557FD9058440F551F59F05F3F82
S11325E071F04795880F97FB991F61F09F3F79F031
S11325F087950895121613061406551FF2CF4695B3
S1132600F1DF08C0161617061806991FF1CF869534
S11326107105610508940895E894BB276627772718
S1132620CB0197F908950E9426130C94D9120E94A5
S1132630CB1238F00E94D21220F0952311F00C94A2
S1132640C2120C94C81211240C940D130E94EA12A5
S113265070F3959FC1F3950F50E0551F629FF001F1
S1132660729FBB27F00DB11D639FAA27F00DB11D0A
S1132670AA1F649F6627B00DA11D661F829F222793
S1132680B00DA11D621F739FB00DA11D621F839F1A
S1132690A00D611D221F749F3327A00D611D231FF0
S11326A0849F600D211D822F762F6A2F11249F573E
S11326B050409AF0F1F088234AF0EE0FFF1FBB1F41
S11326C0661F771F881F91505040A9F79E3F510500
S11326D080F00C94C2120C940D135F3FE4F3983E07
S11326E0D4F3869577956795B795F795E7959F5FAA
S11326F0C1F7FE2B880F911D9695879597F908953C
S1132700A1E21A2EAA1BBB1BFD010DC0AA1FBB1FF1
S1132710EE1FFF1FA217B307E407F50720F0A21B63
S1132720B30BE40BF50B661F771F881F991F1A94D0
S113273069F760957095809590959B01AC01BD01FA
S1132740CF010895052E97FB1EF400940E94B9133F
S113275057FD07D00E94801307FC03D04EF40C945D
S1132760B91350954095309521953F4F4F4F5F4F8A
S1132770089590958095709561957F4F8F4F9F4FE9
S113278008958F929F92AF92BF92CF92DF92EF9271
S1132790FF92CF93DF93EC01688179818A819B81D9
S11327A0611571058105910521F464E279ED8BE5EC
S11327B097E02DE133EF41E050E00E94A21349017C
S11327C05A019B01AC01A7EAB1E40E941A186B01FB
S11327D07C01ACEEB4EFA50194010E942818DC0141
S11327E0CB018C0D9D1DAE1DBF1DB7FF03C001970E
S11327F0A109B04888839983AA83BB839F77DF911B
S1132800CF91FF90EF90DF90CF90BF90AF909F90CB
S11328108F9008950E94C113089580E091E00E9472
S1132820C1130895A0E0B0E08093000190930101EA
S1132830A0930201B093030108958F929F92AF92E7
S1132840BF92CF92DF92EF92FF92CF93DF93EC018E
S1132850688179818A819B81611571058105910562
S113286021F464E279ED8BE597E02DE133EF41E06B
S113287050E00E94A21349015A019B01AC01A7EA4E
S1132880B1E40E941A186B017C01ACEEB4EFA5010F
S113289094010E942818DC01CB018C0D9D1DAE1DF6
S11328A0BF1DB7FF03C00197A109B048888399836E
S11328B0AA83BB83BC01CD019F77DF91CF91FF90A9
S11328C0EF90DF90CF90BF90AF909F908F9008953E
S11328D08F929F92AF92BF92CF92DF92EF92FF922C
S11328E060910401709105018091060190910701A6
S11328F0611571058105910521F464E279ED8BE59B
S113290097E02DE133EF41E050E00E94A21349012A
S11329105A019B01AC01A7EAB1E40E941A186B01A9
S11329207C01ACEEB4EFA50194010E942818DC01EF
S1132930CB018C0D9D1DAE1DBF1DB7FF03C00197BC
S1132940A109B0488093040190930501A093060166
S1132950B0930701BC01CD019F77FF90EF90DF900A
S1132960CF90BF90AF909F908F9008956093040193
S11329707093050180930601909307010895CF9306
S1132980DF93EC012B8120FF33C026FF0AC02F7B8D
S11329902B838E819F8101969F838E838A8190E011
S11329A029C022FF0FC0E881F9818081082E000C24
S11329B0990B009719F420622B831AC03196F9837E
S11329C0E8830EC0EA85FB85099597FF09C02B8132
S11329D0019611F080E201C080E1822B8B8308C054
S11329E02E813F812F5F3F4F3F832E83992702C063
S11329F08FEF9FEFDF91CF910895A0E0B0E0E3E087
S1132A00F5E10C943D18AE014B5F5F4FFA01619103
S1132A107191AF0180912804909129040E9440157E
S1132A20E2E00C945918A0E0B0E0E9E1F5E10C947F
S1132A303B18AE01495F5F4FDA016D917D91AD01A5
S1132A4006E214E0F80182819381DC0113962C9153
S1132A501397286013962C930E944015D801129660
S1132A60ED91FC9113972381277F2383E4E00C9459
S1132A70571860912804709129040E94371708950B
S1132A80ABE0B0E0E6E4F5E10C942D186C017B01B9
S1132A908A01FC0117821682838181FFCCC1CE0199
S1132AA001963C01F6019381F70193FD859193FF13
S1132AB081917F01882309F4BAC1853239F493FDE9
S1132AC0859193FF81917F01853229F4B60190E0CD
S1132AD00E943717E7CF912C212C312CFFE1F315FD
S1132AE0D8F08B3279F038F4803279F08332A1F463
S1132AF0232D20611DC08D3261F0803369F4232DB4
S1132B00216016C0832D8260382EE32DE4603E2EB2
S1132B102AC0F32DF8601DC037FC2DC020ED280F0E
S1132B202A3040F08E32B9F436FC81C1232D206462
S1132B30322E19C036FE06C08AE0989E200D11245C
S1132B40922E11C0EAE02E9E200D1124222EF32D88
S1132B50F0623F2E08C08C3621F4832D8068382E15
S1132B6002C0883641F4F70193FD859193FF81916A
S1132B707F018111B3CF982F9F7D9554933028F412
S1132B800C5F1F4F9FE399830DC0833631F0833769
S1132B9071F0833509F059C021C0F801808189831F
S1132BA00E5F1F4F88248394912C530113C0280176
S1132BB0F2E04F0E511CF801A080B18036FE03C034
S1132BC0692D70E002C06FEF7FEFC5010E942C17E2
S1132BD04C018201F32DFF773F2E16C0280122E01D
S1132BE0420E511CF801A080B18036FE03C0692D4D
S1132BF070E002C06FEF7FEFC5010E9421174C0106
S1132C00F32DF0683F2E820133FC1BC0822D90E02F
S1132C1088169906B0F4B60180E290E00E94371756
S1132C202A94F4CFF50137FC859137FE81915F0139
S1132C30B60190E00E94371721102A9421E0821AED
S1132C4091088114910471F7E8C0843611F0893633
S1132C5041F5F80137FE07C060817181828193815B
S1132C600C5F1F4F08C060817181072E000C880B18
S1132C70990B0E5F1F4FF32DFF763F2E97FF09C070
S1132C8090958095709561957F4F8F4F9F4FF06819
S1132C903F2E2AE030E0A3010E947317882E861885
S1132CA045C0853731F4232D2F7EB22E2AE030E043
S1132CB025C0932D997FB92E8F36C1F018F488352D
S1132CC079F0B5C0803719F0883721F0B0C0E92F0A
S1132CD0E061BE2EB4FE0DC0FB2DF460BF2E09C012
S1132CE034FE0AC0292F2660B22E06C028E030E048
S1132CF005C020E130E002C020E132E0F801B7FE77
S1132D0007C060817181828193810C5F1F4F06C06F
S1132D106081718180E090E00E5F1F4FA3010E94EB
S1132D207317882E8618FB2DFF773F2E36FE0DC0B5
S1132D30232D2E7FA22E891458F434FE0BC032FCAE
S1132D4009C0832D8E7EA82E05C0B82CA32C03C0E9
S1132D50B82C01C0B92CA4FE0FC0FE01E80DF11D72
S1132D608081803321F49A2D997EA92E09C0A2FE78
S1132D7006C0B394B39404C08A2D867809F0B39442
S1132D80A3FC11C0A0FE06C0B21488F4280C922C37
S1132D909B180EC0B21460F4B60180E290E00E9469
S1132DA03717B394F7CFB21418F42B1802C0982C29
S1132DB0212CA4FE10C0B60180E390E00E943717D6
S1132DC0A2FE17C0A1FC03C088E790E002C088E51A
S1132DD090E0B6010CC08A2D867859F0A1FE02C09D
S1132DE08BE201C080E2A7FC8DE2B60190E00E9474
S1132DF03717891438F4B60180E390E00E9437173E
S1132E009A94F7CF8A94F301E80DF11D8081B601FD
S1132E1090E00E9437178110F5CF222009F442CEAA
S1132E20B60180E290E00E9437172A94F6CFF601AB
S1132E308681978102C08FEF9FEF2B96E2E10C947D
S1132E404918FC010590615070400110D8F7809535
S1132E5090958E0F9F1F0895FC0161507040019062
S1132E600110D8F7809590958E0F9F1F08950F93AA
S1132E701F93CF93DF93FB01238121FD03C08FEFC9
S1132E809FEF2CC022FF16C04681578124813581D3
S1132E904217530744F4A081B1819D012F5F3F4F36
S1132EA0318320838C93268137812F5F3F4F378373
S1132EB0268314C08B01EC01FB010084F185E02D15
S1132EC00995892BE1F6D80116968D919C91179757
S1132ED0019617969C938E931697CE01DF91CF910E
S1132EE01F910F910895FA01AA27283051F120313A
S1132EF081F1E8946F936E7F6E5F7F4F8F4F9F4F8A
S1132F00AF4FB1E03ED0B4E03CD0670F781F891FCB
S1132F109A1FA11D680F791F8A1F911DA11D6A0F99
S1132F20711D811D911DA11D20D009F468943F914C
S1132F302AE0269F11243019305D3193DEF6CF014B
S1132F400895462F4770405D4193B3E00FD0C9F711
S1132F50F6CF462F4F70405D4A3318F0495D31FD7E
S1132F604052419302D0A9F7EACFB4E0A6959795D1
S1132F70879577956795BA95C9F7009761057105A7
S1132F8008959B01AC010A2E0694579547953795F1
S1132F902795BA95C9F7620F731F841F951FA01D4B
S1132FA00895DC01CB01FC01F999FECF06C0F2BD06
S1132FB0E1BDF89A319600B40D9241505040B8F7F3
S1132FC00895F999FECF92BD81BDF89A992780B5ED
S1132FD00895A6E1B0E044E050E00C94D317A8E1D2
S1132FE0B0E042E050E00C94D317DC01CB0103C005
S1132FF02D910E94001841505040D0F70895262F7B
S1133000F999FECF1FBA92BD81BD20BD0FB6F894C9
S1133010FA9AF99A0FBE01960895242F0E94001877
S1133020252F0E9400180C9415180E94FF17272FB3
S11330300C9400180E946418A59F900DB49F900DE5
S1133040A49F800D911D11240895B7FF0C941A18A4
S11330500E941A18821B930B08952F923F924F924D
S11330605F926F927F928F929F92AF92BF92CF9214
S1133070DF92EF92FF920F931F93CF93DF93CDB71D
S1133080DEB7CA1BDB0B0FB6F894DEBF0FBECDBF95
S113309009942A88398848885F846E847D848C8466
S11330A09B84AA84B984C884DF80EE80FD800C816F
S11330B01B81AA81B981CE0FD11D0FB6F894DEBF52
S11330C00FBECDBFED010895A29FB001B39FC00113
S11330D0A39F700D811D1124911DB29F700D811D40
S10D30E01124911D0895F894FFCF08
S11330EA0100000001000000FFFF5802B0040F00B5
S11330FA00000300000000340D6C0D0000013F06BF
S113310A5B4F666D7D077F6F00065B4F666D7D07BB
S113311A7F6F01472053636F7265203A2575200A31
S113312A004631203A2575200A004632203A257590
S113313A200A0046333A2575200A004634203A25E7
S113314A75200A005331203A2575200A005231208D
S113315A3A2575200A0047616D65205370656564D8
S113316A203A2575200A00536E616B65204C656E02
S113317A677468203A2575200A00536E616B6520CE
S113318A7461696C203A2575200A00472074696DB8
S113319A65203A2569200A00596F752776652073D8
S11331AA6574206120686967682073636F72652E8D
S11331BA20706C656173652073657420796F75720C
S11331CA20696E697469616C2062656C6F773A2054
S11331DA0046697273743A202563256325632025A2
S11331EA64005365636F6E643A202563256325631F
S11331FA2025640054686972643A2025632563258E
S113320A6320256400466F757274683A2025632525
S113321A6325632025640046696674683A20256339
S113322A256325632025640054686572652041720C
S113323A652043757272656E746C79204E6F2048EE
S113324A69676853636F72657300534E414B452037
S113325A42792034343335343336390053636F7248
S113326A653A20257500536E616B650053636F726E
S113327A653A09090909090920202020202020008B
S109328A2531307500003F
S9030000FC
