S012000041737369676E6D656E742E73726563F9
S11300000C94F3000C9410010C9410010C94100146
S11300100C9410010C9450010C9410010C941001D8
S11300200C9410010C9410010C9410010C94100108
S11300300C9410010C9410010C9410010C941001F8
S11300400C949F120C9410010C9410010C94100148
S11300500C94E70E0C94A50E0C9410010C94100152
S11300600C9410010C9410010C9410010C941001C8
S11300700C9410010C9410010C94100123232348B8
S11300804947482053434F5245532323230050727A
S1130090657373206120627574746F6E20746F20B1
S11300A0737461727420616761696E0047414D45E4
S11300B0204F5645520021011E011A01160112015A
S11300C00E010A0106010201FE0090018C01880163
S11300D0840180017C017801740171016D01690161
S11300E0650160015C01580154014F014B01470156
S11300F042013E01390134012F012A012501649294
S1130100927D6C92926D809EA0C17C92924DE4A2ED
S1130110A29D182848FF4492926D468A926342FE3B
S1130120037C92A27D868A92A2C3E0100E10E1C6DF
S1130130281028C7FC021C02FDF8040204F9FC0282
S113014002FD8080FE80816492924DFE9098677CCF
S1130150828A7C03FE9090617C82827DFE2010FF67
S1130160FE403040FFFE020203FE1028C7040202D4
S1130170FD82FE83FE1010FF7C82925DFE909081D2
S1130180FE929283FE82827D7C828245FE92926DF3
S11301907E90907F43535345323031302F37323085
S11301A03120536E616B652050726F6A65637420F1
S11301B06279204A61636B20456164696500536E0E
S11301C0616B65001B5B3F323568001B5B3F32355A
S11301D06C001B5B25646D001B5B324A001B5B25B6
S11301E0643B2564480011241FBECFEFD8E0DEBF76
S11301F0CDBF12E0A0E0B1E0E6E8F2E302C0059072
S11302000D92A836B107D9F723E0A8E6B2E001C001
S11302101D92A43EB207E1F70E94660B0C944119AB
S11302200C940000E8E6F0E0808182608083D99A33
S1130230ECE6F0E080818F6080831092680208957C
S11302401092680208958091680218163CF5809116
S113025069026FB7F894909168029230B4F021E08B
S113026030E091E0F901E759FD4F4081F901E85987
S1130270FD4F40839F5F292F30E040916802042E98
S1130280000C550B241735076CF3909168029150BC
S11302909093680266231CF4789408958FEF089570
S11302A01F920F920FB60F9211242F933F934F93E7
S11302B05F936F937F938F939F93EF93FF9343B1D8
S11302C04F7080916802883064F580E090E0642F7C
S11302D070E09B01082E02C0359527950A94E2F739
S11302E020FF1BC02091710230E0082E02C035951A
S11302F027950A94E2F720FD10C0E091680221E0FE
S11303002E0F209368020E2E000CFF0BE759FD4FB1
S1130310808320916802283024F40196843091056A
S1130320C1F640937102FF91EF919F918F917F915C
S11303306F915F914F913F912F910F900FBE0F904E
S11303401F901895089589B183FB882780F9089533
S1130350CF92DF92EF92FF920F931F930E9452125B
S113036040917202509173026A01550FEE08FF0822
S11303700091B3021091B4022091B5023091B602FB
S1130380C00ED11EE21EF31E21E030E06C157D0587
S11303908E059F0510F020E030E0C9011F910F91F8
S11303A0FF90EF90DF90CF900895E091B002EF5F5F
S11303B0E093B002A091B102B091B202F0E0EE0F6E
S11303C0FF1F8D919C91E80FF91F808191810E94FC
S11303D0F3120E9452126093B3027093B40280939A
S11303E0B5029093B602A091B102B091B202E0912D
S11303F0B002F0E0EE0FFF1F12968D919C911397BF
S1130400E80FF91F808191819093730280937202A7
S1130410089555981092B2021092B10208958DE099
S113042091E09093B2028093B1028FEF8093B00277
S11304300E94D5010E94A30181110E94F81208951F
S113044088E091E09093B2028093B1028FEF8093A1
S1130450B0020E94D5010E94A30181110E94F812EA
S1130460089582E191E09093B2028093B1028FEFFC
S11304708093B0020E94D5010E94A30181110E94C1
S1130480F81208952091B00230E02F5F3F4FE091C1
S1130490B102F091B202448150E081E090E024176F
S11304A0350714F480E090E008950E94A801892B98
S11304B039F40E944202892B19F00E94090208951E
S11304C00E94A801892B11F40E94D501089580E8A7
S11304D091E00E94BD1821E06115724181059105EA
S11304E009F020E0822F0895DF92EF92FF920F939C
S11304F01F93CF93DF93CDB7DEB762970FB6F8940F
S1130500DEBF0FBECDBFF89440E052E160E070E082
S113051080E891E00E94DB1880E00E94BE07898396
S113052081E00E94BE078A8382E00E94BE078B831B
S113053083E00E94BE078C830E94820B8E830E94FC
S1130540090D69877A878B879C870E94A4089887FE
S11305508F830E94720F8D870E9452126E877F874D
S1130560888B998B0E94900F8A8B0E94D0108823CD
S113057021F00E941A118D8302C088E08D8342E12C
S113058050E060EA71E0CE0101960E94C3180E9417
S11305908D0F182F0E948A0F811708F043C00E9404
S11305A08D0FD82E082F10E0013211051CF50F2EE7
S11305B0F0E3EF2EF2E0FF2EF02D802F0E94750F56
S11305C0682FC7010E94CD1888E0E80EF11C0F5F68
S11305D01F4F0132110589F70D2D10E0119501957A
S11305E01109000F111F000F111F000F111F085CCC
S11305F01C4F02C000E312E0E12CF12C0CC08E2D44
S11306000E94750F682FC8010E94CD18085F1F4F04
S11306108FEFE81AF80A0E948A0F90E08E159F0562
S113062074F719C00E948D0FE82EF12C00E312E03C
S11306300CC08E2D0E94750F682FC8010E94CD1822
S1130640085F1F4F8FEFE81AF80A0E948A0F90E0A4
S11306508E159F0574F768E0C8010E94CD18789440
S113066062960FB6F894DEBF0FBECDBFDF91CF9177
S11306701F910F91FF90EF90DF900895CF93C82FB3
S11306800E949809882389F0E091BC020E2E000C88
S1130690FF0BE354FD4FC08363E38C2F0E94DE07FE
S11306A08091BC028F5F8093BC02CF910895CF9359
S11306B0C82F0E949809882321F08C2F0E94850B53
S11306C002C00E94760CCF910895CF93C82F0E9448
S11306D09809882321F08C2F0E94CA1002C00E941E
S11306E0F910CF9108950F931F93CF93DF9380E078
S11306F00E94870F0E94720F81500E94840F10E0A5
S1130700C0E3D2E0CE010E94B518082F612F0E94E9
S11307107E0F60EF802F0E94DE0728961F5FCE01B8
S11307200E94B5180E9498098111ECCF0E945B0FBA
S11307306FE00E94DE07DF91CF911F910F91089522
S1130740CF93DF93CDB7DEB762970FB6F894DEBFD1
S11307500FBECDBF0E946702882309F442C00E94E5
S1130760AD110E948F090E94F61142E150E060EA47
S113077071E0CE0101960E94A51869857A858B8562
S11307809C850E94120D6E857F85888999890E94B7
S11307905D120E9411128F8198850E94A9088E8192
S11307A00E9457030E94DC1289810E943E038A81C1
S11307B00E943E038B810E943E038C810E943E0373
S11307C08D810E9465038D850E947B0F8A890E941A
S11307D0640F0E9473030E9420010E94A00E1092D5
S11307E0780262960FB6F894DEBF0FBECDBFDF91DC
S11307F0CF9108950F931F93CF93DF93CDB7DEB7B7
S113080027970FB6F894DEBF0FBECDBF8C0147E02B
S113081050E0BC01CE0101960E94A518B801605CAD
S11308207F4F47E050E0CE0101960E94C3182796FF
S11308300FB6F894DEBF0FBECDBFDF91CF911F91ED
S11308400F91089580910001909101010E94FA0393
S113085008950E9422048091C0009091C1000E94DA
S1130860FA0308950E9429048091800090918100E8
S11308700E94FA0308950E94320480B591B50E9443
S1130880FA030895CF93DF93CDB7DEB727970FB65A
S1130890F894DEBF0FBECDBF44E352E160E070E0E8
S11308A080E090E00E94DB1880E289838A838B8356
S11308B01C821D821E821F82E0B5F1B560817181A8
S11308C047E050E0CE0101960E94C318E0918000F9
S11308D0F09181006081718147E050E0CE01019682
S11308E00E94C318E091C000F091C1006081718141
S11308F047E050E0CE0101960E94C318E091000148
S1130900F09101016081718147E050E0CE010196D0
S11309100E94C318E0914001F0914101608171810E
S113092047E050E0CE0101960E94C31827960FB607
S1130930F894DEBF0FBECDBFDF91CF91089580E064
S113094090E00E94BD1821E0643372418105910555
S113095009F020E0822F0895CF92DF92EF92FF9268
S1130960CF93DF93CDB7DEB727970FB6F894DEBFEA
S11309700FBECDBF0E94090D6B017C01E0914001C7
S1130980F09141016081718147E050E0CE01019610
S11309900E94A5188C819D81AE81BF81C816D9069D
S11309A0EA06FB0638F40E949F0491E0811190E06E
S11309B0892F01C081E027960FB6F894DEBF0FBEE1
S11309C0CDBFDF91CF91FF90EF90DF90CF9008954E
S11309D0CF92DF92EF92FF92CF93DF93CDB7DEB742
S11309E027970FB6F894DEBF0FBECDBF0E949F04B9
S11309F0811103C080B591B578C00E94090D6B01C7
S1130A007C01E0B5F1B56081718147E050E0CE0131
S1130A1001960E94A5188C819D81AE81BF818C15A1
S1130A209D05AE05BF0518F480B591B55EC0E09193
S1130A308000F09181006081718147E050E0CE0137
S1130A4001960E94A5188C819D81AE81BF818C1571
S1130A509D05AE05BF0528F480918000909181002A
S1130A6044C0E091C000F091C1006081718147E011
S1130A7050E0CE0101960E94A5188C819D81AE8123
S1130A80BF818C159D05AE05BF0528F48091C0007B
S1130A909091C1002AC0E0910001F09101016081B0
S1130AA0718147E050E0CE0101960E94A5188C8127
S1130AB09D81AE81BF818C159D05AE05BF0528F4CF
S1130AC0809100019091010110C0E0914001F091EA
S1130AD041016081718147E050E0CE0101960E949E
S1130AE0A518809140019091410127960FB6F89482
S1130AF0DEBF0FBECDBFDF91CF91FF90EF90DF90AF
S1130B00CF9008950F931F93CF93DF93CDB7DEB7A4
S1130B1027970FB6F894DEBF0FBECDBF44E352E172
S1130B2060E070E080E090E00E94DB180E94E8043E
S1130B30FC01008111810038110591F020F400348A
S1130B40110589F012C0003C110539F00115F1E0DE
S1130B501F0759F40E94220408C00E94290405C0FA
S1130B600E94320402C00E943B04E4E7F2E0808168
S1130B70898381818A8382818B830E94090D6C839E
S1130B807D838E839F8347E050E0B801CE010196B8
S1130B900E94C31827960FB6F894DEBF0FBECDBFD0
S1130BA0DF91CF911F910F910895EF92FF920F93D0
S1130BB01F93CF93DF9368E08AE00E94941180E74B
S1130BC091E09F938F930E94A1150F900F9000E0E6
S1130BD010E00F2EFEEDEF2EF3E0FF2EF02D0E941D
S1130BE0CC110E94990E8823D1F3F7018081918161
S1130BF00E946315EC01982F91549A3398F40330B2
S1130C00110584F469E08AE0800F0E949411F801D0
S1130C10EC58FD4FC083CE0199270E94DD150F5F6C
S1130C201F4FDDCF8A3021F402301105C4F211C008
S1130C308F37A9F680E290E00E94DD1510161106A8
S1130C4014F40150110969E08AE0800F0E949411A4
S1130C50C6CFF999FECF0E948205E4E7F2E080E274
S1130C60808381838283DF91CF911F910F91FF90C5
S1130C70EF900895CF93DF93CDB7DEB727970FB6E4
S1130C80F894DEBF0FBECDBF6BE08AE00E949411E2
S1130C908CE790E09F938F930E94B7156DE08AE0F4
S1130CA00E9494110E949F040F900F90882309F4CE
S1130CB0C8C0E0B5F1B56081718147E050E0CE0174
S1130CC001960E94A5188F818F938E818F938D81B9
S1130CD08F938C818F938B811F928F938A811F9224
S1130CE08F9389811F928F9389EA91E09F938F93C9
S1130CF00E94A1156EE08AE00E949411E0918000A8
S1130D00F09181006081718147E050E0CE0101964D
S1130D100E94A5188F818F938E818F938D818F93DD
S1130D208C818F938B811F928F938A811F928F93D3
S1130D3089811F928F938BEB91E09F938F930E94F5
S1130D40A1156FE08AE00E949411E091C000F09137
S1130D50C1006081718147E050E0CE0101960E949C
S1130D60A5188F818F938E818F938D818F938C8122
S1130D708F938B811F928F938A811F928F93898186
S1130D801F928F938EEC91E09F938F930E94A115F5
S1130D900FB6F894DEBF0FBECDBF60E18AE00E94BB
S1130DA09411E0910001F09101016081718147E0AB
S1130DB050E0CE0101960E94A5188F818F938E81F9
S1130DC08F938D818F938C818F938B811F928F93BF
S1130DD08A811F928F9389811F928F9380EE91E075
S1130DE09F938F930E94A11561E18AE00E94941160
S1130DF0E0914001F09141016081718147E050E050
S1130E00CE0101960E94A5188F818F938E818F93B6
S1130E108D818F938C818F938B811F928F938A8185
S1130E201F928F9389811F928F9383EF91E09F93F9
S1130E308F930E94A1150FB6F894DEBF0FBECDBFED
S1130E400AC00E94420485E092E09F938F930E941F
S1130E50A1150F900F9027960FB6F894DEBF0FBE22
S1130E60CDBFDF91CF9108951092BC0208953091C7
S1130E70BC02131684F49091BD02891771F0EEEB55
S1130E80F2E090E003C02191281749F09F5F3913E5
S1130E90FACF8FEF08958FEF089580E00895892F9A
S1130EA008950E94370791E08F3F09F490E0892F5D
S1130EB00895FF920F931F93CF93DF938091BC0209
S1130EC088300CF044C000E010E0D0E0C0E002C084
S1130ED00F5F1F4F2C2FCC0F330B2D5F3F4F200F75
S1130EE0311F2F703078332334F421503109206FAF
S1130EF03F6F2F5F3F4F822FC22F6D2FDD0F770B78
S1130F006B5F7F4F67707078772334F46150710999
S1130F10686F7F6F6F5F7F4FD62F0E949E09F82EF8
S1130F2003361105B1F00E94C80F8111D1CF8F2D66
S1130F300E9451078111CCCF8F2D0E941D11811168
S1130F40C7CF8F2D0E946F0C8111C2CF04C088E0DF
S1130F500FC088E00DC08091BC02E82F082E000C61
S1130F60FF0BE354FD4FF0828F5F8093BC028F2D03
S1130F70DF91CF911F910F91FF900895E82F880F73
S1130F80FF0BE354FD4F808108958823B4F0209132
S1130F90BC02821794F48F5F821764F4E82F082E42
S1130FA0000CFF0BE354FD4F9081319790838F5FCA
S1130FB08217A4F321502093BC0208951F93CF936A
S1130FC0DF93C82F162F0E949609D82F8C2F0E94CA
S1130FD09309412F6D2F0E944C09DF91CF911F91EE
S1130FE00895CF93DF930E948F090E94F61188E53C
S1130FF092E090934401809343010E94760C0E94F6
S11310000F020E943A0F0E945B0F6FE00E94DE07FE
S11310100E94690F60EF0E94DE070E943407C3E05C
S11310200E945907D82F0E949809882321F063E36E
S11310308D2F0E94DE07C15099F7DF91CF9108955B
S113104080914301909144018B3F9105A4F06091FC
S113105043017091440180E090E00E94291326E648
S113106036E646E65FE30E948F130E94FA127093FD
S113107044016093430108950F931F93CF93DF932B
S11310800E945B0FD82F0E94EB0FC82F88230CF40B
S113109055C081E090E00E94F40C0E945B0F182F71
S11310A08EEF8C0F8230C0F4812F0E9437070E948C
S11310B0C5070E94200282E090E00E94F40C0E9486
S11310C020080E945907082F0E949809882321F0BC
S11310D063E3802F0E94DE078CEF8C0F823050F484
S11310E00E94111189E090E00E94F40C0E942008F3
S11310F00E9420028AEF8C0F823050F40E94760CFA
S113110084E090E00E94F40C0E9420080E942002D7
S1131110CD7FC13011F0C53029F40E94930F60E0F7
S11311200E94DE0760EF8D2F0E94DE076FE0812FA3
S11311300E94DE070E94111281E001C080E0DF916D
S1131140CF911F910F910895809143019091440193
S113115008959093440180934301089540E060E032
S11311607BE480E090E00E94520E789480E48093C7
S11311707C0086E880937A0087E292E00E94E4157E
S1131180089580917702811106C0ECE7F0E0808138
S11311908E7F808305C0ECE7F0E0808181608083EE
S11311A0EAE7F0E0808180648083808186FDFDCF62
S11311B020917800309179003093C6022093C502C3
S11311C08091770291E0982790937702C90108955E
S11311D00F931F93CF93DF9380917702882399F025
S11311E00E94C1082091450130914601EC01C21BC7
S11311F0D30B0E94C10820914501309146018C0116
S1131200021B130B12C00E94C108209145013091AA
S113121046018C01021B130B0E94C1082091450159
S113122030914601EC01C21BD30B9E01DD2324F453
S1131230222733272C1B3D0BC801112324F48827B4
S11312409927801B910B8217930764F440914701FF
S1131250509148014217530728F41C161D0674F0D8
S113126082E011C0209147013091480128173907C5
S113127038F41016110634F083E005C080E003C092
S11312808FEF01C081E0DF91CF911F910F910895FD
S113129080E80E949C1008951F93CF93DF938031C0
S11312A0B0F46830A0F4142FC62FD82F81E00E9428
S11312B0C4106C2F677080E1689F900111248D2FFA
S11312C08F70822B0E94C410812F0E94C410DF9162
S11312D0CF911F9108950F931F93CF93DF93803184
S11312E090F48B01C82F83E00E94C4108C2F8F7060
S11312F00E94C410E801085F1F4F89910E94C41026
S1131300C017D107D1F7DF91CF911F910F910895A5
S113131084E00E94C41082E00E94C41008958FE00B
S11313200E94C410089582958F7008958F70089557
S113133083FB882780F991E08927089520E1829F23
S1131340C00111246770862B08950E9448090E94E9
S1131350AE080E94120140E060E07BE480E090E08F
S11313600E94520E0E942A1278940895FF920F93BD
S11313701F93CF93DF9380E00E94B6110E94AD11BA
S11313800E94C3110E94D5110E948F09CFE00F2E35
S1131390FFE0FF2EF02D0FEF10EFD5E16C2F80E36F
S11313A092E00E941B0D0DC02FE78CE293E02150C8
S11313B080409040E1F700C000000E9423018F3F6D
S11313C0A9F50E942A0D8111EFCF0E940C15DC01B2
S11313D0CB0183709927AA27B078BB2354F40197D3
S11313E0A109B1098C6F9F6FAF6FBF6F0196A11DEB
S11313F0B11D81309105A105B10591F02CF4892B23
S11314008A2B8B2B59F0CACF82309105A105B105E7
S113141049F00397A105B10539F0C0CFCD2FBECF58
S1131420CF2DBCCFC02FBACFC12FB8CFDF91CF9172
S11314301F910F91FF9008950E94AD110E94F10732
S11314400E94EB0C0E9420010E94A00E08954F926E
S11314505F927F928F929F92AF92BF92CF92DF92D0
S1131460EF92FF920F931F93CF93DF930E94521238
S11314704B015C0100E01FEF0F2EFFED7F2EF02DDE
S11314800F2EFEED4F2EF3E05F2EF02D0E94D310B1
S113149081110E942A110E94E91081110E94F91001
S11314A00E94D90C81110E94EA0B0E944912892BD7
S11314B019F00E94200106C00E942301D82F8F3FFB
S11314C009F090C00E94990E882309F499C0F20192
S11314D0808191810E946315C82F011103C08B3153
S11314E051F48BC0013019F48B3529F488C00230D3
S11314F009F47DC071C00E944912892B49F043C090
S1131500DD2311F008C000E081E00E94AA0F47C06B
S113151000E0D12F01C0C12FD23019F0812F8134C6
S113152021F480E00E94AA0F3AC0D33011F0843431
S113153021F483E00E94AA0F32C0D13011F082342A
S113154029F482E00E94AA0F2AC000E08C2F8F7D2C
S1131550803519F40E94421222C0C33719F40E9444
S113156074021DC00E946702882341F08C2F8F7D76
S11315708F3421F481E08093780255C08C2F8F7DC5
S11315808E3469F450C08C2F8F7D803521F40E94F5
S1131590421200E004C000E08E3409F444C00E940A
S11315A052126B017C010E94A408092E000CAA0BA4
S11315B0BB0B880D991DAA1DBB1DC816D906EA06CA
S11315C0FB0608F463CF0E943C08882361F10E9463
S11315D052124B015C015ACF0E944912892B09F423
S11315E0B4CFD1CF0E944912892BC9F689CF0E946A
S11315F04912892B51F000E014C001E001C002E05F
S11316000E944912892B69F408C0C33409F47BCFC2
S11316108C2F00E0C12FD12F82CF0E946702C12FEF
S1131620ADCF872DB9CFDF91CF911F910F91FF904F
S1131630EF90DF90CF90BF90AF909F908F907F906E
S11316405F904F9008950E9431020E94AD1165E0B1
S11316508AE00E9494118CEA90E09F938F930E94F9
S1131660B71567E08AE00E9494110E94090D9F93C8
S11316708F937F936F9382E492E09F938F930E9462
S1131680A1150E943A060E94AC042DB73EB7285F0C
S11316903F4F0FB6F8943EBF0FBE2DBF81110E947D
S11316A0D50569E08AE00E9494118EE890E09F934A
S11316B08F930E94B7150E943A060F900F900E94D4
S11316C023018F3FE1F30E94AD1108950E94A50903
S11316D08FEF87B9529A53980E94DC120E94B60980
S11316E080917802882319F00E94A00302C00E940E
S11316F01C0A0E94270A809178028111F1CF0E946E
S1131700230BEECF8091C7020895CF93DF93C82FA8
S11317108091C7020E949609D82F8091C7020E9427
S1131720930940E06D2F0E944C09C093C7028C2F8F
S11317300E949609D82F8C2F0E94930943E36D2FA2
S11317400E944C09DF91CF9108951F93CF93DF93AB
S1131750182F8091C7020E949309C82F8091C70255
S11317600E949609D82F8FEF8C0F8E3020F48FEFC4
S11317708D0F863018F1C11106C0812F0E94930984
S11317808F3041F41DC0CF3029F4812F0E9493097A
S11317908823C1F0D11108C0812F0E94960991E0DD
S11317A0873099F090E011C0D73071F4812F0E94F6
S11317B0960991E0882349F090E007C090E005C0C5
S11317C091E003C091E001C090E0892FDF91CF91B7
S11317D01F9108951F93CF93DF9360E080E00E94F0
S11317E09E09182F0E94B11483709078992324F4D1
S11317F001978C6F9F6F0196C82FD0E0C130A9F07C
S113180028F0C23009F1C33071F13BC08091C702A6
S11318100E949609182F8091C7020E94930961E0E3
S1131820610F0E949E09182F2CC08091C7020E944C
S11318309609182F8091C7020E9493096FEF610FD8
S11318400E949E09182F1DC08091C7020E9496090C
S1131850182F8091C7020E949309612F8F5F0E9405
S11318609E09182F0EC08091C7020E949609182F56
S11318708091C7020E949309612F81500E949E09A2
S1131880182FDF5F8C2F90E0019683709078992356
S113189024F401978C6F9F6F0196C82F812F0E94AB
S11318A0C80F81110FC0812F0E94A50B81110AC09E
S11318B0812F0E941D11811105C0812F0E945107A3
S11318C0882321F0D43009F099CF02C0D53018F420
S11318D0812F0E94850BDF91CF911F91089591E094
S11318E02091C702281390E0892F08951F93CF9366
S11318F0DF930E94B114EC010E94B114BC01677023
S11319007078772334F461507109686F7F6F6F5F6B
S11319107F4FCE018F709078992324F40197806FC4
S11319209F6F01960E949E09C82F13E61EC00E9455
S1131930B114EC010E94B114BC0167707078772374
S113194034F461507109686F7F6F6F5F7F4FCE0110
S11319508F709078992324F40197806F9F6F01967C
S11319600E949E09C82F115091F08C2F0E94C80F1D
S11319708111DDCF8C2F0E9451078111D8CF0E9495
S11319801A118C17A1F28091C7028C1781F2C093AF
S1131990C7028C2F0E949609C82F8091C7020E940B
S11319A0930943E36C2F0E944C09DF91CF911F915F
S11319B008950E9452122091490130914A0140E059
S11319C050E00E94241421E0672B682B692B09F056
S11319D020E0822F08951092790210927A021092D8
S11319E07B0210927C0208954091790250917A0210
S11319F060917B0270917C02480F591F611D711D1B
S1131A004093790250937A0260937B0270937C0234
S1131A1008956091790270917A0280917B0290918D
S1131A207C0208956093790270937A0280937B021A
S1131A3090937C02089560934B019093810280936C
S1131A408002109283021092820210927F021092FE
S1131A507E0208950F931F93CF93DF93CDB7DEB724
S1131A6028970FB6F894DEBF0FBECDBFE091820277
S1131A70F0918302309781F0149110FF06C0109208
S1131A8083021092820200E06BC03196F0938302CD
S1131A90E093820200E064C0E0917E02F0917F0254
S1131AA0309709F449C0CF01019690937F02809347
S1131AB07E02E081E1110AC010927F0210927E0240
S1131AC080E180937D0200E010E04AC08FE98E0F30
S1131AD08A3170F4F0E0EE0FFF1FE85FFF4F85914D
S1131AE09491909383028093820200E010E038C0C6
S1131AF08FEB8E0F8A3170F4F0E0EE0FFF1FE85B7E
S1131B00FF4F85919491909383028093820200E029
S1131B1010E026C080ED8E0F8A3000F5F0E0EE0F65
S1131B20FF1FEA5AFF4F859194919093830280930B
S1131B30820200E010E014C0809180029091810242
S1131B4001E0009709F000E090937F0280937E0209
S1131B50109281021092800210E002C000E010E0B6
S1131B600E94880920914B01FE013896CE0101960E
S1131B70112314F4208301C01082110F3197E81748
S1131B80F907B1F71982BE016F5F7F4F8FE00E94A2
S1131B906B0980917D02882389F0815080937D02B6
S1131BA0002311F0882311F090E003C091E001C0FC
S1131BB091E081E0992329F080E003C00023A1F3A0
S1131BC0F7CF28960FB6F894DEBF0FBECDBFDF91D6
S1131BD0CF911F910F910895CF93C82F8A3019F494
S1131BE08DE00E94EC0D9FB7907802C0992329F1F3
S1131BF08091C9028F3FD1F3F894E091C80281E04B
S1131C008E0F8093C802F0E0E653FD4FC0838091AD
S1131C10C9028F5F8093C9028091C8028F3F11F47B
S1131C201092C802E1ECF0E0808180628083992305
S1131C3039F0789480E090E005C081E090E002C043
S1131C4080E090E0CF9108958091DB038823E1F355
S1131C502FB72078F8948091C9033091DB0390E08A
S1131C60831B91095AF4E091C9038091DB03F0E0EE
S1131C70E81BF109E652FC4F80810AC0E091C903D8
S1131C808091DB03F0E0E81BF109E653FC4F80810F
S1131C909091DB0391509093DB03222309F0789415
S1131CA090E008951092C8021092C9021092C903DC
S1131CB01092DB031092DA0340938402DC01CB011F
S1131CC0880F991FAA1FBB1F880F991FAA1FBB1F2C
S1131CD09C01AD01220F331F441F551F60E072E1C8
S1131CE08AE790E00E944614BA01A9014F5F5F4F52
S1131CF06F4F7F4FDB01CA011AF40196A11DB11D7C
S1131D00B595A7959795879501979093C50080936E
S1131D10C400E1ECF0E088E1808380818068808306
S1131D20EEEDF3E08CE491E09383828391838083EE
S1131D3008959091DB0381E0911101C080E0089542
S1131D401092C9031092DB0308951F920F920FB6ED
S1131D500F9211242F938F939F93EF93FF9380916E
S1131D60C902882329F18091C8022091C90290E018
S1131D70821B91095AF4E091C8028091C902F0E0F3
S1131D80E81BF109E753FC4F90810AC0E091C802B7
S1131D908091C902F0E0E81BF109E653FD4F908100
S1131DA08091C90281508093C9029093C60005C0F6
S1131DB0E1ECF0E080818F7D8083FF91EF919F9132
S1131DC08F912F910F900FBE0F901F9018951F9217
S1131DD00F920FB60F9211242F933F934F935F935B
S1131DE06F937F938F939F93AF93BF93CF93EF930F
S1131DF0FF93C091C60080918402882349F08091AA
S1131E00C9028F3F29F060E070E08C2F0E94EC0D36
S1131E108091DB03803120F081E08093DA0318C0E5
S1131E20CD3009F4CAE0E091C90381E08E0F8093BC
S1131E30C903F0E0E653FC4FC0838091DB038F5F5E
S1131E408093DB038091C903803111F41092C9039C
S1131E50FF91EF91CF91BF91AF919F918F917F911E
S1131E606F915F914F913F912F910F900FBE0F9003
S1131E701F9018950F931F93CF9382E0809389024C
S1131E8010928702C1E0C093880261E081E00E9461
S1131E909E090AE812E0F801808361E082E00E9472
S1131EA09E09F8018183C0938602C0938502CF9175
S1131EB01F910F910895E09188020E2E000CFF0BE4
S1131EC0E657FD4F808108958093860280938502B2
S1131ED00895E09187020E2E000CFF0BE657FD4F8C
S1131EE080810895809189020895E82FF0E0E657F3
S1131EF0FD4F80810895809389020895E62FF0E0D4
S1131F00E657FD4F80830895809388020895809357
S1131F108702089580918802089580918702089528
S1131F2080918602089590918702E92F092E000C72
S1131F30FF0BE657FD4F80819F5F913219F090931C
S1131F40870202C010928702909189029150909367
S1131F5089020895909186029130A9F028F0923078
S1131F6041F0933059F00895823089F080938502CE
S1131F700895882361F0809385020895813039F0B3
S1131F80809385020895833011F08093850208952B
S1131F90909187023091880240E00DC0E92F092E0C
S1131FA0000CFF0BE657FD4F2081281789F09F5F37
S1131FB091320CF0942F9313F1CFE32F330FFF0BD7
S1131FC0E657FD4F91E02081281719F090E001C0F9
S1131FD091E0892F08950F931F93CF93DF938091FE
S1131FE08902813208F098C0E09188020E2E000C1C
S1131FF0FF0BE657FD4F80810E949309182FC82FCD
S1132000E09188020E2E000CFF0BE657FD4F8081F5
S11320100E949609082FD82F0E94E8088F3F21F0CC
S11320200E94E8080E94AA0F80918502813059F02D
S113203028F0823069F0833081F01BC0D73091F0F2
S1132040D1E0D00F16C0CF3079F0C1E0C10F11C07C
S1132050DD2361F0DFEFD00F0CC0CC2349F0CFEFCC
S1132060C10F07C0D0E005C0C0E003C0D7E001C085
S1132070CFE06D2F8C2F0E949E09C82F809185027E
S1132080909186029813809386028C2F0E94C80F29
S1132090882351F0E09187020E2E000CFF0BE657C7
S11320A0FD4F8081C8133AC0809188028F5F8132CE
S11320B019F08093880202C010928802E09188028D
S11320C00E2E000CFF0BE657FD4FC0838091890252
S11320D08F5F809389028C2F0E946F0C882331F0CC
S11320E0809189028132E0F087E021C08C2F0E9428
S11320F01D11882331F080918902813298F085E0A6
S113210016C08C2F0E945107882371F08091890298
S1132110813260F083E00BC08DEF09C08EEF07C001
S113212086E005C084E003C081E001C082E0DF9165
S1132130CF911F910F91089594B1906B94B92C9AFB
S113214090E59CBD883021F0803211F0823019F482
S113215091E09DBD01C01DBC803269F028F4883037
S113216071F0803161F00EC0803429F0803851F470
S11321708CB581608CBD8CB582608CBD03C08CB580
S113218081608CBD2C9808958EBD0DB407FEFDCFE3
S11321908EB508958093DC0381E08093DD03089578
S11321A08091DD0308950E94521268597A4381098F
S11321B0910920E23EE440E050E00E942414672BA1
S11321C0682B692B21F40E94521281E0089580E06B
S11321D008950E94521220E23EE440E050E00E9442
S11321E0241421E0672B682B692B09F020E0822F4F
S11321F00895CF938091DC030E949609C82F8091A3
S1132200DC030E94930940E06C2F0E944C0960E0BB
S113221080E00E949E098093DC031092DD03CF913D
S1132220089560E080E00E949E098093DC03109290
S1132230DD0308958091DC0308959091DD039923D3
S113224039F091E02091DC03281390E0892F089560
S113225080E008951F93CF93DF930E94F9100E94AA
S1132260B114EC010E94B114BC016770707877233B
S113227034F461507109686F7F6F6F5F7F4FCE01D7
S11322808F709078992324F40197806F9F6F019643
S11322900E949E09C82F13E61EC00E94B114EC01CF
S11322A00E94B114BC0167707078772334F46150D4
S11322B07109686F7F6F6F5F7F4FCE018F70907869
S11322C0992324F40197806F9F6F01960E949E09C1
S11322D0C82F1150A1F08C2F0E94C80F8111DDCF9F
S11322E08C2F0E9451078111D8CF8C2F0E941D1171
S11322F08111D3CF8C2F0E946F0C8111CECFC0934C
S1132300DC038C2F0E949609C82F8091DC030E9465
S113231093094CE36C2F0E944C0981E08093DD0308
S1132320DF91CF911F910895282F082E000C330BB5
S11323303F938F93862F062E000C990B9F936F93D8
S11323408DED91E09F938F930E94B7150F900F909E
S11323500F900F900F900F90089588ED91E09F9348
S11323608F930E94B7150F900F9008951F928F932B
S113237082ED91E09F938F930E94B7150F900F9079
S11323800F900F9008958BEC91E09F938F930E9490
S1132390B7150F900F90089584EC91E09F938F935D
S11323A00E94B7150F900F90089563E083E00E9498
S11323B094118EEB91E09F938F930E94B71565E083
S11323C083E00E94941180E20E94B61184E991E0B6
S11323D09F938F930E94B71585E20E94B6110E94C5
S11323E03A060F900F900F900F9008950E94C3111A
S11323F061E08AE00E9494118DE492E09F938F93B0
S11324000E94A11563E081E00E94941183E592E0AB
S11324109F938F930E94A1150F900F900F900F9090
S113242008950E94C31163E081E00E9494110E9408
S1132430090D9F938F937F936F938CE592E09F9305
S11324408F930E94A1150F900F900F900F900F90F3
S11324500F9008951092AB021092AC021092AD024C
S11324601092AE0216BC8CE787BD82E084BD83E087
S113247085BDEEE6F0E080818260808385B3827062
S113248085BB089590916F0181E0891B80936F0152
S1132490089520916F0181E090E0222311F080E003
S11324A090E00895F8946091AB027091AC02809131
S11324B0AD029091AE0278940895F8946093AB02C3
S11324C07093AC028093AD029093AE027894089519
S11324D080916E01882399F017B85A9A8FEF87B9C3
S11324E00E94720FEDEC8E9FE12D1124E695E69586
S11324F0E695F0E0EC59FE4F808188B919C017B811
S11325005A988FEF87B90E94720F9DEC899F912D85
S11325101124969596959695990F292F220F220F9F
S1132520920F891BE82FF0E0E65AFE4F808188B9AC
S113253090916E0181E0891B80936E0108951F9232
S11325400F920FB60F9211242F933F934F935F93E3
S11325506F937F938F939F93AF93BF93EF93FF9367
S113256080916F01882399F08091AB029091AC0225
S1132570A091AD02B091AE020196A11DB11D809350
S1132580AB029093AC02A093AD02B093AE020E9452
S113259068120E945502FF91EF91BF91AF919F91F4
S11325A08F917F916F915F914F913F912F910F90F8
S11325B00FBE0F901F901895109285001092840002
S11325C0E1E8F0E080818A60808380E48093800089
S11325D088EE93E0909389008093880055985398EF
S11325E00E94A20108959093890080938800089521
S11325F0559A08950E946E1388F09F5798F0B92F4A
S11326009927B751B0F0E1F0660F771F881F991F23
S11326101AF0BA95C9F714C0B13091F00E9488132A
S1132620B1E008950C948813672F782F8827B85F3A
S113263039F0B93FCCF3869577956795B395D9F77B
S11326403EF490958095709561957F4F8F4F9F4F85
S11326500895E89409C097FB3EF490958095709591
S113266061957F4F8F4F9F4F9923A9F0F92F96E9DA
S1132670BB279395F695879577956795B795F1114F
S1132680F8CFFAF4BB0F11F460FF1BC06F5F7F4FEC
S11326908F4F9F4F16C0882311F096E911C07723FE
S11326A021F09EE8872F762F05C0662371F096E807
S11326B0862F70E060E02AF09A95660F771F881FD6
S11326C0DAF7880F9695879597F9089557FD9058EE
S11326D0440F551F59F05F3F71F04795880F97FBE2
S11326E0991F61F09F3F79F087950895121613069C
S11326F01406551FF2CF4695F1DF08C016161706CB
S11327001806991FF1CF86957105610508940895FF
S1132710E894BB2766277727CB0197F908950E9491
S1132720A2130C9413140E94051438F00E940C1484
S113273020F0952311F00C94FC130C940214112432
S11327400C9489130E94661370F3959FC1F3950F3F
S113275050E0551F629FF001729FBB27F00DB11D21
S1132760639FAA27F00DB11DAA1F649F6627B00DB1
S1132770A11D661F829F2227B00DA11D621F739F9A
S1132780B00DA11D621F839FA00D611D221F749FA8
S11327903327A00D611D231F849F600D211D822FEF
S11327A0762F6A2F11249F5750409AF0F1F0882316
S11327B04AF0EE0FFF1FBB1F661F771F881F915043
S11327C05040A9F79E3F510580F00C94FC130C94E3
S11327D089135F3FE4F3983ED4F386957795679524
S11327E0B795F795E7959F5FC1F7FE2B880F911D6D
S11327F09695879597F9089597F99F6780E870E013
S113280060E008959FEF80EC089500240A94161662
S1132810170618060906089500240A9412161306CA
S1132820140605060895092E0394000C11F4882358
S113283052F0BB0F40F4BF2B11F460FF04C06F5F74
S11328407F4F8F4F9F4F0895A1E21A2EAA1BBB1BE7
S1132850FD010DC0AA1FBB1FEE1FFF1FA217B30768
S1132860E407F50720F0A21BB30BE40BF50B661F7E
S1132870771F881F991F1A9469F760957095809542
S113288090959B01AC01BD01CF010895052E97FBE6
S11328901EF400940E945D1457FD07D00E94241476
S11328A007FC03D04EF40C945D145095409530957C
S11328B021953F4F4F4F5F4F0895909580957095A8
S11328C061957F4F8F4F9F4F08958F929F92AF9244
S11328D0BF92CF92DF92EF92FF92CF93DF93EC01FE
S11328E0688179818A819B816115710581059105D2
S11328F021F464E279ED8BE597E02DE133EF41E0DB
S113290050E00E94461449015A019B01AC01A7EA18
S1132910B1E40E94E8186B017C01ACEEB4EFA501B0
S113292094010E94F618DC01CB018C0D9D1DAE1D97
S1132930BF1DB7FF03C00197A109B04888839983DD
S1132940AA83BB839F77DF91CF91FF90EF90DF90B5
S1132950CF90BF90AF909F908F9008950E94651480
S1132960089580E091E00E9465140895A0E0B0E02D
S11329708093000190930101A0930201B09303019D
S113298008958F929F92AF92BF92CF92DF92EF926F
S1132990FF92CF93DF93EC01688179818A819B81D7
S11329A0611571058105910521F464E279ED8BE5EA
S11329B097E02DE133EF41E050E00E9446144901D5
S11329C05A019B01AC01A7EAB1E40E94E8186B012B
S11329D07C01ACEEB4EFA50194010E94F618DC0171
S11329E0CB018C0D9D1DAE1DBF1DB7FF03C001970C
S11329F0A109B04888839983AA83BB83BC01CD0114
S1132A009F77DF91CF91FF90EF90DF90CF90BF90B1
S1132A10AF909F908F9008958F929F92AF92BF92A4
S1132A20CF92DF92EF92FF926091040170910501C1
S1132A308091060190910701611571058105910549
S1132A4021F464E279ED8BE597E02DE133EF41E089
S1132A5050E00E94461449015A019B01AC01A7EAC7
S1132A60B1E40E94E8186B017C01ACEEB4EFA5015F
S1132A7094010E94F618DC01CB018C0D9D1DAE1D46
S1132A80BF1DB7FF03C00197A109B048809304019B
S1132A9090930501A0930601B0930701BC01CD01F9
S1132AA09F77FF90EF90DF90CF90BF90AF909F9073
S1132AB08F9008956093040170930501809306013B
S1132AC0909307010895CF93DF93EC012B8120FFAE
S1132AD033C026FF0AC02F7B2B838E819F810196F2
S1132AE09F838E838A8190E029C022FF0FC0E881F2
S1132AF0F9818081082E000C990B009719F420624B
S1132B002B831AC03196F983E8830EC0EA85FB85CE
S1132B10099597FF09C02B81019611F080E201C04D
S1132B2080E1822B8B8308C02E813F812F5F3F4F32
S1132B303F832E83992702C08FEF9FEFDF91CF91C0
S1132B400895A0E0B0E0E7EAF5E10C940B19AE01BA
S1132B504B5F5F4FFA0161917191AF018091E00386
S1132B609091E1030E941416E2E00C942719A0E06E
S1132B70B0E0EDEBF5E10C940919AE01495F5F4F4C
S1132B80DA016D917D91AD010EED13E0F8018281C2
S1132B909381DC0113962C911397286013962C9340
S1132BA00E941416D8011296ED91FC91139723817B
S1132BB0277F2383E4E00C9425196091E00370914E
S1132BC0E1030E940B1808950F931F93CF93DF9393
S1132BD0E091E003F091E103238121FF1BC08C010C
S1132BE0D0E0C0E0F80181918F016091E003709121
S1132BF0E103DB011896ED91FC911997882331F0DC
S1132C000995892B79F3DFEFCFEFECCF8AE00995B3
S1132C10892B19F08FEF9FEF02C08D2F9C2FDF912E
S1132C20CF911F910F910895ABE0B0E0EAE1F6E196
S1132C300C94FB186C017B018A01FC01178216823B
S1132C40838181FFCCC1CE0101963C01F6019381C1
S1132C50F70193FD859193FF81917F01882309F406
S1132C60BAC1853239F493FD859193FF81917F0137
S1132C70853229F4B60190E00E940B18E7CF912C1D
S1132C80212C312CFFE1F315D8F08B3279F038F494
S1132C90803279F08332A1F4232D20611DC08D325E
S1132CA061F0803369F4232D216016C0832D826086
S1132CB0382EE32DE4603E2E2AC0F32DF8601DC0AB
S1132CC037FC2DC020ED280F2A3040F08E32B9F4A5
S1132CD036FC81C1232D2064322E19C036FE06C075
S1132CE08AE0989E200D1124922E11C0EAE02E9EB7
S1132CF0200D1124222EF32DF0623F2E08C08C36B5
S1132D0021F4832D8068382E02C0883641F4F701FF
S1132D1093FD859193FF81917F018111B3CF982F0A
S1132D209F7D9554933028F40C5F1F4F9FE3998344
S1132D300DC0833631F0833771F0833509F059C003
S1132D4021C0F801808189830E5F1F4F88248394FA
S1132D50912C530113C02801F2E04F0E511CF801CD
S1132D60A080B18036FE03C0692D70E002C06FEF11
S1132D707FEFC5010E9400184C018201F32DFF77FB
S1132D803F2E16C0280122E0420E511CF801A080FB
S1132D90B18036FE03C0692D70E002C06FEF7FEF93
S1132DA0C5010E94F5174C01F32DF0683F2E8201F6
S1132DB033FC1BC0822D90E088169906B0F4B6014E
S1132DC080E290E00E940B182A94F4CFF50137FCBE
S1132DD0859137FE81915F01B60190E00E940B1846
S1132DE021102A9421E0821A91088114910471F728
S1132DF0E8C0843611F0893641F5F80137FE07C082
S1132E0060817181828193810C5F1F4F08C0608152
S1132E107181072E000C880B990B0E5F1F4FF32D49
S1132E20FF763F2E97FF09C0909580957095619528
S1132E307F4F8F4F9F4FF0683F2E2AE030E0A30171
S1132E400E944718882E861845C0853731F4232DF3
S1132E502F7EB22E2AE030E025C0932D997FB92E23
S1132E608F36C1F018F4883579F0B5C0803719F081
S1132E70883721F0B0C0E92FE061BE2EB4FE0DC04A
S1132E80FB2DF460BF2E09C034FE0AC0292F266032
S1132E90B22E06C028E030E005C020E130E002C0D8
S1132EA020E132E0F801B7FE07C0608171818281C0
S1132EB093810C5F1F4F06C06081718180E090E0B8
S1132EC00E5F1F4FA3010E944718882E8618FB2D02
S1132ED0FF773F2E36FE0DC0232D2E7FA22E8914A0
S1132EE058F434FE0BC032FC09C0832D8E7EA82E0C
S1132EF005C0B82CA32C03C0B82C01C0B92CA4FE67
S1132F000FC0FE01E80DF11D8081803321F49A2D5C
S1132F10997EA92E09C0A2FE06C0B394B39404C03E
S1132F208A2D867809F0B394A3FC11C0A0FE06C0D4
S1132F30B21488F4280C922C9B180EC0B21460F4BE
S1132F40B60180E290E00E940B18B394F7CFB2145C
S1132F5018F42B1802C0982C212CA4FE10C0B60122
S1132F6080E390E00E940B18A2FE17C0A1FC03C0EE
S1132F7088E790E002C088E590E0B6010CC08A2D95
S1132F80867859F0A1FE02C08BE201C080E2A7FC62
S1132F908DE2B60190E00E940B18891438F4B60152
S1132FA080E390E00E940B189A94F7CF8A94F3017F
S1132FB0E80DF11D8081B60190E00E940B1881108C
S1132FC0F5CF222009F442CEB60180E290E00E94BF
S1132FD00B182A94F6CFF6018681978102C08FEFF1
S1132FE09FEF2B96E2E10C941719FC0105906150B8
S1132FF070400110D8F7809590958E0F9F1F08950B
S1133000FC016150704001900110D8F780959095B3
S11330108E0F9F1F08950F931F93CF93DF93FB0190
S1133020238121FD03C08FEF9FEF2CC022FF16C028
S113303046815781248135814217530744F4A08186
S1133040B1819D012F5F3F4F318320838C93268173
S113305037812F5F3F4F3783268314C08B01EC01E8
S1133060FB010084F185E02D0995892BE1F6D80157
S113307016968D919C911797019617969C938E9313
S11330801697CE01DF91CF911F910F910895FA0108
S1133090AA27283051F1203181F1E8946F936E7F93
S11330A06E5F7F4F8F4F9F4FAF4FB1E03ED0B4E084
S11330B03CD0670F781F891F9A1FA11D680F791FC5
S11330C08A1F911DA11D6A0F711D811D911DA11DD6
S11330D020D009F468943F912AE0269F11243019E6
S11330E0305D3193DEF6CF010895462F4770405D81
S11330F04193B3E00FD0C9F7F6CF462F4F70405D30
S11331004A3318F0495D31FD4052419302D0A9F78A
S1133110EACFB4E0A6959795879577956795BA9584
S1133120C9F700976105710508959B01AC010A2E4A
S113313006945795479537952795BA95C9F7620F21
S1133140731F841F951FA01D0895DC01CB01FC0192
S1133150F999FECF06C0F2BDE1BDF89A319600B4EC
S11331600D9241505040B8F70895F999FECF92BDA1
S113317081BDF89A992780B50895A6E1B0E044E0AE
S113318050E00C94A718DC01CB0103C02D910E94E0
S1133190CE1841505040D0F70895262FF999FECF0C
S11331A01FBA92BD81BD20BD0FB6F894FA9AF99A60
S11331B00FBE01960895242F0E94CE18252F0E9439
S11331C0CE180C94E3180E94CD18272F0C94CE1817
S11331D00E943219A59F900DB49F900DA49F800D5D
S11331E0911D11240895B7FF0C94E8180E94E81863
S11331F0821B930B08952F923F924F925F926F928E
S11332007F928F929F92AF92BF92CF92DF92EF9272
S1133210FF920F931F93CF93DF93CDB7DEB7CA1BF3
S1133220DB0B0FB6F894DEBF0FBECDBF09942A881E
S1133230398848885F846E847D848C849B84AA84C6
S1133240B984C884DF80EE80FD800C811B81AA8153
S1133250B981CE0FD11D0FB6F894DEBF0FBECDBF1E
S1133260ED010895A29FB001B39FC001A39F700D0B
S1133270811D1124911DB29F700D811D1124911D7A
S10932800895F894FFCF4D
S113328601000000010000003D013701022F012763
S113329601041F01170104F40190012C010000DC54
S11332A605B80B941101002C019001F4010000945F
S11332B611B80BDC050100F401C8000000B80BDCF2
S11332C60500005802FE014B00B0040F0000000385
S11332D600000000EC0D240E00003F065B4F666DF7
S11332E67D077F6F00065B4F666D7D077F6F01016B
S11332F6596F752776652073657420612068696740
S1133306682073636F72652E20706C656173652027
S113331673657420796F757220696E697469616C5E
S11333262062656C6F773A200046697273743A209E
S113333625632563256320256C75005365636F6ECD
S1133346643A2025632563256320256C750054683B
S11333566972643A2025632563256320256C75000C
S1133366466F757274683A202563256325632025A4
S11333766C750046696674683A202563256325637F
S113338620256C750054686572652041726520437A
S1133396757272656E746C79204E6F204869676821
S11333A653636F726573004144432054657374001C
S11333B6534E414B45204279203434333534333629
S11333C6390053636F72653A20256C7500536E613C
S11333D66B650053636F72653A20200053636F7206
S10B33E6653A2025386C7500DE
S9030000FC
