:100000000C94F3000C9410010C9410010C9410014A
:100010000C9410010C9450010C9410010C941001DC
:100020000C9410010C9410010C9410010C9410010C
:100030000C9410010C9410010C9410010C941001FC
:100040000C94C0110C9410010C9410010C9410012C
:100050000C940E0E0C94CC0D0C9410010C94100109
:100060000C9410010C9410010C9410010C941001CC
:100070000C9410010C9410010C94100123232348BC
:100080004947482053434F5245532323230050727E
:10009000657373206120627574746F6E20746F20B5
:1000A000737461727420616761696E0047414D45E8
:1000B000204F5645520021011E011A01160112015E
:1000C0000E010A0106010201FE0090018C01880167
:1000D000840180017C017801740171016D01690165
:1000E000650160015C01580154014F014B0147015A
:1000F00042013E01390134012F012A012501649298
:10010000927D6C92926D809EA0C17C92924DE4A2F1
:10011000A29D182848FF4492926D468A926342FE3F
:10012000037C92A27D868A92A2C3E0100E10E1C6E3
:10013000281028C7FC021C02FDF8040204F9FC0286
:1001400002FD8080FE80816492924DFE9098677CD3
:10015000828A7C03FE9090617C82827DFE2010FF6B
:10016000FE403040FFFE020203FE1028C7040202D8
:10017000FD82FE83FE1010FF7C82925DFE909081D6
:10018000FE929283FE82827D7C828245FE92926DF7
:100190007E90907F43535345323031302F37323089
:1001A0003120536E616B652050726F6A65637420F5
:1001B0006279204A61636B20456164696500536E12
:1001C000616B65001B5B3F323568001B5B3F32355E
:1001D0006C001B5B25646D001B5B324A001B5B25BA
:1001E000643B2564480011241FBECFEFD8E0DEBF7A
:1001F000CDBF12E0A0E0B1E0E0E6F0E302C0059080
:100200000D92AC31B107D9F723E0ACE1B2E001C007
:100210001D92A23AB207E1F70E94CF0A0C942E1861
:100220000C940000E8E6F0E0808182608083D99A37
:10023000ECE6F0E080818F60808310921C020895CC
:1002400010921C02089580911C0218163CF58091B2
:100250001D026FB7F89490911C029230B4F021E027
:1002600030E091E0F901E35EFD4F4081F901E45E89
:10027000FD4F40839F5F292F30E040911C02042EE8
:10028000000C550B241735076CF390911C0291500C
:1002900090931C0266231CF4789408958FEF0895C0
:1002A0001F920F920FB60F9211242F933F934F93EB
:1002B0005F936F937F938F939F93EF93FF9343B1DC
:1002C0004F7080911C02883064F580E090E0642FCC
:1002D00070E09B01082E02C0359527950A94E2F73D
:1002E00020FF1BC02091250230E0082E02C035956A
:1002F00027950A94E2F720FD10C0E0911C0221E04E
:100300002E0F20931C020E2E000CFF0BE35EFD4F00
:10031000808320911C02283024F4019684309105BA
:10032000C1F640932502FF91EF919F918F917F91AC
:100330006F915F914F913F912F910F900FBE0F9052
:100340001F90189589B183FB882780F90895CF9273
:10035000DF92EF92FF920F931F930E9473114091CF
:100360002602509127026A01550FEE08FF080091FE
:1003700078021091790220917A0230917B02C00EAE
:10038000D11EE21EF31E21E030E06C157D058E05C6
:100390009F0510F020E030E0C9011F910F91FF9000
:1003A000EF90DF90CF90089580910801909109011E
:1003B00001969093090180930801880F991FFC0111
:1003C000EC59FD4F808191810E9410120E9473119F
:1003D000609378027093790280937A0290937B0203
:1003E000E0910801F0910901EE0FFF1FE259FD4F66
:1003F00080819181909327028093260208955598D9
:100400008FEF9FEF9093090180930801089583E097
:1004100090E09093630280936202EEE6F2E084EF54
:1004200091E09183808328EC30E0338322839583AD
:100430008483E4E6F2E080ED97E09183808328EE08
:1004400033E033832283958384838FEF9FEF9093F0
:100450000901809308010E94D4010E94A201811128
:100460000E941512089582E090E0909363028093B9
:100470006202EEE6F2E082E390E09183808384E61C
:1004800090E093838283E4E6F2E080ED97E091834D
:10049000808388EE93E0938382838FEF9FEF909326
:1004A0000901809308010E94D4010E94A2018111D8
:1004B0000E9415120895209162023091630221502A
:1004C000310981E090E04091080150910901421703
:1004D000530714F480E090E008950E94A701892B4F
:1004E00059F40E945B02892B39F067E08AE00E9490
:1004F000B5100E94FF0108950E94A701892B11F4F5
:100500000E94D401089580E891E00E94AA1721E09A
:10051000611572418105910509F020E0822F08954F
:10052000DF92EF92FF920F931F93CF93DF93CDB79C
:10053000DEB762970FB6F894DEBF0FBECDBFF8945A
:1005400040E052E160E070E080E891E00E94C8176E
:1005500080E00E94B307898381E00E94B3078A8309
:1005600082E00E94B3078B8383E00E94B3078C83F1
:100570000E94E90A8E830E94300C69877A878B87F4
:100580009C870E949B0898878F830E94990E8D8775
:100590000E947311092E000CAA0BBB0B8E879F873C
:1005A000A88BB98B0E94B70E8A8B0E94F10F88230B
:1005B00021F00E943B108D8302C088E08D8342E1D0
:1005C00050E060EA71E0CE0101960E94B0170E94EF
:1005D000B40E182F0E94B10E811708F043C00E947C
:1005E000B40ED82E082F10E0013211051CF50F2E85
:1005F000F0E3EF2EF2E0FF2EF02D802F0E949C0EF4
:10060000682FC7010E94BA1788E0E80EF11C0F5F3F
:100610001F4F0132110589F70D2D10E0119501953D
:100620001109000F111F000F111F000F111F085C8F
:100630001C4F02C000E312E0E12CF12C0CC08E2D07
:100640000E949C0E682FC8010E94BA17085F1F4FB6
:100650008FEFE81AF80A0E94B10E90E08E159F0500
:1006600074F719C00E94B40EE82EF12C00E312E0DA
:100670000CC08E2D0E949C0E682FC8010E94BA17D4
:10068000085F1F4F8FEFE81AF80A0E94B10E90E042
:100690008E159F0574F768E0C8010E94BA17789418
:1006A00062960FB6F894DEBF0FBECDBFDF91CF913B
:1006B0001F910F91FF90EF90DF900895CF93C82F77
:1006C0000E94F508882399F0E0917C020E2E000C20
:1006D000FF0BE358FD4FC08363E370E08C2F90E085
:1006E0000E94D30780917C028F5F80937C02CF9120
:1006F0000895CF93C82F0E94F508882321F08C2FEE
:100700000E94EC0A02C00E949D0BCF910895CF93E6
:10071000C82F0E94F508882321F08C2F0E94EB0F30
:1007200002C00E941A10CF9108950F931F93CF9388
:10073000DF9380E00E94AE0E0E94990E81500E94CD
:10074000AB0E10E0C0E3D2E0CE010E94A217082F4A
:10075000612F0E94A50E60EF70E0802F90E00E9454
:10076000D30728961F5FCE010E94A2170E94F508AA
:100770008111EACF0E94820E6FE070E090E00E944B
:10078000D307DF91CF911F910F910895CF93DF93FE
:10079000CDB7DEB762970FB6F894DEBF0FBECDBF00
:1007A0000E948302882309F44AC00E94CE100E944E
:1007B000EC080E94171142E150E060EA71E0CE01BE
:1007C00001960E94921769857A858B859C850E9487
:1007D000390C6E857F85888999890E9481110E94D4
:1007E00032118F8198850E94A0088E8190E00E942E
:1007F00079030E94FB110E940702898190E00E9408
:100800005E038A8190E00E945E038B8190E00E94EB
:100810005E038C8190E00E945E038D8190E00E94D7
:1008200087038D850E94A20E8A890E948B0E0E94EA
:1008300095030E9420010E94C70D10922B02629620
:100840000FB6F894DEBF0FBECDBFDF91CF910895F4
:100850000F931F93CF93DF93CDB7DEB727970FB6D4
:10086000F894DEBF0FBECDBF8C0147E050E0BC0165
:10087000CE0101960E949217B801605C7F4F47E05D
:1008800050E0CE0101960E94B01727960FB6F8945B
:10089000DEBF0FBECDBFDF91CF911F910F910895A5
:1008A00080E091E00E94280408950E94500480ECAA
:1008B00090E00E94280408950E94550480E890E08A
:1008C0000E94280408950E945C0480E490E00E9445
:1008D00028040895CF93DF93CDB7DEB727970FB6DF
:1008E000F894DEBF0FBECDBF44E352E160E070E09C
:1008F00080E090E00E94C81780E289838A838B831E
:100900001C821D821E821F8247E050E060E470E07E
:10091000CE0101960E94B01747E050E060E870E019
:10092000CE0101960E94B01747E050E060EC70E005
:10093000CE0101960E94B01747E050E060E071E000
:10094000CE0101960E94B01747E050E060E471E0EC
:10095000CE0101960E94B01727960FB6F894DEBF1D
:100960000FBECDBFDF91CF91089580E090E00E944F
:10097000AA1721E030E0643372418105910511F03E
:1009800020E030E0C9010895CF92DF92EF92FF920C
:10099000CF93DF93CDB7DEB727970FB6F894DEBFBE
:1009A0000FBECDBF0E94300C6B017C0147E050E0D0
:1009B00060E471E0CE0101960E9492178C819D81C6
:1009C000AE81BF81C816D906EA06FB0640F40E9434
:1009D000B50421E0892B09F020E0822F01C081E0DD
:1009E00027960FB6F894DEBF0FBECDBFDF91CF9133
:1009F000FF90EF90DF90CF900895CF92DF92EF922B
:100A0000FF92CF93DF93CDB7DEB727970FB6F89459
:100A1000DEBF0FBECDBF0E94B504892B09F45BC0B9
:100A20000E94300C6B017C0147E050E060E470E014
:100A3000CE0101960E9492178C819D81AE81BF816B
:100A40008C159D05AE05BF0508F448C047E050E091
:100A500060E870E0CE0101960E9492178C819D8122
:100A6000AE81BF818C159D05AE05BF05D0F147E075
:100A700050E060EC70E0CE0101960E9492178C81EC
:100A80009D81AE81BF818C159D05AE05BF0560F1CE
:100A900047E050E060E071E0CE0101960E949217BD
:100AA0008C819D81AE81BF818C159D05AE05BF05F2
:100AB000F0F047E050E060E471E0CE0101960E9462
:100AC00092178C819D81AE81BF818C159D05AE05ED
:100AD000BF0580F011C080E490E00EC080E490E09B
:100AE0000BC080E890E008C080EC90E005C080E09A
:100AF00091E002C080E491E027960FB6F894DEBF43
:100B00000FBECDBFDF91CF91FF90EF90DF90CF90E0
:100B100008950F931F93CF93DF93CDB7DEB7279739
:100B20000FB6F894DEBF0FBECDBF44E352E160E0E4
:100B300070E080E090E00E94C8170E94FD048C01E4
:100B40008038910591F020F48034910589F012C02D
:100B5000803C910539F0011581E0180759F40E9495
:100B6000500408C00E94550405C00E945C0402C0E5
:100B70000E946304E8E2F2E08081898381818A83B4
:100B800082818B830E94300C6C837D838E839F8354
:100B900047E050E0B801CE0101960E94B0170E94D4
:100BA000CE1027960FB6F894DEBF0FBECDBFDF91F3
:100BB000CF911F910F910895EF92FF920F931F9382
:100BC000CF93DF9368E08AE00E94B51083E391E061
:100BD0009F938F930E94BE140F900F9000E010E03F
:100BE0000F2EFCE9EF2EF3E0FF2EF02D0E94ED100A
:100BF0000E94C00D8823D1F3F701808191810E946A
:100C00008014EC01982F91549A3398F40330110515
:100C100084F469E08AE0800F0E94B510F801E85D75
:100C2000FD4FC083CE0199270E94FA140F5F1F4F1A
:100C3000DDCF8A3021F402301105C4F211C08F37A4
:100C4000A9F680E290E00E94FA141016110614F43E
:100C50000150110969E08AE0800F0E94B510C6CFEB
:100C6000F999FECF0E948905E8E2F2E080E28083F4
:100C700081838283DF91CF911F910F91FF90EF903D
:100C80000895CF93DF93CDB7DEB727970FB6F894CB
:100C9000DEBF0FBECDBF6BE08AE00E94B5108CE7CF
:100CA00090E09F938F930E94D4146DE08AE00E949D
:100CB000B5100E94B5040F900F90892B09F4B6C0AF
:100CC00047E050E060E470E0CE0101960E94921788
:100CD0008F818F938E818F938D818F938C818F9352
:100CE0008B811F928F938A811F928F9389811F928C
:100CF0008F938CE691E09F938F930E94BE146EE0D9
:100D00008AE00E94B51047E050E060E870E0CE0154
:100D100001960E9492178F818F938E818F938D8180
:100D20008F938C818F938B811F928F938A811F92D7
:100D30008F9389811F928F938DE791E09F938F937B
:100D40000E94BE146FE08AE00E94B51047E050E0B8
:100D500060EC70E0CE0101960E9492178F818F9314
:100D60008E818F938D818F938C818F938B811F9236
:100D70008F938A811F928F9389811F928F938FE81F
:100D800091E09F938F930E94BE140FB6F894DEBF3C
:100D90000FBECDBF60E18AE00E94B51047E050E091
:100DA00060E071E0CE0101960E9492178F818F93CF
:100DB0008E818F938D818F938C818F938B811F92E6
:100DC0008F938A811F928F9389811F928F9380EADC
:100DD00091E09F938F930E94BE1461E18AE00E948C
:100DE000B51047E050E060E471E0CE0101960E944A
:100DF00092178F818F938E818F938D818F938C81AA
:100E00008F938B811F928F938A811F928F938981F9
:100E10001F928F9382EB91E09F938F930E94BE1459
:100E20000FB6F894DEBF0FBECDBF0AC00E946A04A1
:100E300083EC91E09F938F930E94BE140F900F90CC
:100E400027960FB6F894DEBF0FBECDBFDF91CF91CE
:100E5000089510927C02089530917C02131684F458
:100E600090917D02891771F0EEE7F2E090E003C007
:100E70002191281749F09F5F3913FACF8FEF08951A
:100E80008FEF089580E00895892F08950E942C0720
:100E900091E08F3F09F490E0892F0895FF920F931E
:100EA0001F93CF93DF9380917C0288300CF044C075
:100EB00000E010E0D0E0C0E002C00F5F1F4F2C2F19
:100EC000CC0F330B2D5F3F4F200F311F2F70307829
:100ED000332334F421503109206F3F6F2F5F3F4F90
:100EE000822FC22F6D2FDD0F770B6B5F7F4F6770E7
:100EF0007078772334F461507109686F7F6F6F5F8A
:100F00007F4FD62F0E94FB08F82E03361105B1F053
:100F10000E94EF0E8111D1CF8F2D0E9446078111C3
:100F2000CCCF8F2D0E943E108111C7CF8F2D0E94F4
:100F3000960B8111C2CF04C088E00FC088E00DC0BD
:100F400080917C02E82F082E000CFF0BE358FD4F28
:100F5000F0828F5F80937C028F2DDF91CF911F9164
:100F60000F91FF900895E82F880FFF0BE358FD4F76
:100F7000808108958823B4F020917C02821794F434
:100F80008F5F821764F4E82F082E000CFF0BE358E4
:100F9000FD4F9081319790838F5F8217A4F321508A
:100FA00020937C0208951F93CF93DF93C82F162FB1
:100FB0000E94F308D82F8C2F0E94F008412F6D2F2C
:100FC0000E94A908DF91CF911F910895CF93DF93DD
:100FD0000E94EC080E94171188E592E090930B01A3
:100FE00080930A010E949D0B0E94FB110E94070240
:100FF0000E94610E0E94820E6FE00E94D3070E9441
:10100000900E60EF0E94D3070E942907C3E00E9460
:101010004E07D82F0E94F508882321F063E38D2F17
:101020000E94D307C15099F7DF91CF910895809125
:101030000A0190910B018B3F9105A4F060910A0188
:1010400070910B0180E090E00E94461226E636E6A1
:1010500046E65FE30E94D4120E94171270930B01C0
:1010600060930A0108950F931F93CF93DF930E941B
:10107000820ED82F0E94120FC82F88230CF455C05F
:1010800081E090E00E941B0C0E94820E182F8EEFD0
:101090008C0F8230C0F4812F0E942C070E94BA0767
:1010A0000E94330282E090E00E941B0C0E9417080D
:1010B0000E944E07082F0E94F508882321F063E361
:1010C000802F0E94D3078CEF8C0F823050F40E9447
:1010D000321089E090E00E941B0C0E9417080E94C9
:1010E00033028AEF8C0F823050F40E949D0B84E013
:1010F00090E00E941B0C0E9417080E943302CD7FD3
:10110000C13011F0C53029F40E94BA0E60E00E948F
:10111000D30760EF8D2F0E94D3076FE0812F0E94CD
:10112000D3070E94321181E001C080E0DF91CF91AE
:101130001F910F91089580910A0190910B010895DC
:1011400090930B0180930A01089580E80E94BD0FDF
:1011500008951F93CF93DF938031B0F46830A0F4EB
:10116000142FC62FD82F81E00E94E50F6C2F6770D7
:1011700080E1689F900111248D2F8F70822B0E9437
:10118000E50F812F0E94E50FDF91CF911F91089508
:101190000F931F93CF93DF93803190F48B01C82F6F
:1011A00083E00E94E50F8C2F8F700E94E50FE8010D
:1011B000085F1F4F89910E94E50FC017D107D1F733
:1011C000DF91CF911F910F91089584E00E94E50F68
:1011D00082E00E94E50F08958FE00E94E50F0895D8
:1011E00082958F7008958F70089583FB882780F90A
:1011F00091E08927089520E1829FC0011124677042
:10120000862B08950E94A5080E94120140E060E02C
:101210007BE480E090E00E94790D0E944B1178946D
:101220000895FF920F931F93CF93DF9380E00E9466
:10123000D7100E94CE100E94E4100E94F6100E9467
:10124000EC08CFE00F2EFFE0FF2EF02D0FEF10EF98
:10125000D5E16C2F85EE91E00E94420C0DC02FE786
:101260008CE293E0215080409040E1F700C0000004
:101270000E9423018F3FA9F50E94510C8111EFCFED
:101280000E942914DC01CB0183709927AA27B0782A
:10129000BB2354F40197A109B1098C6F9F6FAF6F05
:1012A000BF6F0196A11DB11D81309105A105B1054A
:1012B00091F02CF4892B8A2B8B2B59F0CACF8230DA
:1012C0009105A105B10549F00397A105B10539F0D4
:1012D000C0CFCD2FBECFCF2DBCCFC02FBACFC12F07
:1012E000B8CFDF91CF911F910F91FF9008950E9489
:1012F000CE100E94E6070E94120C0E9420010E945C
:10130000C70D08954F925F927F928F929F92AF92F6
:10131000BF92CF92DF92EF92FF920F931F93CF93E2
:10132000DF930E9473114B015C0100E01FEF0F2E51
:10133000FFED7F2EF02D0F2EFCE94F2EF3E05F2EF8
:10134000F02D0E94F40F81110E944B100E940A1090
:1013500081110E941A100E94000C81110E94250B1D
:101360000E946D020E946A11892B19F00E942001CF
:1013700006C00E942301D82F8F3F09F09AC00E9417
:10138000C00D882309F4A4C0F201808191810E94DC
:101390008014C82F011103C08B3151F496C0013065
:1013A00019F48B3529F493C0023009F488C07BC04E
:1013B0000E946A11892B09F03FC008C0D11109C0F1
:1013C00001C000E081E00E94D10E50C000E0D12FAA
:1013D00001C0C12FD23019F0812F813421F480E077
:1013E0000E94D10E43C0D33011F0843421F483E045
:1013F0000E94D10E3BC0D13011F0823429F482E03A
:101400000E94D10E33C000E08C2F8F7D803519F4FF
:101410000E9463112BC0C33719F40E94900226C0AA
:101420000E948302892B11F18C2F8F7D8F34F1F470
:1014300081E080932B0262C08C2F8F7D803521F458
:101440000E94631100E012C000E0833519F40E948D
:1014500090020CC00E948302892B41F08C2F8F7D5B
:101460008F3421F481E080932B0248C00E947311D5
:101470006B017C010E949B08092E000CAA0BBB0B80
:10148000880D991DAA1DBB1DC816D906EA06FB06C4
:1014900008F457CF0E943308882381F10E9473110A
:1014A0004B015C014ECF0E946A11892B09F4ABCF2E
:1014B000C3CF0E946A11892B09F480CF1CC00E94FF
:1014C0006A11892B51F000E013C001E001C002E075
:1014D0000E946A11892B61F408C0C33409F471CFEA
:1014E0008C2F00E0C12FD12F78CF0E948302BECF76
:1014F000C12F872DAACF0E948302B8CFDF91CF9151
:101500001F910F91FF90EF90DF90CF90BF90AF9021
:101510009F908F907F905F904F9008950E94CE1083
:1015200065E08AE00E94B5108CEA90E09F938F936B
:101530000E94D41467E08AE00E94B5100E94300C2B
:101540009F938F937F936F9387EF91E09F938F93F8
:101550000E94BE140E9441060E94C4042DB73EB7EB
:10156000285F3F4F0FB6F8943EBF0FBE2DBF8111CD
:101570000E94DC0569E08AE00E94B5108EE890E0E8
:101580009F938F930E94D4140E9441060F900F9056
:101590000E9423018F3FE1F30E94CE1008950E9424
:1015A00002098FEF81B9529A53980E9411098091D4
:1015B0002B02882319F00E94C60302C00E947709FB
:1015C0000E94820980912B028111F1CF0E948E0A24
:1015D000EECF809185020895CF93DF93C82F80913D
:1015E00085020E94F308D82F809185020E94F0089E
:1015F00040E06D2F0E94A908C09385028C2F0E94A5
:10160000F308D82F8C2F0E94F00843E36D2F0E941F
:10161000A908DF91CF910895CF93C82F0E94EF0EB4
:1016200081110DC08C2F0E94460781110AC08C2F9A
:101630000E943E1091E0811105C090E003C091E04E
:1016400001C091E0892FCF9108951F93CF93DF932D
:1016500060E080E00E94FB08182F0E94CE13837088
:101660009078992324F401978C6F9F6F0196C82F6F
:10167000D0E0C130A9F028F0C23009F1C33071F1D7
:101680003BC0809185020E94F308C82F809185029B
:101690000E94F00861E06C0F0E94FB08182F2CC01C
:1016A000809185020E94F308C82F809185020E94D4
:1016B000F0086FEF6C0F0E94FB08182F1DC080917F
:1016C00085020E94F308C82F809185020E94F008CD
:1016D0006C2F8F5F0E94FB08182F0EC0809185022F
:1016E0000E94F308C82F809185020E94F0086C2F99
:1016F00081500E94FB08182FDF5F0E94CE13837079
:101700009078992324F401978C6F9F6F0196C82FCE
:10171000812F0E940C0B8111ACCFD53018F4812F92
:101720000E94EC0ADF91CF911F91089591E02091E2
:101730008502281390E0892F08951F93CF93DF939C
:101740000E94CE13EC010E94CE13BC01677070782A
:10175000772334F461507109686F7F6F6F5F7F4F3B
:10176000CE018F709078992324F40197806F9F6F3A
:1017700001960E94FB08C82F13E61EC00E94CE13DC
:10178000EC010E94CE13BC0167707078772334F4AB
:1017900061507109686F7F6F6F5F7F4FCE018F70EF
:1017A0009078992324F40197806F9F6F01960E948F
:1017B000FB08C82F115091F08C2F0E94EF0E811161
:1017C000DDCF8C2F0E9446078111D8CF0E943B109D
:1017D0008C17A1F2809185028C1781F2C09385024B
:1017E0008C2F0E94F308C82F809185020E94F00878
:1017F00043E36C2F0E94A908DF91CF911F910895B8
:101800000E94731120910C0130910D0140E050E0D5
:101810000E94411321E0672B682B692B09F020E01F
:10182000822F089510922C0210922D0210922E02F7
:1018300010922F02089540912C0250912D02609138
:101840002E0270912F02480F591F611D711D409388
:101850002C0250932D0260932E0270932F02089554
:1018600060912C0270912D0280912E0290912F0296
:10187000089560932C0270932D0280932E02909312
:101880002F02089560930E019093340280933302E7
:1018900010923602109235021092320210923102EA
:1018A00008950F931F93CF93DF93CDB7DEB728979B
:1018B0000FB6F894DEBF0FBECDBFE0913502F091B8
:1018C0003602309781F0149110FF06C01092360254
:1018D0001092350200E06BC03196F0933602E0932F
:1018E000350200E064C0E0913102F091320230979D
:1018F00009F449C0CF0101969093320280933102DE
:10190000E081E1110AC0109232021092310280E1AE
:101910008093300200E010E04AC08FE98E0F8A31D8
:1019200070F4F0E0EE0FFF1FE85FFF4F8591949198
:10193000909336028093350200E010E038C08FEBC0
:101940008E0F8A3170F4F0E0EE0FFF1FE85BFF4F5F
:1019500085919491909336028093350200E010E0D7
:1019600026C080ED8E0F8A3000F5F0E0EE0FFF1FED
:10197000EA5AFF4F859194919093360280933502F5
:1019800000E010E014C0809133029091340201E035
:10199000009709F000E09093320280933102109298
:1019A00034021092330210E002C000E010E00E9406
:1019B000E50820910E01FE013896CE010196112313
:1019C00014F4208301C01082110F3197E817F90732
:1019D000B1F71982BE016F5F7F4F8FE00E94C80888
:1019E00080913002882389F0815080933002002357
:1019F00011F0882311F090E003C091E001C091E064
:101A000081E0992329F080E003C00023A1F3F7CF00
:101A100028960FB6F894DEBF0FBECDBFDF91CF91F1
:101A20001F910F910895CF93C82F8A3019F48DE03C
:101A30000E94130D9FB7907802C0992329F18091DD
:101A400087028F3FD1F3F894E091860281E08E0FF8
:101A500080938602F0E0E857FD4FC08380918702B3
:101A60008F5F80938702809186028F3F11F41092DE
:101A70008602E1ECF0E0808180628083992339F076
:101A8000789480E090E005C081E090E002C080E0C2
:101A900090E0CF910895809199038823E1F32FB7C7
:101AA0002078F894809187033091990390E0831B0C
:101AB00091095AF4E091870380919903F0E0E81BC3
:101AC000F109E856FC4F80810AC0E09187038091BC
:101AD0009903F0E0E81BF109E857FC4F80819091F1
:101AE0009903915090939903222309F0789490E000
:101AF0000895109286021092870210928703109226
:101B000099031092980340933702DC01CB01880FB0
:101B1000991FAA1FBB1F880F991FAA1FBB1F9C01DB
:101B2000AD01220F331F441F551F60E072E18AE7A9
:101B300090E00E946313BA01A9014F5F5F4F6F4F9E
:101B40007F4FDB01CA011AF40196A11DB11DB595A5
:101B5000A7959795879501979093C5008093C400AA
:101B6000E1ECF0E088E18083808180688083ECE9AB
:101B7000F3E08FE091E093838283918380830895E3
:101B80009091990381E0911101C080E00895109235
:101B900087031092990308951F920F920FB60F9228
:101BA00011242F938F939F93EF93FF93809187023C
:101BB000882329F1809186022091870290E0821B80
:101BC00091095AF4E091860280918702F0E0E81BC7
:101BD000F109E957FC4F90810AC0E091860280919B
:101BE0008702F0E0E81BF109E857FD4F90818091F2
:101BF00087028150809387029093C60005C0E1EC74
:101C0000F0E080818F7D8083FF91EF919F918F9194
:101C10002F910F900FBE0F901F9018951F920F924B
:101C20000FB60F9211242F933F934F935F936F93AF
:101C30007F938F939F93AF93BF93CF93EF93FF9334
:101C4000C091C60080913702882349F080918702B5
:101C50008F3F29F060E070E08C2F0E94130D80917F
:101C60009903803120F081E08093980318C0CD3033
:101C700009F4CAE0E091870381E08E0F8093870327
:101C8000F0E0E857FC4FC083809199038F5F809309
:101C9000990380918703803111F410928703FF919B
:101CA000EF91CF91BF91AF919F918F917F916F9164
:101CB0005F914F913F912F910F900FBE0F901F900A
:101CC00018950F931F93CF9382E080933C0210925C
:101CD0003A02C1E0C0933B0261E081E00E94FB0850
:101CE0000DE312E0F801808361E082E00E94FB08CE
:101CF000F8018183C0933902C0933802CF911F91BC
:101D00000F910895E0913B020E2E000CFF0BE35C57
:101D1000FD4F8081089580933902809338020895A1
:101D2000E0913A020E2E000CFF0BE35CFD4F808128
:101D3000089580913C020895E82FF0E0E35CFD4FA8
:101D40008081089580933C020895E62FF0E0E35CE3
:101D5000FD4F8083089580933B02089580933A025B
:101D6000089580913B02089580913A0208958091F0
:101D70003902089590913A02E92F092E000CFF0BC9
:101D8000E35CFD4F80819F5F913219F090933A029E
:101D900002C010923A0290913C02915090933C0202
:101DA0000895909139029130A9F028F0923041F0D5
:101DB000933059F00895823089F080933802089565
:101DC000882361F0809338020895813039F0809340
:101DD00038020895833011F080933802089590916D
:101DE0003A0230913B0240E00DC0E92F092E000C71
:101DF000FF0BE35CFD4F2081281789F09F5F913234
:101E00000CF0942F9313F1CFE32F330FFF0BE35C10
:101E1000FD4F91E02081281719F090E001C091E07A
:101E2000892F0895CF93DF9380913C02813208F08F
:101E300096C0E0913B020E2E000CFF0BE35CFD4FC1
:101E400080810E94F008D82FC82FE0913B020E2E0F
:101E5000000CFF0BE35CFD4F80810E94F308682FAC
:101E600090913802913059F028F0923069F0933017
:101E700081F01BC0873091F061E0680F16C0DF3041
:101E800079F0C1E0CD0F11C0882361F06FEF680FCA
:101E90000CC0DD2349F0CFEFCD0F07C060E005C0D7
:101EA000C0E003C067E001C0CFE08C2F0E94FB08B8
:101EB000C82F8091380290913902981741F0809391
:101EC00039020E94A201892B11F00E9433028C2F4B
:101ED0000E94EF0E882351F0E0913A020E2E000C82
:101EE000FF0BE35CFD4F8081C8133BC080913B0238
:101EF0008F5F813219F080933B0202C010923B0247
:101F0000E0913B020E2E000CFF0BE35CFD4FC08303
:101F100080913C028F5F80933C028C2F90E00E9466
:101F2000960B892B31F080913C028132E0F087E002
:101F300021C08C2F0E943E10882331F080913C02FA
:101F4000813298F085E016C08C2F0E9446078823C6
:101F500071F080913C02813260F083E00BC08DEF24
:101F600009C08EEF07C086E005C084E003C081E0B1
:101F700001C082E0DF91CF91089594B1906B94B944
:101F80002C9A90E59CBD883021F0803211F082308F
:101F900019F491E09DBD01C01DBC803269F028F4A8
:101FA000883071F0803161F00EC0803429F08038C3
:101FB00051F48CB581608CBD8CB582608CBD03C042
:101FC0008CB581608CBD2C9808958EBD0DB407FE34
:101FD000FDCF8EB5089580939A0381E080939B0393
:101FE000089580919B0308950E94731168597A4364
:101FF0008109910920E23EE440E050E00E94411353
:10200000672B682B692B21F40E94731181E00895DE
:1020100080E008950E94731120E23EE440E050E029
:102020000E94411321E0672B682B692B09F020E007
:10203000822F0895CF9380919A030E94F308C82FAE
:1020400080919A030E94F00840E06C2F0E94A9083A
:1020500060E080E00E94FB0880939A0310929B034B
:10206000CF91089560E080E00E94FB0880939A037E
:1020700010929B03089580919A03089590919B0379
:10208000992339F091E020919A03281390E0892F49
:10209000089580E008951F93CF93DF930E941A1054
:1020A0000E94CE13EC010E94CE13BC0167707078C1
:1020B000772334F461507109686F7F6F6F5F7F4FD2
:1020C000CE018F709078992324F40197806F9F6FD1
:1020D00001960E94FB08C82F13E61EC00E94CE1373
:1020E000EC010E94CE13BC0167707078772334F442
:1020F00061507109686F7F6F6F5F7F4FCE018F7086
:102100009078992324F40197806F9F6F01960E9425
:10211000FB08C82F1150A1F08C2F0E94EF0E8111E7
:10212000DDCF8C2F0E9446078111D8CF8C2F0E94C3
:102130003E108111D3CF8C2F0E94960B8111CECFF0
:10214000C0939A038C2F0E94F308C82F80919A03A2
:102150000E94F0084CE36C2F0E94A90881E0809354
:102160009B03DF91CF911F910895282F082E000C1B
:10217000330B3F938F93862F062E000C990B9F9362
:102180006F938DED91E09F938F930E94D4140F90E5
:102190000F900F900F900F900F90089588ED91E0A1
:1021A0009F938F930E94D4140F900F9008951F92C5
:1021B0008F9382ED91E09F938F930E94D4140F90A0
:1021C0000F900F900F9008958BEC91E09F938F9359
:1021D0000E94D4140F900F90089584EC91E09F9387
:1021E0008F930E94D4140F900F90089563E083E0C2
:1021F0000E94B5108EEB91E09F938F930E94D414B0
:1022000065E083E00E94B51080E20E94D71084E967
:1022100091E09F938F930E94D41485E20E94D7107F
:102220000E9441060F900F900F900F9008950E940A
:10223000E41061E08AE00E94B51081E092E09F9393
:102240008F930E94BE1463E081E00E94B51087E086
:1022500092E09F938F930E94BE140F900F900F9067
:102260000F9008950E94E41063E081E00E94B51091
:102270000E94300C9F938F937F936F9380E192E045
:102280009F938F930E94BE140F900F900F900F900A
:102290000F900F90089510925E0210925F021092BC
:1022A00060021092610216BC8CE787BD82E084BD9B
:1022B00083E085BDEEE6F0E080818260808385B3B7
:1022C000827085BB089590911D0181E0891B8093E8
:1022D0001D01089520911D0181E090E0222311F05D
:1022E00080E090E008952FB7F89460915E027091BD
:1022F0005F02809160029091610222230CF4789435
:1023000008952FB7F89460935E0270935F028093F4
:1023100060029093610222230CF4789408958091D6
:102320003201882381F05A9A0E94990EEDEC8E9F1B
:10233000E12D1124E695E695E695F0E0E85DFE4F87
:10234000808182B916C05A980E94990E9DEC899F8F
:10235000912D1124969596959695990F292F220FD8
:10236000220F920F891BE82FF0E0E25EFE4F808182
:1023700082B99091320181E0891B809332010895E6
:102380001F920F920FB60F9211242F933F934F93EA
:102390005F936F937F938F939F93AF93BF93EF93CD
:1023A000FF9380911D01882399F080915E029091A6
:1023B0005F02A0916002B09161020196A11DB11D62
:1023C00080935E0290935F02A0936002B0936102DB
:1023D0000E948F11FF91EF91BF91AF919F918F91CB
:1023E0007F916F915F914F913F912F910F900FBE11
:1023F0000F901F9018951092850010928400E1E8CC
:10240000F0E080818A60808380E48093800088EEA1
:1024100093E090938900809388005598539808958D
:1024200090938900809388000895559A08950E949A
:10243000B31288F09F5798F0B92F9927B751B0F091
:10244000E1F0660F771F881F991F1AF0BA95C9F738
:1024500014C0B13091F00E94CD12B1E008950C94F7
:10246000CD12672F782F8827B85F39F0B93FCCF3AA
:10247000869577956795B395D9F73EF490958095B5
:10248000709561957F4F8F4F9F4F0895E89409C0D5
:1024900097FB3EF490958095709561957F4F8F4F97
:1024A0009F4F9923A9F0F92F96E9BB279395F695AD
:1024B000879577956795B795F111F8CFFAF4BB0F2B
:1024C00011F460FF1BC06F5F7F4F8F4F9F4F16C08F
:1024D000882311F096E911C0772321F09EE8872F19
:1024E000762F05C0662371F096E8862F70E060E0D5
:1024F0002AF09A95660F771F881FDAF7880F96954E
:10250000879597F9089597F99F6780E870E060E0F4
:1025100008959FEF80EC089500240A94161617067C
:1025200018060906089500240A94121613061406C4
:1025300005060895092E0394000C11F4882352F027
:10254000BB0F40F4BF2B11F460FF04C06F5F7F4FDF
:102550008F4F9F4F089557FD9058440F551F59F0C6
:102560005F3F71F04795880F97FB991F61F09F3F80
:1025700079F087950895121613061406551FF2CFA9
:102580004695F1DF08C0161617061806991FF1CFF9
:1025900086957105610508940895E894BB27662720
:1025A0007727CB0197F908950E94E7120C949A12AD
:1025B0000E948C1238F00E94931220F0952311F0A3
:1025C0000C9483120C94891211240C94CE120E9444
:1025D000AB1270F3959FC1F3950F50E0551F629FAA
:1025E000F001729FBB27F00DB11D639FAA27F00D6C
:1025F000B11DAA1F649F6627B00DA11D661F829F93
:102600002227B00DA11D621F739FB00DA11D621F77
:10261000839FA00D611D221F749F3327A00D611D94
:10262000231F849F600D211D822F762F6A2F112476
:102630009F5750409AF0F1F088234AF0EE0FFF1FA9
:10264000BB1F661F771F881F91505040A9F79E3F00
:10265000510580F00C9483120C94CE125F3FE4F38A
:10266000983ED4F3869577956795B795F795E79556
:102670009F5FC1F7FE2B880F911D9695879597F95F
:102680000895A1E21A2EAA1BBB1BFD010DC0AA1FB3
:10269000BB1FEE1FFF1FA217B307E407F50720F0CB
:1026A000A21BB30BE40BF50B661F771F881F991F46
:1026B0001A9469F760957095809590959B01AC018F
:1026C000BD01CF010895052E97FB1EF400940E94D2
:1026D0007A1357FD07D00E94411307FC03D04EF434
:1026E0000C947A1350954095309521953F4F4F4F5C
:1026F0005F4F089590958095709561957F4F8F4FAE
:102700009F4F08958F929F92AF92BF92CF92DF9288
:10271000EF92FF92CF93DF93EC01688179818A81F8
:102720009B81611571058105910521F464E279EDC4
:102730008BE597E02DE133EF41E050E00E94631319
:1027400049015A019B01AC01A7EAB1E40E94D517E7
:102750006B017C01ACEEB4EFA50194010E94E3177C
:10276000DC01CB018C0D9D1DAE1DBF1DB7FF03C04D
:102770000197A109B04888839983AA83BB839F7777
:10278000DF91CF91FF90EF90DF90CF90BF90AF900F
:102790009F908F9008950E948213089580E091E0A9
:1027A0000E9482130895A0E0B0E08093000190930E
:1027B0000101A0930201B093030108958F929F92AB
:1027C000AF92BF92CF92DF92EF92FF92CF93DF93BF
:1027D000EC01688179818A819B8161157105810590
:1027E000910521F464E279ED8BE597E02DE133EF7B
:1027F00041E050E00E94631349015A019B01AC0182
:10280000A7EAB1E40E94D5176B017C01ACEEB4EFEE
:10281000A50194010E94E317DC01CB018C0D9D1DE5
:10282000AE1DBF1DB7FF03C00197A109B048888343
:102830009983AA83BB83BC01CD019F77DF91CF91A0
:10284000FF90EF90DF90CF90BF90AF909F908F90D0
:1028500008958F929F92AF92BF92CF92DF92EF92A4
:10286000FF926091040170910501809106019091A1
:102870000701611571058105910521F464E279ED87
:102880008BE597E02DE133EF41E050E00E946313C8
:1028900049015A019B01AC01A7EAB1E40E94D51796
:1028A0006B017C01ACEEB4EFA50194010E94E3172B
:1028B000DC01CB018C0D9D1DAE1DBF1DB7FF03C0FC
:1028C0000197A109B0488093040190930501A0935A
:1028D0000601B0930701BC01CD019F77FF90EF90F7
:1028E000DF90CF90BF90AF909F908F9008956093AE
:1028F00004017093050180930601909307010895E8
:10290000CF93DF93EC012B8120FF33C026FF0AC059
:102910002F7B2B838E819F8101969F838E838A815B
:1029200090E029C022FF0FC0E881F9818081082E44
:10293000000C990B009719F420622B831AC0319672
:10294000F983E8830EC0EA85FB85099597FF09C0E6
:102950002B81019611F080E201C080E1822B8B83F4
:1029600008C02E813F812F5F3F4F3F832E839927E1
:1029700002C08FEF9FEFDF91CF910895A0E0B0E00C
:10298000E4ECF4E10C94F817AE014B5F5F4FFA01F1
:1029900061917191AF0180919E0390919F030E947C
:1029A0000115E2E00C941418A0E0B0E0EAEDF4E1C7
:1029B0000C94F617AE01495F5F4FDA016D917D917E
:1029C000AD010CE913E0F80182819381DC011396DB
:1029D0002C911397286013962C930E940115D8010F
:1029E0001296ED91FC9113972381277F2383E4E0D6
:1029F0000C94121860919E0370919F030E94F81628
:102A00000895ABE0B0E0E7E0F5E10C94E8176C0165
:102A10007B018A01FC0117821682838181FFCCC170
:102A2000CE0101963C01F6019381F70193FD85915A
:102A300093FF81917F01882309F4BAC1853239F46B
:102A400093FD859193FF81917F01853229F4B60131
:102A500090E00E94F816E7CF912C212C312CFFE159
:102A6000F315D8F08B3279F038F4803279F0833274
:102A7000A1F4232D20611DC08D3261F0803369F4F3
:102A8000232D216016C0832D8260382EE32DE46053
:102A90003E2E2AC0F32DF8601DC037FC2DC020ED5E
:102AA000280F2A3040F08E32B9F436FC81C1232D34
:102AB0002064322E19C036FE06C08AE0989E200D92
:102AC0001124922E11C0EAE02E9E200D1124222EF8
:102AD000F32DF0623F2E08C08C3621F4832D8068E0
:102AE000382E02C0883641F4F70193FD859193FF9B
:102AF00081917F018111B3CF982F9F7D95549330A1
:102B000028F40C5F1F4F9FE399830DC0833631F08B
:102B1000833771F0833509F059C021C0F8018081F5
:102B200089830E5F1F4F88248394912C530113C017
:102B30002801F2E04F0E511CF801A080B18036FE52
:102B400003C0692D70E002C06FEF7FEFC5010E94E6
:102B5000ED164C018201F32DFF773F2E16C02801A0
:102B600022E0420E511CF801A080B18036FE03C065
:102B7000692D70E002C06FEF7FEFC5010E94E21681
:102B80004C01F32DF0683F2E820133FC1BC0822DD7
:102B900090E088169906B0F4B60180E290E00E94B9
:102BA000F8162A94F4CFF50137FC859137FE819110
:102BB0005F01B60190E00E94F81621102A9421E0EE
:102BC000821A91088114910471F7E8C0843611F0DB
:102BD000893641F5F80137FE07C060817181828135
:102BE00093810C5F1F4F08C060817181072E000C1C
:102BF000880B990B0E5F1F4FF32DFF763F2E97FF2B
:102C000009C090958095709561957F4F8F4F9F4F2C
:102C1000F0683F2E2AE030E0A3010E943417882E8E
:102C2000861845C0853731F4232D2F7EB22E2AE039
:102C300030E025C0932D997FB92E8F36C1F018F45E
:102C4000883579F0B5C0803719F0883721F0B0C0E9
:102C5000E92FE061BE2EB4FE0DC0FB2DF460BF2E47
:102C600009C034FE0AC0292F2660B22E06C028E013
:102C700030E005C020E130E002C020E132E0F801A0
:102C8000B7FE07C060817181828193810C5F1F4F05
:102C900006C06081718180E090E00E5F1F4FA3014C
:102CA0000E943417882E8618FB2DFF773F2E36FEA4
:102CB0000DC0232D2E7FA22E891458F434FE0BC094
:102CC00032FC09C0832D8E7EA82E05C0B82CA32C03
:102CD00003C0B82C01C0B92CA4FE0FC0FE01E80D42
:102CE000F11D8081803321F49A2D997EA92E09C08F
:102CF000A2FE06C0B394B39404C08A2D867809F06E
:102D0000B394A3FC11C0A0FE06C0B21488F4280C32
:102D1000922C9B180EC0B21460F4B60180E290E0D1
:102D20000E94F816B394F7CFB21418F42B1802C00F
:102D3000982C212CA4FE10C0B60180E390E00E94E4
:102D4000F816A2FE17C0A1FC03C088E790E002C0FD
:102D500088E590E0B6010CC08A2D867859F0A1FE76
:102D600002C08BE201C080E2A7FC8DE2B60190E0D8
:102D70000E94F816891438F4B60180E390E00E94AE
:102D8000F8169A94F7CF8A94F301E80DF11D80812B
:102D9000B60190E00E94F8168110F5CF222009F4C8
:102DA00042CEB60180E290E00E94F8162A94F6CF57
:102DB000F6018681978102C08FEF9FEF2B96E2E1AB
:102DC0000C940418FC010590615070400110D8F774
:102DD000809590958E0F9F1F0895FC016150704063
:102DE00001900110D8F7809590958E0F9F1F089540
:102DF0000F931F93CF93DF93FB01238121FD03C02A
:102E00008FEF9FEF2CC022FF16C04681578124818F
:102E100035814217530744F4A081B1819D012F5F92
:102E20003F4F318320838C93268137812F5F3F4F23
:102E30003783268314C08B01EC01FB010084F185EC
:102E4000E02D0995892BE1F6D80116968D919C917C
:102E50001797019617969C938E931697CE01DF9144
:102E6000CF911F910F910895FA01AA27283051F1AF
:102E7000203181F1E8946F936E7F6E5F7F4F8F4FAB
:102E80009F4FAF4FB1E03ED0B4E03CD0670F781F0A
:102E9000891F9A1FA11D680F791F8A1F911DA11DEF
:102EA0006A0F711D811D911DA11D20D009F4689428
:102EB0003F912AE0269F11243019305D3193DEF6D0
:102EC000CF010895462F4770405D4193B3E00FD086
:102ED000C9F7F6CF462F4F70405D4A3318F0495D71
:102EE00031FD4052419302D0A9F7EACFB4E0A69554
:102EF0009795879577956795BA95C9F70097610576
:102F0000710508959B01AC010A2E069457954795CB
:102F100037952795BA95C9F7620F731F841F951FC0
:102F2000A01D0895DC01CB01FC01F999FECF06C07C
:102F3000F2BDE1BDF89A319600B40D924150504077
:102F4000B8F70895F999FECF92BD81BDF89A9927F7
:102F500080B50895A6E1B0E044E050E00C949417E9
:102F6000DC01CB0103C02D910E94BB1741505040A2
:102F7000D0F70895262FF999FECF1FBA92BD81BDD3
:102F800020BD0FB6F894FA9AF99A0FBE01960895EB
:102F9000242F0E94BB17252F0E94BB170C94D0171B
:102FA0000E94BA17272F0C94BB170E941F18A59FC9
:102FB000900DB49F900DA49F800D911D1124089534
:102FC000B7FF0C94D5170E94D517821B930B089559
:102FD0002F923F924F925F926F927F928F929F9229
:102FE000AF92BF92CF92DF92EF92FF920F931F9317
:102FF000CF93DF93CDB7DEB7CA1BDB0B0FB6F894C8
:10300000DEBF0FBECDBF09942A88398848885F8407
:103010006E847D848C849B84AA84B984C884DF8078
:10302000EE80FD800C811B81AA81B981CE0FD11D5C
:103030000FB6F894DEBF0FBECDBFED010895A29F7D
:10304000B001B39FC001A39F700D811D1124911D7C
:10305000B29F700D811D1124911D0895F894FFCF2A
:103060000100000001000000FFFF5802B0040F0043
:1030700000000300000000130D4B0D0000013F068F
:103080005B4F666D7D077F6F00065B4F666D7D074A
:103090007F6F01596F7527766520736574206120F5
:1030A000686967682073636F72652E20706C656154
:1030B00073652073657420796F757220696E697409
:1030C00069616C2062656C6F773A200046697273A3
:1030D000743A2025632563256320256400536563C6
:1030E0006F6E643A202563256325632025640054B0
:1030F000686972643A20256325632563202564008E
:10310000466F757274683A20256325632563202510
:10311000640046696674683A202563256325632048
:10312000256400546865726520417265204375729C
:1031300072656E746C79204E6F20486967685363BE
:103140006F72657300534E414B45204279203434F1
:103150003335343336390053636F72653A20257541
:1031600000536E616B650053636F72653A202000F7
:0C31700053636F72653A2025357500002E
:00000001FF
