S012000041737369676E6D656E742E73726563F9
S11300000C9420010C943D010C943D010C943D0191
S11300100C943D010C947D010C943D010C943D0124
S11300200C943D010C943D010C943D010C943D0154
S11300300C943D010C943D010C943D010C943D0144
S11300400C94BB120C943D010C943D010C943D01A5
S11300500C94E30E0C94A10E0C943D010C943D0100
S11300600C943D010C943D010C943D010C943D0114
S11300700C943D010C943D010C943D0108000000DA
S1130080BE922449123EABAAAA2ABECDCCCC4C3E89
S113009000000080BEABAAAAAA3E00000000BF0078
S11300A00000803F0000000000084178D3BB438774
S11300B0D1133D190E3CC3BD4282AD2B3E68EC8288
S11300C076BED98FE1A93E4C80EFFFBE01C4FF7F0D
S11300D03F0000000000232323484947482053439E
S11300E04F524553232323005072657373206120BC
S11300F0627574746F6E20746F20737461727420EF
S1130100616761696E0047414D45204F5645520075
S11301107B017801740170016C0168016401600164
S11301205C015801EA01E601E201DE01DA01D601CF
S1130130D201CE01CB01C701C301BF01BA01B6018F
S1130140B201AE01A901A501A1019C01980193018D
S11301508E01890184017F016492927D6C92926D7B
S1130160809EA0C17C92924DE4A2A29D182848FFD3
S11301704492926D468A926342FE037C92A27D86EB
S11301808A92A2C3E0100E10E1C6281028C7FC0210
S11301901C02FDF8040204F9FC0202FD8080FE80CA
S11301A0816492924DFE9098677C828A7C03FE90D3
S11301B090617C82827DFE2010FFFE403040FFFE75
S11301C0020203FE1028C7040202FD82FE83FE1011
S11301D010FF7C82925DFE909081FE929283FE825B
S11301E0827D7C828245FE92926D7E90907F435305
S11301F05345323031302F3732303120536E616BFA
S1130200652050726F6A656374206279204A616365
S11302106B20456164696500536E616B65001B5B0F
S11302203F323568001B5B3F32356C001B5B256435
S11302306D001B5B324A001B5B25643B2564480050
S113024011241FBECFEFD8E0DEBFCDBF12E0A0E087
S1130250B1E0E0E5F4E302C005900D92A03AB107E5
S1130260D9F724E0A0EAB2E001C01D92A732B20798
S1130270E1F70E943F0B0C94261A0C940000E8E668
S1130280F0E0808182608083D99AECE6F0E080819E
S11302908F6080831092A00208951092A0020895A6
S11302A08091A00218163CF58091A1026FB7F894D2
S11302B09091A0029230B4F021E030E091E0F90195
S11302C0EF55FD4F4081F901E056FD4F40839F5F9C
S11302D0292F30E04091A002042E000C550B241766
S11302E035076CF39091A00291509093A00266237D
S11302F01CF4789408958FEF08951F920F920FB60F
S11303000F9211242F933F934F935F936F937F9397
S11303108F939F93EF93FF9343B14F708091A0020B
S1130320883064F580E090E0642F70E09B01082E33
S113033002C0359527950A94E2F720FF1BC020914F
S1130340A90230E0082E02C0359527950A94E2F7F9
S113035020FD10C0E091A00221E02E0F2093A00206
S11303600E2E000CFF0BEF55FD4F80832091A00251
S1130370283024F4019684309105C1F64093A902F3
S1130380FF91EF919F918F917F916F915F914F9129
S11303903F912F910F900FBE0F901F90189589B128
S11303A083FB882780F90895CF92DF92EF92FF9222
S11303B00F931F930E946E124091AA025091AB02B8
S11303C06A01550FEE08FF080091FD021091FE022C
S11303D02091FF0230910003C00ED11EE21EF31ED5
S11303E021E030E06C157D058E059F0510F020E0BE
S11303F030E0C9011F910F91FF90EF90DF90CF90F3
S11304000895809108019091090101969093090142
S113041080930801880F991FFC01E751FD4F8081EB
S113042091810E940B130E946E126093FD027093DF
S1130430FE028093FF0290930003E0910801F09183
S11304400901EE0FFF1FED50FD4F808191819093C4
S1130450AB028093AA02089555988FEF9FEF909373
S1130460090180930801089583E090E09093E802E5
S11304708093E702E3EFF2E084EF91E091838083DD
S113048028EC30E03383228395838483E9EEF2E021
S113049080ED97E09183808328EE33E033832283D9
S11304A0958384838FEF9FEF9093090180930801D4
S11304B00E9401020E94CF0181110E94101308952D
S11304C082E090E09093E8028093E702E3EFF2E0A9
S11304D082E390E09183808384E690E09383828337
S11304E0E9EEF2E080ED97E09183808388EE93E07B
S11304F0938382838FEF9FEF909309018093080188
S11305000E9401020E94CF0181110E9410130895DC
S11305102091E7023091E8022150310981E090E016
S113052040910801509109014217530714F480E0E7
S113053090E008950E94D401892B59F40E94880206
S1130540892B39F067E08AE00E948A110E942C020C
S113055008950E94D401892B11F40E940102089588
S113056080E891E00E94961921E0611572418105AD
S1130570910509F020E0822F0895FF920F931F93B5
S1130580CF93DF93F89440E052E160E070E080E8BC
S113059091E00E94B01980E00E942308682F80EA4D
S11305A091E00E94A21981E00E942308682F88EA42
S11305B091E00E94A21982E00E942308682F80EB38
S11305C091E00E94A21983E00E942308682F88EB1F
S11305D091E00E94A2190E94590B682F80EC91E0CF
S11305E00E94A2190E94C610882341F00E94101193
S11305F0682F88EC91E00E94A21905C068E088EC9D
S113060091E00E94A2190E940B09BC0180ED91E0C7
S11306100E94B8190E94E80CAC01990F660B770B85
S113062080EE91E00E94B01980EE91E00E9496194C
S11306309F938F937F936F9383E391E09F938F9323
S11306400E94BA160E946E0F682F80E092E00E940A
S1130650A2190E946E12AC01990F660B770B88E009
S113066092E00E94B0190E948C0F682F88E192E0FA
S11306700E94A2190E94890FC82F0E94860F0F9012
S11306800F900F900F900F900F908C17E8F50E9429
S1130690890FF82EC82FD0E0C132D105ECF400E266
S11306A012E08C2F0E94710F682FC8010E94A219BA
S11306B02196085F1F4FC132D10599F7CF2DD0E0A5
S11306C0D195C195D109CC0FDD1FCC0FDD1FCC0F07
S11306D0DD1FC85FDE4F02C0C0E0D0E000E010E0E4
S11306E00CC0802F0E94710F682FCE01805E9D4F39
S11306F00E94A21928960F5F1F4F0E94860F90E058
S11307008017910774F719C00E94890F082F10E011
S1130710C0E0D0E00CC0802F0E94710F682FCE0182
S1130720805E9D4F0E94A21928960F5F1F4F0E9462
S1130730860F90E08017910774F768E0CE01805E21
S11307409D4F0E94A2197894DF91CF911F910F9130
S1130750FF900895CF93C82F0E946509882399F0CC
S1130760E09101030E2E000CFF0BEE5FFC4FC083E3
S113077063E370E08C2F90E00E94430880910103B2
S11307808F5F80930103CF9108950E94990780EAB7
S113079091E00E948E1990E00E94AA0388EA91E0F9
S11307A00E948E1990E00E94AA0380EB91E00E94BF
S11307B08E1990E00E94AA0388EB91E00E948E19A2
S11307C090E00E94AA030895CF9380EC91E00E94E8
S11307D08E19C82F0E946509882321F08C2F0E944E
S11307E05C0B02C00E94550CCF910895CF9388EC06
S11307F091E00E948E19C82F0E946509882321F078
S11308008C2F0E94C01002C00E94EF10CF91089557
S11308100F931F93CF93DF9380E092E00E948E1991
S11308200E94770F80E00E94830F0E946E0F815018
S11308300E94800F10E0C0E2D2E0CE010E948E1927
S1130840082F612F0E947A0F60EF70E0802F90E0F4
S11308500E94430828961F5FCE010E948E190E94B1
S113086065098111EACF0E94570F6FE070E090E0B4
S11308700E94430888E192E00E948E190E94600F52
S1130880DF91CF911F910F9108950E94B0028823A8
S113089061F10E94A31188E092E00E9496190E94DF
S11308A07C1280EE91E00E9496190E94F10C0E9445
S11308B05C090E94EC1180ED91E00E949C190E9459
S11308C010090E94550C0E94F6120E9434020E94E4
S11308D0C5030E94E4030E94F6030E9408040E94D8
S11308E04D010E949C0E1092B0020895811521E0E2
S11308F09207E9F038F4803C910591F0803E91052F
S113090061F011C0803221E0920721F080349140DF
S113091059F009C080E890E0089580E490E00895DB
S113092080E290E00895089580EA90E0089580E6DA
S113093090E008958F929F92AF92BF92DF92EF92D0
S1130940FF920F931F93CF93DF938C01EB010E94CF
S113095096194B015C01CE010E948E19D82ECE014E
S113096008960E948E19E82ECE0140960E948E1998
S1130970F82EB501A401C80180960E94B0196D2D0E
S1130980CE0180960E94A2196E2DCE0188960E94F7
S1130990A2196F2DCE01C0960E94A219DF91CF91AA
S11309A01F910F91FF90EF90DF90BF90AF909F90B9
S11309B08F90089560E870E080E291E00E949A04CC
S11309C008950E94DA0460E670E080E091E00E94FD
S11309D09A0408950E94E10460E470E080EE90E0DF
S11309E00E949A0408950E94EA0460E270E080EC98
S11309F090E00E949A040895CF93DF93EC016FE591
S1130A000E94A2196FE5CE0108960E94A2196FE513
S1130A10CE0140960E94A219DF91CF91089540E043
S1130A2050E0BA0180EC90E00E94B01940E050E040
S1130A30BA0180EE90E00E94B01940E050E0BA01A3
S1130A4080E091E00E94B01940E050E0BA0180E2F9
S1130A5091E00E94B01940E050E0BA0180E491E0D6
S1130A600E94B01980E290E00E94FC0480E490E0CF
S1130A700E94FC0480E690E00E94FC0480E890E080
S1130A800E94FC0480EA90E00E94FC0444E352E1EA
S1130A9060E070E080E691E00E94B019089580E67D
S1130AA091E00E94961921E030E06433724181059F
S1130AB0910511F020E030E0C9010895CF92DF9252
S1130AC0EF92FF920E94E80C6B017C0180E491E0BC
S1130AD00E949619C616D706E806F90640F40E9445
S1130AE04F0521E0892B09F020E0822F01C081E02D
S1130AF0FF90EF90DF90CF900895CF92DF92EF9226
S1130B00FF920E944F05892B09F442C00E94E80C11
S1130B106B017C0180EC90E00E9496196C157D05B8
S1130B208E059F05C0F10E94E80C6B017C0180EEEC
S1130B3090E00E9496196C157D058E059F0570F155
S1130B400E94E80C6B017C0180E091E00E94961900
S1130B506C157D058E059F0520F10E94E80C6B0144
S1130B607C0180E291E00E9496196C157D058E054A
S1130B709F05D0F00E94E80C6B017C0180E491E0B9
S1130B800E9496196C157D058E059F0580F011C095
S1130B9080EC90E00EC080EC90E00BC080EE90E022
S1130BA008C080E091E005C080E291E002C080E4EA
S1130BB091E0FF90EF90DF90CF900895FF920F9314
S1130BC01F93CF93DF9344E352E160E070E080E64B
S1130BD091E00E94B0190E947D05EC01803E9105D0
S1130BE099F020F4803C910591F013C0C11581E087
S1130BF0D80739F0C032E1E0DE0759F40E94DA0484
S1130C0008C00E94E10405C00E94EA0402C00E94D8
S1130C10F3040E94E80CAB01BC01CE010E94B019A0
S1130C200CEA12E0F801F080CE010E947604EC0197
S1130C306F2D0E94A219F8016181CE0108960E94CD
S1130C40A219F8016281CE0140960E94A2190E9465
S1130C50A311DF91CF911F910F91FF900895EF920F
S1130C60FF920F931F93CF93DF9368E08AE00E9473
S1130C708A1188EB91E09F938F930E94BA160F908C
S1130C800F9000E010E00F2EF1E2EF2EF4E0FF2EC3
S1130C90F02D0E94C2110E94950E8823D1F3F70112
S1130CA0808191810E947C16EC01982F91549A3393
S1130CB098F40330110584F469E08AE0800F0E94FF
S1130CC08A11F801E455FD4FC083CE0199270E9493
S1130CD0F6160F5F1F4FDDCF8A3021F41016110670
S1130CE0C4F611C08F37A9F680E290E00E94F61690
S1130CF01016110614F40150110969E08AE0800FFE
S1130D000E948A11C6CFF999FECF0E94DE05DF91B9
S1130D10CF911F910F91FF90EF900895EF92FF9262
S1130D200F931F93CF93DF936BE08AE00E948A11A5
S1130D3086ED90E09F938F930E94D0166DE08AE039
S1130D400E948A110E944F050F900F90892B09F47D
S1130D50DFC080EC90E00E949619162F072FF82E22
S1130D60E92E80E390E00E948E19D82F88E290E06B
S1130D700E948E19C82F80E290E00E948E19EF9293
S1130D80FF920F931F931F92DF931F92CF931F9293
S1130D908F9381EF91E09F938F930E94BA166EE038
S1130DA08AE00E948A1180EE90E00E949619162F24
S1130DB0072FF82EE92E80E590E00E948E19D82F97
S1130DC088E490E00E948E19C82F80E490E00E948D
S1130DD08E19EF92FF920F931F931F92DF931F922E
S1130DE0CF931F928F9382E092E09F938F930E9400
S1130DF0BA166FE08AE00E948A1180E091E00E94B6
S1130E009619162F072FF82EE92E80E790E00E94FE
S1130E108E19D82F88E690E00E948E19C82F80E69C
S1130E2090E00E948E19EF92FF920F931F931F92EE
S1130E30DF931F92CF931F928F9384E192E09F934D
S1130E408F930E94BA168DB79EB784960FB6F89406
S1130E509EBF0FBE8DBF60E18AE00E948A1180E2CE
S1130E6091E00E949619162F072FF82EE92E80E99B
S1130E7090E00E948E19D82F88E890E00E948E1985
S1130E80C82F80E890E00E948E19EF92FF920F9392
S1130E901F931F92DF931F92CF931F928F9385E22C
S1130EA092E09F938F930E94BA1661E18AE00E94B8
S1130EB08A1180E491E00E949619162F072FF82ECC
S1130EC0E92E80EB90E00E948E19D82F88EA90E0FA
S1130ED00E948E19C82F80EA90E00E948E19EF922A
S1130EE0FF920F931F931F92DF931F92CF931F9232
S1130EF08F9387E392E09F938F930E94BA168DB7E6
S1130F009EB748960FB6F8949EBF0FBE8DBF0AC019
S1130F100E940F0587E492E09F938F930E94BA1674
S1130F200F900F90DF91CF911F910F91FF90EF9051
S1130F30089510920103089530910103131684F467
S1130F4090910203891771F0E3E0F3E090E003C0AD
S1130F502191281749F09F5F3913FACF8FEF089535
S1130F608FEF089580E00895892F08950E949C07CB
S1130F7091E08F3F09F490E0892F0895FF920F9339
S1130F801F93CF93DF938091010388300CF044C00A
S1130F9000E010E0D0E0C0E002C00F5F1F4F2C2F34
S1130FA0CC0F330B2D5F3F4F200F311F2F70307844
S1130FB0332334F421503109206F3F6F2F5F3F4FAB
S1130FC0822FC22F6D2FDD0F770B6B5F7F4F677002
S1130FD07078772334F461507109686F7F6F6F5FA5
S1130FE07F4FD62F0E946B09F82E03361105B1F0FE
S1130FF00E94C40F8111D1CF8F2D0E94B607811199
S1131000CCCF8F2D0E9413118111C7CF8F2D0E9439
S11310104E0C8111C2CF04C088E00FC088E00DC01F
S113102080910103E82F082E000CFF0BEE5FFC4FAC
S1131030F0828F5F809301038F2DDF91CF911F91F9
S11310400F91FF900895E82F880FFF0BEE5FFC4F80
S1131050808108958823B4F020910103821794F4C9
S11310608F5F821764F4E82F082E000CFF0BEE5FED
S1131070FC4F9081319790838F5F8217A4F32150A6
S11310802093010308951F93CF93DF93C82F162F46
S11310900E946309D82F8C2F0E946009412F6D2F65
S11310A00E941909DF91CF911F910895CF93DF9387
S11310B00E945C090E94EC1188E592E090930B0178
S11310C080930A010E94550C0E94F6120E94340279
S11310D00E94360F0E94570F6FE00E9443080E943F
S11310E0650F60EF0E9443080E949907C3E00E94C5
S11310F0BE07D82F0E946509882321F063E38D2F52
S11311000E944308C15099F7DF91CF9108958091CF
S11311100A0190910B018B3F9105A4F060910A01A3
S113112070910B0180E090E00E94B51326E636E64C
S113113046E65FE30E949B140E94861370930B01A2
S113114060930A0108950F931F93CF93DF930E9436
S1131150570FD82F0E94E70FC82F88230CF455C0CF
S113116081E090E00E94D30C0E94570F182F8EEF5D
S11311708C0F8230C0F4812F0E949C070E942A08A1
S11311800E94600282E090E00E94D30C0E948708D3
S11311900E94BE07082F0E946509882321F063E39B
S11311A0802F0E9443088CEF8C0F823050F40E94F1
S11311B0071189E090E00E94D30C0E9487080E94E6
S11311C060028AEF8C0F823050F40E94550C84E048
S11311D090E00E94D30C0E9487080E946002CD7F99
S11311E0C13011F0C53029F40E948F0F60E00E94D5
S11311F0430860EF8D2F0E9443086FE0812F0E9407
S113120043080E94291281E001C080E0DF91CF9160
S11312101F910F91089580910A0190910B010895F7
S113122090930B0180930A01089580E80E94921024
S113123008951F93CF93DF938031B0F46830A0F406
S1131240142FC62FD82F81E00E94BA106C2F67701C
S113125080E1689F900111248D2F8F70822B0E9452
S1131260BA10812F0E94BA10DF91CF911F91089577
S11312700F931F93CF93DF93803190F48B01C82F8A
S113128083E00E94BA108C2F8F700E94BA10E8017C
S1131290085F1F4F89910E94BA10C017D107D1F778
S11312A0DF91CF911F910F91089584E00E94BA10AD
S11312B082E00E94BA1008958FE00E94BA10089547
S11312C082958F7008958F70089583FB882780F925
S11312D091E08927089520E1829FC001112467705D
S11312E0862B08950E9415090E943F0140E060E0AA
S11312F07BE480E090E00E944E0E0E9446127894B7
S11313000895FF920F931F93CF93DF9380E00E9481
S1131310AC110E94A3110E94B9110E94CB110E942A
S11313205C09CFE00F2EFFE0FF2EF02D0FEF10EF42
S1131330D5E16C2F89E692E00E94170D0DC02FE7CE
S11313408CE293E0215080409040E1F700C000001F
S11313500E9450018F3FA9F50E94260D8111EFCF05
S11313600E942516DC01CB0183709927AA27B07847
S1131370BB2354F40197A109B1098C6F9F6FAF6F20
S1131380BF6F0196A11DB11D81309105A105B10565
S113139091F02CF4892B8A2B8B2B59F0CACF8230F5
S11313A09105A105B10549F00397A105B10539F0EF
S11313B0C0CFCD2FBECFCF2DBCCFC02FBACFC12F22
S11313C0B8CFDF91CF911F910F91FF9008950E94A4
S11313D0A3110E9456080E94CA0C0E944D010E944B
S11313E09C0E08954F925F927F928F929F92AF923C
S11313F0BF92CF92DF92EF92FF920F931F93CF93FE
S1131400DF930E946E124B015C0100E01FEF0F2E70
S1131410FFED7F2EF02D0F2EF1E24F2EF4E05F2E24
S1131420F02D0E94C91081110E9420110E94DF102A
S113143081110E94EF100E94B80C81110E94D30BFD
S11314400E949A020E946512892B19F00E944D0194
S113145006C00E945001D82F8F3F09F09AC00E9405
S1131460950E882309F4A4C0F201808191810E9421
S11314707C16C82F011103C08B3151F496C0013082
S113148019F48B3529F493C0023009F488C07BC069
S11314900E946512892B09F03FC008C0D11109C010
S11314A001C000E081E00E94A60F50C000E0D12FEF
S11314B001C0C12FD23019F0812F813421F480E092
S11314C00E94A60F43C0D33011F0843421F483E08A
S11314D00E94A60F3BC0D13011F0823429F482E07F
S11314E00E94A60F33C000E08C2F8F7D803519F445
S11314F00E945E122BC0C33719F40E94BD0226C09D
S11315000E94B002892B11F18C2F8F7D8F34F1F45E
S113151081E08093B00262C08C2F8F7D803521F4EE
S11315200E945E1200E012C000E0833519F40E94AC
S1131530BD020CC00E94B002892B41F08C2F8F7D1C
S11315408F3421F481E08093B00248C00E946E126F
S11315506B017C010E940B09092E000CAA0BBB0B2A
S1131560880D991DAA1DBB1DC816D906EA06FB06DF
S113157008F457CF0E94A308882381F10E946E12B9
S11315804B015C014ECF0E946512892B09F4ABCF4D
S1131590C3CF0E946512892B09F480CF1CC00E941E
S11315A06512892B51F000E013C001E001C002E094
S11315B00E946512892B61F408C0C33409F471CF09
S11315C08C2F00E0C12FD12F78CF0E94B002BECF64
S11315D0C12F872DAACF0E94B002B8CFDF91CF913F
S11315E01F910F91FF90EF90DF90CF90BF90AF903D
S11315F09F908F907F905F904F9008950E94A311C9
S113160065E08AE00E948A1186E091E09F938F93BF
S11316100E94D01667E08AE00E948A110E94E80CBA
S11316209F938F937F936F938BE792E09F938F9316
S11316300E94BA160E948E060E945E052DB73EB720
S1131640285F3F4F0FB6F8943EBF0FBE2DBF8111E8
S11316500E942F0669E08AE00E948A1188EE90E0D9
S11316609F938F930E94D0160E948E060F900F9026
S11316700E9450018F3FE1F30E94A31108950E943C
S113168072098FEF81B9529A53980E94810980910F
S1131690B002882319F00E94450402C00E94E709A1
S11316A00E94F2098091B0028111F1CF0E94FE0ADA
S11316B0EECF80910A030895CF93DF93C82F8091D2
S11316C00A030E946309D82F80910A030E946009CB
S11316D040E06D2F0E941909C0930A038C2F0E94C9
S11316E06309D82F8C2F0E94600943E36D2F0E9459
S11316F01909DF91CF910895CF93C82F0E94C40F89
S113170081110DC08C2F0E94B60781110AC08C2F45
S11317100E94131191E0811105C090E003C091E093
S113172001C091E0892FCF9108951F93CF93DF9348
S1131730182F80910A030E946009C82F80910A0320
S11317400E946309D82F8FEF8C0F8E3020F48FEF17
S11317508D0F8630E8F0C11106C0812F0E94600908
S11317608F3041F417C0CF3029F4812F0E946009D3
S1131770882391F0D11105C0812F0E94630981E073
S11317800EC0D73059F4812F0E94630981E007C04D
S113179080E005C081E003C081E001C081E0DF9109
S11317A0CF911F9108950F931F93CF93DF9360E020
S11317B080E00E946B09082F0E94CA1583709078FC
S11317C0992324F401978C6F9F6F019610E009C050
S11317D0CE0183709078992324F401978C6F9F6FC6
S11317E001968130A9F028F0823009F1833071F13B
S11317F03BC080910A030E946309C82F80910A03A9
S11318000E94600961E06C0F0E946B09082F2CC0D4
S113181080910A030E946309C82F80910A030E94E1
S113182060096FEF6C0F0E946B09082F1DC0809137
S11318300A030E946309C82F80910A030E94600969
S11318406C2F8F5F0E946B09082F0EC080910A03D2
S11318500E946309C82F80910A030E9460096C2FBB
S113186081500E946B09082F1F5F0E94CA15EC016A
S1131870143061F0802F0E947C0B8111A9CF802F3E
S11318800E94950B8111A4CF153018F4802F0E946B
S11318905C0BDF91CF911F910F91089591E02091FE
S11318A00A03281390E0892F08951F93CF93DF93A1
S11318B00E94CA15EC010E94CA15BC0167707078B9
S11318C0772334F461507109686F7F6F6F5F7F4FC6
S11318D0CE018F709078992324F40197806F9F6FC5
S11318E001960E946B09C82F13E61EC00E94CA15F8
S11318F0EC010E94CA15BC0167707078772334F438
S113190061507109686F7F6F6F5F7F4FCE018F7079
S11319109078992324F40197806F9F6F01960E9419
S11319206B09C82F115091F08C2F0E94C40F8111A4
S1131930DDCF8C2F0E94B6078111D8CF0E941011E1
S11319408C17A1F280910A038C1781F2C0930A03C9
S11319508C2F0E946309C82F80910A030E9460099A
S11319604CE36C2F0E941909DF91CF911F910895C8
S11319700E946E1220910C0130910D0140E050E064
S11319800E943D1521E0672B682B692B09F020E0AC
S1131990822F08951092B1021092B2021092B302F3
S11319A01092B40208954091B1025091B202609134
S11319B0B3027091B402480F591F611D711D409309
S11319C0B1025093B2026093B3027093B4020895CB
S11319D06091B1027091B2028091B3029091B4020D
S11319E008956093B1027093B2028093B30290930E
S11319F0B40208956091B1027091B2028091B30271
S1131A009091B402611571058105910571F00E94F0
S1131A10B5130E94431420E030E040E85FE30E94E5
S1131A2013130E947F13862F089581E00895609315
S1131A300E019093B9028093B8021092BB021092E7
S1131A40BA021092B7021092B60208950F931F9330
S1131A50CF93DF93CDB7DEB728970FB6F894DEBFE8
S1131A600FBECDBFE091BA02F091BB02309781F076
S1131A70149110FF06C01092BB021092BA0200E04B
S1131A806BC03196F093BB02E093BA0200E064C0ED
S1131A90E091B602F091B702309709F449C0CF0142
S1131AA001969093B7028093B602E081E1110AC0D7
S1131AB01092B7021092B60280E18093B50200E062
S1131AC010E04AC08FE98E0F8A3170F4F0E0EE0F17
S1131AD0FF1FEE59FF4F859194919093BB02809321
S1131AE0BA0200E010E038C08FEB8E0F8A3170F438
S1131AF0F0E0EE0FFF1FEE55FF4F85919491909308
S1131B00BB028093BA0200E010E026C080ED8E0F85
S1131B108A3000F5F0E0EE0FFF1FE055FF4F85918E
S1131B2094919093BB028093BA0200E010E014C039
S1131B308091B8029091B90201E0009709F000E0A9
S1131B409093B7028093B6021092B9021092B80231
S1131B5010E002C000E010E00E94550920910E013F
S1131B60FE013896CE010196112314F4208301C09E
S1131B701082110F3197E817F907B1F71982BE01E6
S1131B806F5F7F4F8FE00E9438098091B5028823F0
S1131B9089F081508093B502002311F0882311F05D
S1131BA090E003C091E001C091E081E0992329F025
S1131BB080E003C00023A1F3F7CF28960FB6F89472
S1131BC0DEBF0FBECDBFDF91CF911F910F9108955E
S1131BD0CF93C82F8A3019F48DE00E94E80D9FB787
S1131BE0907802C0992329F180910C038F3FD1F39F
S1131BF0F894E0910B0381E08E0F80930B03F0E0E7
S1131C00E35FFC4FC08380910C038F5F80930C03D0
S1131C1080910B038F3F11F410920B03E1ECF0E081
S1131C20808180628083992339F0789480E090E009
S1131C3005C081E090E002C080E090E0CF9108957B
S1131C4080911E048823E1F32FB72078F8948091C3
S1131C500C0430911E0490E0831B91095AF4E09126
S1131C600C0480911E04F0E0E81BF109E35EFB4FD5
S1131C7080810AC0E0910C0480911E04F0E0E81B0E
S1131C80F109E35FFB4F808190911E049150909382
S1131C901E04222309F0789490E0089510920B0317
S1131CA010920C0310920C0410921E0410921D0446
S1131CB04093BC02DC01CB01880F991FAA1FBB1FF4
S1131CC0880F991FAA1FBB1F9C01AD01220F331F50
S1131CD0441F551F60E072E18AE790E00E945F159F
S1131CE0BA01A9014F5F5F4F6F4F7F4FDB01CA01FC
S1131CF01AF40196A11DB11DB595A79597958795E1
S1131D0001979093C5008093C400E1ECF0E088E172
S1131D108083808180688083E1E2F4E08FE091E059
S1131D209383828391838083089590911E0481E03C
S1131D30911101C080E0089510920C0410921E04C9
S1131D4008951F920F920FB60F9211242F938F9321
S1131D509F93EF93FF9380910C03882329F1809143
S1131D600B0320910C0390E0821B91095AF4E0913B
S1131D700B0380910C03F0E0E81BF109E45FFB4FD7
S1131D8090810AC0E0910B0380910C03F0E0E81B02
S1131D90F109E35FFC4F908180910C0381508093A3
S1131DA00C039093C60005C0E1ECF0E080818F7DC8
S1131DB08083FF91EF919F918F912F910F900FBE90
S1131DC00F901F9018951F920F920FB60F92112427
S1131DD02F933F934F935F936F937F938F939F932F
S1131DE0AF93BF93CF93EF93FF93C091C6008091BD
S1131DF0BC02882349F080910C038F3F29F060E0F6
S1131E0070E08C2F0E94E80D80911E04803120F038
S1131E1081E080931D0418C0CD3009F4CAE0E0913C
S1131E200C0481E08E0F80930C04F0E0E35FFB4F21
S1131E30C08380911E048F5F80931E0480910C04E4
S1131E40803111F410920C04FF91EF91CF91BF9166
S1131E50AF919F918F917F916F915F914F913F913E
S1131E602F910F900FBE0F901F9018950F931F93F3
S1131E70CF9382E08093C1021092BF02C1E0C0936D
S1131E80C00261E081E00E946B0902EC12E0F801FB
S1131E90808361E082E00E946B09F8018183C09332
S1131EA0BE02C093BD02CF911F910F910895E0919E
S1131EB0C0020E2E000CFF0BEE53FD4F80810895DF
S1131EC08093BE028093BD020895E091BF020E2E5E
S1131ED0000CFF0BEE53FD4F808108958091C102E9
S1131EE00895E82FF0E0EE53FD4F8081089580932C
S1131EF0C1020895E62FF0E0EE53FD4F808308956C
S1131F008093C00208958093BF0208958091C00217
S1131F1008958091BF0208958091BE020895909122
S1131F20BF02E92F092E000CFF0BEE53FD4F8081F9
S1131F309F5F913219F09093BF0202C01092BF02CA
S1131F409091C10291509093C10208959091BE0264
S1131F509130A9F028F0923041F0933059F008956F
S1131F60823089F08093BD020895882361F08093C4
S1131F70BD020895813039F08093BD020895833005
S1131F8011F08093BD0208959091BF023091C00278
S1131F9040E00DC0E92F092E000CFF0BEE53FD4F5E
S1131FA02081281789F09F5F91320CF0942F9313AE
S1131FB0F1CFE32F330FFF0BEE53FD4F91E0208160
S1131FC0281719F090E001C091E0892F0895CF936C
S1131FD0DF938091C102813208F096C0E091C00283
S1131FE00E2E000CFF0BEE53FD4F80810E94600902
S1131FF0D82FC82FE091C0020E2E000CFF0BEE5319
S1132000FD4F80810E946309682F9091BD02913039
S113201059F028F0923069F0933081F01BC087307A
S113202091F061E0680F16C0DF3079F0C1E0CD0FA8
S113203011C0882361F06FEF680F0CC0DD2349F0F5
S1132040CFEFCD0F07C060E005C0C0E003C067E07C
S113205001C0CFE08C2F0E946B09C82F8091BD0274
S11320609091BE02981741F08093BE020E94CF0166
S1132070892B11F00E9460028C2F0E94C40F8823C8
S113208051F0E091BF020E2E000CFF0BEE53FD4FFA
S11320908081C8133BC08091C0028F5F813219F0E8
S11320A08093C00202C01092C002E091C0020E2EC2
S11320B0000CFF0BEE53FD4FC0838091C1028F5F74
S11320C08093C1028C2F90E00E944E0C892B31F03A
S11320D08091C1028132E0F087E021C08C2F0E9400
S11320E01311882331F08091C102813298F085E088
S11320F016C08C2F0E94B607882371F08091C1020C
S1132100813260F083E00BC08DEF09C08EEF07C011
S113211086E005C084E003C081E001C082E0DF9175
S1132120CF91089594B1906B94B92C9A90E59CBD8D
S1132130883021F0803211F0823019F491E09DBD95
S113214001C01DBC803269F028F4883071F0803100
S113215061F00EC0803429F0803851F48CB5816070
S11321608CBD8CB582608CBD03C08CB581608CBD88
S11321702C9808958EBD0DB407FEFDCF8EB508953D
S113218080931F0481E080932004089580912004AB
S113219008950E946E1268597A438109910920E2D8
S11321A03EE440E050E00E943D15672B682B692B0C
S11321B021F40E946E1281E0089580E008950E9447
S11321C06E1220E23EE440E050E00E943D1521E022
S11321D0672B682B692B09F020E0822F0895CF9399
S11321E080911F040E946309C82F80911F040E94DC
S11321F0600940E06C2F0E94190960E080E00E94B1
S11322006B0980931F0410922004CF91089560E01D
S113221080E00E946B0980931F04109220040895AB
S113222080911F04089590912004992339F091E03E
S113223020911F04281390E0892F089580E00895C9
S11322401F93CF93DF930E94EF100E94CA15EC01F5
S11322500E94CA15BC0167707078772334F461500A
S11322607109686F7F6F6F5F7F4FCE018F709078B9
S1132270992324F40197806F9F6F01960E946B0944
S1132280C82F13E61EC00E94CA15EC010E94CA158D
S1132290BC0167707078772334F461507109686FFA
S11322A07F6F6F5F7F4FCE018F709078992324F4F6
S11322B00197806F9F6F01960E946B09C82F115080
S11322C0A1F08C2F0E94C40F8111DDCF8C2F0E94AE
S11322D0B6078111D8CF8C2F0E9413118111D3CF4F
S11322E08C2F0E944E0C8111CECFC0931F048C2FD3
S11322F00E946309C82F80911F040E9460094CE367
S11323006C2F0E94190981E080932004DF91CF9102
S11323101F910895282F082E000C330B3F938F93A1
S1132320862F062E000C990B9F936F9387E392E000
S11323309F938F930E94D0160F900F900F900F9041
S11323400F900F90089582E392E09F938F930E94E1
S1132350D0160F900F9008951F928F938CE292E005
S11323609F938F930E94D0160F900F900F900F9011
S1132370089585E292E09F938F930E94D0160F9068
S11323800F9008958EE192E09F938F930E94D01650
S11323900F900F90089563E083E00E948A1188E112
S11323A092E09F938F930E94D01665E083E00E9491
S11323B08A1180E20E94AC118EEE91E09F938F937C
S11323C00E94D01685E20E94AC110E948E060F90E6
S11323D00F900F900F9008950E94B91161E08AE068
S11323E00E948A1185E892E09F938F930E94BA1607
S11323F063E081E00E948A110E94E80C9F938F930E
S11324007F936F938BE892E09F938F930E94BA1609
S11324100E94FA0C63E094E1981B892F0E948A11B0
S11324200E94E80C9F938F937F936F9382E892E0CE
S11324309F938F930E94BA1663E08AE00E948A11E8
S11324408DB79EB70E960FB6F8949EBF0FBE8DBF84
S113245008950E94B9110E94FA0C63E094E1981B5C
S1132460892F0E948A110E94E80C9F938F937F9377
S11324706F9382E892E09F938F930E94BA160F9015
S11324800F900F900F900F900F9008951092E30209
S11324901092E4021092E5021092E60216BC8CE758
S11324A087BD82E084BD83E085BDEEE6F0E08081F7
S11324B08260808385B3827085BB089590911D01ED
S11324C081E0891B80931D01089520911D0181E005
S11324D090E0222311F080E090E008952FB7F89463
S11324E06091E3027091E4028091E5029091E6022A
S11324F022230CF4789408952FB7F8946093E302A0
S11325007093E4028093E5029093E60222230CF494
S11325107894089580913201882381F05A9A0E9418
S11325206E0FEDEC8E9FE12D1124E695E695E69570
S1132530F0E0E85DFE4F808182B916C05A980E948F
S11325406E0F9DEC899F912D1124969596959695E5
S1132550990F292F220F220F920F891BE82FF0E0E9
S1132560E25EFE4F808182B99091320181E0891B45
S11325708093320108951F920F920FB60F92112487
S11325802F933F934F935F936F937F938F939F9377
S1132590AF93BF93EF93FF9380911D01882399F02C
S11325A08091E3029091E402A091E502B091E602E9
S11325B00196A11DB11D8093E3029093E402A093C0
S11325C0E502B093E6020E948A12FF91EF91BF9157
S11325D0AF919F918F917F916F915F914F913F91B7
S11325E02F910F900FBE0F901F9018951092850099
S11325F010928400E1E8F0E080818A60808380E4C6
S11326008093800088EE93E0909389008093880003
S1132610559853980895909389008093880008955D
S1132620559A08955058BB27AA270E942A130C9440
S113263009140E94FB1338F00E94021420F039F4AC
S11326409F3F19F426F40C94F8130EF4E095E7FB7D
S11326500C94F213E92F0E941A1458F3BA17620764
S113266073078407950720F079F4A6F50C943C14BD
S11326700EF4E0950B2EBA2FA02D0B01B901900199
S11326800C01CA01A0011124FF27591B99F0593FDD
S113269050F4503E68F11A16F040A22F232F342F25
S11326A04427585FF3CF469537952795A795F04073
S11326B05395C9F77EF41F16BA0B620B730B840B88
S11326C0BAF09150A1F0FF0FBB1F661F771F881F40
S11326D0C2F70EC0BA0F621F731F841F48F4879598
S11326E077956795B795F7959E3F08F0B0CF93958A
S11326F0880F08F09927EE0F9795879508950E9403
S113270086136894B1110C943D1408950E94221408
S113271088F09F5798F0B92F9927B751B0F0E1F09E
S1132720660F771F881F991F1AF0BA95C9F714C04E
S1132730B13091F00E943C14B1E008950C943C1423
S1132740672F782F8827B85F39F0B93FCCF3869587
S113275077956795B395D9F73EF4909580957095E4
S113276061957F4F8F4F9F4F0895E89409C097FB61
S11327703EF490958095709561957F4F8F4F9F4F54
S11327809923A9F0F92F96E9BB279395F695879598
S113279077956795B795F111F8CFFAF4BB0F11F45B
S11327A060FF1BC06F5F7F4F8F4F9F4F16C0882302
S11327B011F096E911C0772321F09EE8872F762F38
S11327C005C0662371F096E8862F70E060E02AF079
S11327D09A95660F771F881FDAF7880F9695879565
S11327E097F9089597F99F6780E870E060E008958D
S11327F09FEF80EC089500240A9416161706180615
S11328000906089500240A941216130614060506F0
S11328100895092E0394000C11F4882352F0BB0F81
S113282040F4BF2B11F460FF04C06F5F7F4F8F4FE4
S11328309F4F089557FD9058440F551F59F05F3F1F
S113284071F04795880F97FB991F61F09F3F79F0CE
S113285087950895121613061406551FF2CF469550
S1132860F1DF08C0161617061806991FF1CF8695D2
S11328707105610508940895E894BB2766277727B6
S1132880CB0197F908950E94531429ED3BE54EEDD1
S11328905EE30C949B1416F00C9408150C94F81336
S11328A068940C94F2130E942214A8F39923C1F3A0
S11328B0AEF3DF93CF931F930F93FF92C92FDD27BE
S11328C088232AF02197660F771F881FDAF720E004
S11328D030E040E85FEB9FE3883920F0803E38F039
S11328E021968F770E941313ECE7F0E004C00E9456
S11328F01313E9EAF0E00E9416158B01BE01EC0106
S1132900FB2E6F5771097595771F880B990B0E94E1
S1132910B71328E132E741E35FE30E94AE14AF2D21
S11329209801AE01FF900F911F91CF91DF910E940A
S11329302A130C9409140E94AE140C9409140E94D6
S1132940FB1338F00E94021420F0952311F00C942C
S1132950F2130C94F81311240C943D140E941A14CD
S113296070F3959FC1F3950F50E0551F629FF001DE
S1132970729FBB27F00DB11D639FAA27F00DB11DF7
S1132980AA1F649F6627B00DA11D661F829F222780
S1132990B00DA11D621F739FB00DA11D621F839F07
S11329A0A00D611D221F749F3327A00D611D231FDD
S11329B0849F600D211D822F762F6A2F11249F572B
S11329C050409AF0F1F088234AF0EE0FFF1FBB1F2E
S11329D0661F771F881F91505040A9F79E3F5105ED
S11329E080F00C94F2130C943D145F3FE4F3983E92
S11329F0D4F3869577956795B795F795E7959F5F97
S1132A00C1F7FE2B880F911D9695879597F9089528
S1132A109F3F31F0915020F4879577956795B7954E
S1132A20880F911D9695879597F90895DF93CF9315
S1132A301F930F93FF92EF92DF927B018C016894B6
S1132A4006C0DA2EEF010E94AE14FE01E894A591AF
S1132A502591359145915591A6F3EF010E942A13D2
S1132A60FE019701A801DA9469F7DF90EF90FF90D7
S1132A700F911F91CF91DF910895A1E21A2EAA1B05
S1132A80BB1BFD010DC0AA1FBB1FEE1FFF1FA2171A
S1132A90B307E407F50720F0A21BB30BE40BF50B17
S1132AA0661F771F881F991F1A9469F760957095A0
S1132AB0809590959B01AC01BD01CF010895052E31
S1132AC097FB1EF400940E94761557FD07D00E94D0
S1132AD03D1507FC03D04EF40C94761550954095A3
S1132AE0309521953F4F4F4F5F4F089590958095B6
S1132AF0709561957F4F8F4F9F4F08958F929F924E
S1132B00AF92BF92CF92DF92EF92FF92CF93DF9377
S1132B10EC01688179818A819B8161157105810548
S1132B20910521F464E279ED8BE597E02DE133EF33
S1132B3041E050E00E945F1549015A019B01AC013C
S1132B40A7EAB1E40E94CD196B017C01ACEEB4EFAD
S1132B50A50194010E94DB19DC01CB018C0D9D1DA4
S1132B60AE1DBF1DB7FF03C00197A109B0488883FC
S1132B709983AA83BB839F77DF91CF91FF90EF90D6
S1132B80DF90CF90BF90AF909F908F9008950E9458
S1132B907E15089580E091E00E947E150895A0E0DE
S1132BA0B0E08093000190930101A0930201B093DF
S1132BB0030108958F929F92AF92BF92CF92DF92BA
S1132BC0EF92FF92CF93DF93EC01688179818A8140
S1132BD09B81611571058105910521F464E279ED0C
S1132BE08BE597E02DE133EF41E050E00E945F1563
S1132BF049015A019B01AC01A7EAB1E40E94CD1935
S1132C006B017C01ACEEB4EFA50194010E94DB19C9
S1132C10DC01CB018C0D9D1DAE1DBF1DB7FF03C094
S1132C200197A109B04888839983AA83BB83BC0117
S1132C30CD019F77DF91CF91FF90EF90DF90CF9000
S1132C40BF90AF909F908F9008958F929F92AF9274
S1132C50BF92CF92DF92EF92FF9260910401709144
S1132C6005018091060190910701611571058105A7
S1132C70910521F464E279ED8BE597E02DE133EFE2
S1132C8041E050E00E945F1549015A019B01AC01EB
S1132C90A7EAB1E40E94CD196B017C01ACEEB4EF5C
S1132CA0A50194010E94DB19DC01CB018C0D9D1D53
S1132CB0AE1DBF1DB7FF03C00197A109B0488093A3
S1132CC0040190930501A0930601B0930701BC0190
S1132CD0CD019F77FF90EF90DF90CF90BF90AF90A2
S1132CE09F908F90089560930401709305018093E1
S1132CF00601909307010895CF93DF93EC012B8194
S1132D0020FF33C026FF0AC02F7B2B838E819F8137
S1132D1001969F838E838A8190E029C022FF0FC091
S1132D20E881F9818081082E000C990B009719F431
S1132D3020622B831AC03196F983E8830EC0EA859A
S1132D40FB85099597FF09C02B81019611F080E25C
S1132D5001C080E1822B8B8308C02E813F812F5FCD
S1132D603F4F3F832E83992702C08FEF9FEFDF9160
S1132D70CF910895A0E0B0E0E0ECF6E10C94F019F6
S1132D80AE014B5F5F4FFA0161917191AF01809188
S1132D902304909124040E94FD16E2E00C940C1A82
S1132DA0A0E0B0E0E6EDF6E10C94EE19AE01495F67
S1132DB05F4FDA016D917D91AD0101E214E0F801FC
S1132DC082819381DC0113962C91139728601396CA
S1132DD02C930E94FD16D8011296ED91FC91139745
S1132DE02381277F2383E4E00C940A1A609123044F
S1132DF0709124040E94F4180895ABE0B0E0E3E07D
S1132E00F7E10C94E0196C017B018A01FC01178243
S1132E101682838181FFCCC1CE0101963C01F6016B
S1132E209381F70193FD859193FF81917F0188231D
S1132E3009F4BAC1853239F493FD859193FF8191E8
S1132E407F01853229F4B60190E00E94F418E7CF9F
S1132E50912C212C312CFFE1F315D8F08B3279F031
S1132E6038F4803279F08332A1F4232D20611DC01F
S1132E708D3261F0803369F4232D216016C0832DD7
S1132E808260382EE32DE4603E2E2AC0F32DF860D4
S1132E901DC037FC2DC020ED280F2A3040F08E32A3
S1132EA0B9F436FC81C1232D2064322E19C036FEBC
S1132EB006C08AE0989E200D1124922E11C0EAE0EB
S1132EC02E9E200D1124222EF32DF0623F2E08C0D9
S1132ED08C3621F4832D8068382E02C0883641F464
S1132EE0F70193FD859193FF81917F018111B3CF08
S1132EF0982F9F7D9554933028F40C5F1F4F9FE3C8
S1132F0099830DC0833631F0833771F0833509F02E
S1132F1059C021C0F801808189830E5F1F4F882426
S1132F208394912C530113C02801F2E04F0E511CDD
S1132F30F801A080B18036FE03C0692D70E002C0A4
S1132F406FEF7FEFC5010E94E9184C018201F32D58
S1132F50FF773F2E16C0280122E0420E511CF801D3
S1132F60A080B18036FE03C0692D70E002C06FEF0F
S1132F707FEFC5010E94DE184C01F32DF0683F2E4F
S1132F80820133FC1BC0822D90E088169906B0F4B0
S1132F90B60180E290E00E94F4182A94F4CFF5017F
S1132FA037FC859137FE81915F01B60190E00E9464
S1132FB0F41821102A9421E0821A910881149104B2
S1132FC071F7E8C0843611F0893641F5F80137FE0F
S1132FD007C060817181828193810C5F1F4F08C09B
S1132FE060817181072E000C880B990B0E5F1F4FB7
S1132FF0F32DFF763F2E97FF09C09095809570952D
S113300061957F4F8F4F9F4FF0683F2E2AE030E04D
S1133010A3010E943019882E861845C0853731F4E3
S1133020232D2F7EB22E2AE030E025C0932D997FE8
S1133030B92E8F36C1F018F4883579F0B5C08037D1
S113304019F0883721F0B0C0E92FE061BE2EB4FE3C
S11330500DC0FB2DF460BF2E09C034FE0AC0292F19
S11330602660B22E06C028E030E005C020E130E042
S113307002C020E132E0F801B7FE07C0608171812F
S1133080828193810C5F1F4F06C06081718180E053
S113309090E00E5F1F4FA3010E943019882E8618FE
S11330A0FB2DFF773F2E36FE0DC0232D2E7FA22E43
S11330B0891458F434FE0BC032FC09C0832D8E7E73
S11330C0A82E05C0B82CA32C03C0B82C01C0B92C61
S11330D0A4FE0FC0FE01E80DF11D8081803321F4B0
S11330E09A2D997EA92E09C0A2FE06C0B394B3946A
S11330F004C08A2D867809F0B394A3FC11C0A0FE05
S113310006C0B21488F4280C922C9B180EC0B2147A
S113311060F4B60180E290E00E94F418B394F7CF13
S1133120B21418F42B1802C0982C212CA4FE10C041
S1133130B60180E390E00E94F418A2FE17C0A1FC3F
S113314003C088E790E002C088E590E0B6010CC0B7
S11331508A2D867859F0A1FE02C08BE201C080E27C
S1133160A7FC8DE2B60190E00E94F418891438F4AB
S1133170B60180E390E00E94F4189A94F7CF8A9401
S1133180F301E80DF11D8081B60190E00E94F4186E
S11331908110F5CF222009F442CEB60180E290E0FE
S11331A00E94F4182A94F6CFF6018681978102C012
S11331B08FEF9FEF2B96E2E10C94FC19FC01059034
S11331C0615070400110D8F7809590958E0F9F1F25
S11331D00895FC016150704001900110D8F780956A
S11331E090958E0F9F1F08950F931F93CF93DF9396
S11331F0FB01238121FD03C08FEF9FEF2CC022FF31
S113320016C046815781248135814217530744F4FF
S1133210A081B1819D012F5F3F4F318320838C9327
S1133220268137812F5F3F4F3783268314C08B015C
S1133230EC01FB010084F185E02D0995892BE1F671
S1133240D80116968D919C911797019617969C9389
S11332508E931697CE01DF91CF911F910F91089510
S1133260FA01AA27283051F1203181F1E8946F93B3
S11332706E7F6E5F7F4F8F4F9F4FAF4FB1E03ED059
S1133280B4E03CD0670F781F891F9A1FA11D680FF7
S1133290791F8A1F911DA11D6A0F711D811D911D2A
S11332A0A11D20D009F468943F912AE0269F11249F
S11332B03019305D3193DEF6CF010895462F477003
S11332C0405D4193B3E00FD0C9F7F6CF462F4F705E
S11332D0405D4A3318F0495D31FD4052419302D0BC
S11332E0A9F7EACFB4E0A695979587957795679562
S11332F0BA95C9F700976105710508959B01AC0162
S11333000A2E06945795479537952795BA95C9F788
S1133310620F731F841F951FA01D0895F999FECF96
S113332092BD81BDF89A992780B50895A6E1B0E0D1
S113333044E050E00C94BF19A8E1B0E042E050E052
S11333400C94BF19262FF999FECF1FBA92BD81BDE7
S113335020BD0FB6F894FA9AF99A0FBE0196089513
S1133360242F0E94A319252F0E94A3190C94B81985
S11333700E94A219272F0C94A319DC01CB01FC0194
S1133380F999FECF06C0F2BDE1BDF89A319600B4BA
S11333900D9241505040B8F708950E94171AA59F06
S11333A0900DB49F900DA49F800D911D112408953C
S11333B0B7FF0C94CD190E94CD19821B930B08956D
S11333C02F923F924F925F926F927F928F929F9231
S11333D0AF92BF92CF92DF92EF92FF920F931F931F
S11333E0CF93DF93CDB7DEB7CA1BDB0B0FB6F894D0
S11333F0DEBF0FBECDBF09942A88398848885F8410
S11334006E847D848C849B84AA84B984C884DF8080
S1133410EE80FD800C811B81AA81B981CE0FD11D64
S11334200FB6F894DEBF0FBECDBFED010895A29F85
S1133430B001B39FC001A39F700D811D1124911D84
S1133440B29F700D811D1124911D0895F894FFCF32
S11334500100000001000000FFFF5802B0040F004B
S113346000000300000000E80D200E0000013F06EC
S11334705B4F666D7D077F6F00065B4F666D7D0752
S11334807F6F01472053636F7265203A2575200AC8
S1133490004631203A2575200A004632203A257527
S11334A0200A0046333A2575200A004634203A257E
S11334B075200A005331203A2575200A0052312024
S11334C03A2575200A0047616D652053706565646F
S11334D0203A2575200A00536E616B65204C656E99
S11334E0677468203A2575200A00536E616B652065
S11334F07461696C203A2575200A00472074696D4F
S113350065203A2569200A00596F7527766520736E
S11335106574206120686967682073636F72652E23
S113352020706C656173652073657420796F7572A2
S113353020696E697469616C2062656C6F773A20EA
S11335400046697273743A20256325632563202538
S113355064005365636F6E643A20256325632563B5
S11335602025640054686972643A20256325632524
S11335706320256400466F75723A20256325632510
S113358063202564200A00466976653A2025632570
S11335906325632025640054686572652041726563
S11335A02043757272656E746C79204E6F20486981
S11335B0676853636F72657300534E414B452042F5
S11335C0792034343335343336390053636F7265BC
S11335D03A20257500536E616B650053636F726505
S11335E03A09090909090920202020202020000087
S9030000FC
