:100000000C94F3000C9410010C9410010C9410014A
:100010000C9410010C9450010C9410010C941001DC
:100020000C9410010C9410010C9410010C9410010C
:100030000C9410010C9410010C9410010C941001FC
:100040000C94DC100C9410010C9410010C94100111
:100050000C94260D0C94E40C0C9410010C941001DB
:100060000C9410010C9410010C9410010C941001CC
:100070000C9410010C9410010C94100123232348BC
:100080004947482053434F5245532323230050727E
:10009000657373206120627574746F6E20746F20B5
:1000A000737461727420616761696E0047414D45E8
:1000B000204F5645520021011E011A01160112015E
:1000C0000E010A0106010201FE0090018C01880167
:1000D000840180017C017801740171016D01690165
:1000E000650160015C01580154014F014B0147015A
:1000F00042013E01390134012F012A012501649298
:10010000927D6C92926D809EA0C17C92924DE4A2F1
:10011000A29D182848FF4492926D468A926342FE3F
:10012000037C92A27D868A92A2C3E0100E10E1C6E3
:10013000281028C7FC021C02FDF8040204F9FC0286
:1001400002FD8080FE80816492924DFE9098677CD3
:10015000828A7C03FE9090617C82827DFE2010FF6B
:10016000FE403040FFFE020203FE1028C7040202D8
:10017000FD82FE83FE1010FF7C82925DFE909081D6
:10018000FE929283FE82827D7C828245FE92926DF7
:100190007E90907F43535345323031302F37323089
:1001A0003120536E616B652050726F6A65637420F5
:1001B0006279204A61636B20456164696500536E12
:1001C000616B65001B5B3F323568001B5B3F32355E
:1001D0006C001B5B25646D001B5B324A001B5B25BA
:1001E000643B2564480011241FBECFEFD8E0DEBF7A
:1001F000CDBF12E0A0E0B1E0ECE7FEE202C0059066
:100200000D92AE30B107D9F723E0AEE0B2E001C005
:100210001D92A539B207E1F70E94AD090C943C1775
:100220000C940000E8E6F0E0808182608083D99A37
:10023000ECE6F0E080818F60808310920E020895DA
:1002400010920E02089580910E0218163CF58091CE
:100250000F026FB7F89490910E029230B4F021E043
:1002600030E091E0F901E15FFD4F4081F901E25F8B
:10027000FD4F40839F5F292F30E040910E02042EF6
:10028000000C550B241735076CF390910E0291501A
:1002900090930E0266231CF4789408958FEF0895CE
:1002A0001F920F920FB60F9211242F933F934F93EB
:1002B0005F936F937F938F939F93EF93FF9343B1DC
:1002C0004F7080910E02883064F580E090E0642FDA
:1002D00070E09B01082E02C0359527950A94E2F73D
:1002E00020FF1BC02091170230E0082E02C0359578
:1002F00027950A94E2F720FD10C0E0910E0221E05C
:100300002E0F20930E020E2E000CFF0BE15FFD4F0F
:10031000808320910E02283024F4019684309105C8
:10032000C1F640931702FF91EF919F918F917F91BA
:100330006F915F914F913F912F910F900FBE0F9052
:100340001F90189589B183FB882780F90895CF9273
:10035000DF92EF92FF920F931F930E949D104091A6
:100360001802509119026A01550FEE08FF0800911A
:100370006B0210916C0220916D0230916E02C00EE2
:10038000D11EE21EF31E21E030E06C157D058E05C6
:100390009F0510F020E030E0C9011F910F91FF9000
:1003A000EF90DF90CF90089580910801909109011E
:1003B00001969093090180930801880F991FFC0111
:1003C000E95AFD4F808191810E9428110E949D1061
:1003D00060936B0270936C0280936D0290936E0237
:1003E000E0910801F0910901EE0FFF1FEF59FD4F59
:1003F00080819181909319028093180208955598F5
:100400008FEF9FEF9093090180930801089583E097
:1004100090E09093560280935502E1E6F2E084EF7B
:1004200091E09183808328EC30E0338322839583AD
:100430008483E7E5F2E080ED97E09183808328EE06
:1004400033E033832283958384838FEF9FEF9093F0
:100450000901809308010E94D4010E94A201811128
:100460000E942D11089582E090E0909356028093AF
:100470005502E1E6F2E082E390E09183808384E636
:1004800090E093838283E7E5F2E080ED97E091834B
:10049000808388EE93E0938382838FEF9FEF909326
:1004A0000901809308010E94D4010E94A2018111D8
:1004B0000E942D110895209155023091560221502D
:1004C000310981E090E04091080150910901421703
:1004D000530714F480E090E008950E94A701892B4F
:1004E00059F40E945B02892B39F067E08AE00E9490
:1004F000D20F0E94FF0108950E94A701892B11F4D9
:100500000E94D40108950F931F93CF93DF93F89423
:1005100060E088E491E00E94B81680E00E94AA069C
:10052000682F80E591E00E94B81681E00E94AA063B
:10053000682F88E591E00E94B81682E00E94AA0622
:10054000682F80E691E00E94B8160E94C709682FC4
:1005500088E691E00E94B8160E940E0F882341F0B1
:100560000E94580F682F80E791E00E94B81605C0DE
:1005700068E080E791E00E94B8160E949207BC01F3
:1005800088E791E00E94CE160E94510BAC01990FB2
:10059000660B770B88E891E00E94C6160E94AC0DAE
:1005A000682F88EA91E00E94B8160E949D10AC0165
:1005B000990F660B770B80EB91E00E94C6160E94A4
:1005C000B20E8C01C0E0D0E009C0F801608180EC7F
:1005D00091E00E94B8162996075F1F4F0E94AC0D4C
:1005E00090E0C817D9078CF368E080EC91E00E9496
:1005F000B8167894DF91CF911F910F9108950895C7
:10060000811521E09207E9F038F4803C910591F0E2
:10061000803E910561F011C0803221E0920721F007
:100620008034914059F009C080E890E0089580E45A
:1006300090E0089580E290E00895089580EA90E0C7
:10064000089580E690E008958F929F92AF92BF92B6
:10065000DF92EF92FF920F931F93CF93DF938C0162
:10066000EB010E94B2164B015C01CE010E94AA165A
:10067000D82ECE0108960E94AA16E82ECE014096EA
:100680000E94AA16F82EB501A401C80180960E9406
:10069000C6166D2DCE0180960E94B8166E2DCE0125
:1006A00088960E94B8166F2DCE01C0960E94B8168B
:1006B000DF91CF911F910F91FF90EF90DF90BF904E
:1006C000AF909F908F90089560E870E080E291E095
:1006D0000E94240308950E94640360E670E080E0B5
:1006E00091E00E94240308950E946B0360E470E08F
:1006F00080EE90E00E94240308950E94740360E25B
:1007000070E080EC90E00E9424030895CF93DF9383
:10071000EC016FE50E94B8166FE5CE0108960E94C5
:10072000B8166FE5CE0140960E94B816DF91CF91C2
:10073000089540E050E0BA0180EC90E00E94C616B7
:1007400040E050E0BA0180EE90E00E94C61640E022
:1007500050E0BA0180E091E00E94C61640E050E00F
:10076000BA0180E291E00E94C61640E050E0BA0172
:1007700080E491E00E94C61680E290E00E94860329
:1007800080E490E00E94860380E690E00E94860369
:1007900080E890E00E94860380EA90E00E94860351
:1007A00067EE80E691E00E94B816089580E691E039
:1007B0000E94AA1621E030E0873E11F020E030E0F0
:1007C000C9010895CF92DF92EF92FF920E94510BE0
:1007D0006B017C0180E491E00E94B216C616D70638
:1007E000E806F90640F40E94D60321E0892B09F0BF
:1007F00020E0822F01C081E0FF90EF90DF90CF904A
:100800000895CF92DF92EF92FF920E94D603892B38
:1008100009F442C00E94510B6B017C0180EC90E016
:100820000E94B2166C157D058E059F05C0F10E94D1
:10083000510B6B017C0180EE90E00E94B2166C15AA
:100840007D058E059F0570F10E94510B6B017C01A7
:1008500080E091E00E94B2166C157D058E059F0523
:1008600020F10E94510B6B017C0180E291E00E941B
:10087000B2166C157D058E059F05D0F00E94510BB8
:100880006B017C0180E491E00E94B2166C157D053D
:100890008E059F0580F011C080EC90E00EC080ECCA
:1008A00090E00BC080EE90E008C080E091E005C0D1
:1008B00080E291E002C080E491E0FF90EF90DF9051
:1008C000CF900895CF92DF92EF92FF921F93CF9334
:1008D000DF9367EE80E691E00E94B8160E94010463
:1008E000803E910591F020F4803C910589F012C082
:1008F000811521E0920731F08032914059F40E9435
:10090000640308C00E946B0305C00E94740302C008
:100910000E947D030E94510B6B017C010E94010427
:10092000B701A6010E94C616CAE1D2E018810E9452
:1009300001040E940003612F0E94B81619810E94D1
:1009400001040E940003612F08960E94B816CA8114
:100950000E9401040E9400036C2F40960E94B8166A
:100960000E94EB0FDF91CF911F91FF90EF90DF90EE
:10097000CF900895EF92FF920F931F93CF93DF9341
:1009800068E08AE00E94D20F82E391E09F938F9308
:100990000E94D6130F900F9000E010E00F2EFFE89A
:1009A000EF2EF3E0FF2EF02D0E940A100E94D80CCB
:1009B0008823D1F3F701808191810E949813EC0183
:1009C000982F91549A3398F40430110584F469E017
:1009D0008AE0800F0E94D20FF801E65EFD4FC083CF
:1009E000CE0199270E9412140F5F1F4FDDCF8A306E
:1009F00089F08F37C9F680E290E00E941214101639
:100A0000110614F40150110969E08AE0800F0E9478
:100A1000D20FCACFF999FECF0E946204DF91CF9125
:100A20001F910F91FF90EF900895EF92FF920F9317
:100A30001F93CF93DF936BE08AE00E94D20F8CE785
:100A400090E09F938F930E94EC136DE08AE00E94E8
:100A5000D20F0E94D6030F900F90892B09F4DFC0AC
:100A600080EC90E00E94B216162F072FF82EE92E88
:100A700080E390E00E94AA16D82F88E290E00E94BE
:100A8000AA16C82F80E290E00E94AA16EF92FF9269
:100A90000F931F931F92DF931F92CF931F928F93F9
:100AA0008BE691E09F938F930E94D6136EE08AE0CD
:100AB0000E94D20F80EE90E00E94B216162F072FF0
:100AC000F82EE92E80E590E00E94AA16D82F88E43F
:100AD00090E00E94AA16C82F80E490E00E94AA1617
:100AE000EF92FF920F931F931F92DF931F92CF936A
:100AF0001F928F938CE791E09F938F930E94D61360
:100B00006FE08AE00E94D20F80E091E00E94B2166E
:100B1000162F072FF82EE92E80E790E00E94AA16E4
:100B2000D82F88E690E00E94AA16C82F80E690E0B1
:100B30000E94AA16EF92FF920F931F931F92DF93CA
:100B40001F92CF931F928F938EE891E09F938F9384
:100B50000E94D6138DB79EB784960FB6F8949EBFA9
:100B60000FBE8DBF60E18AE00E94D20F80E291E06B
:100B70000E94B216162F072FF82EE92E80E990E07A
:100B80000E94AA16D82F88E890E00E94AA16C82FC3
:100B900080E890E00E94AA16EF92FF920F931F93B5
:100BA0001F92DF931F92CF931F928F938FE991E053
:100BB0009F938F930E94D61361E18AE00E94D20F27
:100BC00080E491E00E94B216162F072FF82EE92E2E
:100BD00080EB90E00E94AA16D82F88EA90E00E944D
:100BE000AA16C82F80EA90E00E94AA16EF92FF9200
:100BF0000F931F931F92DF931F92CF931F928F9398
:100C000081EB91E09F938F930E94D6138DB79EB78F
:100C100048960FB6F8949EBF0FBE8DBF0AC00E94C3
:100C2000990381EC91E09F938F930E94D6130F90CC
:100C30000F90DF91CF911F910F91FF90EF9008954A
:100C400010926F02089530916F02131684F4909100
:100C50007002891771F0E1E7F2E090E003C02191A2
:100C6000281749F09F5F3913FACF8FEF08958FEF60
:100C7000089580E00895892F08950E94230691E049
:100C80008F3F09F490E0892F0895FF920F931F93EF
:100C9000CF93DF9380916F0288300CF044C000E066
:100CA00010E0D0E0C0E002C00F5F1F4F2C2FCC0F30
:100CB000330B2D5F3F4F200F311F2F7030783323C0
:100CC00034F421503109206F3F6F2F5F3F4F822F47
:100CD000C22F6D2FDD0F770B6B5F7F4F67707078C2
:100CE000772334F461507109686F7F6F6F5F7F4FB6
:100CF000D62F0E94ED07F82E03361105B1F00E94A1
:100D0000E40D8111D1CF8F2D0E943D068111CCCFF2
:100D10008F2D0E945B0F8111C7CF8F2D0E94B70AC4
:100D20008111C2CF04C088E00FC088E00DC080915F
:100D30006F02E82F082E000CFF0BE059FD4FF082E8
:100D40008F5F80936F028F2DDF91CF911F910F9155
:100D5000FF900895E82F880FFF0BE059FD4F808129
:100D600008958823B4F020916F02821794F48F5F66
:100D7000821764F4E82F082E000CFF0BE059FD4F9A
:100D80009081319790838F5F8217A4F32150209335
:100D90006F0208951F93CF93DF93C82F162F0E94E1
:100DA000E507D82F8C2F0E94E207412F6D2F0E945C
:100DB0009B07DF91CF911F910895CF93DF930E94FE
:100DC000DE070E94341088E592E090930B01809337
:100DD0000A010E94BE0A0E9413110E9407020E948B
:100DE000790D0E949A0D6FE00E94CA060E94A30D21
:100DF00060EF0E94CA060E942006C3E00E944506DA
:100E0000D82F0E94E707882321F063E38D2F0E94EB
:100E1000CA06C15099F7DF91CF91089580910A01D8
:100E200090910B018B3F9105A4F060910A017091A4
:100E30000B0180E090E00E945E1126E636E646E671
:100E40005FE30E94C4110E942F1170930B01609305
:100E50000A0108950F931F93CF93DF930E949A0D79
:100E6000D82F0E94070EC82F88230CF455C081E0AC
:100E700090E00E943C0B0E949A0D182F8EEF8C0F71
:100E80008230C0F4812F0E9423060E94B1060E9486
:100E9000330282E090E00E943C0B0E940E070E9409
:100EA0004506082F0E94E707882321F063E3802F7F
:100EB0000E94CA068CEF8C0F823050F40E944F0FB4
:100EC00089E090E00E943C0B0E940E070E943302D2
:100ED0008AEF8C0F823050F40E94BE0A84E090E0CA
:100EE0000E943C0B0E940E070E943302CD7FC1304E
:100EF00011F0C53029F40E94AF0D60E00E94CA06CF
:100F000060EF8D2F0E94CA066FE0812F0E94CA06F3
:100F10000E945D1081E001C080E0DF91CF911F91C0
:100F20000F91089580910A0190910B01089580E836
:100F30000E94E00E08951F93CF93DF938031B0F4A9
:100F40006830A0F4142FC62FD82F81E00E94080F1C
:100F50006C2F677080E1689F900111248D2F8F7036
:100F6000822B0E94080F812F0E94080FDF91CF91E2
:100F70001F9108950F931F93CF93DF93803190F4C7
:100F80008B01C82F83E00E94080F8C2F8F700E9466
:100F9000080FE801085F1F4F89910E94080FC017D2
:100FA000D107D1F7DF91CF911F910F91089584E080
:100FB0000E94080F82E00E94080F08958FE00E94AF
:100FC000080F089582958F7008958F70089583FBA0
:100FD000882780F991E08927089520E1829FC00148
:100FE00011246770862B08950E9497070E941201B2
:100FF00040E060E07BE480E090E00E94910C0E9481
:10100000761078940895FF920F931F93CF93DF93F8
:1010100080E00E94F40F0E94EB0F0E9401100E94DA
:1010200013100E94DE07CFE00F2EFFE0FF2EF02D01
:101030000FEF10EFD5E16C2F83EE91E00E945A0B79
:101040000DC02FE78CE293E0215080409040E1F703
:1010500000C000000E9423018F3FA9F50E94690B88
:101060008111EFCF0E944113DC01CB0183709927DE
:10107000AA27B078BB2354F40197A109B1098C6F5A
:101080009F6FAF6FBF6F0196A11DB11D813091059C
:10109000A105B10591F02CF4892B8A2B8B2B59F0EB
:1010A000CACF82309105A105B10549F00397A1058A
:1010B000B10539F0C0CFCD2FBECFCF2DBCCFC02FC3
:1010C000BACFC12FB8CFDF91CF911F910F91FF9071
:1010D00008950E94EB0F0E94DD060E94330B0E94D0
:1010E00020010E94DF0C08950E94EB0F65E08AE06A
:1010F0000E94D20F8CEA90E09F938F930E94EC1392
:1011000067E08AE00E94D20F0E94510B9F938F9359
:101110007F936F9385EF91E09F938F930E94D613F7
:101120000E9415050E94E2032DB73EB7285F3F4F8E
:101130000FB6F8943EBF0FBE2DBF81110E94BA04B6
:1011400069E08AE00E94D20F8EE890E09F938F932F
:101150000E94EC130E9415050F900F900E9423012E
:101160008F3FE1F30E94EB0F08954F925F927F92C1
:101170008F929F92AF92BF92CF92DF92EF92FF92A7
:101180000F931F93CF93DF930E949D104B015C013F
:1011900010E00FEF0F2EFFED7F2EF02D0F2EFFE84A
:1011A0004F2EF3E05F2EF02D0E94110F81110E944F
:1011B000680F0E94270F81110E94370F0E94210B98
:1011C00081110E94410A0E946D020E949510892B94
:1011D00019F00E94200106C00E942301C82F8F3FF2
:1011E00009F08DC00E94D80C882309F497C0F20141
:1011F000808191810E949813D82F111103C08B31E7
:1012000051F489C0113019F48B3529F486C012309D
:1012100009F47BC06EC00E949510892B49F037C03D
:10122000CC2311F008C010E081E00E94C60D44C03C
:1012300010E0C02F01C0D02FC23019F0802F8134B0
:1012400021F480E00E94C60D37C0C33011F0843411
:1012500021F483E00E94C60D2FC0C13011F082340A
:1012600029F482E00E94C60D27C010E08D2F8F7DEB
:10127000803519F40E948E101FC0D33719F40E94D4
:1012800083021AC08F34C1F40E94740815C08D2FD8
:101290008F7D803521F40E948E1010E00DC0D33771
:1012A00021F40E94830210E007C010E08F3421F483
:1012B00081E080931E0241C00E949D106B017C0161
:1012C0000E949207092E000CAA0BBB0B880D991DDA
:1012D000AA1DBB1DC816D906EA06FB0608F464CF92
:1012E0000E942A07882349F10E949D104B015C014E
:1012F0005BCF0E949510892B09F4B7CFC8CF0E940D
:101300009510892B09F48CCFD7CF0E949510892B8B
:1013100051F010E010C011E001C012E00E949510E1
:10132000892B49F4C9CFD33409F47DCF8D2F10E038
:10133000D02FC02F84CF872DB9CFDF91CF911F91B0
:101340000F91FF90EF90DF90CF90BF90AF909F9064
:101350008F907F905F904F9008950E94F4078FEFD9
:1013600081B9529A53980E94030880911E028823E3
:1013700019F00E94FF0202C00E9469080E94B5088D
:1013800080911E028111F1CF0E947408EECF8091EE
:1013900078020895CF93DF93C82F809178020E943E
:1013A000E507D82F809178020E94E20740E06D2F78
:1013B0000E949B07C09378028C2F0E94E507D82FCC
:1013C0008C2F0E94E2074CE36D2F0E949B07DF9158
:1013D000CF910895CF93C82F0E94E40D81110DC0C5
:1013E0008C2F0E943D0681110AC08C2F0E945B0F3A
:1013F00091E0811105C090E003C091E001C091E04F
:10140000892FCF9108951F93CF93DF93182F809149
:1014100078020E94E207C82F809178020E94E507B7
:10142000D82F8FEF8C0F8E3020F48FEF8D0F8630FA
:10143000E8F0C11106C0812F0E94E2078F3041F40D
:1014400017C0CF3029F4812F0E94E207882391F042
:10145000D11105C0812F0E94E50781E00EC0D73071
:1014600059F4812F0E94E50781E007C080E005C0A4
:1014700081E003C081E001C081E0DF91CF911F9145
:1014800008950F931F93CF93DF9360E080E00E9455
:10149000ED07082F0E94E61283709078992324F4B8
:1014A00001978C6F9F6F019610E0C82FD0E0C1307C
:1014B000D105D1F01CF4209741F042C0C230D105D3
:1014C00011F1C330D10571F13BC0809178020E94C7
:1014D000E507082F809178020E94E20761E0600F23
:1014E0000E94ED07082F2CC0809178020E94E5072A
:1014F000082F809178020E94E2076FEF600F0E9430
:10150000ED07082F1DC0809178020E94E507082F83
:10151000809178020E94E207602F8F5F0E94ED07A2
:10152000082F0EC0809178020E94E507082F809155
:1015300078020E94E207602F81500E94ED07082F79
:101540001F5F802F0E94EA09882339F0143039F098
:10155000802F0E94030A8111AACF153018F4802F22
:101560000E94CA09DF91CF911F910F91089591E0D8
:1015700020917802281390E0892F08951F93CF932C
:10158000DF930E94E612EC010E94E612BC01677034
:101590007078772334F461507109686F7F6F6F5FE3
:1015A0007F4FCE018F709078992324F40197806F3C
:1015B0009F6F01960E94ED07C82F13E61EC00E9480
:1015C000E612EC010E94E612BC0167707078772386
:1015D00034F461507109686F7F6F6F5F7F4FCE0188
:1015E0008F709078992324F40197806F9F6F0196F4
:1015F0000E94ED07C82F115091F08C2F0E94E40D2E
:101600008111DDCF8C2F0E943D068111D8CF0E9421
:10161000580F8C17A1F2809178028C1781F2C09339
:1016200078028C2F0E94E507C82F809178020E94D3
:10163000E2074CE36C2F0E949B07DF91CF911F9133
:1016400008950E949D1020910C0130910D0140E001
:1016500050E00E94591221E0672B682B692B09F09A
:1016600020E0822F089510921F0210922002109203
:10167000210210922202089540911F0250912002EF
:101680006091210270912202480F591F611D711D46
:1016900040931F0250932002609321027093220214
:1016A000089560911F027091200280912102909113
:1016B0002202089560930E019093270280932602E0
:1016C00010922902109228021092250210922402F0
:1016D00008950F931F93CF93DF93CDB7DEB728976D
:1016E0000FB6F894DEBF0FBECDBFE0912802F09197
:1016F0002902309781F0149110FF06C01092290240
:101700001092280200E06BC03196F0932902E0931A
:10171000280200E064C0E0912402F0912502309795
:1017200009F449C0CF0101969093250280932402C9
:10173000E081E1110AC0109225021092240280E19A
:101740008093230200E010E04AC08FE98E0F8A31B7
:1017500070F4F0E0EE0FFF1FE85FFF4F859194916A
:10176000909329028093280200E010E038C08FEBAC
:101770008E0F8A3170F4F0E0EE0FFF1FE85BFF4F31
:1017800085919491909329028093280200E010E0C3
:1017900026C080ED8E0F8A3000F5F0E0EE0FFF1FBF
:1017A000EA5AFF4F859194919093290280932802E1
:1017B00000E010E014C0809126029091270201E021
:1017C000009709F000E09093250280932402109284
:1017D00027021092260210E002C000E010E00E94F2
:1017E000D70720910E01FE013896CE0101961123F4
:1017F00014F4208301C01082110F3197E817F90704
:10180000B1F71982BE016F5F7F4F8FE00E94BA0768
:1018100080912302882389F0815080932302002342
:1018200011F0882311F090E003C091E001C091E035
:1018300081E0992329F080E003C00023A1F3F7CFD2
:1018400028960FB6F894DEBF0FBECDBFDF91CF91C3
:101850001F910F910895CF93C82F8A3019F48DE00E
:101860000E942B0C9FB7907802C0992329F1809198
:101870007A028F3FD1F3F894E091790281E08E0FE4
:1018800080937902F0E0E558FD4FC08380917A02A1
:101890008F5F80937A02809179028F3F11F41092CA
:1018A0007902E1ECF0E0808180628083992339F055
:1018B000789480E090E005C081E090E002C080E094
:1018C00090E0CF91089580918C038823E1F32FB7A6
:1018D0002078F89480917A0330918C0390E0831BF8
:1018E00091095AF4E0917A0380918C03F0E0E81BAF
:1018F000F109E557FC4F80810AC0E0917A0380919D
:101900008C03F0E0E81BF109E558FC4F80819091D1
:101910008C03915090938C03222309F0789490E0EB
:1019200008951092790210927A0210927A0310921E
:101930008C0310928B0340932A02DC01CB01880FA9
:10194000991FAA1FBB1F880F991FAA1FBB1F9C01AD
:10195000AD01220F331F441F551F60E072E18AE77B
:1019600090E00E947B12BA01A9014F5F5F4F6F4F59
:101970007F4FDB01CA011AF40196A11DB11DB59577
:10198000A7959795879501979093C5008093C4007C
:10199000E1ECF0E088E18083808180688083EFE87B
:1019A000F3E08FE091E093838283918380830895B5
:1019B00090918C0381E0911101C080E00895109214
:1019C0007A0310928C0308951F920F920FB60F9214
:1019D00011242F938F939F93EF93FF9380917A021B
:1019E000882329F18091790220917A0290E0821B6C
:1019F00091095AF4E091790280917A02F0E0E81BB3
:101A0000F109E658FC4F90810AC0E091790280917B
:101A10007A02F0E0E81BF109E558FD4F90818091D2
:101A20007A02815080937A029093C60005C0E1EC5F
:101A3000F0E080818F7D8083FF91EF919F918F9166
:101A40002F910F900FBE0F901F9018951F920F921D
:101A50000FB60F9211242F933F934F935F936F9381
:101A60007F938F939F93AF93BF93CF93EF93FF9306
:101A7000C091C60080912A02882349F080917A02A1
:101A80008F3F29F060E070E08C2F0E942B0C80913A
:101A90008C03803120F081E080938B0318C0CD301F
:101AA00009F4CAE0E0917A0381E08E0F80937A0313
:101AB000F0E0E558FC4FC08380918C038F5F8093EA
:101AC0008C0380917A03803111F410927A03FF9194
:101AD000EF91CF91BF91AF919F918F917F916F9136
:101AE0005F914F913F912F910F900FBE0F901F90DC
:101AF00018950F931F93CF9382E080932F0210923B
:101B00002D02C1E0C0932E0261E081E00E94ED074A
:101B100000E312E0F801808361E082E00E94ED07BB
:101B2000F8018183C0932C02C0932B02CF911F91A7
:101B30000F910895E0912E020E2E000CFF0BE05D38
:101B4000FD4F80810895E0912D020E2E000CFF0BB9
:101B5000E05DFD4F8081089580912F02089590915E
:101B60002D02E92F092E000CFF0BE05DFD4F808157
:101B70009F5F913219F090932D0202C010922D02B6
:101B800090912F02915090932F02089590912C02E2
:101B90009130A9F028F0923041F0933059F0089537
:101BA000823089F080932B020895882361F080931E
:101BB0002B020895813039F080932B0208958330F1
:101BC00011F080932B02089590912D0230912E02F6
:101BD00040E00DC0E92F092E000CFF0BE05DFD4F2A
:101BE0002081281789F09F5F91320CF0942F931376
:101BF000F1CFE32F330FFF0BE05DFD4F91E020812C
:101C0000281719F090E001C091E0892F0895CF9333
:101C1000DF9380912F02813208F096C0E0912E026E
:101C20000E2E000CFF0BE05DFD4F80810E94E2074D
:101C3000D82FC82FE0912E020E2E000CFF0BE05D76
:101C4000FD4F80810E94E507682F90912B02913013
:101C500059F028F0923069F0933081F01BC0873042
:101C600091F061E0680F16C0DF3079F0C1E0CD0F70
:101C700011C0882361F06FEF680F0CC0DD2349F0BD
:101C8000CFEFCD0F07C060E005C0C0E003C067E044
:101C900001C0CFE08C2F0E94ED07C82F80912B024E
:101CA00090912C02981741F080932C020E94A2017F
:101CB000892B11F00E9433028C2F0E94E40D88239F
:101CC00051F0E0912D020E2E000CFF0BE05DFD4F58
:101CD0008081C8133BC080912E028F5F813219F042
:101CE00080932E0202C010922E02E0912E020E2E40
:101CF000000CFF0BE05DFD4FC08380912F028F5FD2
:101D000080932F028C2F90E00E94B70A892B31F02C
:101D100080912F028132E0F087E021C08C2F0E9459
:101D20005B0F882331F080912F02813298F085E09B
:101D300016C08C2F0E943D06882371F080912F02DF
:101D4000813260F083E00BC08DEF09C08EEF07C0D9
:101D500086E005C084E003C081E001C082E0DF913D
:101D6000CF910895E0912D020E2E000CFF0BE05D47
:101D7000FD4F2081E0912E020E2E000CFF0BE05D46
:101D8000FD4F8081821770F490E00197F2F730E008
:101D90002132310594F480E290E001978217930795
:101DA000E4F70BC030E090E00196281739072CF4D7
:101DB0002F5F3F4F28173907DCF380E090E008954C
:101DC00094B1906B94B92C9A90E59CBD883021F029
:101DD000803211F0823019F491E09DBD01C01DBC2C
:101DE000803269F028F4883071F0803161F00EC0E3
:101DF000803429F0803851F48CB581608CBD8CB56D
:101E000082608CBD03C08CB581608CBD2C98089518
:101E10008EBD0DB407FEFDCF8EB5089580918E0363
:101E200008950E949D1068597A438109910920E222
:101E30003EE440E050E00E945912672B682B692B6A
:101E400021F40E949D1081E0089580E008950E9491
:101E50009D1020E23EE440E050E00E94591221E053
:101E6000672B682B692B09F020E0822F0895CF9310
:101E700080918D030E94E507C82F80918D030E94F9
:101E8000E20740E06C2F0E949B0760E080E00E9428
:101E9000ED0780938D0310928E03CF91089560E03B
:101EA00080E00E94ED0780938D0310928E030895C9
:101EB00080918D03089590918E03992339F091E0DC
:101EC00020918D03281390E0892F089580E00895D4
:101ED0001F93CF93DF930E94370F0E94E612EC010D
:101EE0000E94E612BC0167707078772334F4615069
:101EF0007109686F7F6F6F5F7F4FCE018F70907831
:101F0000992324F40197806F9F6F01960E94ED073B
:101F1000C82F13E61EC00E94E612EC010E94E612D2
:101F2000BC0167707078772334F461507109686F71
:101F30007F6F6F5F7F4FCE018F709078992324F46D
:101F40000197806F9F6F01960E94ED07C82F115077
:101F5000A1F08C2F0E94E40D8111DDCF8C2F0E9407
:101F60003D068111D8CF8C2F0E945B0F8111D3CFFA
:101F70008C2F0E94B70A8111CECFC0938D038C2F76
:101F80000E94E507C82F80918D030E94E2074FEF62
:101F90006C2F0E949B0781E080938E03DF91CF918D
:101FA0001F910895282F082E000C330B3F938F9319
:101FB000862F062E000C990B9F936F938DED91E069
:101FC0009F938F930E94EC130F900F900F900F90A0
:101FD0000F900F90089588ED91E09F938F930E944A
:101FE000EC130F900F9008951F928F9382ED91E064
:101FF0009F938F930E94EC130F900F900F900F9070
:1020000008958BEC91E09F938F930E94EC130F90B7
:102010000F90089584EC91E09F938F930E94EC13AE
:102020000F900F90089563E083E00E94D20F8EEB33
:1020300091E09F938F930E94EC1365E083E00E94F0
:10204000D20F80E20E94F40F84E991E09F938F9376
:102050000E94EC1385E20E94F40F0E9415050F9078
:102060000F900F900F9008950E94011061E08AE098
:102070000E94D20F8FEF91E09F938F930E94D6130F
:1020800063E081E00E94D20F0E94510B9F938F93D7
:102090007F936F9385E092E09F938F930E94D61376
:1020A00063E08AE00E94D20F8DB79EB708960FB604
:1020B000F8949EBF0FBE8DBF08950E94011063E08B
:1020C00081E00E94D20F0E94510B9F938F937F93C8
:1020D0006F9385EF91E09F938F930E94D6130F909B
:1020E0000F900F900F900F900F9008951092510243
:1020F00010925202109253021092540216BC8CE7B6
:1021000087BD82E084BD83E085BDEEE6F0E080819E
:102110008260808385B3827085BB0895EEE6F0E02F
:10212000908182E089278083089580916E00869552
:1021300091E08927817090E008952FB7F89460911D
:1021400051027091520280915302909154022223C5
:102150000CF47894089580913101882381F05A9A83
:102160000E94AC0DEDEC8E9FE12D1124E695E695D5
:10217000E695F0E0E95DFE4F808182B916C05A987D
:102180000E94AC0D9DEC899F912D112496959695FA
:102190009695990F292F220F220F920F891BE82F56
:1021A000F0E0E35EFE4F808182B99091310181E0E1
:1021B000891B8093310108951F920F920FB60F92E1
:1021C00011242F933F934F935F936F937F938F933C
:1021D0009F93AF93BF93EF93FF93809151029091A0
:1021E0005202A0915302B09154020196A11DB11D5B
:1021F0008093510290935202A0935302B0935402E1
:102200000E94AB10FF91EF91BF91AF919F918F9181
:102210007F916F915F914F913F912F910F900FBEE2
:102220000F901F9018951092850010928400E1E89D
:10223000F0E080818A60808380E48093800088EE73
:1022400093E090938900809388005598539808955F
:1022500090938900809388000895559A08950E946C
:10226000A31188F09F5798F0B92F9927B751B0F074
:10227000E1F0660F771F881F991F1AF0BA95C9F70A
:1022800014C0B13091F00E94BD11B1E008950C94DA
:10229000BD11672F782F8827B85F39F0B93FCCF38D
:1022A000869577956795B395D9F73EF49095809587
:1022B000709561957F4F8F4F9F4F0895E89409C0A7
:1022C00097FB3EF490958095709561957F4F8F4F69
:1022D0009F4F9923A9F0F92F96E9BB279395F6957F
:1022E000879577956795B795F111F8CFFAF4BB0FFD
:1022F00011F460FF1BC06F5F7F4F8F4F9F4F16C061
:10230000882311F096E911C0772321F09EE8872FEA
:10231000762F05C0662371F096E8862F70E060E0A6
:102320002AF09A95660F771F881FDAF7880F96951F
:10233000879597F9089557FD9058440F551F59F008
:102340005F3F71F04795880F97FB991F61F09F3FA2
:1023500079F087950895121613061406551FF2CFCB
:102360004695F1DF08C0161617061806991FF1CF1B
:1023700086957105610508940895E894BB27662742
:102380007727CB0197F908950E94D7110C94481232
:102390000E943A1238F00E94411220F0952311F069
:1023A0000C9431120C94371211240C94BE110E941B
:1023B0009B1170F3959FC1F3950F50E0551F629FDD
:1023C000F001729FBB27F00DB11D639FAA27F00D8E
:1023D000B11DAA1F649F6627B00DA11D661F829FB5
:1023E0002227B00DA11D621F739FB00DA11D621F9A
:1023F000839FA00D611D221F749F3327A00D611DB7
:10240000231F849F600D211D822F762F6A2F112498
:102410009F5750409AF0F1F088234AF0EE0FFF1FCB
:10242000BB1F661F771F881F91505040A9F79E3F22
:10243000510580F00C9431120C94BE115F3FE4F30F
:10244000983ED4F3869577956795B795F795E79578
:102450009F5FC1F7FE2B880F911D9695879597F981
:10246000089597F99F6780E870E060E008959FEF16
:1024700080EC089500240A9416161706180609061B
:10248000089500240A9412161306140605060895EA
:10249000092E0394000C11F4882352F0BB0F40F472
:1024A000BF2B11F460FF04C06F5F7F4F8F4F9F4FB2
:1024B0000895A1E21A2EAA1BBB1BFD010DC0AA1F85
:1024C000BB1FEE1FFF1FA217B307E407F50720F09D
:1024D000A21BB30BE40BF50B661F771F881F991F18
:1024E0001A9469F760957095809590959B01AC0161
:1024F000BD01CF010895052E97FB1EF400940E94A4
:10250000921257FD07D00E94591207FC03D04EF4D7
:102510000C94921250954095309521953F4F4F4F16
:102520005F4F089590958095709561957F4F8F4F7F
:102530009F4F08958F929F92AF92BF92CF92DF925A
:10254000EF92FF92CF93DF93EC01688179818A81CA
:102550009B81611571058105910521F464E279ED96
:102560008BE597E02DE133EF41E050E00E947B12D4
:1025700049015A019B01AC01A7EAB1E40E94E316AC
:102580006B017C01ACEEB4EFA50194010E94F11641
:10259000DC01CB018C0D9D1DAE1DBF1DB7FF03C01F
:1025A0000197A109B04888839983AA83BB839F7749
:1025B000DF91CF91FF90EF90DF90CF90BF90AF90E1
:1025C0009F908F9008950E949A12089580E091E064
:1025D0000E949A120895A0E0B0E0809300019093C9
:1025E0000101A0930201B093030108958F929F927D
:1025F000AF92BF92CF92DF92EF92FF92CF93DF9391
:10260000EC01688179818A819B8161157105810561
:10261000910521F464E279ED8BE597E02DE133EF4C
:1026200041E050E00E947B1249015A019B01AC013C
:10263000A7EAB1E40E94E3166B017C01ACEEB4EFB3
:10264000A50194010E94F116DC01CB018C0D9D1DAA
:10265000AE1DBF1DB7FF03C00197A109B048888315
:102660009983AA83BB83BC01CD019F77DF91CF9172
:10267000FF90EF90DF90CF90BF90AF909F908F90A2
:1026800008958F929F92AF92BF92CF92DF92EF9276
:10269000FF92609104017091050180910601909173
:1026A0000701611571058105910521F464E279ED59
:1026B0008BE597E02DE133EF41E050E00E947B1283
:1026C00049015A019B01AC01A7EAB1E40E94E3165B
:1026D0006B017C01ACEEB4EFA50194010E94F116F0
:1026E000DC01CB018C0D9D1DAE1DBF1DB7FF03C0CE
:1026F0000197A109B0488093040190930501A0932C
:102700000601B0930701BC01CD019F77FF90EF90C8
:10271000DF90CF90BF90AF909F908F90089560937F
:1027200004017093050180930601909307010895B9
:10273000CF93DF93EC012B8120FF33C026FF0AC02B
:102740002F7B2B838E819F8101969F838E838A812D
:1027500090E029C022FF0FC0E881F9818081082E16
:10276000000C990B009719F420622B831AC0319644
:10277000F983E8830EC0EA85FB85099597FF09C0B8
:102780002B81019611F080E201C080E1822B8B83C6
:1027900008C02E813F812F5F3F4F3F832E839927B3
:1027A00002C08FEF9FEFDF91CF910895A0E0B0E0DE
:1027B000ECEDF3E10C940617AE014B5F5F4FFA01AD
:1027C00061917191AF0180919103909192030E9468
:1027D0001914E2E00C942217A0E0B0E0E2EFF3E17C
:1027E0000C940417AE01495F5F4FDA016D917D9142
:1027F000AD010FE813E0F80182819381DC011396AB
:102800002C911397286013962C930E941914D801C9
:102810001296ED91FC9113972381277F2383E4E0A7
:102820000C94201760919103709192030E941016EE
:102830000895ABE0B0E0EFE1F4E10C94F6166C0122
:102840007B018A01FC0117821682838181FFCCC142
:10285000CE0101963C01F6019381F70193FD85912C
:1028600093FF81917F01882309F4BAC1853239F43D
:1028700093FD859193FF81917F01853229F4B60103
:1028800090E00E941016E7CF912C212C312CFFE113
:10289000F315D8F08B3279F038F4803279F0833246
:1028A000A1F4232D20611DC08D3261F0803369F4C5
:1028B000232D216016C0832D8260382EE32DE46025
:1028C0003E2E2AC0F32DF8601DC037FC2DC020ED30
:1028D000280F2A3040F08E32B9F436FC81C1232D06
:1028E0002064322E19C036FE06C08AE0989E200D64
:1028F0001124922E11C0EAE02E9E200D1124222ECA
:10290000F32DF0623F2E08C08C3621F4832D8068B1
:10291000382E02C0883641F4F70193FD859193FF6C
:1029200081917F018111B3CF982F9F7D9554933072
:1029300028F40C5F1F4F9FE399830DC0833631F05D
:10294000833771F0833509F059C021C0F8018081C7
:1029500089830E5F1F4F88248394912C530113C0E9
:102960002801F2E04F0E511CF801A080B18036FE24
:1029700003C0692D70E002C06FEF7FEFC5010E94B8
:1029800005164C018201F32DFF773F2E16C028015A
:1029900022E0420E511CF801A080B18036FE03C037
:1029A000692D70E002C06FEF7FEFC5010E94FA153C
:1029B0004C01F32DF0683F2E820133FC1BC0822DA9
:1029C00090E088169906B0F4B60180E290E00E948B
:1029D00010162A94F4CFF50137FC859137FE8191CA
:1029E0005F01B60190E00E94101621102A9421E0A8
:1029F000821A91088114910471F7E8C0843611F0AD
:102A0000893641F5F80137FE07C060817181828106
:102A100093810C5F1F4F08C060817181072E000CED
:102A2000880B990B0E5F1F4FF32DFF763F2E97FFFC
:102A300009C090958095709561957F4F8F4F9F4FFE
:102A4000F0683F2E2AE030E0A3010E944C16882E49
:102A5000861845C0853731F4232D2F7EB22E2AE00B
:102A600030E025C0932D997FB92E8F36C1F018F430
:102A7000883579F0B5C0803719F0883721F0B0C0BB
:102A8000E92FE061BE2EB4FE0DC0FB2DF460BF2E19
:102A900009C034FE0AC0292F2660B22E06C028E0E5
:102AA00030E005C020E130E002C020E132E0F80172
:102AB000B7FE07C060817181828193810C5F1F4FD7
:102AC00006C06081718180E090E00E5F1F4FA3011E
:102AD0000E944C16882E8618FB2DFF773F2E36FE5F
:102AE0000DC0232D2E7FA22E891458F434FE0BC066
:102AF00032FC09C0832D8E7EA82E05C0B82CA32CD5
:102B000003C0B82C01C0B92CA4FE0FC0FE01E80D13
:102B1000F11D8081803321F49A2D997EA92E09C060
:102B2000A2FE06C0B394B39404C08A2D867809F03F
:102B3000B394A3FC11C0A0FE06C0B21488F4280C04
:102B4000922C9B180EC0B21460F4B60180E290E0A3
:102B50000E941016B394F7CFB21418F42B1802C0C9
:102B6000982C212CA4FE10C0B60180E390E00E94B6
:102B70001016A2FE17C0A1FC03C088E790E002C0B7
:102B800088E590E0B6010CC08A2D867859F0A1FE48
:102B900002C08BE201C080E2A7FC8DE2B60190E0AA
:102BA0000E941016891438F4B60180E390E00E9468
:102BB00010169A94F7CF8A94F301E80DF11D8081E5
:102BC000B60190E00E9410168110F5CF222009F482
:102BD00042CEB60180E290E00E9410162A94F6CF11
:102BE000F6018681978102C08FEF9FEF2B96E2E17D
:102BF0000C941217FC010590615070400110D8F739
:102C0000809590958E0F9F1F0895FC016150704034
:102C100001900110D8F7809590958E0F9F1F089511
:102C20000F931F93CF93DF93FB01238121FD03C0FB
:102C30008FEF9FEF2CC022FF16C046815781248161
:102C400035814217530744F4A081B1819D012F5F64
:102C50003F4F318320838C93268137812F5F3F4FF5
:102C60003783268314C08B01EC01FB010084F185BE
:102C7000E02D0995892BE1F6D80116968D919C914E
:102C80001797019617969C938E931697CE01DF9116
:102C9000CF911F910F910895FA01AA27283051F181
:102CA000203181F1E8946F936E7F6E5F7F4F8F4F7D
:102CB0009F4FAF4FB1E03ED0B4E03CD0670F781FDC
:102CC000891F9A1FA11D680F791F8A1F911DA11DC1
:102CD0006A0F711D811D911DA11D20D009F46894FA
:102CE0003F912AE0269F11243019305D3193DEF6A2
:102CF000CF010895462F4770405D4193B3E00FD058
:102D0000C9F7F6CF462F4F70405D4A3318F0495D42
:102D100031FD4052419302D0A9F7EACFB4E0A69525
:102D20009795879577956795BA95C9F70097610547
:102D3000710508959B01AC010A2E0694579547959D
:102D400037952795BA95C9F7620F731F841F951F92
:102D5000A01D0895F999FECF92BD81BDF89A9927DB
:102D600080B50895A6E1B0E044E050E00C94D5169B
:102D7000262FF999FECF1FBA92BD81BD20BD0FB697
:102D8000F894FA9AF99A0FBE01960895242F0E949A
:102D9000B916252F0E94B9160C94CE160E94B816AB
:102DA000272F0C94B916DC01CB01FC01F999FECF59
:102DB00006C0F2BDE1BDF89A319600B40D924150C3
:102DC0005040B8F708950E942D17A59F900DB49F0D
:102DD000900DA49F800D911D11240895B7FF0C94B0
:102DE000E3160E94E316821B930B08952F923F92E5
:102DF0004F925F926F927F928F929F92AF92BF920B
:102E0000CF92DF92EF92FF920F931F93CF93DF93B6
:102E1000CDB7DEB7CA1BDB0B0FB6F894DEBF0FBE13
:102E2000CDBF09942A88398848885F846E847D8460
:102E30008C849B84AA84B984C884DF80EE80FD8062
:102E40000C811B81AA81B981CE0FD11D0FB6F894D8
:102E5000DEBF0FBECDBFED010895A29FB001B39FAD
:102E6000C001A39F700D811D1124911DB29F700D93
:0C2E7000811D1124911D0895F894FFCFDE
:102E7C000100000001000000FFFF5802B0040F0029
:102E8C00000003000000002B0C630C00003F065BED
:102E9C004F666D7D077F6F00065B4F666D7D077F0C
:102EAC006F01596F752776652073657420612068F2
:102EBC006967682073636F72652E20706C6561732F
:102ECC00652073657420796F757220696E697469F9
:102EDC00616C2062656C6F773A200046697273747E
:102EEC003A20256325632563202564005365636FB1
:102EFC006E643A202563256325632025640054689D
:102F0C006972643A20256325632563202564004695
:102F1C006F75723A20256325632563202564200A8A
:102F2C0000466976653A2025632563256320256470
:102F3C000054686572652041726520437572726534
:102F4C006E746C79204E6F204869676853636F729A
:102F5C00657300534E414B45204279203434333550
:102F6C00343336390053636F72653A20257500533C
:0E2F7C006E616B650053636F72653A20300022
:00000001FF
