S012000041737369676E6D656E742E73726563F9
S11300000C94F3000C9410010C9410010C94100146
S11300100C9410010C9450010C9410010C941001D8
S11300200C9410010C9410010C9410010C94100108
S11300300C9410010C9410010C9410010C941001F8
S11300400C94EE110C9410010C9410010C941001FA
S11300500C946C0E0C942A0E0C9410010C94100148
S11300600C9410010C9410010C9410010C941001C8
S11300700C9410010C9410010C94100123232348B8
S11300804947482053434F5245532323230050727A
S1130090657373206120627574746F6E20746F20B1
S11300A0737461727420616761696E0047414D45E4
S11300B0204F5645520021011E011A01160112015A
S11300C00E010A0106010201FE0090018C01880163
S11300D0840180017C017801740171016D01690161
S11300E0650160015C01580154014F014B01470156
S11300F042013E01390134012F012A012501649294
S1130100927D6C92926D809EA0C17C92924DE4A2ED
S1130110A29D182848FF4492926D468A926342FE3B
S1130120037C92A27D868A92A2C3E0100E10E1C6DF
S1130130281028C7FC021C02FDF8040204F9FC0282
S113014002FD8080FE80816492924DFE9098677CCF
S1130150828A7C03FE9090617C82827DFE2010FF67
S1130160FE403040FFFE020203FE1028C7040202D4
S1130170FD82FE83FE1010FF7C82925DFE909081D2
S1130180FE929283FE82827D7C828245FE92926DF3
S11301907E90907F43535345323031302F37323085
S11301A03120536E616B652050726F6A65637420F1
S11301B06279204A61636B20456164696500536E0E
S11301C0616B65001B5B3F323568001B5B3F32355A
S11301D06C001B5B25646D001B5B324A001B5B25B6
S11301E0643B2564480011241FBECFEFD8E0DEBF76
S11301F0CDBF12E0A0E0B1E0E0E2F1E302C005907F
S11302000D92AE34B107D9F723E0AEE4B2E001C0F9
S11302101D92A93CB207E1F70E943F0B0C948E1883
S11302200C940000E8E6F0E0808182608083D99A33
S1130230ECE6F0E080818F60808310924E02089596
S113024010924E02089580914E0218163CF580914A
S11302504F026FB7F89490914E029230B4F021E0BF
S113026030E091E0F901E15BFD4F4081F901E25B8F
S1130270FD4F40839F5F292F30E040914E02042EB2
S1130280000C550B241735076CF390914E029150D6
S113029090934E0266231CF4789408958FEF08958A
S11302A01F920F920FB60F9211242F933F934F93E7
S11302B05F936F937F938F939F93EF93FF9343B1D8
S11302C04F7080914E02883064F580E090E0642F96
S11302D070E09B01082E02C0359527950A94E2F739
S11302E020FF1BC02091570230E0082E02C0359534
S11302F027950A94E2F720FD10C0E0914E0221E018
S11303002E0F20934E020E2E000CFF0BE15BFD4FCF
S1130310808320914E02283024F401968430910584
S1130320C1F640935702FF91EF919F918F917F9176
S11303306F915F914F913F912F910F900FBE0F904E
S11303401F9018950895CF92DF92EF92FF920F932A
S11303501F930E94D81140915802509159026A018A
S1130360550FEE08FF080091980210919902209110
S11303709A0230919B02C00ED11EE21EF31E21E0B0
S113038030E06C157D058E059F0510F020E030E00F
S1130390C9011F910F91FF90EF90DF90CF900895C6
S11303A0E0919502EF5FE0939502A0919602B091DF
S11303B09702F0E0EE0FFF1F8D919C91E80FF91F5B
S11303C0808191810E9440120E94D811609398020A
S11303D07093990280939A0290939B02A091960243
S11303E0B0919702E0919502F0E0EE0FFF1F129694
S11303F08D919C911397E80FF91F808191819093BF
S113040059028093580208955598109297021092B9
S1130410960208958DE091E090939702809396025E
S11304208FEF809395020E94D0010E944512089597
S113043088E091E090939702809396028FEF8093E7
S113044095020E94D0010E944512089582E191E034
S113045090939702809396028FEF809395020E9467
S1130460D0010E94451208952091950230E02F5F3B
S11304703F4FE0919602F0919702448150E081E071
S113048090E02417350714F480E090E008950E946A
S1130490A301892B39F40E943402892B19F00E949C
S11304A0040208950E94A301892B11F40E94D00133
S11304B0089580E891E00E940A1821E061157241D4
S11304C08105910509F020E0822F0895DF92EF92D3
S11304D0FF920F931F93CF93DF93CDB7DEB762974D
S11304E00FB6F894DEBF0FBECDBFF89440E052E1E2
S11304F060E070E080E891E00E94281880E00E94AB
S11305008707898381E00E9487078A8382E00E94AB
S113051087078B8383E00E9487078C830E945B0B91
S11305208E830E948E0C69877A878B879C870E94B2
S11305306D0898878F830E94F70E8D870E94D811CB
S1130540092E000CAA0BBB0B8E879F87A88BB98B37
S11305500E94150F8A8B0E945610882321F00E9456
S1130560A0108D8302C088E08D8342E150E060EAF0
S113057071E0CE0101960E9410180E94120F182FEC
S11305800E940F0F811708F043C00E94120FD82E4B
S1130590082F10E0013211051CF50F2EF0E3EF2EA9
S11305A0F2E0FF2EF02D802F0E94FA0E682FC70173
S11305B00E941A1888E0E80EF11C0F5F1F4F0132E9
S11305C0110589F70D2D10E0119501951109000F02
S11305D0111F000F111F000F111F085C1C4F02C0D8
S11305E000E312E0E12CF12C0CC08E2D0E94FA0ED7
S11305F0682FC8010E941A18085F1F4F8FEFE81A6E
S1130600F80A0E940F0F90E08E159F0574F719C029
S11306100E94120FE82EF12C00E312E00CC08E2D84
S11306200E94FA0E682FC8010E941A18085F1F4F13
S11306308FEFE81AF80A0E940F0F90E08E159F05BD
S113064074F768E0C8010E941A18789462960FB68D
S1130650F894DEBF0FBECDBFDF91CF911F910F91F4
S1130660FF90EF90DF900895CF93C82F0E94610907
S1130670882399F0E091A1020E2E000CFF0BEE5599
S1130680FD4FC08363E370E08C2F90E00E94A707C6
S11306908091A1028F5F8093A102CF910895CF939F
S11306A0C82F0E946109882321F08C2F0E945E0BC1
S11306B002C00E94FB0BCF910895CF93C82F0E94D4
S11306C06109882321F08C2F0E94501002C00E94DF
S11306D07F10CF9108950F931F93CF93DF9380E002
S11306E00E940C0F0E94F70E81500E94090F10E027
S11306F0C0E3D2E0CE010E940218082F612F0E94AD
S1130700030F60EF70E0802F90E00E94A707289607
S11307101F5FCE010E9402180E9461098111EACF75
S11307200E94E00E6FE070E090E00E94A707DF9166
S1130730CF911F910F910895CF93DF93CDB7DEB77B
S113074062970FB6F894DEBF0FBECDBF0E94590268
S1130750882309F448C00E9433110E9458090E945A
S11307607C1142E150E060EA71E0CE0101960E9402
S1130770F21769857A858B859C850E94970C6E8516
S11307807F85888999890E94E3110E9497118F813E
S113079098850E9472088E8190E00E944F030E9407
S11307A02912898190E00E9434038A8190E00E949A
S11307B034038B8190E00E9434038C8190E00E948A
S11307C034038D8190E00E945D038D850E94000FAB
S11307D08A890E94E90E0E946B030E9420010E94F4
S11307E0250E10925E0262960FB6F894DEBF0FBE1D
S11307F0CDBFDF91CF9108950F931F93CF93DF93D4
S1130800CDB7DEB727970FB6F894DEBF0FBECDBFC6
S11308108C0147E050E0BC01CE0101960E94F21722
S1130820B801605C7F4F47E050E0CE0101960E9422
S1130830101827960FB6F894DEBF0FBECDBFDF9118
S1130840CF911F910F91089580E091E00E94FC03E5
S113085008950E94240480EC90E00E94FC03089513
S11308600E94290480E890E00E94FC0308950E94FD
S1130870300480E490E00E94FC030895CF93DF935A
S1130880CDB7DEB727970FB6F894DEBF0FBECDBF46
S113089044E352E160E070E080E090E00E942818B8
S11308A080E289838A838B831C821D821E821F823D
S11308B047E050E060E470E0CE0101960E94101819
S11308C047E050E060E870E0CE0101960E94101805
S11308D047E050E060EC70E0CE0101960E941018F1
S11308E047E050E060E071E0CE0101960E941018EC
S11308F047E050E060E471E0CE0101960E941018D8
S113090027960FB6F894DEBF0FBECDBFDF91CF910F
S1130910089580E090E00E940A1821E030E06433FA
S113092072418105910511F020E030E0C90108957C
S1130930CF92DF92EF92FF92CF93DF93CDB7DEB7E2
S113094027970FB6F894DEBF0FBECDBF0E948E0C62
S11309506B017C0147E050E060E471E0CE01019658
S11309600E94F2178C819D81AE81BF81C816D90681
S1130970EA06FB0640F40E94890421E0892B09F071
S113098020E0822F01C081E027960FB6F894DEBFE5
S11309900FBECDBFDF91CF91FF90EF90DF90CF904E
S11309A00895CF92DF92EF92FF92CF93DF93CDB76A
S11309B0DEB727970FB6F894DEBF0FBECDBF0E94F7
S11309C08904892B09F45BC00E948E0C6B017C01A5
S11309D047E050E060E470E0CE0101960E94F21717
S11309E08C819D81AE81BF818C159D05AE05BF05AF
S11309F008F448C047E050E060E870E0CE0101969A
S1130A000E94F2178C819D81AE81BF818C159D055A
S1130A10AE05BF05D0F147E050E060EC70E0CE01D8
S1130A2001960E94F2178C819D81AE81BF818C1545
S1130A309D05AE05BF0560F147E050E060E071E060
S1130A40CE0101960E94F2178C819D81AE81BF81F7
S1130A508C159D05AE05BF05F0F047E050E060E45D
S1130A6071E0CE0101960E94F2178C819D81AE81C6
S1130A70BF818C159D05AE05BF0580F011C080E4D3
S1130A8090E00EC080E490E00BC080E890E008C0E5
S1130A9080EC90E005C080E091E002C080E491E049
S1130AA027960FB6F894DEBF0FBECDBFDF91CF916E
S1130AB0FF90EF90DF90CF9008950F931F93CF9303
S1130AC0DF93CDB7DEB727970FB6F894DEBF0FBE1E
S1130AD0CDBF44E352E160E070E080E090E00E942A
S1130AE028180E94D1048C018038910591F020F4DB
S1130AF08034910589F012C0803C910539F00115CC
S1130B0081E0180759F40E94240408C00E942904B3
S1130B1005C00E94300402C00E943704EAE5F2E0F6
S1130B208081898381818A8382818B830E948E0C58
S1130B306C837D838E839F8347E050E0B801CE01B0
S1130B4001960E9410180E94331127960FB6F8944C
S1130B50DEBF0FBECDBFDF91CF911F910F910895DE
S1130B60EF92FF920F931F93CF93DF9368E08AE095
S1130B700E941A118BE591E09F938F930E94EE14CB
S1130B800F900F9000E010E00F2EF3ECEF2EF3E047
S1130B90FF2EF02D0E9452110E941E0E8823D1F3C5
S1130BA0F701808191810E94B014EC01982F915437
S1130BB09A3398F40330110584F469E08AE0800FD5
S1130BC00E941A11F801E65AFD4FC083CE019927FD
S1130BD00E942A150F5F1F4FDDCF8A3021F40230A7
S1130BE01105C4F211C08F37A9F680E290E00E948B
S1130BF02A151016110614F40150110969E08AE04F
S1130C00800F0E941A11C6CFF999FECF0E945D058C
S1130C10EAE5F2E080E2808381838283DF91CF91F1
S1130C201F910F91FF90EF900895CF93DF93CDB76D
S1130C30DEB727970FB6F894DEBF0FBECDBF6BE0CB
S1130C408AE00E941A118CE790E09F938F930E9490
S1130C5004156DE08AE00E941A110E9489040F9025
S1130C600F90892B09F4B6C047E050E060E470E0CF
S1130C70CE0101960E94F2178F818F938E818F93FC
S1130C808D818F938C818F938B811F928F938A8117
S1130C901F928F9389811F928F9384E991E09F9390
S1130CA08F930E94EE146EE08AE00E941A1147E0CE
S1130CB050E060E870E0CE0101960E94F2178F8147
S1130CC08F938E818F938D818F938C818F938B8162
S1130CD01F928F938A811F928F9389811F928F9382
S1130CE085EA91E09F938F930E94EE146FE08AE06F
S1130CF00E941A1147E050E060EC70E0CE010196CA
S1130D000E94F2178F818F938E818F938D818F93A1
S1130D108C818F938B811F928F938A811F928F93E3
S1130D2089811F928F9387EB91E09F938F930E9409
S1130D30EE140FB6F894DEBF0FBECDBF60E18AE0BB
S1130D400E941A1147E050E060E071E0CE01019684
S1130D500E94F2178F818F938E818F938D818F9351
S1130D608C818F938B811F928F938A811F928F9393
S1130D7089811F928F9388EC91E09F938F930E94B7
S1130D80EE1461E18AE00E941A1147E050E060E449
S1130D9071E0CE0101960E94F2178F818F938E81AC
S1130DA08F938D818F938C818F938B811F928F93DF
S1130DB08A811F928F9389811F928F938AED91E08C
S1130DC09F938F930E94EE140FB6F894DEBF0FBE6C
S1130DD0CDBF0AC00E943E048BEE91E09F938F9397
S1130DE00E94EE140F900F9027960FB6F894DEBF72
S1130DF00FBECDBFDF91CF9108951092A102089547
S1130E003091A102131684F49091A202891771F013
S1130E10E3EAF2E090E003C02191281749F09F5FD4
S1130E203913FACF8FEF08958FEF089580E0089576
S1130E30892F08950E94000791E08F3F09F490E004
S1130E40892F0895FF920F931F93CF93DF9380917F
S1130E50A10288300CF044C000E010E0D0E0C0E013
S1130E6002C00F5F1F4F2C2FCC0F330B2D5F3F4F52
S1130E70200F311F2F703078332334F4215031097F
S1130E80206F3F6F2F5F3F4F822FC22F6D2FDD0FDB
S1130E90770B6B5F7F4F67707078772334F4615002
S1130EA07109686F7F6F6F5F7F4FD62F0E9467094C
S1130EB0F82E03361105B1F00E944D0F8111D1CFE8
S1130EC08F2D0E941A078111CCCF8F2D0E94A31061
S1130ED08111C7CF8F2D0E94F40B8111C2CF04C0A2
S1130EE088E00FC088E00DC08091A102E82F082E91
S1130EF0000CFF0BEE55FD4FF0828F5F8093A10233
S1130F008F2DDF91CF911F910F91FF900895E82FBE
S1130F10880FFF0BEE55FD4F808108958823B4F0B0
S1130F202091A102821794F48F5F821764F4E82F52
S1130F30082E000CFF0BEE55FD4F908131979083E6
S1130F408F5F8217A4F321502093A10208951F9369
S1130F50CF93DF93C82F162F0E945F09D82F8C2FB1
S1130F600E945C09412F6D2F0E941509DF91CF91DA
S1130F701F910895CF93DF930E9458090E947C111A
S1130F8088E592E090934401809343010E94FB0B17
S1130F900E940A020E94BF0E0E94E00E6FE00E94AF
S1130FA0A7070E94EE0E60EF0E94A7070E94FD06AD
S1130FB0C3E00E942207D82F0E946109882321F0F0
S1130FC063E38D2F0E94A707C15099F7DF91CF915A
S1130FD0089580914301909144018B3F9105A4F0C1
S1130FE0609143017091440180E090E00E94761288
S1130FF026E636E646E65FE30E9404130E944712A3
S1131000709344016093430108950F931F93CF930A
S1131010DF930E94E00ED82F0E94700FC82F882300
S11310200CF455C081E090E00E94790C0E94E00E1F
S1131030182F8EEF8C0F8230C0F4812F0E9400078E
S11310400E948E070E94180282E090E00E94790CB0
S11310500E94E9070E942207082F0E946109882341
S113106021F063E3802F0E94A7078CEF8C0F82305E
S113107050F40E94971089E090E00E94790C0E943D
S1131080E9070E9418028AEF8C0F823050F40E9404
S1131090FB0B84E090E00E94790C0E94E9070E9417
S11310A01802CD7FC13011F0C53029F40E94180F09
S11310B060E00E94A70760EF8D2F0E94A7076FE0F2
S11310C0812F0E94A7070E94971181E001C080E050
S11310D0DF91CF911F910F910895809143019091D9
S11310E0440108959093440180934301089540E09E
S11310F060E07BE480E090E00E94D70D789480E487
S113110080937C0086E880937A008DE092E00E94D0
S11311103115089580915D02811106C0ECE7F0E07D
S113112080818E7F808305C0ECE7F0E08081816060
S11311308083EAE7F0E0808180648083808186FD9B
S1131140FDCF20917800309179003093AB02209349
S1131150AA0280915D0291E0982790935D02C901F3
S113116008950F931F93CF93DF9380915D0288239B
S113117099F00E948A082091450130914601EC01C2
S1131180C21BD30B0E948A0820914501309146016D
S11311908C01021B130B12C00E948A082091450186
S11311A0309146018C01021B130B0E948A08209186
S11311B0450130914601EC01C21BD30B9E01DD2396
S11311C024F4222733272C1B3D0BC801112324F4BC
S11311D088279927801B910B8217930764F4409109
S11311E04701509148014217530728F41C161D0665
S11311F074F082E011C02091470130914801281712
S1131200390738F41016110634F083E005C080E085
S113121003C08FEF01C081E0DF91CF911F910F9147
S1131220089580E80E94221008951F93CF93DF93BE
S11312308031B0F46830A0F4142FC62FD82F81E089
S11312400E944A106C2F677080E1689F90011124FE
S11312508D2F8F70822B0E944A10812F0E944A107A
S1131260DF91CF911F9108950F931F93CF93DF9335
S1131270803190F48B01C82F83E00E944A108C2F98
S11312808F700E944A10E801085F1F4F89910E94E5
S11312904A10C017D107D1F7DF91CF911F910F9159
S11312A0089584E00E944A1082E00E944A10089542
S11312B08FE00E944A10089582958F7008958F7070
S11312C0089583FB882780F991E08927089520E118
S11312D0829FC00111246770862B08950E94110912
S11312E00E9477080E94120140E060E07BE480E005
S11312F090E00E94D70D0E94B01178940895FF9257
S11313000F931F93CF93DF9380E00E943C110E94C0
S113131033110E9449110E945B110E945809CFE0C9
S11313200F2EFFE0FF2EF02D0FEF10EFD5E16C2F05
S113133086E192E00E94A00C0DC02FE78CE293E0BE
S1131340215080409040E1F700C000000E9423013A
S11313508F3FA9F50E94AF0C8111EFCF0E94591461
S1131360DC01CB0183709927AA27B078BB2354F4FE
S11313700197A109B1098C6F9F6FAF6FBF6F019681
S1131380A11DB11D81309105A105B10591F02CF489
S1131390892B8A2B8B2B59F0CACF82309105A1055A
S11313A0B10549F00397A105B10539F0C0CFCD2FA0
S11313B0BECFCF2DBCCFC02FBACFC12FB8CFDF91B6
S11313C0CF911F910F91FF9008950E9433110E94B5
S11313D0BA070E94700C0E9420010E94250E0895F5
S11313E04F925F927F928F929F92AF92BF92CF92D1
S11313F0DF92EF92FF920F931F93CF93DF930E949C
S1131400D8114B015C0100E01FEF0F2EFFED7F2E82
S1131410F02D0F2EF3EC4F2EF3E05F2EF02D0E94F3
S1131420591081110E94B0100E946F1081110E9406
S11314307F100E945E0C81110E947E0B0E94470265
S11314400E94CF11892B19F00E94200106C00E942E
S11314502301D82F8F3F09F09AC00E941E0E8823C3
S113146009F4A4C0F201808191810E94B014C82FB4
S1131470011103C08B3151F496C0013019F48B353E
S113148029F493C0023009F488C07BC00E94CF11B4
S1131490892B09F03FC008C0D11109C001C000E088
S11314A081E00E942F0F50C000E0D12F01C0C12F56
S11314B0D23019F0812F813421F480E00E942F0F63
S11314C043C0D33011F0843421F483E00E942F0F01
S11314D03BC0D13011F0823429F482E00E942F0FF6
S11314E033C000E08C2F8F7D803519F40E94C81121
S11314F02BC0C33719F40E94660226C00E94590209
S1131500882311F18C2F8F7D8F34F1F481E0809347
S11315105E0262C08C2F8F7D803521F40E94C81139
S113152000E012C000E0833519F40E9466020CC08A
S11315300E945902882341F08C2F8F7D8F3421F42F
S113154081E080935E0248C00E94D8116B017C0147
S11315500E946D08092E000CAA0BBB0B880D991D67
S1131560AA1DBB1DC816D906EA06FB0608F457CF08
S11315700E940508882381F10E94D8114B015C0167
S11315804ECF0E94CF11892B09F4ABCFC3CF0E9459
S1131590CF11892B09F480CF1CC00E94CF11892B55
S11315A051F000E013C001E001C002E00E94CF113D
S11315B0892B61F408C0C33409F471CF8C2F00E087
S11315C0C12FD12F78CF0E945902BECFC12F872DB2
S11315D0AACF0E945902B8CFDF91CF911F910F91EA
S11315E0FF90EF90DF90CF90BF90AF909F908F903F
S11315F07F905F904F9008950E9426020E943311BD
S113160065E08AE00E941A118CEA90E09F938F9320
S11316100E94041567E08AE00E941A110E948E0C51
S11316209F938F937F936F9388E292E09F938F931E
S11316300E94EE140E9415060E9498042DB73EB72E
S1131640285F3F4F0FB6F8943EBF0FBE2DBF8111E8
S11316500E94B00569E08AE00E941A118EE890E0C9
S11316609F938F930E9404150E9415060F900F906C
S11316700E9423018F3FE1F30E94331108950E94D9
S11316806E098FEF87B9529A53980E9429120E94CB
S11316907F0980915E02882319F00E949C0302C096
S11316A00E94E5090E94F00980915E028111F1CF48
S11316B00E94FC0AEECF8091AC020895CF93DF9391
S11316C0C82F8091AC020E945F09D82F8091AC0290
S11316D00E945C0940E06D2F0E941509C093AC0282
S11316E08C2F0E945F09D82F8C2F0E945C0943E342
S11316F06D2F0E941509DF91CF9108951F93CF9309
S1131700DF9360E080E00E946709182F0E94FE13B7
S113171083709078992324F401978C6F9F6F0196BE
S1131720C82FD0E0C130A9F028F0C23009F1C3308D
S113173071F13BC08091AC020E945F09182F809127
S1131740AC020E945C0961E0610F0E946709182FD6
S11317502CC08091AC020E945F09182F8091AC02CA
S11317600E945C096FEF610F0E946709182F1DC06A
S11317708091AC020E945F09182F8091AC020E94F4
S11317805C09612F8F5F0E946709182F0EC080913A
S1131790AC020E945F09182F8091AC020E945C0980
S11317A0612F81500E946709182FDF5F8C2F90E012
S11317B0019683709078992324F401978C6F9F6F1E
S11317C00196C82F812F0E944D0F882321F0D43019
S11317D009F0A8CF02C0D53018F4812F0E945E0B07
S11317E0DF91CF911F91089591E02091AC022813CD
S11317F090E0892F08951F93CF93DF930E94FE13E7
S1131800EC010E94FE13BC0167707078772334F4F6
S113181061507109686F7F6F6F5F7F4FCE018F706A
S11318209078992324F40197806F9F6F01960E940A
S11318306709C82F13E61EC00E94FE13EC010E9424
S1131840FE13BC0167707078772334F4615071091A
S1131850686F7F6F6F5F7F4FCE018F709078992391
S113186024F40197806F9F6F01960E946709C82F27
S1131870115091F08C2F0E944D0F8111DDCF8C2FD0
S11318800E941A078111D8CF0E94A0108C17A1F2D0
S11318908091AC028C1781F2C093AC028C2F0E9411
S11318A05F09C82F8091AC020E945C0943E36C2F4E
S11318B00E941509DF91CF911F9108950E94D811BC
S11318C02091490130914A0140E050E00E94711397
S11318D021E0672B682B692B09F020E0822F089503
S11318E010925F02109260021092610210926202E2
S11318F0089540915F02509160026091610270917D
S11319006202480F591F611D711D40935F0250937D
S113191060026093610270936202089560915F02B5
S113192070916002809161029091620208956093C7
S11319305F02709360028093610290936202089543
S113194060934B0190936702809366021092690240
S113195010926802109265021092640208950F9327
S11319601F93CF93DF93CDB7DEB728970FB6F894C4
S1131970DEBF0FBECDBFE0916802F09169023097DF
S113198081F0149110FF06C010926902109268024F
S113199000E06BC03196F0936902E093680200E0C6
S11319A064C0E0916402F0916502309709F449C083
S11319B0CF0101969093650280936402E081E11166
S11319C00AC0109265021092640280E1809363025F
S11319D000E010E04AC08FE98E0F8A3170F4F0E025
S11319E0EE0FFF1FE85FFF4F85919491909369027A
S11319F08093680200E010E038C08FEB8E0F8A31CC
S1131A0070F4F0E0EE0FFF1FE85BFF4F85919491B7
S1131A10909369028093680200E010E026C080ED94
S1131A208E0F8A3000F5F0E0EE0FFF1FEA5AFF4FE9
S1131A3085919491909369028093680200E010E08C
S1131A4014C0809166029091670201E0009709F04A
S1131A5000E09093650280936402109267021092F2
S1131A60660210E002C000E010E00E9451092091DB
S1131A704B01FE013896CE010196112314F4208304
S1131A8001C01082110F3197E817F907B1F71982D5
S1131A90BE016F5F7F4F8FE00E9434098091630223
S1131AA0882389F0815080936302002311F08823F6
S1131AB011F090E003C091E001C091E081E099232E
S1131AC029F080E003C00023A1F3F7CF28960FB6D6
S1131AD0F894DEBF0FBECDBFDF91CF911F910F9160
S1131AE00895CF93C82F8A3019F48DE00E94710DA8
S1131AF09FB7907802C0992329F18091AE028F3F5D
S1131B00D1F3F894E091AD0281E08E0F8093AD02A1
S1131B10F0E0E155FD4FC0838091AE028F5F80936A
S1131B20AE028091AD028F3F11F41092AD02E1EC50
S1131B30F0E0808180628083992339F0789480E09A
S1131B4090E005C081E090E002C080E090E0CF9199
S1131B5008958091C0038823E1F32FB72078F89487
S1131B608091AE033091C00390E0831B91095AF435
S1131B70E091AE038091C003F0E0E81BF109E15469
S1131B80FC4F80810AC0E091AE038091C003F0E075
S1131B90E81BF109E155FC4F80819091C0039150FD
S1131BA09093C003222309F0789490E00895109252
S1131BB0AD021092AE021092AE031092C0031092C6
S1131BC0BF0340936A02DC01CB01880F991FAA1F4F
S1131BD0BB1F880F991FAA1FBB1F9C01AD01220FB9
S1131BE0331F441F551F60E072E18AE790E00E94B2
S1131BF09313BA01A9014F5F5F4F6F4F7F4FDB0112
S1131C00CA011AF40196A11DB11DB595A795979522
S1131C10879501979093C5008093C400E1ECF0E0B0
S1131C2088E18083808180688083E3ECF3E08CE446
S1131C3091E0938382839183808308959091C0037C
S1131C4081E0911101C080E008951092AE031092DA
S1131C50C00308951F920F920FB60F9211242F9371
S1131C608F939F93EF93FF938091AE02882329F182
S1131C708091AD022091AE0290E0821B91095AF44A
S1131C80E091AD028091AE02F0E0E81BF109E2556B
S1131C90FC4F90810AC0E091AD028091AE02F0E069
S1131CA0E81BF109E155FD4F90818091AE0281500E
S1131CB08093AE029093C60005C0E1ECF0E0808111
S1131CC08F7D8083FF91EF919F918F912F910F9042
S1131CD00FBE0F901F9018951F920F920FB60F9280
S1131CE011242F933F934F935F936F937F938F931D
S1131CF09F93AF93BF93CF93EF93FF93C091C6008D
S1131D0080916A02882349F08091AE028F3F29F0C6
S1131D1060E070E08C2F0E94710D8091C0038031CF
S1131D2020F081E08093BF0318C0CD3009F4CAE0ED
S1131D30E091AE0381E08E0F8093AE03F0E0E155B5
S1131D40FC4FC0838091C0038F5F8093C003809158
S1131D50AE03803111F41092AE03FF91EF91CF9155
S1131D60BF91AF919F918F917F916F915F914F91AF
S1131D703F912F910F900FBE0F901F9018950F93C6
S1131D801F93CF9382E080936F0210926D02C1E0A3
S1131D90C0936E0261E081E00E94670900E712E0EF
S1131DA0F801808361E082E00E946709F801818381
S1131DB0C0936C02C0936B02CF911F910F91089551
S1131DC0E0916E020E2E000CFF0BE059FD4F808156
S1131DD0089580936C0280936B020895E0916D02E4
S1131DE00E2E000CFF0BE059FD4F80810895809169
S1131DF06F020895E82FF0E0E059FD4F80810895C7
S1131E0080936F020895E62FF0E0E059FD4F808340
S1131E10089580936E02089580936D0208958091D1
S1131E206E02089580916D02089580916C02089568
S1131E3090916D02E92F092E000CFF0BE059FD4F24
S1131E4080819F5F913219F090936D0202C01092CD
S1131E506D0290916F02915090936F02089590914A
S1131E606C029130A9F028F0923041F0933059F08F
S1131E700895823089F080936B020895882361F07D
S1131E8080936B020895813039F080936B0208953A
S1131E90833011F080936B02089590916D0230911C
S1131EA06E0240E00DC0E92F092E000CFF0BE05933
S1131EB0FD4F2081281789F09F5F91320CF0942FF9
S1131EC09313F1CFE32F330FFF0BE059FD4F91E054
S1131ED02081281719F090E001C091E0892F08951E
S1131EE00F931F93CF93DF9380916F02813208F099
S1131EF099C0E0916E020E2E000CFF0BE059FD4FCD
S1131F0080810E945C09182FC82FE0916E020E2E6A
S1131F10000CFF0BE059FD4F80810E945F09082FE0
S1131F20D82F0E94B1088F3F21F00E94B1080E946F
S1131F302F0F80916B02813059F028F0823069F0C4
S1131F40833081F01BC0D73091F0D1E0D00F16C0A0
S1131F50CF3079F0C1E0C10F11C0DD2361F0DFEFB4
S1131F60D00F0CC0CC2349F0CFEFC10F07C0D0E095
S1131F7005C0C0E003C0D7E001C0CFE06D2F8C2FB7
S1131F800E946709C82F80916B0290916C0298138C
S1131F9080936C028C2F0E944D0F882351F0E091A6
S1131FA06D020E2E000CFF0BE059FD4F8081C8130B
S1131FB03BC080916E028F5F813219F080936E0274
S1131FC002C010926E02E0916E020E2E000CFF0B06
S1131FD0E059FD4FC08380916F028F5F80936F0241
S1131FE08C2F90E00E94F40B892B31F080916F02CA
S1131FF08132E0F087E021C08C2F0E94A310882357
S113200031F080916F02813298F085E016C08C2FF8
S11320100E941A07882371F080916F02813260F068
S113202083E00BC08DEF09C08EEF07C086E005C0CA
S113203084E003C081E001C082E0DF91CF911F9171
S11320400F91089594B1906B94B92C9A90E59CBD2E
S1132050883021F0803211F0823019F491E09DBD76
S113206001C01DBC803269F028F4883071F08031E1
S113207061F00EC0803429F0803851F48CB5816051
S11320808CBD8CB582608CBD03C08CB581608CBD69
S11320902C9808958EBD0DB407FEFDCF8EB508951E
S11320A08093C10381E08093C20308958091C203A9
S11320B008950E94D81168597A438109910920E250
S11320C03EE440E050E00E947113672B682B692BBB
S11320D021F40E94D81181E0089580E008950E94BF
S11320E0D81120E23EE440E050E00E94711321E068
S11320F0672B682B692B09F020E0822F0895CF937A
S11321008091C1030E945F09C82F8091C1030E947E
S11321105C0940E06C2F0E94150960E080E00E9499
S113212067098093C1031092C203CF91089560E0C0
S113213080E00E9467098093C1031092C20308954E
S11321408091C10308959091C203992339F091E0DD
S11321502091C103281390E0892F089580E0089509
S11321601F93CF93DF930E947F100E94FE13EC0114
S11321700E94FE13BC0167707078772334F46150B9
S11321807109686F7F6F6F5F7F4FCE018F7090789A
S1132190992324F40197806F9F6F01960E94670929
S11321A0C82F13E61EC00E94FE13EC010E94FE130A
S11321B0BC0167707078772334F461507109686FDB
S11321C07F6F6F5F7F4FCE018F709078992324F4D7
S11321D00197806F9F6F01960E946709C82F115065
S11321E0A1F08C2F0E944D0F8111DDCF8C2F0E9406
S11321F01A078111D8CF8C2F0E94A3108111D3CF3D
S11322008C2F0E94F40B8111CECFC093C1038C2F6D
S11322100E945F09C82F8091C1030E945C094CE3AE
S11322206C2F0E94150981E08093C203DF91CF9146
S11322301F910895282F082E000C330B3F938F9382
S1132240862F062E000C990B9F936F938DED91E0D2
S11322509F938F930E9404150F900F900F900F90EF
S11322600F900F90089588ED91E09F938F930E94B3
S113227004150F900F9008951F928F9382ED91E0B3
S11322809F938F930E9404150F900F900F900F90BF
S113229008958BEC91E09F938F930E9404150F9007
S11322A00F90089584EC91E09F938F930E940415FE
S11322B00F900F90089563E083E00E941A118EEB53
S11322C091E09F938F930E94041565E083E00E9440
S11322D01A1180E20E943C1184E991E09F938F934C
S11322E00E94041585E20E943C110E9415060F907D
S11322F00F900F900F9008950E94491161E08AE0B9
S11323000E941A1183E392E09F938F930E94EE142C
S113231063E081E00E941A1189E392E09F938F9316
S11323200E94EE140F900F900F900F9008950E944A
S1132330491163E081E00E941A110E948E0C9F9360
S11323408F937F936F9382E492E09F938F930E9485
S1132350EE140F900F900F900F900F900F90089520
S1132360109291021092920210929302109294028F
S113237016BC8CE787BD82E084BD83E085BDEEE6B4
S1132380F0E080818260808385B3827085BB08958C
S113239090915A0181E0891B80935A0108952091FC
S11323A05A0181E090E0222311F080E090E008954A
S11323B0F8946091910270919202809193029091AD
S11323C0940278940895F894609391027093920221
S11323D08093930290939402789408951F920F929D
S11323E00FB60F9211242F933F934F935F936F93E4
S11323F07F938F939F93AF93BF93EF93FF938091BA
S11324005A01882399F08091910290919202A091AF
S11324109302B09194020196A11DB11D8093910283
S113242090939202A0939302B09394020E94470265
S1132430FF91EF91BF91AF919F918F917F916F9198
S11324405F914F913F912F910F900FBE0F901F906E
S113245018951092850010928400E1E8F0E08081E4
S11324608A60808380E48093800088EE93E0909378
S1132470890080938800559853980E94A20108957A
S113248090938900809388000895559A08950E9436
S1132490E31288F09F5798F0B92F9927B751B0F0FD
S11324A0E1F0660F771F881F991F1AF0BA95C9F7D4
S11324B014C0B13091F00E94FD12B1E008950C9463
S11324C0FD12672F782F8827B85F39F0B93FCCF316
S11324D0869577956795B395D9F73EF49095809551
S11324E0709561957F4F8F4F9F4F0895E89409C071
S11324F097FB3EF490958095709561957F4F8F4F33
S11325009F4F9923A9F0F92F96E9BB279395F69548
S1132510879577956795B795F111F8CFFAF4BB0FC6
S113252011F460FF1BC06F5F7F4F8F4F9F4F16C02A
S1132530882311F096E911C0772321F09EE8872FB4
S1132540762F05C0662371F096E8862F70E060E070
S11325502AF09A95660F771F881FDAF7880F9695E9
S1132560879597F9089597F99F6780E870E060E090
S113257008959FEF80EC089500240A941616170618
S113258018060906089500240A9412161306140660
S113259005060895092E0394000C11F4882352F0C3
S11325A0BB0F40F4BF2B11F460FF04C06F5F7F4F7B
S11325B08F4F9F4F089557FD9058440F551F59F062
S11325C05F3F71F04795880F97FB991F61F09F3F1C
S11325D079F087950895121613061406551FF2CF45
S11325E04695F1DF08C0161617061806991FF1CF95
S11325F086957105610508940895E894BB276627BC
S11326007727CB0197F908950E9417130C94CA12E7
S11326100E94BC1238F00E94C31220F0952311F0DE
S11326200C94B3120C94B91211240C94FE120E944F
S1132630DB1270F3959FC1F3950F50E0551F629F15
S1132640F001729FBB27F00DB11D639FAA27F00D07
S1132650B11DAA1F649F6627B00DA11D661F829F2E
S11326602227B00DA11D621F739FB00DA11D621F13
S1132670839FA00D611D221F749F3327A00D611D30
S1132680231F849F600D211D822F762F6A2F112412
S11326909F5750409AF0F1F088234AF0EE0FFF1F45
S11326A0BB1F661F771F881F91505040A9F79E3F9C
S11326B0510580F00C94B3120C94FE125F3FE4F3C6
S11326C0983ED4F3869577956795B795F795E795F2
S11326D09F5FC1F7FE2B880F911D9695879597F9FB
S11326E00895A1E21A2EAA1BBB1BFD010DC0AA1F4F
S11326F0BB1FEE1FFF1FA217B307E407F50720F067
S1132700A21BB30BE40BF50B661F771F881F991FE1
S11327101A9469F760957095809590959B01AC012A
S1132720BD01CF010895052E97FB1EF400940E946D
S1132730AA1357FD07D00E94711307FC03D04EF46F
S11327400C94AA1350954095309521953F4F4F4FC7
S11327505F4F089590958095709561957F4F8F4F49
S11327609F4F08958F929F92AF92BF92CF92DF9224
S1132770EF92FF92CF93DF93EC01688179818A8194
S11327809B81611571058105910521F464E279ED60
S11327908BE597E02DE133EF41E050E00E94931385
S11327A049015A019B01AC01A7EAB1E40E94351822
S11327B06B017C01ACEEB4EFA50194010E944318B7
S11327C0DC01CB018C0D9D1DAE1DBF1DB7FF03C0E9
S11327D00197A109B04888839983AA83BB839F7713
S11327E0DF91CF91FF90EF90DF90CF90BF90AF90AB
S11327F09F908F9008950E94B213089580E091E015
S11328000E94B2130895A0E0B0E080930001909379
S11328100101A0930201B093030108958F929F9246
S1132820AF92BF92CF92DF92EF92FF92CF93DF935A
S1132830EC01688179818A819B816115710581052B
S1132840910521F464E279ED8BE597E02DE133EF16
S113285041E050E00E94931349015A019B01AC01ED
S1132860A7EAB1E40E9435186B017C01ACEEB4EF29
S1132870A50194010E944318DC01CB018C0D9D1D20
S1132880AE1DBF1DB7FF03C00197A109B0488883DF
S11328909983AA83BB83BC01CD019F77DF91CF913C
S11328A0FF90EF90DF90CF90BF90AF909F908F906C
S11328B008958F929F92AF92BF92CF92DF92EF9240
S11328C0FF9260910401709105018091060190913D
S11328D00701611571058105910521F464E279ED23
S11328E08BE597E02DE133EF41E050E00E94931334
S11328F049015A019B01AC01A7EAB1E40E943518D1
S11329006B017C01ACEEB4EFA50194010E94431865
S1132910DC01CB018C0D9D1DAE1DBF1DB7FF03C097
S11329200197A109B0488093040190930501A093F5
S11329300601B0930701BC01CD019F77FF90EF9092
S1132940DF90CF90BF90AF909F908F900895609349
S11329500401709305018093060190930701089583
S1132960CF93DF93EC012B8120FF33C026FF0AC0F5
S11329702F7B2B838E819F8101969F838E838A81F7
S113298090E029C022FF0FC0E881F9818081082EE0
S1132990000C990B009719F420622B831AC031960E
S11329A0F983E8830EC0EA85FB85099597FF09C082
S11329B02B81019611F080E201C080E1822B8B8390
S11329C008C02E813F812F5F3F4F3F832E8399277D
S11329D002C08FEF9FEFDF91CF910895A0E0B0E0A8
S11329E0E4EFF4E10C945818AE014B5F5F4FFA0129
S11329F061917191AF018091C5039091C6030E94CA
S1132A006115E2E00C947418A0E0B0E0EAE0F5E1AE
S1132A100C945618AE01495F5F4FDA016D917D91B8
S1132A20AD0103EC13E0F80182819381DC0113967C
S1132A302C911397286013962C930E946115D8014A
S1132A401296ED91FC9113972381277F2383E4E071
S1132A500C9472186091C5037091C6030E945817B4
S1132A6008950F931F93CF93DF93E091C503F091E3
S1132A70C603238121FF1BC08C01D0E0C0E0F80114
S1132A8081918F016091C5037091C603DB01189693
S1132A90ED91FC911997882331F00995892B79F3ED
S1132AA0DFEFCFEFECCF8AE00995892B19F08FEF98
S1132AB09FEF02C08D2F9C2FDF91CF911F910F911B
S1132AC00895ABE0B0E0E7E6F5E10C9448186C013A
S1132AD07B018A01FC0117821682838181FFCCC1AC
S1132AE0CE0101963C01F6019381F70193FD859196
S1132AF093FF81917F01882309F4BAC1853239F4A7
S1132B0093FD859193FF81917F01853229F4B6016C
S1132B1090E00E945817E7CF912C212C312CFFE133
S1132B20F315D8F08B3279F038F4803279F08332AF
S1132B30A1F4232D20611DC08D3261F0803369F42E
S1132B40232D216016C0832D8260382EE32DE4608E
S1132B503E2E2AC0F32DF8601DC037FC2DC020ED99
S1132B60280F2A3040F08E32B9F436FC81C1232D6F
S1132B702064322E19C036FE06C08AE0989E200DCD
S1132B801124922E11C0EAE02E9E200D1124222E33
S1132B90F32DF0623F2E08C08C3621F4832D80681B
S1132BA0382E02C0883641F4F70193FD859193FFD6
S1132BB081917F018111B3CF982F9F7D95549330DC
S1132BC028F40C5F1F4F9FE399830DC0833631F0C7
S1132BD0833771F0833509F059C021C0F801808131
S1132BE089830E5F1F4F88248394912C530113C053
S1132BF02801F2E04F0E511CF801A080B18036FE8E
S1132C0003C0692D70E002C06FEF7FEFC5010E9421
S1132C104D174C018201F32DFF773F2E16C028017A
S1132C2022E0420E511CF801A080B18036FE03C0A0
S1132C30692D70E002C06FEF7FEFC5010E9442175B
S1132C404C01F32DF0683F2E820133FC1BC0822D12
S1132C5090E088169906B0F4B60180E290E00E94F4
S1132C6058172A94F4CFF50137FC859137FE8191EA
S1132C705F01B60190E00E94581721102A9421E0C8
S1132C80821A91088114910471F7E8C0843611F016
S1132C90893641F5F80137FE07C060817181828170
S1132CA093810C5F1F4F08C060817181072E000C57
S1132CB0880B990B0E5F1F4FF32DFF763F2E97FF66
S1132CC009C090958095709561957F4F8F4F9F4F68
S1132CD0F0683F2E2AE030E0A3010E949417882E6A
S1132CE0861845C0853731F4232D2F7EB22E2AE075
S1132CF030E025C0932D997FB92E8F36C1F018F49A
S1132D00883579F0B5C0803719F0883721F0B0C024
S1132D10E92FE061BE2EB4FE0DC0FB2DF460BF2E82
S1132D2009C034FE0AC0292F2660B22E06C028E04E
S1132D3030E005C020E130E002C020E132E0F801DB
S1132D40B7FE07C060817181828193810C5F1F4F40
S1132D5006C06081718180E090E00E5F1F4FA30187
S1132D600E949417882E8618FB2DFF773F2E36FE7F
S1132D700DC0232D2E7FA22E891458F434FE0BC0CF
S1132D8032FC09C0832D8E7EA82E05C0B82CA32C3E
S1132D9003C0B82C01C0B92CA4FE0FC0FE01E80D7D
S1132DA0F11D8081803321F49A2D997EA92E09C0CA
S1132DB0A2FE06C0B394B39404C08A2D867809F0A9
S1132DC0B394A3FC11C0A0FE06C0B21488F4280C6E
S1132DD0922C9B180EC0B21460F4B60180E290E00D
S1132DE00E945817B394F7CFB21418F42B1802C0EA
S1132DF0982C212CA4FE10C0B60180E390E00E9420
S1132E005817A2FE17C0A1FC03C088E790E002C0D7
S1132E1088E590E0B6010CC08A2D867859F0A1FEB1
S1132E2002C08BE201C080E2A7FC8DE2B60190E013
S1132E300E945817891438F4B60180E390E00E9488
S1132E4058179A94F7CF8A94F301E80DF11D808105
S1132E50B60190E00E9458178110F5CF222009F4A2
S1132E6042CEB60180E290E00E9458172A94F6CF31
S1132E70F6018681978102C08FEF9FEF2B96E2E1E6
S1132E800C946418FC010590615070400110D8F74F
S1132E90809590958E0F9F1F0895FC01615070409E
S1132EA001900110D8F7809590958E0F9F1F08957B
S1132EB00F931F93CF93DF93FB01238121FD03C065
S1132EC08FEF9FEF2CC022FF16C0468157812481CB
S1132ED035814217530744F4A081B1819D012F5FCE
S1132EE03F4F318320838C93268137812F5F3F4F5F
S1132EF03783268314C08B01EC01FB010084F18528
S1132F00E02D0995892BE1F6D80116968D919C91B7
S1132F101797019617969C938E931697CE01DF917F
S1132F20CF911F910F910895FA01AA27283051F1EA
S1132F30203181F1E8946F936E7F6E5F7F4F8F4FE6
S1132F409F4FAF4FB1E03ED0B4E03CD0670F781F45
S1132F50891F9A1FA11D680F791F8A1F911DA11D2A
S1132F606A0F711D811D911DA11D20D009F4689463
S1132F703F912AE0269F11243019305D3193DEF60B
S1132F80CF010895462F4770405D4193B3E00FD0C1
S1132F90C9F7F6CF462F4F70405D4A3318F0495DAC
S1132FA031FD4052419302D0A9F7EACFB4E0A6958F
S1132FB09795879577956795BA95C9F700976105B1
S1132FC0710508959B01AC010A2E06945795479507
S1132FD037952795BA95C9F7620F731F841F951FFC
S1132FE0A01D0895DC01CB01FC01F999FECF06C0B8
S1132FF0F2BDE1BDF89A319600B40D9241505040B3
S1133000B8F70895F999FECF92BD81BDF89A992732
S113301080B50895A6E1B0E044E050E00C94F417C4
S1133020DC01CB0103C02D910E941B18415050407C
S1133030D0F70895262FF999FECF1FBA92BD81BD0E
S113304020BD0FB6F894FA9AF99A0FBE0196089526
S1133050242F0E941B18252F0E941B180C94301833
S11330600E941A18272F0C941B180E947F18A59FE2
S1133070900DB49F900DA49F800D911D112408956F
S1133080B7FF0C9435180E943518821B930B0895D2
S11330902F923F924F925F926F927F928F929F9264
S11330A0AF92BF92CF92DF92EF92FF920F931F9352
S11330B0CF93DF93CDB7DEB7CA1BDB0B0FB6F89403
S11330C0DEBF0FBECDBF09942A88398848885F8443
S11330D06E847D848C849B84AA84B984C884DF80B4
S11330E0EE80FD800C811B81AA81B981CE0FD11D98
S11330F00FB6F894DEBF0FBECDBFED010895A29FB9
S1133100B001B39FC001A39F700D811D1124911DB7
S1133110B29F700D811D1124911D0895F894FFCF65
S113312001000000010000003D013701022F0127CA
S113313001041F01170104F40190012C010000DCBB
S113314005B80B941101002C019001F401000094C6
S113315011B80BDC050100F401C8000000B80BDC59
S11331600500005802FE014B00B0040F00000003EC
S113317000000000710DA90D000001596F7527763C
S11331806520736574206120686967682073636FC4
S113319072652E20706C6561736520736574207987
S11331A06F757220696E697469616C2062656C6FF9
S11331B0773A200046697273743A202563256325A3
S11331C063202564005365636F6E643A202563258C
S11331D06325632025640054686972643A2025637A
S11331E02563256320256400466F757274683A2050
S11331F02563256325632025640046696674683A5F
S11332002025632563256320256400546865726561
S1133210204172652043757272656E746C79204E1C
S11332206F204869676853636F7265730041444354
S1133230205465737400534E414B45204279203429
S1133240343335343336390053636F72653A20258D
S11332506C7500536E616B650053636F72653A2041
S1113260200053636F72653A20253875000014
S9030000FC
