:100000000C94F3000C9410010C9410010C9410014A
:100010000C9410010C9450010C9410010C941001DC
:100020000C9410010C9410010C9410010C9410010C
:100030000C9410010C9410010C9410010C941001FC
:100040000C94D3120C9410010C9410010C94100118
:100050000C94140F0C94D20E0C9410010C941001FB
:100060000C9410010C9410010C9410010C941001CC
:100070000C9410010C9410010C94100123232348BC
:100080004947482053434F5245532323230050727E
:10009000657373206120627574746F6E20746F20B5
:1000A000737461727420616761696E0047414D45E8
:1000B000204F5645520021011E011A01160112015E
:1000C0000E010A0106010201FE0090018C01880167
:1000D000840180017C017801740171016D01690165
:1000E000650160015C01580154014F014B0147015A
:1000F00042013E01390134012F012A012501649298
:10010000927D6C92926D809EA0C17C92924DE4A2F1
:10011000A29D182848FF4492926D468A926342FE3F
:10012000037C92A27D868A92A2C3E0100E10E1C6E3
:10013000281028C7FC021C02FDF8040204F9FC0286
:1001400002FD8080FE80816492924DFE9098677CD3
:10015000828A7C03FE9090617C82827DFE2010FF6B
:10016000FE403040FFFE020203FE1028C7040202D8
:10017000FD82FE83FE1010FF7C82925DFE909081D6
:10018000FE929283FE82827D7C828245FE92926DF7
:100190007E90907F43535345323031302F37323089
:1001A0003120536E616B652050726F6A65637420F5
:1001B0006279204A61636B20456164696500536E12
:1001C000616B65001B5B3F323568001B5B3F32355E
:1001D0006C001B5B25646D001B5B324A001B5B25BA
:1001E000643B2564480011241FBECFEFD8E0DEBF7A
:1001F000CDBF12E0A0E0B1E0E6EDF2E302C0059071
:100200000D92A03CB107D9F724E0A0ECB2E001C008
:100210001D92A734B207E1F70E94920B0C94691962
:100220000C940000E8E6F0E0808182608083D99A37
:10023000ECE6F0E080818F6080831092C002089528
:100240001092C00208958091C00218163CF580916A
:10025000C1026FB7F8949091C0029230B4F021E0DF
:1002600030E091E0F901EF53FD4F4081F901E05496
:10027000FD4F40839F5F292F30E04091C002042E44
:10028000000C550B241735076CF39091C002915068
:100290009093C00266231CF4789408958FEF08951C
:1002A0001F920F920FB60F9211242F933F934F93EB
:1002B0005F936F937F938F939F93EF93FF9343B1DC
:1002C0004F708091C002883064F580E090E0642F28
:1002D00070E09B01082E02C0359527950A94E2F73D
:1002E00020FF1BC02091C90230E0082E02C03595C6
:1002F00027950A94E2F720FD10C0E091C00221E0AA
:100300002E0F2093C0020E2E000CFF0BEF53FD4F5B
:1003100080832091C002283024F401968430910516
:10032000C1F64093C902FF91EF919F918F917F9108
:100330006F915F914F913F912F910F900FBE0F9052
:100340001F90189589B183FB882780F90895CF9273
:10035000DF92EF92FF920F931F930E9486124091BB
:10036000CA025091CB026A01550FEE08FF080091B6
:100370001D0310911E0320911F0330912003C00E16
:10038000D11EE21EF31E21E030E06C157D058E05C6
:100390009F0510F020E030E0C9011F910F91FF9000
:1003A000EF90DF90CF90089580910801909109011E
:1003B00001969093090180930801880F991FFC0111
:1003C000E75FFC4F808191810E941F130E9486127B
:1003D00060931D0370931E0380931F03909320036B
:1003E000E0910801F0910901EE0FFF1FED5EFC4F57
:1003F000808191819093CB028093CA020895559891
:100400008FEF9FEF9093090180930801089583E097
:1004100090E09093080380930703E3E1F3E084EF17
:1004200091E09183808328EC30E0338322839583AD
:100430008483E9E0F3E080ED97E09183808328EE08
:1004400033E033832283958384838FEF9FEF9093F0
:100450000901809308010E94D4010E94A201811128
:100460000E942413089582E090E090930803809303
:100470000703E3E1F3E082E390E09183808384E685
:1004800090E093838283E9E0F3E080ED97E091834D
:10049000808388EE93E0938382838FEF9FEF909326
:1004A0000901809308010E94D4010E94A2018111D8
:1004B0000E942413089520910703309108032150CE
:1004C000310981E090E04091080150910901421703
:1004D000530714F480E090E008950E94A701892B4F
:1004E00059F40E945B02892B39F067E08AE00E9490
:1004F000BB110E94FF0108950E94A701892B11F4EE
:100500000E94D401089580E891E00E94D91821E06A
:10051000611572418105910509F020E0822F08954F
:10052000CF92DF92EF92FF920F931F93CF93DF93BF
:10053000F89440E052E160E070E080E891E00E94D1
:10054000F31880E00E947608682F80EA91E00E940C
:10055000E51881E00E947608682F88EA91E00E9401
:10056000E51882E00E947608682F80EB91E00E94F7
:10057000E51883E00E947608682F88EB91E00E94DE
:10058000E5180E94AC0B682F80EC91E00E94E51802
:100590000E94F710882341F00E944111682F88ECD7
:1005A00091E00E94E51805C068E088EC91E00E94A7
:1005B000E5180E945E09BC0180ED91E00E94FB18E5
:1005C0000E94360DAC01990F660B770B80EE91E01F
:1005D0000E94F3180E949F0F682F80E092E00E9413
:1005E000E5180E948612AC01990F660B770B88E024
:1005F00092E00E94F3180E94BD0F682F88E192E0FC
:100600000E94E5180E94BA0FC82F0E94B70F8C17DE
:1006100008F07FC082E391E00E9410160E94BA0F9A
:10062000C82EC82FD0E0C132D105E4F500E212E0B7
:100630000F2EF1E4EF2EF1E0FF2EF02D8C2F0E9413
:10064000A20F682FC8010E94E5188C2F0E94A20FEC
:100650000E94B609D82E8C2F0E94A20F0E94B309C7
:100660001F92DF921F928F93FF92EF920E94CD15FF
:100670002196085F1F4F0F900F900F900F900F90D3
:100680000F90C132D105D1F6CC2DD0E0D195C195D6
:10069000D109CC0FDD1FCC0FDD1FCC0FDD1FC85FD4
:1006A000DE4F02C0C0E0D0E000E010E00F2EF1E429
:1006B000EF2EF1E0FF2EF02D25C0802F0E94A20F1B
:1006C000682FCE01805E9D4F0E94E518802F0E940A
:1006D000A20F0E94B609D82E802F0E94A20F0E945E
:1006E000B3091F92DF921F928F93FF92EF920E94A5
:1006F000CD1528960F5F1F4F0F900F900F900F9002
:100700000F900F900E94B70F90E080179107ACF602
:100710003CC08FE491E00E9410160E94BA0F082F8F
:1007200010E0C0E0D0E00F2EF1E4EF2EF1E0FF2E5C
:10073000F02D25C0802F0E94A20F682FCE01805E71
:100740009D4F0E94E5182896802F0E94A20F0E94BC
:10075000B609D82E802F0E94A20F0E94B3091F92C3
:10076000DF921F928F93FF92EF920E94CD150F5F41
:100770001F4F0F900F900F900F900F900F900E94AF
:10078000B70F90E080179107ACF668E0CE01805E6D
:100790009D4F0E94E5187894DF91CF911F910F91A2
:1007A000FF90EF90DF90CF900895CF93C82F0E94D5
:1007B000B809882399F0E09121030E2E000CFF0B5D
:1007C000EE5DFC4FC08363E370E08C2F90E00E94ED
:1007D0009608809121038F5F80932103CF91089524
:1007E0000E94EC0780EA91E00E94D11890E00E94FC
:1007F000D50388EA91E00E94D11890E00E94D503C9
:1008000080EB91E00E94D11890E00E94D50388EB24
:1008100091E00E94D11890E00E94D5030895CF93F3
:1008200080EC91E00E94D118C82F0E94B80988235B
:1008300021F08C2F0E94AF0B02C00E94A30CCF911D
:100840000895CF9388EC91E00E94D118C82F0E94A0
:10085000B809882321F08C2F0E94F11002C00E9459
:100860002011CF910895DF92EF92FF920F931F9383
:10087000CF93DF9380E092E00E94D1180E94A80FEE
:1008800080E00E94B40F0E949F0F81500E94B10F20
:10089000D0E000E212E00F2EF1E4EF2EF1E0FF2EA7
:1008A000F02DC8010E94D118C82F0E94B609D82E79
:1008B0008C2F0E94B3091F92DF921F928F93FF9299
:1008C000EF920E94CD156D2F8C2F0E94AB0F60EF21
:1008D00070E08C2F90E00E949608085F1F4FDF5F4A
:1008E000C8010E94D1180E94B8090F900F900F9074
:1008F0000F900F900F908111D4CF0E94880F6FE05E
:1009000070E090E00E94960888E192E00E94D11881
:100910000E94910FDF91CF911F910F91FF90EF9067
:10092000DF9008950E948302882361F10E94D41110
:1009300088E092E00E94D9180E94941280EE91E023
:100940000E94D9180E943F0D0E94AF090E941D12FB
:1009500080ED91E00E94DF180E9463090E94A30CC1
:100960000E940A130E9407020E94F0030E940F04D3
:100970000E9421040E9433040E9420010E94CD0E97
:100980001092D0020895811521E09207E9F038F421
:10099000803C910591F0803E910561F011C080325C
:1009A00021E0920721F08034914059F009C080E89D
:1009B00090E0089580E490E0089580E290E008954A
:1009C000089580EA90E0089580E690E008958F927F
:1009D0009F92AF92BF92DF92EF92FF920F931F937D
:1009E000CF93DF938C01EB010E94D9184B015C017E
:1009F000CE010E94D118D82ECE0108960E94D1189F
:100A0000E82ECE0140960E94D118F82EB501A4011F
:100A1000C80180960E94F3186D2DCE0180960E9429
:100A2000E5186E2DCE0188960E94E5186F2DCE0137
:100A3000C0960E94E518DF91CF911F910F91FF9012
:100A4000EF90DF90BF90AF909F908F90089560E8F7
:100A500070E080E291E00E94E70408950E9427057B
:100A600060E670E080E091E00E94E70408950E9453
:100A70002E0560E470E080EE90E00E94E7040895A7
:100A80000E94370560E270E080EC90E00E94E7048D
:100A90000895CF93DF93EC016FE50E94E5186FE5B1
:100AA000CE0108960E94E5186FE5CE0140960E949F
:100AB000E518DF91CF91089540E050E0BA0180EC55
:100AC00090E00E94F31840E050E0BA0180EE90E020
:100AD0000E94F31840E050E0BA0180E091E00E94EB
:100AE000F31840E050E0BA0180E291E00E94F31870
:100AF00040E050E0BA0180E491E00E94F31880E207
:100B000090E00E94490580E490E00E94490580E65B
:100B100090E00E94490580E890E00E94490580EA43
:100B200090E00E94490544E352E160E070E080E615
:100B300091E00E94F318089580E691E00E94D91890
:100B400021E030E0643372418105910511F020E02D
:100B500030E0C9010895CF92DF92EF92FF920E9498
:100B6000360D6B017C0180E491E00E94D918C61615
:100B7000D706E806F90640F40E949C0521E0892B7F
:100B800009F020E0822F01C081E0FF90EF90DF901C
:100B9000CF900895CF92DF92EF92FF920E949C0532
:100BA000892B09F442C00E94360D6B017C0180EC58
:100BB00090E00E94D9186C157D058E059F05C0F147
:100BC0000E94360D6B017C0180EE90E00E94D918E6
:100BD0006C157D058E059F0570F10E94360D6B0129
:100BE0007C0180E091E00E94D9186C157D058E058E
:100BF0009F0520F10E94360D6B017C0180E291E09F
:100C00000E94D9186C157D058E059F05D0F00E94B5
:100C1000360D6B017C0180E491E00E94D9186C15BF
:100C20007D058E059F0580F011C080EC90E00EC020
:100C300080EC90E00BC080EE90E008C080E091E096
:100C400005C080E291E002C080E491E0FF90EF9067
:100C5000DF90CF900895CF92DF92EF92FF921F9393
:100C6000CF93DF9344E352E160E070E080E691E0EF
:100C70000E94F3180E94CA05803E910591F020F46D
:100C8000803C910589F012C0811521E0920731F076
:100C90008032914059F40E94270508C00E942E0519
:100CA00005C00E94370502C00E9440050E94360D13
:100CB0006B017C010E94CA05B701A6010E94F318CE
:100CC000CCECD2E018810E94CA050E94C304612FB7
:100CD0000E94E51819810E94CA050E94C304612F71
:100CE00008960E94E518CA810E94CA050E94C304A2
:100CF0006C2F40960E94E5180E94D411DF91CF918D
:100D00001F91FF90EF90DF90CF900895EF92FF92A8
:100D10000F931F93CF93DF9368E08AE00E94BB118B
:100D200084EE91E09F938F930E94CD150F900F90CA
:100D300000E010E00F2EF1E4EF2EF4E0FF2EF02D96
:100D40000E94F3110E94C60E8823D1F3F70180811F
:100D500091810E948F15EC01982F91549A3398F449
:100D60000330110584F469E08AE0800F0E94BB1112
:100D7000F801E453FD4FC083CE0199270E94091664
:100D80000F5F1F4FDDCF8A3089F08F37C9F680E2C1
:100D900090E00E9409161016110614F40150110972
:100DA00069E08AE0800F0E94BB11CACFF999FECF9B
:100DB0000E942B06DF91CF911F910F91FF90EF9032
:100DC0000895EF92FF920F931F93CF93DF936BE001
:100DD0008AE00E94BB118CE790E09F938F930E9462
:100DE000E3156DE08AE00E94BB110E949C050F9004
:100DF0000F90892B09F4DFC080EC90E00E94D91895
:100E0000162F072FF82EE92E80E390E00E94D118CC
:100E1000D82F88E290E00E94D118C82F80E290E09D
:100E20000E94D118EF92FF920F931F931F92DF93AE
:100E30001F92CF931F928F938DE192E09F938F9398
:100E40000E94CD156EE08AE00E94BB1180EE90E01A
:100E50000E94D918162F072FF82EE92E80E590E072
:100E60000E94D118D82F88E490E00E94D118C82F92
:100E700080E490E00E94D118EF92FF920F931F93AD
:100E80001F92DF931F92CF931F928F938EE292E077
:100E90009F938F930E94CD156FE08AE00E94BB1153
:100EA00080E091E00E94D918162F072FF82EE92E26
:100EB00080E790E00E94D118D82F88E690E00E9449
:100EC000D118C82F80E690E00E94D118EF92FF92CF
:100ED0000F931F931F92DF931F92CF931F928F93B5
:100EE00080E492E09F938F930E94CD158DB79EB7BB
:100EF00084960FB6F8949EBF0FBE8DBF60E18AE066
:100F00000E94BB1180E291E00E94D918162F072F92
:100F1000F82EE92E80E990E00E94D118D82F88E8B9
:100F200090E00E94D118C82F80E890E00E94D1186C
:100F3000EF92FF920F931F931F92DF931F92CF9315
:100F40001F928F9381E592E09F938F930E94CD151E
:100F500061E18AE00E94BB1180E491E00E94D9180F
:100F6000162F072FF82EE92E80EB90E00E94D11863
:100F7000D82F88EA90E00E94D118C82F80EA90E02C
:100F80000E94D118EF92FF920F931F931F92DF934D
:100F90001F92CF931F928F9383E692E09F938F933C
:100FA0000E94CD158DB79EB748960FB6F8949EBF98
:100FB0000FBE8DBF0AC00E945C0583E792E09F933D
:100FC0008F930E94CD150F900F90DF91CF911F91BD
:100FD0000F91FF90EF9008951092210308953091A2
:100FE0002103131684F490912203891771F0E3E230
:100FF000F3E090E003C02191281749F09F5F391377
:10100000FACF8FEF08958FEF089580E00895892F2C
:1010100008950E94EF0791E08F3F09F490E0892F37
:101020000895FF920F931F93CF93DF938091210335
:1010300088300CF044C000E010E0D0E0C0E002C016
:101040000F5F1F4F2C2FCC0F330B2D5F3F4F200F07
:10105000311F2F703078332334F421503109206F41
:101060003F6F2F5F3F4F822FC22F6D2FDD0F770B0A
:101070006B5F7F4F67707078772334F4615071092C
:10108000686F7F6F6F5F7F4FD62F0E94BE09F82E6B
:1010900003361105B1F00E94F50F8111D1CF8F2DCC
:1010A0000E9409088111CCCF8F2D0E94441181111B
:1010B000C7CF8F2D0E949C0C8111C2CF04C088E045
:1010C0000FC088E00DC080912103E82F082E000C8E
:1010D000FF0BEE5DFC4FF0828F5F809321038F2D1D
:1010E000DF91CF911F910F91FF900895E82F880F06
:1010F000FF0BEE5DFC4F808108958823B4F02091B2
:101100002103821794F48F5F821764F4E82F082E6E
:10111000000CFF0BEE5DFC4F9081319790838F5F49
:101120008217A4F321502093210308951F93CF9396
:10113000DF93C82F162F0E94B609D82F8C2F0E943C
:10114000B309412F6D2F0E946C09DF91CF911F9140
:101150000895CF93DF930E94AF090E941D1288E586
:1011600092E090930B0180930A010E94A30C0E94CD
:101170000A130E9407020E94670F0E94880F6FE007
:101180000E9496080E94960F60EF0E9496080E94A7
:10119000EC07C3E00E941108D82F0E94B8098823E9
:1011A00021F063E38D2F0E949608C15099F7DF91DB
:1011B000CF91089580910A0190910B018B3F910589
:1011C000A4F060910A0170910B0180E090E00E9410
:1011D000551326E636E646E65FE30E94BB130E94FF
:1011E000261370930B0160930A0108950F931F93C8
:1011F000CF93DF930E94880FD82F0E941810C82F1A
:1012000088230CF455C081E090E00E94210D0E94DB
:10121000880F182F8EEF8C0F8230C0F4812F0E9420
:10122000EF070E947D080E94330282E090E00E9456
:10123000210D0E94DA080E941108082F0E94B809A7
:10124000882321F063E3802F0E9496088CEF8C0F97
:10125000823050F40E94381189E090E00E94210D04
:101260000E94DA080E9433028AEF8C0F823050F419
:101270000E94A30C84E090E00E94210D0E94DA08F5
:101280000E943302CD7FC13011F0C53029F40E9495
:10129000C00F60E00E94960860EF8D2F0E949608B4
:1012A0006FE0812F0E9496080E94461281E001C0E3
:1012B00080E0DF91CF911F910F91089580910A01F5
:1012C00090910B01089590930B0180930A0108956A
:1012D00080E80E94C31008951F93CF93DF9380315D
:1012E000B0F46830A0F4142FC62FD82F81E00E94EC
:1012F000EB106C2F677080E1689F900111248D2F97
:101300008F70822B0E94EB10812F0E94EB10DF91D7
:10131000CF911F9108950F931F93CF93DF93803147
:1013200090F48B01C82F83E00E94EB108C2F8F70FC
:101330000E94EB10E801085F1F4F89910E94EB109B
:10134000C017D107D1F7DF91CF911F910F91089569
:1013500084E00E94EB1082E00E94EB1008958FE081
:101360000E94EB10089582958F7008958F700895F4
:1013700083FB882780F991E08927089520E1829FE7
:10138000C00111246770862B08950E9468090E948D
:10139000120140E060E07BE480E090E00E947F0E7C
:1013A0000E945F1278940895FF920F931F93CF933A
:1013B000DF9380E00E94DD110E94D4110E94EA11A7
:1013C0000E94FC110E94AF09CFE00F2EFFE0FF2E1C
:1013D000F02D0FEF10EFD5E16C2F85E992E00E9420
:1013E000480D0DC02FE78CE293E0215080409040E3
:1013F000E1F700C000000E9423018F3FA9F50E9481
:10140000570D8111EFCF0E943815DC01CB0183709D
:101410009927AA27B078BB2354F40197A109B109F1
:101420008C6F9F6FAF6FBF6F0196A11DB11D813093
:101430009105A105B10591F02CF4892B8A2B8B2BFA
:1014400059F0CACF82309105A105B10549F0039743
:10145000A105B10539F0C0CFCD2FBECFCF2DBCCF68
:10146000C02FBACFC12FB8CFDF91CF911F910F916D
:10147000FF9008950E94D4110E94A9080E94180D9F
:101480000E9420010E94CD0E08954F925F927F929C
:101490008F929F92AF92BF92CF92DF92EF92FF9284
:1014A0000F931F93CF93DF930E9486124B015C0131
:1014B00000E01FEF0F2EFFED7F2EF02D0F2EF1E439
:1014C0004F2EF4E05F2EF02D0E94FA1081110E9441
:1014D00051110E94101181110E9420110E94060DCD
:1014E00081110E94260C0E946D020E947E12892B9F
:1014F00019F00E94200106C00E942301D82F8F3FBF
:1015000009F09AC00E94C60E882309F4A4C0F20113
:10151000808191810E948F15C82F011103C08B31EA
:1015200051F496C0013019F48B3529F493C0023080
:1015300009F488C07BC00E947E12892B09F03FC04D
:1015400008C0D11109C001C000E081E00E94D70F9E
:1015500050C000E0D12F01C0C12FD23019F0812F2F
:10156000813421F480E00E94D70F43C0D33011F0C2
:10157000843421F483E00E94D70F3BC0D13011F0B6
:10158000823429F482E00E94D70F33C000E08C2F10
:101590008F7D803519F40E9477122BC0C33719F460
:1015A0000E94900226C00E948302892B11F18C2F89
:1015B0008F7D8F34F1F481E08093D00262C08C2F54
:1015C0008F7D803521F40E94771200E012C000E088
:1015D000833519F40E9490020CC00E948302892B6B
:1015E00041F08C2F8F7D8F3421F481E08093D002E5
:1015F00048C00E9486126B017C010E945E09092E80
:10160000000CAA0BBB0B880D991DAA1DBB1DC8168B
:10161000D906EA06FB0608F457CF0E94F60888238D
:1016200081F10E9486124B015C014ECF0E947E1216
:10163000892B09F4ABCFC3CF0E947E12892B09F40A
:1016400080CF1CC00E947E12892B51F000E013C095
:1016500001E001C002E00E947E12892B61F408C003
:10166000C33409F471CF8C2F00E0C12FD12F78CF74
:101670000E948302BECFC12F872DAACF0E94830272
:10168000B8CFDF91CF911F910F91FF90EF90DF9036
:10169000CF90BF90AF909F908F907F905F904F9032
:1016A00008950E94D41165E08AE00E94BB118CEA83
:1016B00090E09F938F930E94E31567E08AE00E9479
:1016C000BB110E94360D9F938F937F936F9387EA90
:1016D00092E09F938F930E94CD150E94E1060E9495
:1016E000AB052DB73EB7285F3F4F0FB6F8943EBF0E
:1016F0000FBE2DBF81110E94860669E08AE00E941C
:10170000BB118EE890E09F938F930E94E3150E9497
:10171000E1060F900F900E9423018F3FE1F30E949A
:10172000D41108950E94C5098FEF81B9529A539838
:101730000E94D4098091D002882319F00E9492045B
:1017400002C00E943A0A0E94450A8091D00281118B
:10175000F1CF0E94510BEECF80912A030895CF93D1
:10176000DF93C82F80912A030E94B609D82F809159
:101770002A030E94B30940E06D2F0E946C09C093B8
:101780002A038C2F0E94B609D82F8C2F0E94B309F0
:1017900043E36D2F0E946C09DF91CF910895CF93A1
:1017A000C82F0E94F50F81110DC08C2F0E940908CF
:1017B00081110AC08C2F0E94441191E0811105C053
:1017C00090E003C091E001C091E0892FCF9108958E
:1017D0001F93CF93DF93182F80912A030E94B309A0
:1017E000C82F80912A030E94B609D82F8FEF8C0F43
:1017F0008E3020F48FEF8D0F8630E8F0C11106C0D7
:10180000812F0E94B3098F3041F417C0CF3029F4E3
:10181000812F0E94B309882391F0D11105C0812F37
:101820000E94B60981E00EC0D73059F4812F0E9482
:10183000B60981E007C080E005C081E003C081E017
:1018400001C081E0DF91CF911F9108950F931F9305
:10185000CF93DF9360E080E00E94BE09082F0E94D2
:10186000DD1483709078992324F401978C6F9F6F17
:10187000019610E0C82FD0E0C130D105D1F01CF4A2
:10188000209741F042C0C230D10511F1C330D105DB
:1018900071F13BC080912A030E94B609082F809104
:1018A0002A030E94B30961E0600F0E94BE09082F5D
:1018B0002CC080912A030E94B609082F80912A0328
:1018C0000E94B3096FEF600F0E94BE09082F1DC070
:1018D00080912A030E94B609082F80912A030E9452
:1018E000B309602F8F5F0E94BE09082F0EC0809140
:1018F0002A030E94B609082F80912A030E94B30987
:10190000602F81500E94BE09082F1F5F802F0E9408
:10191000CF0B882339F0143039F0802F0E94E80B68
:101920008111AACF153018F4802F0E94AF0BDF91E0
:10193000CF911F910F91089591E020912A032813D0
:1019400090E0892F08951F93CF93DF930E94DD14B9
:10195000EC010E94DD14BC0167707078772334F4C9
:1019600061507109686F7F6F6F5F7F4FCE018F701D
:101970009078992324F40197806F9F6F01960E94BD
:10198000BE09C82F13E61EC00E94DD14EC010E94A0
:10199000DD14BC0167707078772334F461507109ED
:1019A000686F7F6F6F5F7F4FCE018F709078992344
:1019B00024F40197806F9F6F01960E94BE09C82F83
:1019C000115091F08C2F0E94F50F8111DDCF8C2FDB
:1019D0000E9409088111D8CF0E9441118C17A1F2F1
:1019E00080912A038C1781F2C0932A038C2F0E94C6
:1019F000B609C82F80912A030E94B3094CE36C2FCB
:101A00000E946C09DF91CF911F9108950E94861268
:101A100020910C0130910D0140E050E00E945014E3
:101A200021E0672B682B692B09F020E0822F0895B5
:101A30001092D1021092D2021092D3021092D402CC
:101A400008954091D1025091D2026091D3027091D9
:101A5000D402480F591F611D711D4093D10250934C
:101A6000D2026093D3027093D40208956091D102A0
:101A70007091D2028091D3029091D4020895609324
:101A8000D1027093D2028093D3029093D40208952E
:101A900060930E019093D9028093D8021092DB02DA
:101AA0001092DA021092D7021092D60208950F9384
:101AB0001F93CF93DF93CDB7DEB728970FB6F89477
:101AC000DEBF0FBECDBFE091DA02F091DB023097AE
:101AD00081F0149110FF06C01092DB021092DA021E
:101AE00000E06BC03196F093DB02E093DA0200E095
:101AF00064C0E091D602F091D702309709F449C052
:101B0000CF0101969093D7028093D602E081E11134
:101B10000AC01092D7021092D60280E18093D502BB
:101B200000E010E04AC08FE98E0F8A3170F4F0E0D7
:101B3000EE0FFF1FE85FFF4F859194919093DB02BA
:101B40008093DA0200E010E038C08FEB8E0F8A310C
:101B500070F4F0E0EE0FFF1FE85BFF4F859194916A
:101B60009093DB028093DA0200E010E026C080ED63
:101B70008E0F8A3000F5F0E0EE0FFF1FEA5AFF4F9C
:101B8000859194919093DB028093DA0200E010E05B
:101B900014C08091D8029091D90201E0009709F019
:101BA00000E09093D7028093D6021092D90210924F
:101BB000D80210E002C000E010E00E94A8092091C5
:101BC0000E01FE013896CE010196112314F42083F4
:101BD00001C01082110F3197E817F907B1F7198288
:101BE000BE016F5F7F4F8FE00E948B098091D5020D
:101BF000882389F081508093D502002311F0882337
:101C000011F090E003C091E001C091E081E09923E0
:101C100029F080E003C00023A1F3F7CF28960FB688
:101C2000F894DEBF0FBECDBFDF91CF911F910F9112
:101C30000895CF93C82F8A3019F48DE00E94190EB1
:101C40009FB7907802C0992329F180912C038F3F90
:101C5000D1F3F894E0912B0381E08E0F80932B0356
:101C6000F0E0E35DFC4FC08380912C038F5F809395
:101C70002C0380912B038F3F11F410922B03E1EC86
:101C8000F0E0808180628083992339F0789480E04D
:101C900090E005C081E090E002C080E090E0CF914C
:101CA000089580913E048823E1F32FB72078F894BB
:101CB00080912C0430913E0490E0831B91095AF4EA
:101CC000E0912C0480913E04F0E0E81BF109E35C14
:101CD000FB4F80810AC0E0912C0480913E04F0E02B
:101CE000E81BF109E35DFB4F808190913E04915028
:101CF00090933E04222309F0789490E00895109286
:101D00002B0310922C0310922C0410923E0410927C
:101D10003D044093DC02DC01CB01880F991FAA1F10
:101D2000BB1F880F991FAA1FBB1F9C01AD01220F6B
:101D3000331F441F551F60E072E18AE790E00E9464
:101D40007214BA01A9014F5F5F4F6F4F7F4FDB01E4
:101D5000CA011AF40196A11DB11DB595A7959795D5
:101D6000879501979093C5008093C400E1ECF0E063
:101D700088E18083808180688083E1E4F4E08FE003
:101D800091E09383828391838083089590913E04B0
:101D900081E0911101C080E0089510922C0410920E
:101DA0003E0408951F920F920FB60F9211242F93A5
:101DB0008F939F93EF93FF9380912C03882329F1B6
:101DC00080912B0320912C0390E0821B91095AF4FF
:101DD000E0912B0380912C03F0E0E81BF109E45D16
:101DE000FB4F90810AC0E0912B0380912C03F0E01F
:101DF000E81BF109E35DFC4F908180912C03815039
:101E000080932C039093C60005C0E1ECF0E0808144
:101E10008F7D8083FF91EF919F918F912F910F90F4
:101E20000FBE0F901F9018951F920F920FB60F9232
:101E300011242F933F934F935F936F937F938F93CF
:101E40009F93AF93BF93CF93EF93FF93C091C6003F
:101E50008091DC02882349F080912C038F3F29F088
:101E600060E070E08C2F0E94190E80913E0480315A
:101E700020F081E080933D0418C0CD3009F4CAE021
:101E8000E0912C0481E08E0F80932C04F0E0E35D60
:101E9000FB4FC08380913E048F5F80933E0480910E
:101EA0002C04803111F410922C04FF91EF91CF910A
:101EB000BF91AF919F918F917F916F915F914F9162
:101EC0003F912F910F900FBE0F901F9018950F9379
:101ED0001F93CF9382E08093E1021092DF02C1E072
:101EE000C093E00261E081E00E94BE0902EE12E0D0
:101EF000F801808361E082E00E94BE09F8018183DD
:101F0000C093DE02C093DD02CF911F910F9108951F
:101F1000E091E0020E2E000CFF0BEE51FD4F808190
:101F200008958093DE028093DD020895E091DF0240
:101F30000E2E000CFF0BEE51FD4F80810895809115
:101F4000E1020895E82FF0E0EE51FD4F8081089501
:101F50008093E1020895E62FF0E0EE51FD4F80837B
:101F600008958093E00208958093DF0208958091A0
:101F7000E00208958091DF0208958091DE020895C5
:101F80009091DF02E92F092E000CFF0BEE51FD4F5F
:101F900080819F5F913219F09093DF0202C010920E
:101FA000DF029091E10291509093E10208959091A7
:101FB000DE029130A9F028F0923041F0933059F0D0
:101FC0000895823089F08093DD020895882361F0BE
:101FD0008093DD020895813039F08093DD02089509
:101FE000833011F08093DD0208959091DF023091EB
:101FF000E00240E00DC0E92F092E000CFF0BEE516E
:10200000FD4F2081281789F09F5F91320CF0942FAB
:102010009313F1CFE32F330FFF0BEE51FD4F91E000
:102020002081281719F090E001C091E0892F0895D0
:10203000CF93DF938091E102813208F096C0E09166
:10204000E0020E2E000CFF0BEE51FD4F80810E942E
:10205000B309D82FC82FE091E0020E2E000CFF0B21
:10206000EE51FD4F80810E94B609682F9091DD02EC
:10207000913059F028F0923069F0933081F01BC014
:10208000873091F061E0680F16C0DF3079F0C1E071
:10209000CD0F11C0882361F06FEF680F0CC0DD23F6
:1020A00049F0CFEFCD0F07C060E005C0C0E003C02E
:1020B00067E001C0CFE08C2F0E94BE09C82F80913D
:1020C000DD029091DE02981741F08093DE020E94BB
:1020D000A201892B11F00E9433028C2F0E94F50F70
:1020E000882351F0E091DF020E2E000CFF0BEE5121
:1020F000FD4F8081C8133BC08091E0028F5F813229
:1021000019F08093E00202C01092E002E091E00238
:102110000E2E000CFF0BEE51FD4FC0838091E102AB
:102120008F5F8093E1028C2F90E00E949C0C892BA2
:1021300031F08091E1028132E0F087E021C08C2F04
:102140000E944411882331F08091E102813298F09D
:1021500085E016C08C2F0E940908882371F08091B9
:10216000E102813260F083E00BC08DEF09C08EEF99
:1021700007C086E005C084E003C081E001C082E0C2
:10218000DF91CF91089594B1906B94B92C9A90E51A
:102190009CBD883021F0803211F0823019F491E03A
:1021A0009DBD01C01DBC803269F028F4883071F0FB
:1021B000803161F00EC0803429F0803851F48CB544
:1021C00081608CBD8CB582608CBD03C08CB5816094
:1021D0008CBD2C9808958EBD0DB407FEFDCF8EB535
:1021E000089580933F0481E0809340040895809196
:1021F000400408950E94861268597A438109910922
:1022000020E23EE440E050E00E945014672B682B2F
:10221000692B21F40E94861281E0089580E00895E0
:102220000E94861220E23EE440E050E00E945014FA
:1022300021E0672B682B692B09F020E0822F08959D
:10224000CF9380913F040E94B609C82F80913F042C
:102250000E94B30940E06C2F0E946C0960E080E0AE
:102260000E94BE0980933F0410924004CF910895CC
:1022700060E080E00E94BE0980933F041092400419
:10228000089580913F04089590914004992339F076
:1022900091E020913F04281390E0892F089580E079
:1022A00008951F93CF93DF930E9420110E94DD14A5
:1022B000EC010E94DD14BC0167707078772334F460
:1022C00061507109686F7F6F6F5F7F4FCE018F70B4
:1022D0009078992324F40197806F9F6F01960E9454
:1022E000BE09C82F13E61EC00E94DD14EC010E9437
:1022F000DD14BC0167707078772334F46150710984
:10230000686F7F6F6F5F7F4FCE018F7090789923DA
:1023100024F40197806F9F6F01960E94BE09C82F19
:102320001150A1F08C2F0E94F50F8111DDCF8C2F61
:102330000E9409088111D8CF8C2F0E94441181116D
:10234000D3CF8C2F0E949C0C8111CECFC0933F0421
:102350008C2F0E94B609C82F80913F040E94B309B8
:102360004CE36C2F0E946C0981E080934004DF9164
:10237000CF911F910895282F082E000C330B3F9307
:102380008F93862F062E000C990B9F936F938DEDE4
:1023900091E09F938F930E94E3150F900F900F9001
:1023A0000F900F900F90089588ED91E09F938F9379
:1023B0000E94E3150F900F9008951F928F9382ED66
:1023C00091E09F938F930E94E3150F900F900F90D1
:1023D0000F9008958BEC91E09F938F930E94E315EB
:1023E0000F900F90089584EC91E09F938F930E943B
:1023F000E3150F900F90089563E083E00E94BB11F6
:102400008EEB91E09F938F930E94E31565E083E04C
:102410000E94BB1180E20E94DD1184E991E09F934C
:102420008F930E94E31585E20E94DD110E94E10670
:102430000F900F900F900F9008950E94EA1161E0A5
:102440008AE00E94BB1181EB92E09F938F930E94E0
:10245000CD1563E081E00E94BB110E94360D9F9371
:102460008F937F936F9387EB92E09F938F930E945C
:10247000CD1563E08AE00E94BB118DB79EB7089628
:102480000FB6F8949EBF0FBE8DBF08950E94EA114B
:1024900063E081E00E94BB110E94360D9F938F93F1
:1024A0007F936F9387EA92E09F938F930E94CD155D
:1024B0000F900F900F900F900F900F900895109223
:1024C000030310920403109205031092060316BC36
:1024D0008CE787BD82E084BD83E085BDEEE6F0E059
:1024E00080818260808385B3827085BB0895EEE62B
:1024F000F0E0908182E089278083089580916E00CA
:10250000869591E08927817090E008952FB7F8941F
:102510006091030370910403809105039091060379
:1025200022230CF4789408952FB7F8946093030352
:1025300070930403809305039093060322230CF405
:102540007894089580913101882381F05A9A0E94ED
:102550009F0FEDEC8E9FE12D1124E695E695E69513
:10256000F0E0E95DFE4F808182B916C05A980E9462
:102570009F0F9DEC899F912D112496959695969588
:10258000990F292F220F220F920F891BE82FF0E0BD
:10259000E35EFE4F808182B99091310181E0891B19
:1025A0008093310108951F920F920FB60F9211245C
:1025B0002F933F934F935F936F937F938F939F934B
:1025C000AF93BF93EF93FF93809103039091040324
:1025D000A0910503B09106030196A11DB11D809342
:1025E000030390930403A0930503B09306030E9492
:1025F000A212FF91EF91BF91AF919F918F917F9127
:102600006F915F914F913F912F910F900FBE0F905F
:102610001F9018951092850010928400E1E8F0E078
:1026200080818A60808380E48093800088EE93E0DC
:1026300090938900809388005598539808959093BB
:102640008900809388000895559A08950E949A13EE
:1026500088F09F5798F0B92F9927B751B0F0E1F063
:10266000660F771F881F991F1AF0BA95C9F714C013
:10267000B13091F00E94B413B1E008950C94B413FA
:10268000672F782F8827B85F39F0B93FCCF386954C
:1026900077956795B395D9F73EF4909580957095A9
:1026A00061957F4F8F4F9F4F0895E89409C097FB26
:1026B0003EF490958095709561957F4F8F4F9F4F19
:1026C0009923A9F0F92F96E9BB279395F69587955D
:1026D00077956795B795F111F8CFFAF4BB0F11F420
:1026E00060FF1BC06F5F7F4F8F4F9F4F16C08823C7
:1026F00011F096E911C0772321F09EE8872F762FFD
:1027000005C0662371F096E8862F70E060E02AF03D
:102710009A95660F771F881FDAF7880F9695879529
:1027200097F9089557FD9058440F551F59F05F3F92
:1027300071F04795880F97FB991F61F09F3F79F0E3
:1027400087950895121613061406551FF2CF469565
:10275000F1DF08C0161617061806991FF1CF8695E7
:102760007105610508940895E894BB2766277727CB
:10277000CB0197F908950E94CE130C943F140E9448
:10278000311438F00E94381420F0952311F00C9485
:1027900028140C942E1411240C94B5130E94921337
:1027A00070F3959FC1F3950F50E0551F629FF001A4
:1027B000729FBB27F00DB11D639FAA27F00DB11DBD
:1027C000AA1F649F6627B00DA11D661F829F222746
:1027D000B00DA11D621F739FB00DA11D621F839FCD
:1027E000A00D611D221F749F3327A00D611D231FA3
:1027F000849F600D211D822F762F6A2F11249F57F1
:1028000050409AF0F1F088234AF0EE0FFF1FBB1FF3
:10281000661F771F881F91505040A9F79E3F5105B2
:1028200080F00C9428140C94B5135F3FE4F3983EA9
:10283000D4F3869577956795B795F795E7959F5F5C
:10284000C1F7FE2B880F911D9695879597F90895EE
:1028500097F99F6780E870E060E008959FEF80EC53
:10286000089500240A9416161706180609060895F6
:1028700000240A9412161306140605060895092E5C
:102880000394000C11F4882352F0BB0F40F4BF2BCB
:1028900011F460FF04C06F5F7F4F8F4F9F4F08950B
:1028A000A1E21A2EAA1BBB1BFD010DC0AA1FBB1F54
:1028B000EE1FFF1FA217B307E407F50720F0A21BC6
:1028C000B30BE40BF50B661F771F881F991F1A9433
:1028D00069F760957095809590959B01AC01BD015D
:1028E000CF010895052E97FB1EF400940E948914D1
:1028F00057FD07D00E94501407FC03D04EF40C94EF
:10290000891450954095309521953F4F4F4F5F4F1B
:10291000089590958095709561957F4F8F4F9F4F4B
:1029200008958F929F92AF92BF92CF92DF92EF92D3
:10293000FF92CF93DF93EC01688179818A819B813B
:10294000611571058105910521F464E279ED8BE54E
:1029500097E02DE133EF41E050E00E94721449010D
:102960005A019B01AC01A7EAB1E40E9410196B0166
:102970007C01ACEEB4EFA50194010E941E19DC01AC
:10298000CB018C0D9D1DAE1DBF1DB7FF03C0019770
:10299000A109B04888839983AA83BB839F77DF917D
:1029A000CF91FF90EF90DF90CF90BF90AF909F902E
:1029B0008F9008950E949114089580E091E00E9404
:1029C00091140895A0E0B0E080930001909301017C
:1029D000A0930201B093030108958F929F92AF924A
:1029E000BF92CF92DF92EF92FF92CF93DF93EC01F1
:1029F000688179818A819B816115710581059105C5
:102A000021F464E279ED8BE597E02DE133EF41E0CD
:102A100050E00E94721449015A019B01AC01A7EADF
:102A2000B1E40E9410196B017C01ACEEB4EFA5017A
:102A300094010E941E19DC01CB018C0D9D1DAE1D61
:102A4000BF1DB7FF03C00197A109B04888839983D0
:102A5000AA83BB83BC01CD019F77DF91CF91FF900B
:102A6000EF90DF90CF90BF90AF909F908F900895A0
:102A70008F929F92AF92BF92CF92DF92EF92FF928E
:102A80006091040170910501809106019091070108
:102A9000611571058105910521F464E279ED8BE5FD
:102AA00097E02DE133EF41E050E00E9472144901BC
:102AB0005A019B01AC01A7EAB1E40E9410196B0115
:102AC0007C01ACEEB4EFA50194010E941E19DC015B
:102AD000CB018C0D9D1DAE1DBF1DB7FF03C001971F
:102AE000A109B0488093040190930501A0930601C9
:102AF000B0930701BC01CD019F77FF90EF90DF906D
:102B0000CF90BF90AF909F908F90089560930401F5
:102B10007093050180930601909307010895CF9368
:102B2000DF93EC012B8120FF33C026FF0AC02F7BEF
:102B30002B838E819F8101969F838E838A8190E073
:102B400029C022FF0FC0E881F9818081082E000C86
:102B5000990B009719F420622B831AC03196F983E0
:102B6000E8830EC0EA85FB85099597FF09C02B8194
:102B7000019611F080E201C080E1822B8B8308C0B6
:102B80002E813F812F5F3F4F3F832E83992702C0C5
:102B90008FEF9FEFDF91CF910895A0E0B0E0E3EDDC
:102BA000F5E10C943319AE014B5F5F4FFA0161916F
:102BB0007191AF0180914304909144040E944016AA
:102BC000E2E00C944F19A0E0B0E0E9EEF5E10C94DE
:102BD0003119AE01495F5F4FDA016D917D91AD0111
:102BE00001E414E0F80182819381DC0113962C91B9
:102BF0001397286013962C930E944016D8011296C2
:102C0000ED91FC9113972381277F2383E4E00C94BB
:102C10004D1960914304709144040E94371808953F
:102C20000F931F93CF93DF93E0914304F0914404FB
:102C3000238121FF1BC08C01D0E0C0E0F80181910D
:102C40008F016091430470914404DB011896ED916B
:102C5000FC911997882331F00995892B79F3DFEFDF
:102C6000CFEFECCF8AE00995892B19F08FEF9FEF1A
:102C700002C08D2F9C2FDF91CF911F910F9108954E
:102C8000ABE0B0E0E6E4F6E10C9423196C017B01C3
:102C90008A01FC0117821682838181FFCCC1CE019B
:102CA00001963C01F6019381F70193FD859193FF15
:102CB00081917F01882309F4BAC1853239F493FDEB
:102CC000859193FF81917F01853229F4B60190E0CF
:102CD0000E943718E7CF912C212C312CFFE1F315FE
:102CE000D8F08B3279F038F4803279F08332A1F465
:102CF000232D20611DC08D3261F0803369F4232DB6
:102D0000216016C0832D8260382EE32DE4603E2EB4
:102D10002AC0F32DF8601DC037FC2DC020ED280F10
:102D20002A3040F08E32B9F436FC81C1232D206464
:102D3000322E19C036FE06C08AE0989E200D11245E
:102D4000922E11C0EAE02E9E200D1124222EF32D8A
:102D5000F0623F2E08C08C3621F4832D8068382E17
:102D600002C0883641F4F70193FD859193FF81916C
:102D70007F018111B3CF982F9F7D9554933028F414
:102D80000C5F1F4F9FE399830DC0833631F083376B
:102D900071F0833509F059C021C0F8018081898321
:102DA0000E5F1F4F88248394912C530113C0280178
:102DB000F2E04F0E511CF801A080B18036FE03C036
:102DC000692D70E002C06FEF7FEFC5010E942C18E3
:102DD0004C018201F32DFF773F2E16C0280122E01F
:102DE000420E511CF801A080B18036FE03C0692D4F
:102DF00070E002C06FEF7FEFC5010E9421184C0107
:102E0000F32DF0683F2E820133FC1BC0822D90E031
:102E100088169906B0F4B60180E290E00E94371857
:102E20002A94F4CFF50137FC859137FE81915F013B
:102E3000B60190E00E94371821102A9421E0821AEE
:102E400091088114910471F7E8C0843611F0893635
:102E500041F5F80137FE07C060817181828193815D
:102E60000C5F1F4F08C060817181072E000C880B1A
:102E7000990B0E5F1F4FF32DFF763F2E97FF09C072
:102E800090958095709561957F4F8F4F9F4FF0681B
:102E90003F2E2AE030E0A3010E947318882E861886
:102EA00045C0853731F4232D2F7EB22E2AE030E045
:102EB00025C0932D997FB92E8F36C1F018F488352F
:102EC00079F0B5C0803719F0883721F0B0C0E92F0C
:102ED000E061BE2EB4FE0DC0FB2DF460BF2E09C014
:102EE00034FE0AC0292F2660B22E06C028E030E04A
:102EF00005C020E130E002C020E132E0F801B7FE79
:102F000007C060817181828193810C5F1F4F06C071
:102F10006081718180E090E00E5F1F4FA3010E94ED
:102F20007318882E8618FB2DFF773F2E36FE0DC0B6
:102F3000232D2E7FA22E891458F434FE0BC032FCB0
:102F400009C0832D8E7EA82E05C0B82CA32C03C0EB
:102F5000B82C01C0B92CA4FE0FC0FE01E80DF11D74
:102F60008081803321F49A2D997EA92E09C0A2FE7A
:102F700006C0B394B39404C08A2D867809F0B39444
:102F8000A3FC11C0A0FE06C0B21488F4280C922C39
:102F90009B180EC0B21460F4B60180E290E00E946B
:102FA0003718B394F7CFB21418F42B1802C0982C2A
:102FB000212CA4FE10C0B60180E390E00E943718D7
:102FC000A2FE17C0A1FC03C088E790E002C088E51C
:102FD00090E0B6010CC08A2D867859F0A1FE02C09F
:102FE0008BE201C080E2A7FC8DE2B60190E00E9476
:102FF0003718891438F4B60180E390E00E9437183E
:103000009A94F7CF8A94F301E80DF11D8081B601FF
:1030100090E00E9437188110F5CF222009F442CEAB
:10302000B60180E290E00E9437182A94F6CFF601AC
:103030008681978102C08FEF9FEF2B96E2E10C947F
:103040003F19FC010590615070400110D8F7809540
:1030500090958E0F9F1F0895FC0161507040019064
:103060000110D8F7809590958E0F9F1F08950F93AC
:103070001F93CF93DF93FB01238121FD03C08FEFCB
:103080009FEF2CC022FF16C04681578124813581D5
:103090004217530744F4A081B1819D012F5F3F4F38
:1030A000318320838C93268137812F5F3F4F378375
:1030B000268314C08B01EC01FB010084F185E02D17
:1030C0000995892BE1F6D80116968D919C91179759
:1030D000019617969C938E931697CE01DF91CF9110
:1030E0001F910F910895FA01AA27283051F120313C
:1030F00081F1E8946F936E7F6E5F7F4F8F4F9F4F8C
:10310000AF4FB1E03ED0B4E03CD0670F781F891FCD
:103110009A1FA11D680F791F8A1F911DA11D6A0F9B
:10312000711D811D911DA11D20D009F468943F914E
:103130002AE0269F11243019305D3193DEF6CF014D
:103140000895462F4770405D4193B3E00FD0C9F713
:10315000F6CF462F4F70405D4A3318F0495D31FD80
:103160004052419302D0A9F7EACFB4E0A6959795D3
:10317000879577956795BA95C9F7009761057105A9
:1031800008959B01AC010A2E0694579547953795F3
:103190002795BA95C9F7620F731F841F951FA01D4D
:1031A0000895F999FECF92BD81BDF89A992780B50F
:1031B0000895A6E1B0E044E050E00C940219A8E1C3
:1031C000B0E042E050E00C940219262FF999FECFAE
:1031D0001FBA92BD81BD20BD0FB6F894FA9AF99A34
:1031E0000FBE01960895242F0E94E618252F0E94F5
:1031F000E6180C94FB180E94E518272F0C94E6188B
:10320000DC01CB01FC01F999FECF06C0F2BDE1BDA6
:10321000F89A319600B40D9241505040B8F7089595
:103220000E945A19A59F900DB49F900DA49F800DE8
:10323000911D11240895B7FF0C9410190E941019C4
:10324000821B930B08952F923F924F925F926F9241
:103250007F928F929F92AF92BF92CF92DF92EF9226
:10326000FF920F931F93CF93DF93CDB7DEB7CA1BA7
:10327000DB0B0FB6F894DEBF0FBECDBF09942A88D2
:10328000398848885F846E847D848C849B84AA847A
:10329000B984C884DF80EE80FD800C811B81AA8107
:1032A000B981CE0FD11D0FB6F894DEBF0FBECDBFD2
:1032B000ED010895A29FB001B39FC001A39F700DBF
:1032C000811D1124911DB29F700D811D1124911D2E
:0632D0000895F894FFCF01
:1032D6000100000001000000FFFF5802B0040F00CB
:1032E60000000300000000190E510E00003F065BAF
:1032F6004F666D7D077F6F00065B4F666D7D077FAE
:103306006F017772617070656420736E616B652002
:1033160000783A20257520793A202575200A007311
:103326007472616967687420536E616B652000462C
:1033360031203A2575200A004632203A2575200AA2
:103346000046333A2575200A004634203A25752072
:103356000A005331203A2575200A005231203A25B9
:1033660075200A0047616D65205370656564203AD3
:103376002575200A00472053636F7265203A256938
:10338600200A00536E616B65204C656E6774682079
:103396003A2575200A00536E616B65207461696C6D
:1033A600203A2575200A00472074696D65203A2564
:1033B60069200A00596F7527766520736574206148
:1033C60020686967682073636F72652E20706C656C
:1033D6006173652073657420796F757220696E69F3
:1033E6007469616C2062656C6F773A200046697279
:1033F60073743A202563256325632025640053658D
:10340600636F6E643A202563256325632025640077
:1034160054686972643A2025632563256320256410
:1034260000466F75723A202563256325632025645F
:10343600200A00466976653A2025632563256320C0
:103446002564005468657265204172652043757273
:1034560072656E746C79204E6F2048696768536395
:103466006F72657300534E414B45204279203434C8
:103476003335343336390053636F72653A20257518
:1034860000536E616B650053636F72653A203000BE
:00000001FF
