:100000000C94F3000C9410010C9410010C9410014A
:100010000C9410010C9450010C9410010C941001DC
:100020000C9410010C9410010C9410010C9410010C
:100030000C9410010C9410010C9410010C941001FC
:100040000C94DE110C9410010C9410010C9410010E
:100050000C945C0E0C941A0E0C9410010C9410016C
:100060000C9410010C9410010C9410010C941001CC
:100070000C9410010C9410010C94100123232348BC
:100080004947482053434F5245532323230050727E
:10009000657373206120627574746F6E20746F20B5
:1000A000737461727420616761696E0047414D45E8
:1000B000204F5645520021011E011A01160112015E
:1000C0000E010A0106010201FE0090018C01880167
:1000D000840180017C017801740171016D01690165
:1000E000650160015C01580154014F014B0147015A
:1000F00042013E01390134012F012A012501649298
:10010000927D6C92926D809EA0C17C92924DE4A2F1
:10011000A29D182848FF4492926D468A926342FE3F
:10012000037C92A27D868A92A2C3E0100E10E1C6E3
:10013000281028C7FC021C02FDF8040204F9FC0286
:1001400002FD8080FE80816492924DFE9098677CD3
:10015000828A7C03FE9090617C82827DFE2010FF6B
:10016000FE403040FFFE020203FE1028C7040202D8
:10017000FD82FE83FE1010FF7C82925DFE909081D6
:10018000FE929283FE82827D7C828245FE92926DF7
:100190007E90907F43535345323031302F37323089
:1001A0003120536E616B652050726F6A65637420F5
:1001B0006279204A61636B20456164696500536E12
:1001C000616B65001B5B3F323568001B5B3F32355E
:1001D0006C001B5B25646D001B5B324A001B5B25BA
:1001E000643B2564480011241FBECFEFD8E0DEBF7A
:1001F000CDBF12E0A0E0B1E0E0E0F1E302C0059085
:100200000D92A833B107D9F723E0A8E3B2E001C00B
:100210001D92A83BB207E1F70E942F0B0C947E18A9
:100220000C940000E8E6F0E0808182608083D99A37
:10023000ECE6F0E080818F608083109238020895B0
:100240001092380208958091380218163CF580917A
:1002500039026FB7F894909138029230B4F021E0EF
:1002600030E091E0F901E75CFD4F4081F901E85C85
:10027000FD4F40839F5F292F30E040913802042ECC
:10028000000C550B241735076CF3909138029150F0
:100290009093380266231CF4789408958FEF0895A4
:1002A0001F920F920FB60F9211242F933F934F93EB
:1002B0005F936F937F938F939F93EF93FF9343B1DC
:1002C0004F7080913802883064F580E090E0642FB0
:1002D00070E09B01082E02C0359527950A94E2F73D
:1002E00020FF1BC02091410230E0082E02C035954E
:1002F00027950A94E2F720FD10C0E091380221E032
:100300002E0F209338020E2E000CFF0BE75CFD4FE2
:10031000808320913802283024F40196843091059E
:10032000C1F640934102FF91EF919F918F917F9190
:100330006F915F914F913F912F910F900FBE0F9052
:100340001F9018950895CF92DF92EF92FF920F932E
:100350001F930E94C81140914202509143026A01CA
:10036000550FEE08FF080091870210918802209136
:10037000890230918A02C00ED11EE21EF31E21E0D6
:1003800030E06C157D058E059F0510F020E030E013
:10039000C9011F910F91FF90EF90DF90CF900895CA
:1003A000E0918402EF5FE0938402A0918502B09116
:1003B0008602F0E0EE0FFF1F8D919C91E80FF91F70
:1003C000808191810E9430120E94C811609387023F
:1003D000709388028093890290938A02A09185028B
:1003E000B0918602E0918402F0E0EE0FFF1F1296BA
:1003F0008D919C911397E80FF91F808191819093C3
:1004000043028093420208955598109286021092FA
:10041000850208958DE091E0909386028093850295
:100420008FEF809384020E94D0010E9435120895BC
:1004300088E091E090938602809385028FEF80930D
:1004400084020E94D0010E943512089520918402F6
:1004500030E02F5F3F4FE0918502F09186024481AA
:1004600050E081E090E02417350714F480E090E03C
:1004700008950E94A301892B39F40E942602892B3A
:1004800019F00E94040208950E94A301892B11F41F
:100490000E94D001089580E891E00E94FA1721E0BF
:1004A000611572418105910509F020E0822F0895C0
:1004B000DF92EF92FF920F931F93CF93DF93CDB70D
:1004C000DEB762970FB6F894DEBF0FBECDBFF894CB
:1004D00040E052E160E070E080E891E00E9418188E
:1004E00080E00E947907898381E00E9479078A83EE
:1004F00082E00E9479078B8383E00E9479078C83D6
:100500000E944B0B8E830E947E0C69877A878B87B3
:100510009C870E945F0898878F830E94E70E8D87D3
:100520000E94C811092E000CAA0BBB0B8E879F8757
:10053000A88BB98B0E94050F8A8B0E9446108823D6
:1005400021F00E9490108D8302C088E08D8342E1EB
:1005500050E060EA71E0CE0101960E9400180E940E
:10056000020F182F0E94FF0E811708F043C00E944F
:10057000020FD82E082F10E0013211051CF50F2EA6
:10058000F0E3EF2EF2E0FF2EF02D802F0E94EA0E16
:10059000682FC7010E940A1888E0E80EF11C0F5F5F
:1005A0001F4F0132110589F70D2D10E011950195AE
:1005B0001109000F111F000F111F000F111F085C00
:1005C0001C4F02C000E312E0E12CF12C0CC08E2D78
:1005D0000E94EA0E682FC8010E940A18085F1F4F88
:1005E0008FEFE81AF80A0E94FF0E90E08E159F0523
:1005F00074F719C00E94020FE82EF12C00E312E0FC
:100600000CC08E2D0E94EA0E682FC8010E940A18A5
:10061000085F1F4F8FEFE81AF80A0E94FF0E90E064
:100620008E159F0574F768E0C8010E940A18789437
:1006300062960FB6F894DEBF0FBECDBFDF91CF91AB
:100640001F910F91FF90EF90DF900895CF93C82FE7
:100650000E945309882399F0E09190020E2E000C1D
:10066000FF0BEF56FD4FC08363E370E08C2F90E0EB
:100670000E949907809190028F5F80939002CF91A2
:100680000895CF93C82F0E945309882321F08C2FFF
:100690000E944E0B02C00E94EB0BCF910895CF93A6
:1006A000C82F0E945309882321F08C2F0E944010EC
:1006B00002C00E946F10CF9108950F931F93CF93A4
:1006C000DF9380E00E94FC0E0E94E70E81500E94A2
:1006D000F90E10E0C0E3D2E0CE010E94F217082F1D
:1006E000612F0E94F30E60EF70E0802F90E00E9477
:1006F000990728961F5FCE010E94F2170E945309A6
:100700008111EACF0E94D00E6FE070E090E00E946D
:100710009907DF91CF911F910F910895CF93DF93A8
:10072000CDB7DEB762970FB6F894DEBF0FBECDBF70
:100730000E944B02882309F448C00E9423110E94A2
:100740004A090E946C1142E150E060EA71E0CE017A
:1007500001960E94E21769857A858B859C850E94A7
:10076000870C6E857F85888999890E94D3110E94A4
:1007700087118F8198850E9464088E8190E00E9485
:1007800041030E941912898190E00E9426038A8108
:1007900090E00E9426038B8190E00E9426038C81CA
:1007A00090E00E9426038D8190E00E944F038D858A
:1007B0000E94F00E8A890E94D90E0E945D030E9459
:1007C00020010E94150E1092480262960FB6F8940E
:1007D000DEBF0FBECDBFDF91CF9108950F931F9362
:1007E000CF93DF93CDB7DEB727970FB6F894DEBF70
:1007F0000FBECDBF8C0147E050E0BC01CE01019699
:100800000E94E217B801605C7F4F47E050E0CE01E4
:1008100001960E94001827960FB6F894DEBF0FBE0F
:10082000CDBFDF91CF911F910F91089580E091E0AE
:100830000E94EE0308950E94160480EC90E00E944E
:10084000EE0308950E941B0480E890E00E94EE03EE
:1008500008950E94220480E490E00E94EE0308952F
:10086000CF93DF93CDB7DEB727970FB6F894DEBFEF
:100870000FBECDBF44E352E160E070E080E090E065
:100880000E94181880E289838A838B831C821D82D0
:100890001E821F8247E050E060E470E0CE010196C6
:1008A0000E94001847E050E060E870E0CE01019639
:1008B0000E94001847E050E060EC70E0CE01019625
:1008C0000E94001847E050E060E071E0CE01019620
:1008D0000E94001847E050E060E471E0CE0101960C
:1008E0000E94001827960FB6F894DEBF0FBECDBF4A
:1008F000DF91CF91089580E090E00E94FA1721E007
:1009000030E0643372418105910511F020E030E060
:10091000C9010895CF92DF92EF92FF92CF93DF93B8
:10092000CDB7DEB727970FB6F894DEBF0FBECDBFA9
:100930000E947E0C6B017C0147E050E060E471E0B6
:10094000CE0101960E94E2178C819D81AE81BF810C
:10095000C816D906EA06FB0640F40E947B0421E093
:10096000892B09F020E0822F01C081E027960FB685
:10097000F894DEBF0FBECDBFDF91CF91FF90EF9017
:10098000DF90CF900895CF92DF92EF92FF92CF93B6
:10099000DF93CDB7DEB727970FB6F894DEBF0FBE53
:1009A000CDBF0E947B04892B09F45BC00E947E0CA2
:1009B0006B017C0147E050E060E470E0CE010196FD
:1009C0000E94E2178C819D81AE81BF818C159D05AF
:1009D000AE05BF0508F448C047E050E060E870E0AD
:1009E000CE0101960E94E2178C819D81AE81BF816C
:1009F0008C159D05AE05BF05D0F147E050E060ECD9
:100A000070E0CE0101960E94E2178C819D81AE813B
:100A1000BF818C159D05AE05BF0560F147E050E034
:100A200060E071E0CE0101960E94E2178C819D8109
:100A3000AE81BF818C159D05AE05BF05F0F047E086
:100A400050E060E471E0CE0101960E94E2178C81D3
:100A50009D81AE81BF818C159D05AE05BF0580F0DF
:100A600011C080E490E00EC080E490E00BC080E80C
:100A700090E008C080EC90E005C080E091E002C00A
:100A800080E491E027960FB6F894DEBF0FBECDBF8D
:100A9000DF91CF91FF90EF90DF90CF9008950F936B
:100AA0001F93CF93DF93CDB7DEB727970FB6F89498
:100AB000DEBF0FBECDBF44E352E160E070E080E0F6
:100AC00090E00E9418180E94C3048C0180389105A0
:100AD00091F020F48034910589F012C0803C91059A
:100AE00039F0011581E0180759F40E94160408C076
:100AF0000E941B0405C00E94220402C00E94290417
:100B0000E4E4F2E08081898381818A8382818B831E
:100B10000E947E0C6C837D838E839F8347E050E030
:100B2000B801CE0101960E9400180E942311279659
:100B30000FB6F894DEBF0FBECDBFDF91CF911F91EE
:100B40000F910895EF92FF920F931F93CF93DF932E
:100B500068E08AE00E940A1186E491E09F938F93F7
:100B60000E94DE140F900F9000E010E00F2EF2EBC9
:100B7000EF2EF3E0FF2EF02D0E9442110E940E0E88
:100B80008823D1F3F701808191810E94A014EC01A8
:100B9000982F91549A3398F40330110584F469E046
:100BA0008AE0800F0E940A11F801EC5BFD4FC083C0
:100BB000CE0199270E941A150F5F1F4FDDCF8A3093
:100BC00021F402301105C4F211C08F37A9F680E27A
:100BD00090E00E941A151016110614F40150110924
:100BE00069E08AE0800F0E940A11C6CFF999FECF12
:100BF0000E944F05E4E4F2E080E2808381838283F7
:100C0000DF91CF911F910F91FF90EF900895CF93B7
:100C1000DF93CDB7DEB727970FB6F894DEBF0FBED0
:100C2000CDBF6BE08AE00E940A118CE790E09F93B1
:100C30008F930E94F4146DE08AE00E940A110E94D2
:100C40007B040F900F90892B09F4B6C047E050E069
:100C500060E470E0CE0101960E94E2178F818F93CD
:100C60008E818F938D818F938C818F938B811F9237
:100C70008F938A811F928F9389811F928F938FE721
:100C800091E09F938F930E94DE146EE08AE00E94B1
:100C90000A1147E050E060E870E0CE0101960E9442
:100CA000E2178F818F938E818F938D818F938C81AB
:100CB0008F938B811F928F938A811F928F9389814B
:100CC0001F928F9380E991E09F938F930E94DE148F
:100CD0006FE08AE00E940A1147E050E060EC70E0AB
:100CE000CE0101960E94E2178F818F938E818F93A0
:100CF0008D818F938C818F938B811F928F938A81AB
:100D00001F928F9389811F928F9382EA91E09F9324
:100D10008F930E94DE140FB6F894DEBF0FBECDBFD6
:100D200060E18AE00E940A1147E050E060E071E073
:100D3000CE0101960E94E2178F818F938E818F934F
:100D40008D818F938C818F938B811F928F938A815A
:100D50001F928F9389811F928F9383EB91E09F93D2
:100D60008F930E94DE1461E18AE00E940A1147E03D
:100D700050E060E471E0CE0101960E94E2178F819D
:100D80008F938E818F938D818F938C818F938B81A5
:100D90001F928F938A811F928F9389811F928F93C5
:100DA00085EC91E09F938F930E94DE140FB6F89428
:100DB000DEBF0FBECDBF0AC00E94300486ED91E0B9
:100DC0009F938F930E94DE140F900F9027960FB67B
:100DD000F894DEBF0FBECDBFDF91CF910895109282
:100DE0009002089530919002131684F4909191022C
:100DF000891771F0E2E9F2E090E003C02191281731
:100E000049F09F5F3913FACF8FEF08958FEF089560
:100E100080E00895892F08950E94F20691E08F3FA7
:100E200009F490E0892F0895FF920F931F93CF93B9
:100E3000DF938091900288300CF044C000E010E015
:100E4000D0E0C0E002C00F5F1F4F2C2FCC0F330B40
:100E50002D5F3F4F200F311F2F703078332334F434
:100E600021503109206F3F6F2F5F3F4F822FC22FDC
:100E70006D2FDD0F770B6B5F7F4F67707078772377
:100E800034F461507109686F7F6F6F5F7F4FD62FA9
:100E90000E945909F82E03361105B1F00E943D0F4A
:100EA0008111D1CF8F2D0E940C078111CCCF8F2DB6
:100EB0000E9493108111C7CF8F2D0E94E40B8111E6
:100EC000C2CF04C088E00FC088E00DC080919002BE
:100ED000E82F082E000CFF0BEF56FD4FF0828F5FBE
:100EE000809390028F2DDF91CF911F910F91FF90F2
:100EF0000895E82F880FFF0BEF56FD4F808108956E
:100F00008823B4F020919002821794F48F5F8217A7
:100F100064F4E82F082E000CFF0BEF56FD4F908174
:100F2000319790838F5F8217A4F321502093900212
:100F300008951F93CF93DF93C82F162F0E94510956
:100F4000D82F8C2F0E944E09412F6D2F0E94070928
:100F5000DF91CF911F910895CF93DF930E944A09AB
:100F60000E946C1188E592E090932F0180932E01EE
:100F70000E94EB0B0E940A020E94AF0E0E94D00E4C
:100F80006FE00E9499070E94DE0E60EF0E949907B1
:100F90000E94EF06C3E00E941407D82F0E94530955
:100FA000882321F063E38D2F0E949907C15099F7A0
:100FB000DF91CF91089580912E0190912F018B3F69
:100FC0009105A4F060912E0170912F0180E090E0D6
:100FD0000E94661226E636E646E65FE30E94F412B9
:100FE0000E94371270932F0160932E0108950F9382
:100FF0001F93CF93DF930E94D00ED82F0E94600FD3
:10100000C82F88230CF455C081E090E00E94690C41
:101010000E94D00E182F8EEF8C0F8230C0F4812FDB
:101020000E94F2060E9480070E94180282E090E06F
:101030000E94690C0E94DB070E941407082F0E947F
:101040005309882321F063E3802F0E9499078CEFD6
:101050008C0F823050F40E94871089E090E00E944B
:10106000690C0E94DB070E9418028AEF8C0F823005
:1010700050F40E94EB0B84E090E00E94690C0E9407
:10108000DB070E941802CD7FC13011F0C53029F472
:101090000E94080F60E00E94990760EF8D2F0E9468
:1010A00099076FE0812F0E9499070E94871181E0C4
:1010B00001C080E0DF91CF911F910F910895809141
:1010C0002E0190912F01089590932F0180932E016E
:1010D000089540E060E07BE480E090E00E94C70D6E
:1010E000789480E480937C0086E880937A0088EF8F
:1010F00091E00E942115089580914702811106C058
:10110000ECE7F0E080818E7F808305C0ECE7F0E0C3
:10111000808181608083EAE7F0E080818064808361
:10112000808186FDFDCF2091780030917900309349
:101130009A02209399028091470291E09827909318
:101140004702C90108950F931F93CF93DF938091B6
:101150004702882399F00E947C0820913001309149
:101160003101EC01C21BD30B0E947C08209130019D
:10117000309131018C01021B130B12C00E947C08BC
:1011800020913001309131018C01021B130B0E9420
:101190007C082091300130913101EC01C21BD30B4E
:1011A0009E01DD2324F4222733272C1B3D0BC8018D
:1011B000112324F488279927801B910B821793070A
:1011C00064F440913201509133014217530728F4DF
:1011D0001C161D0674F082E011C02091320130917E
:1011E00033012817390738F41016110634F083E05C
:1011F00005C080E003C08FEF01C081E0DF91CF9197
:101200001F910F91089580E80E94121008951F9376
:10121000CF93DF938031B0F46830A0F4142FC62F41
:10122000D82F81E00E943A106C2F677080E1689F90
:10123000900111248D2F8F70822B0E943A10812FE4
:101240000E943A10DF91CF911F9108950F931F9341
:10125000CF93DF93803190F48B01C82F83E00E94FD
:101260003A108C2F8F700E943A10E801085F1F4FD0
:1012700089910E943A10C017D107D1F7DF91CF9121
:101280001F910F91089584E00E943A1082E00E941D
:101290003A1008958FE00E943A10089582958F7059
:1012A00008958F70089583FB882780F991E089273E
:1012B000089520E1829FC00111246770862B089554
:1012C0000E9403090E9469080E94120140E060E048
:1012D0007BE480E090E00E94C70D0E94A01178940A
:1012E0000895FF920F931F93CF93DF9380E00E94A6
:1012F0002C110E9423110E9439110E944B110E944F
:101300004A09CFE00F2EFFE0FF2EF02D0FEF10EF78
:10131000D5E16C2F81E092E00E94900C0DC02FE788
:101320008CE293E0215080409040E1F700C0000043
:101330000E9423018F3FA9F50E949F0C8111EFCFDE
:101340000E944914DC01CB0183709927AA27B07849
:10135000BB2354F40197A109B1098C6F9F6FAF6F44
:10136000BF6F0196A11DB11D81309105A105B10589
:1013700091F02CF4892B8A2B8B2B59F0CACF823019
:101380009105A105B10549F00397A105B10539F013
:10139000C0CFCD2FBECFCF2DBCCFC02FBACFC12F46
:1013A000B8CFDF91CF911F910F91FF9008950E94C8
:1013B00023110E94AC070E94600C0E9420010E9431
:1013C000150E08954F925F927F928F929F92AF92E7
:1013D000BF92CF92DF92EF92FF920F931F93CF9322
:1013E000DF930E94C8114B015C0100E01FEF0F2E3C
:1013F000FFED7F2EF02D0F2EF2EB4F2EF3E05F2E40
:10140000F02D0E94491081110E94A0100E945F10CF
:1014100081110E946F100E944E0C81110E946E0B70
:101420000E9439020E94BF11892B19F00E942001ED
:1014300006C00E942301D82F8F3F09F09AC00E9456
:101440000E0E882309F4A4C0F201808191810E94CC
:10145000A014C82F011103C08B3151F496C0013084
:1014600019F48B3529F493C0023009F488C07BC08D
:101470000E94BF11892B09F03FC008C0D11109C0DB
:1014800001C000E081E00E941F0F50C000E0D12F9A
:1014900001C0C12FD23019F0812F813421F480E0B6
:1014A0000E941F0F43C0D33011F0843421F483E035
:1014B0000E941F0F3BC0D13011F0823429F482E02A
:1014C0000E941F0F33C000E08C2F8F7D803519F4F0
:1014D0000E94B8112BC0C33719F40E94580226C0CD
:1014E0000E944B02882311F18C2F8F7D8F34F1F4F1
:1014F00081E08093480262C08C2F8F7D803521F47B
:101500000E94B81100E012C000E0833519F40E9477
:1015100058020CC00E944B02882341F08C2F8F7D13
:101520008F3421F481E08093480248C00E94C811A2
:101530006B017C010E945F08092E000CAA0BBB0BFB
:10154000880D991DAA1DBB1DC816D906EA06FB0603
:1015500008F457CF0E94F707882381F10E94C81131
:101560004B015C014ECF0E94BF11892B09F4ABCF18
:10157000C3CF0E94BF11892B09F480CF1CC00E94E9
:10158000BF11892B51F000E013C001E001C002E05F
:101590000E94BF11892B61F408C0C33409F471CFD4
:1015A0008C2F00E0C12FD12F78CF0E944B02BECFED
:1015B000C12F872DAACF0E944B02B8CFDF91CF91C8
:1015C0001F910F91FF90EF90DF90CF90BF90AF9061
:1015D0009F908F907F905F904F9008950E9423116D
:1015E00065E08AE00E940A118CEA90E09F938F9355
:1015F0000E94F41467E08AE00E940A110E947E0CA7
:101600009F938F937F936F9383E192E09F938F9348
:101610000E94DE140E9407060E948A042DB73EB77E
:10162000285F3F4F0FB6F8943EBF0FBE2DBF81110C
:101630000E94A20569E08AE00E940A118EE890E00B
:101640009F938F930E94F4140E9407060F900F90AF
:101650000E9423018F3FE1F30E94231108950E940D
:1016600060098FEF87B9529A53980E9419120E940D
:10167000710980914802882319F00E948E0302C0EC
:101680000E94D7090E94E209809148028111F1CF9E
:101690000E94EE0AEECF80919B020895CF93DF93D4
:1016A000C82F80919B020E945109D82F80919B02E4
:1016B0000E944E0940E06D2F0E940709C0939B02D3
:1016C0008C2F0E945109D82F8C2F0E944E0943E382
:1016D0006D2F0E940709DF91CF9108951F93CF933B
:1016E000DF9360E080E00E945909182F0E94EE13FA
:1016F00083709078992324F401978C6F9F6F0196E3
:10170000C82FD0E0C130A9F028F0C23009F1C330B1
:1017100071F13BC080919B020E945109182F80916A
:101720009B020E944E0961E0610F0E945909182F27
:101730002CC080919B020E945109182F80919B021E
:101740000E944E096FEF610F0E945909182F1DC0AA
:1017500080919B020E945109182F80919B020E9448
:101760004E09612F8F5F0E945909182F0EC080917A
:101770009B020E945109182F80919B020E944E09E2
:10178000612F81500E945909182FDF5F8C2F90E044
:10179000019683709078992324F401978C6F9F6F42
:1017A0000196C82F812F0E943D0F882321F0D4304D
:1017B00009F0A8CF02C0D53018F4812F0E944E0B3B
:1017C000DF91CF911F91089591E020919B02281302
:1017D00090E0892F08951F93CF93DF930E94EE131B
:1017E000EC010E94EE13BC0167707078772334F42B
:1017F00061507109686F7F6F6F5F7F4FCE018F708F
:101800009078992324F40197806F9F6F01960E942E
:101810005909C82F13E61EC00E94EE13EC010E9466
:10182000EE13BC0167707078772334F4615071094E
:10183000686F7F6F6F5F7F4FCE018F7090789923B5
:1018400024F40197806F9F6F01960E945909C82F59
:10185000115091F08C2F0E943D0F8111DDCF8C2F04
:101860000E940C078111D8CF0E9490108C17A1F212
:1018700080919B028C1781F2C0939B028C2F0E9457
:101880005109C82F80919B020E944E0943E36C2F9F
:101890000E940709DF91CF911F9108950E94C811FE
:1018A000209134013091350140E050E00E946113F5
:1018B00021E0672B682B692B09F020E0822F089527
:1018C0001092490210924A0210924B0210924C025E
:1018D00008954091490250914A0260914B027091E3
:1018E0004C02480F591F611D711D409349025093CE
:1018F0004A0260934B0270934C0208956091490232
:1019000070914A0280914B0290914C02089560932D
:10191000490270934A0280934B0290934C020895BF
:1019200060933601909351028093500210925302BB
:101930001092520210924F0210924E0208950F938D
:101940001F93CF93DF93CDB7DEB728970FB6F894E8
:10195000DEBF0FBECDBFE0915202F091530230972F
:1019600081F0149110FF06C010925302109252029F
:1019700000E06BC03196F0935302E093520200E016
:1019800064C0E0914E02F0914F02309709F449C0D3
:10199000CF01019690934F0280934E02E081E111B6
:1019A0000AC010924F0210924E0280E180934D02C5
:1019B00000E010E04AC08FE98E0F8A3170F4F0E049
:1019C000EE0FFF1FE85FFF4F8591949190935302B4
:1019D0008093520200E010E038C08FEB8E0F8A3106
:1019E00070F4F0E0EE0FFF1FE85BFF4F85919491DC
:1019F000909353028093520200E010E026C080EDE5
:101A00008E0F8A3000F5F0E0EE0FFF1FEA5AFF4F0D
:101A100085919491909353028093520200E010E0DC
:101A200014C0809150029091510201E0009709F09A
:101A300000E090934F0280934E0210925102109258
:101A4000500210E002C000E010E00E944309209123
:101A50003601FE013896CE010196112314F420833D
:101A600001C01082110F3197E817F907B1F71982F9
:101A7000BE016F5F7F4F8FE00E94260980914D026B
:101A8000882389F0815080934D02002311F0882330
:101A900011F090E003C091E001C091E081E0992352
:101AA00029F080E003C00023A1F3F7CF28960FB6FA
:101AB000F894DEBF0FBECDBFDF91CF911F910F9184
:101AC0000895CF93C82F8A3019F48DE00E94610DDC
:101AD0009FB7907802C0992329F180919D028F3F92
:101AE000D1F3F894E0919C0281E08E0F80939C02E8
:101AF000F0E0E256FD4FC08380919D028F5F80939E
:101B00009D0280919C028F3F11F410929C02E1ECA7
:101B1000F0E0808180628083992339F0789480E0BE
:101B200090E005C081E090E002C080E090E0CF91BD
:101B300008958091AF038823E1F32FB72078F894BC
:101B400080919D033091AF0390E0831B91095AF47B
:101B5000E0919D038091AF03F0E0E81BF109E255AD
:101B6000FC4F80810AC0E0919D038091AF03F0E0BB
:101B7000E81BF109E256FC4F80819091AF03915030
:101B80009093AF03222309F0789490E00895109287
:101B90009C0210929D0210929D031092AF0310922E
:101BA000AE0340935402DC01CB01880F991FAA1F9A
:101BB000BB1F880F991FAA1FBB1F9C01AD01220FDD
:101BC000331F441F551F60E072E18AE790E00E94D6
:101BD0008313BA01A9014F5F5F4F6F4F7F4FDB0146
:101BE000CA011AF40196A11DB11DB595A795979547
:101BF000879501979093C5008093C400E1ECF0E0D5
:101C000088E18083808180688083E2EBF3E087E372
:101C100091E0938382839183808308959091AF03B1
:101C200081E0911101C080E0089510929D0310920F
:101C3000AF0308951F920F920FB60F9211242F93A6
:101C40008F939F93EF93FF9380919D02882329F1B7
:101C500080919C0220919D0290E0821B91095AF490
:101C6000E0919C0280919D02F0E0E81BF109E356AF
:101C7000FC4F90810AC0E0919C0280919D02F0E0AF
:101C8000E81BF109E256FD4F908180919D02815041
:101C900080939D029093C60005C0E1ECF0E0808146
:101CA0008F7D8083FF91EF919F918F912F910F9066
:101CB0000FBE0F901F9018951F920F920FB60F92A4
:101CC00011242F933F934F935F936F937F938F9341
:101CD0009F93AF93BF93CF93EF93FF93C091C600B1
:101CE00080915402882349F080919D028F3F29F012
:101CF00060E070E08C2F0E94610D8091AF03803115
:101D000020F081E08093AE0318C0CD3009F4CAE022
:101D1000E0919D0381E08E0F80939D03F0E0E256F9
:101D2000FC4FC0838091AF038F5F8093AF0380919E
:101D30009D03803111F410929D03FF91EF91CF919B
:101D4000BF91AF919F918F917F916F915F914F91D3
:101D50003F912F910F900FBE0F901F9018950F93EA
:101D60001F93CF9382E08093590210925702C1E0F3
:101D7000C093580261E081E00E9459090AE512E02F
:101D8000F801808361E082E00E945909F8018183B3
:101D9000C0935602C0935502CF911F910F910895A1
:101DA000E09158020E2E000CFF0BE65AFD4F808189
:101DB000089580935602809355020895E09157024A
:101DC0000E2E000CFF0BE65AFD4F80810895809186
:101DD00059020895E82FF0E0E65AFD4F80810895FA
:101DE000809359020895E62FF0E0E65AFD4F808374
:101DF0000895809358020895809357020895809122
:101E000058020895809157020895809156020895CE
:101E100090915702E92F092E000CFF0BE65AFD4F57
:101E200080819F5F913219F09093570202C0109207
:101E300057029091590291509093590208959091B0
:101E400056029130A9F028F0923041F0933059F0C9
:101E50000895823089F0809355020895882361F0B7
:101E6000809355020895813039F08093550208958A
:101E7000833011F08093550208959091570230916C
:101E8000580240E00DC0E92F092E000CFF0BE65A66
:101E9000FD4F2081281789F09F5F91320CF0942F1D
:101EA0009313F1CFE32F330FFF0BE65AFD4F91E071
:101EB0002081281719F090E001C091E0892F089542
:101EC0000F931F93CF93DF9380915902813208F0D3
:101ED00099C0E09158020E2E000CFF0BE65AFD4F00
:101EE00080810E944E09182FC82FE09158020E2EB3
:101EF000000CFF0BE65AFD4F80810E945109082F0C
:101F0000D82F0E94A3088F3F21F00E94A3080E94AF
:101F10001F0F80915502813059F028F0823069F00E
:101F2000833081F01BC0D73091F0D1E0D00F16C0C4
:101F3000CF3079F0C1E0C10F11C0DD2361F0DFEFD8
:101F4000D00F0CC0CC2349F0CFEFC10F07C0D0E0B9
:101F500005C0C0E003C0D7E001C0CFE06D2F8C2FDB
:101F60000E945909C82F80915502909156029813EA
:101F7000809356028C2F0E943D0F882351F0E091F0
:101F800057020E2E000CFF0BE65AFD4F8081C8133E
:101F90003BC0809158028F5F813219F080935802C4
:101FA00002C010925802E09158020E2E000CFF0B56
:101FB000E65AFD4FC083809159028F5F809359028A
:101FC0008C2F90E00E94E40B892B31F08091590214
:101FD0008132E0F087E021C08C2F0E94931088238B
:101FE00031F080915902813298F085E016C08C2F33
:101FF0000E940C07882371F080915902813260F0B1
:1020000083E00BC08DEF09C08EEF07C086E005C0EE
:1020100084E003C081E001C082E0DF91CF911F9195
:102020000F91089594B1906B94B92C9A90E59CBD52
:10203000883021F0803211F0823019F491E09DBD9A
:1020400001C01DBC803269F028F4883071F0803105
:1020500061F00EC0803429F0803851F48CB5816075
:102060008CBD8CB582608CBD03C08CB581608CBD8D
:102070002C9808958EBD0DB407FEFDCF8EB5089542
:102080008093B00381E08093B10308958091B10300
:1020900008950E94C81168597A438109910920E284
:1020A0003EE440E050E00E946113672B682B692BEF
:1020B00021F40E94C81181E0089580E008950E94F3
:1020C000C81120E23EE440E050E00E94611321E0AC
:1020D000672B682B692B09F020E0822F0895CF939E
:1020E0008091B0030E945109C82F8091B0030E94D3
:1020F0004E0940E06C2F0E94070960E080E00E94DA
:1021000059098093B0031092B103CF91089560E014
:1021100080E00E9459098093B0031092B1030895A2
:102120008091B00308959091B103992339F091E023
:102130002091B003281390E0892F089580E008953E
:102140001F93CF93DF930E946F100E94EE13EC0158
:102150000E94EE13BC0167707078772334F46150ED
:102160007109686F7F6F6F5F7F4FCE018F709078BE
:10217000992324F40197806F9F6F01960E9459095B
:10218000C82F13E61EC00E94EE13EC010E94EE134E
:10219000BC0167707078772334F461507109686FFF
:1021A0007F6F6F5F7F4FCE018F709078992324F4FB
:1021B0000197806F9F6F01960E945909C82F115097
:1021C000A1F08C2F0E943D0F8111DDCF8C2F0E943A
:1021D0000C078111D8CF8C2F0E9493108111D3CF7F
:1021E0008C2F0E94E40B8111CECFC093B0038C2FB3
:1021F0000E945109C82F8091B0030E944E094CE300
:102200006C2F0E94070981E08093B103DF91CF9189
:102210001F910895282F082E000C330B3F938F93A6
:10222000862F062E000C990B9F936F938DED91E0F6
:102230009F938F930E94F4140F900F900F900F9024
:102240000F900F90089588ED91E09F938F930E94D7
:10225000F4140F900F9008951F928F9382ED91E0E8
:102260009F938F930E94F4140F900F900F900F90F4
:1022700008958BEC91E09F938F930E94F4140F903C
:102280000F90089584EC91E09F938F930E94F41433
:102290000F900F90089563E083E00E940A118EEB87
:1022A00091E09F938F930E94F41465E083E00E9475
:1022B0000A1180E20E942C1184E991E09F938F9390
:1022C0000E94F41485E20E942C110E9407060F90D0
:1022D0000F900F900F9008950E94391161E08AE0ED
:1022E0000E940A118EE192E09F938F930E94DE1468
:1022F00063E081E00E940A1184E292E09F938F9351
:102300000E94DE140F900F900F900F9008950E947E
:10231000391163E081E00E940A110E947E0C9F93B4
:102320008F937F936F938DE292E09F938F930E94A0
:10233000DE140F900F900F900F900F900F90089554
:1023400010927B0210927C0210927D0210927E020B
:1023500016BC8CE787BD82E084BD83E085BDEEE6D8
:10236000F0E080818260808385B3827085BB0895B0
:102370009091450181E0891B80934501089520914A
:10238000450181E090E0222311F080E090E0089583
:10239000F89460917B0270917C0280917D02909113
:1023A0007E0278940895F89460937B0270937C0287
:1023B00080937D0290937E02789408951F920F92ED
:1023C0000FB60F9211242F933F934F935F936F9308
:1023D0007F938F939F93AF93BF93EF93FF938091DE
:1023E0004501882399F080917B0290917C02A09115
:1023F0007D02B0917E020196A11DB11D80937B02EA
:1024000090937C02A0937D02B0937E020E943902D9
:10241000FF91EF91BF91AF919F918F917F916F91BC
:102420005F914F913F912F910F900FBE0F901F9092
:1024300018951092850010928400E1E8F0E0808108
:102440008A60808380E48093800088EE93E090939C
:10245000890080938800559853980E94A20108959E
:1024600090938900809388000895559A08950E945A
:10247000D31288F09F5798F0B92F9927B751B0F031
:10248000E1F0660F771F881F991F1AF0BA95C9F7F8
:1024900014C0B13091F00E94ED12B1E008950C9497
:1024A000ED12672F782F8827B85F39F0B93FCCF34A
:1024B000869577956795B395D9F73EF49095809575
:1024C000709561957F4F8F4F9F4F0895E89409C095
:1024D00097FB3EF490958095709561957F4F8F4F57
:1024E0009F4F9923A9F0F92F96E9BB279395F6956D
:1024F000879577956795B795F111F8CFFAF4BB0FEB
:1025000011F460FF1BC06F5F7F4F8F4F9F4F16C04E
:10251000882311F096E911C0772321F09EE8872FD8
:10252000762F05C0662371F096E8862F70E060E094
:102530002AF09A95660F771F881FDAF7880F96950D
:10254000879597F9089597F99F6780E870E060E0B4
:1025500008959FEF80EC089500240A94161617063C
:1025600018060906089500240A9412161306140684
:1025700005060895092E0394000C11F4882352F0E7
:10258000BB0F40F4BF2B11F460FF04C06F5F7F4F9F
:102590008F4F9F4F089557FD9058440F551F59F086
:1025A0005F3F71F04795880F97FB991F61F09F3F40
:1025B00079F087950895121613061406551FF2CF69
:1025C0004695F1DF08C0161617061806991FF1CFB9
:1025D00086957105610508940895E894BB276627E0
:1025E0007727CB0197F908950E9407130C94BA122C
:1025F0000E94AC1238F00E94B31220F0952311F023
:102600000C94A3120C94A91211240C94EE120E94A3
:10261000CB1270F3959FC1F3950F50E0551F629F49
:10262000F001729FBB27F00DB11D639FAA27F00D2B
:10263000B11DAA1F649F6627B00DA11D661F829F52
:102640002227B00DA11D621F739FB00DA11D621F37
:10265000839FA00D611D221F749F3327A00D611D54
:10266000231F849F600D211D822F762F6A2F112436
:102670009F5750409AF0F1F088234AF0EE0FFF1F69
:10268000BB1F661F771F881F91505040A9F79E3FC0
:10269000510580F00C94A3120C94EE125F3FE4F30A
:1026A000983ED4F3869577956795B795F795E79516
:1026B0009F5FC1F7FE2B880F911D9695879597F91F
:1026C0000895A1E21A2EAA1BBB1BFD010DC0AA1F73
:1026D000BB1FEE1FFF1FA217B307E407F50720F08B
:1026E000A21BB30BE40BF50B661F771F881F991F06
:1026F0001A9469F760957095809590959B01AC014F
:10270000BD01CF010895052E97FB1EF400940E9491
:102710009A1357FD07D00E94611307FC03D04EF4B3
:102720000C949A1350954095309521953F4F4F4FFB
:102730005F4F089590958095709561957F4F8F4F6D
:102740009F4F08958F929F92AF92BF92CF92DF9248
:10275000EF92FF92CF93DF93EC01688179818A81B8
:102760009B81611571058105910521F464E279ED84
:102770008BE597E02DE133EF41E050E00E948313B9
:1027800049015A019B01AC01A7EAB1E40E94251856
:102790006B017C01ACEEB4EFA50194010E943318EB
:1027A000DC01CB018C0D9D1DAE1DBF1DB7FF03C00D
:1027B0000197A109B04888839983AA83BB839F7737
:1027C000DF91CF91FF90EF90DF90CF90BF90AF90CF
:1027D0009F908F9008950E94A213089580E091E049
:1027E0000E94A2130895A0E0B0E0809300019093AE
:1027F0000101A0930201B093030108958F929F926B
:10280000AF92BF92CF92DF92EF92FF92CF93DF937E
:10281000EC01688179818A819B816115710581054F
:10282000910521F464E279ED8BE597E02DE133EF3A
:1028300041E050E00E94831349015A019B01AC0121
:10284000A7EAB1E40E9425186B017C01ACEEB4EF5D
:10285000A50194010E943318DC01CB018C0D9D1D54
:10286000AE1DBF1DB7FF03C00197A109B048888303
:102870009983AA83BB83BC01CD019F77DF91CF9160
:10288000FF90EF90DF90CF90BF90AF909F908F9090
:1028900008958F929F92AF92BF92CF92DF92EF9264
:1028A000FF92609104017091050180910601909161
:1028B0000701611571058105910521F464E279ED47
:1028C0008BE597E02DE133EF41E050E00E94831368
:1028D00049015A019B01AC01A7EAB1E40E94251805
:1028E0006B017C01ACEEB4EFA50194010E9433189A
:1028F000DC01CB018C0D9D1DAE1DBF1DB7FF03C0BC
:102900000197A109B0488093040190930501A09319
:102910000601B0930701BC01CD019F77FF90EF90B6
:10292000DF90CF90BF90AF909F908F90089560936D
:1029300004017093050180930601909307010895A7
:10294000CF93DF93EC012B8120FF33C026FF0AC019
:102950002F7B2B838E819F8101969F838E838A811B
:1029600090E029C022FF0FC0E881F9818081082E04
:10297000000C990B009719F420622B831AC0319632
:10298000F983E8830EC0EA85FB85099597FF09C0A6
:102990002B81019611F080E201C080E1822B8B83B4
:1029A00008C02E813F812F5F3F4F3F832E839927A1
:1029B00002C08FEF9FEFDF91CF910895A0E0B0E0CC
:1029C000E4EEF4E10C944818AE014B5F5F4FFA015E
:1029D00061917191AF018091B4039091B5030E9410
:1029E0005115E2E00C946418A0E0B0E0EAEFF4E1E5
:1029F0000C944618AE01495F5F4FDA016D917D91ED
:102A0000AD0102EB13E0F80182819381DC011396A2
:102A10002C911397286013962C930E945115D8017E
:102A20001296ED91FC9113972381277F2383E4E095
:102A30000C9462186091B4037091B5030E9448171A
:102A400008950F931F93CF93DF93E091B403F09118
:102A5000B503238121FF1BC08C01D0E0C0E0F80149
:102A600081918F016091B4037091B503DB011896D9
:102A7000ED91FC911997882331F00995892B79F311
:102A8000DFEFCFEFECCF8AE00995892B19F08FEFBC
:102A90009FEF02C08D2F9C2FDF91CF911F910F913F
:102AA0000895ABE0B0E0E7E5F5E10C9438186C016F
:102AB0007B018A01FC0117821682838181FFCCC1D0
:102AC000CE0101963C01F6019381F70193FD8591BA
:102AD00093FF81917F01882309F4BAC1853239F4CB
:102AE00093FD859193FF81917F01853229F4B60191
:102AF00090E00E944817E7CF912C212C312CFFE168
:102B0000F315D8F08B3279F038F4803279F08332D3
:102B1000A1F4232D20611DC08D3261F0803369F452
:102B2000232D216016C0832D8260382EE32DE460B2
:102B30003E2E2AC0F32DF8601DC037FC2DC020EDBD
:102B4000280F2A3040F08E32B9F436FC81C1232D93
:102B50002064322E19C036FE06C08AE0989E200DF1
:102B60001124922E11C0EAE02E9E200D1124222E57
:102B7000F32DF0623F2E08C08C3621F4832D80683F
:102B8000382E02C0883641F4F70193FD859193FFFA
:102B900081917F018111B3CF982F9F7D9554933000
:102BA00028F40C5F1F4F9FE399830DC0833631F0EB
:102BB000833771F0833509F059C021C0F801808155
:102BC00089830E5F1F4F88248394912C530113C077
:102BD0002801F2E04F0E511CF801A080B18036FEB2
:102BE00003C0692D70E002C06FEF7FEFC5010E9446
:102BF0003D174C018201F32DFF773F2E16C02801AF
:102C000022E0420E511CF801A080B18036FE03C0C4
:102C1000692D70E002C06FEF7FEFC5010E9432178F
:102C20004C01F32DF0683F2E820133FC1BC0822D36
:102C300090E088169906B0F4B60180E290E00E9418
:102C400048172A94F4CFF50137FC859137FE81911E
:102C50005F01B60190E00E94481721102A9421E0FC
:102C6000821A91088114910471F7E8C0843611F03A
:102C7000893641F5F80137FE07C060817181828194
:102C800093810C5F1F4F08C060817181072E000C7B
:102C9000880B990B0E5F1F4FF32DFF763F2E97FF8A
:102CA00009C090958095709561957F4F8F4F9F4F8C
:102CB000F0683F2E2AE030E0A3010E948417882E9E
:102CC000861845C0853731F4232D2F7EB22E2AE099
:102CD00030E025C0932D997FB92E8F36C1F018F4BE
:102CE000883579F0B5C0803719F0883721F0B0C049
:102CF000E92FE061BE2EB4FE0DC0FB2DF460BF2EA7
:102D000009C034FE0AC0292F2660B22E06C028E072
:102D100030E005C020E130E002C020E132E0F801FF
:102D2000B7FE07C060817181828193810C5F1F4F64
:102D300006C06081718180E090E00E5F1F4FA301AB
:102D40000E948417882E8618FB2DFF773F2E36FEB3
:102D50000DC0232D2E7FA22E891458F434FE0BC0F3
:102D600032FC09C0832D8E7EA82E05C0B82CA32C62
:102D700003C0B82C01C0B92CA4FE0FC0FE01E80DA1
:102D8000F11D8081803321F49A2D997EA92E09C0EE
:102D9000A2FE06C0B394B39404C08A2D867809F0CD
:102DA000B394A3FC11C0A0FE06C0B21488F4280C92
:102DB000922C9B180EC0B21460F4B60180E290E031
:102DC0000E944817B394F7CFB21418F42B1802C01E
:102DD000982C212CA4FE10C0B60180E390E00E9444
:102DE0004817A2FE17C0A1FC03C088E790E002C00C
:102DF00088E590E0B6010CC08A2D867859F0A1FED6
:102E000002C08BE201C080E2A7FC8DE2B60190E037
:102E10000E944817891438F4B60180E390E00E94BC
:102E200048179A94F7CF8A94F301E80DF11D808139
:102E3000B60190E00E9448178110F5CF222009F4D6
:102E400042CEB60180E290E00E9448172A94F6CF65
:102E5000F6018681978102C08FEF9FEF2B96E2E10A
:102E60000C945418FC010590615070400110D8F783
:102E7000809590958E0F9F1F0895FC0161507040C2
:102E800001900110D8F7809590958E0F9F1F08959F
:102E90000F931F93CF93DF93FB01238121FD03C089
:102EA0008FEF9FEF2CC022FF16C0468157812481EF
:102EB00035814217530744F4A081B1819D012F5FF2
:102EC0003F4F318320838C93268137812F5F3F4F83
:102ED0003783268314C08B01EC01FB010084F1854C
:102EE000E02D0995892BE1F6D80116968D919C91DC
:102EF0001797019617969C938E931697CE01DF91A4
:102F0000CF911F910F910895FA01AA27283051F10E
:102F1000203181F1E8946F936E7F6E5F7F4F8F4F0A
:102F20009F4FAF4FB1E03ED0B4E03CD0670F781F69
:102F3000891F9A1FA11D680F791F8A1F911DA11D4E
:102F40006A0F711D811D911DA11D20D009F4689487
:102F50003F912AE0269F11243019305D3193DEF62F
:102F6000CF010895462F4770405D4193B3E00FD0E5
:102F7000C9F7F6CF462F4F70405D4A3318F0495DD0
:102F800031FD4052419302D0A9F7EACFB4E0A695B3
:102F90009795879577956795BA95C9F700976105D5
:102FA000710508959B01AC010A2E0694579547952B
:102FB00037952795BA95C9F7620F731F841F951F20
:102FC000A01D0895DC01CB01FC01F999FECF06C0DC
:102FD000F2BDE1BDF89A319600B40D9241505040D7
:102FE000B8F70895F999FECF92BD81BDF89A992757
:102FF00080B50895A6E1B0E044E050E00C94E417F9
:10300000DC01CB0103C02D910E940B1841505040B0
:10301000D0F70895262FF999FECF1FBA92BD81BD32
:1030200020BD0FB6F894FA9AF99A0FBE019608954A
:10303000242F0E940B18252F0E940B180C94201887
:103040000E940A18272F0C940B180E946F18A59F36
:10305000900DB49F900DA49F800D911D1124089593
:10306000B7FF0C9425180E942518821B930B089516
:103070002F923F924F925F926F927F928F929F9288
:10308000AF92BF92CF92DF92EF92FF920F931F9376
:10309000CF93DF93CDB7DEB7CA1BDB0B0FB6F89427
:1030A000DEBF0FBECDBF09942A88398848885F8467
:1030B0006E847D848C849B84AA84B984C884DF80D8
:1030C000EE80FD800C811B81AA81B981CE0FD11DBC
:1030D0000FB6F894DEBF0FBECDBFED010895A29FDD
:1030E000B001B39FC001A39F700D811D1124911DDC
:1030F000B29F700D811D1124911D0895F894FFCF8A
:10310000010000000100000028012201021A011242
:1031100001042C019001F40100009411B80BDC05AE
:103120000100F401C8000000B80BDC0500005802E3
:10313000FE013200B0040F00000003000000006137
:103140000D990D000001596F752776652073657420
:10315000206120686967682073636F72652E207034
:103160006C656173652073657420796F7572206971
:103170006E697469616C2062656C6F773A200046F5
:10318000697273743A2025632563256320256400E2
:103190005365636F6E643A2025632563256320259C
:1031A000640054686972643A2025632563256320AE
:1031B000256400466F757274683A2025632563257F
:1031C000632025640046696674683A202563256398
:1031D000256320256400546865726520417265206E
:1031E00043757272656E746C79204E6F2048696702
:1031F0006853636F72657300414443205465737470
:1032000000534E414B45204279203434333534331A
:1032100036390053636F72653A20256C7500536E22
:10322000616B650053636F72653A20200053636FD2
:0832300072653A202538750093
:00000001FF
