:100000000C94F3000C9410010C9410010C9410014A
:100010000C9410010C9450010C9410010C941001DC
:100020000C9410010C9410010C9410010C9410010C
:100030000C9410010C9410010C9410010C941001FC
:100040000C9485120C9410010C9410010C94100166
:100050000C94E50E0C94A30E0C9410010C9410015A
:100060000C9410010C9410010C9410010C941001CC
:100070000C9410010C9410010C94100123232348BC
:100080004947482053434F5245532323230050727E
:10009000657373206120627574746F6E20746F20B5
:1000A000737461727420616761696E0047414D45E8
:1000B000204F5645520021011E011A01160112015E
:1000C0000E010A0106010201FE0090018C01880167
:1000D000840180017C017801740171016D01690165
:1000E000650160015C01580154014F014B0147015A
:1000F00042013E01390134012F012A012501649298
:10010000927D6C92926D809EA0C17C92924DE4A2F1
:10011000A29D182848FF4492926D468A926342FE3F
:10012000037C92A27D868A92A2C3E0100E10E1C6E3
:10013000281028C7FC021C02FDF8040204F9FC0286
:1001400002FD8080FE80816492924DFE9098677CD3
:10015000828A7C03FE9090617C82827DFE2010FF6B
:10016000FE403040FFFE020203FE1028C7040202D8
:10017000FD82FE83FE1010FF7C82925DFE909081D6
:10018000FE929283FE82827D7C828245FE92926DF7
:100190007E90907F43535345323031302F37323089
:1001A0003120536E616B652050726F6A65637420F5
:1001B0006279204A61636B20456164696500536E12
:1001C000616B65001B5B3F323568001B5B3F32355E
:1001D0006C001B5B25646D001B5B324A001B5B25BA
:1001E000643B2564480011241FBECFEFD8E0DEBF7A
:1001F000CDBF12E0A0E0B1E0EAEDF1E302C005906E
:100200000D92A639B107D9F724E0A6E9B2E001C002
:100210001D92AD31B207E1F70E946C0B0C94EB1804
:100220000C940000E8E6F0E0808182608083D99A37
:10023000ECE6F0E080818F60808310929602089552
:100240001092960208958091960218163CF58091BE
:1002500097026FB7F894909196029230B4F021E033
:1002600030E091E0F901E956FD4F4081F901EA568D
:10027000FD4F40839F5F292F30E040919602042E6E
:10028000000C550B241735076CF390919602915092
:100290009093960266231CF4789408958FEF089546
:1002A0001F920F920FB60F9211242F933F934F93EB
:1002B0005F936F937F938F939F93EF93FF9343B1DC
:1002C0004F7080919602883064F580E090E0642F52
:1002D00070E09B01082E02C0359527950A94E2F73D
:1002E00020FF1BC020919F0230E0082E02C03595F0
:1002F00027950A94E2F720FD10C0E091960221E0D4
:100300002E0F209396020E2E000CFF0BE956FD4F88
:10031000808320919602283024F401968430910540
:10032000C1F640939F02FF91EF919F918F917F9132
:100330006F915F914F913F912F910F900FBE0F9052
:100340001F90189589B183FB882780F90895CF9273
:10035000DF92EF92FF920F931F930E9446124091FB
:10036000A0025091A1026A01550FEE08FF0800910A
:10037000F3021091F4022091F5023091F602C00EC2
:10038000D11EE21EF31E21E030E06C157D058E05C6
:100390009F0510F020E030E0C9011F910F91FF9000
:1003A000EF90DF90CF90089580910801909109011E
:1003B00001969093090180930801880F991FFC0111
:1003C000E152FD4F808191810E94D1120E9446121C
:1003D0006093F3027093F4028093F5029093F60217
:1003E000E0910801F0910901EE0FFF1FE751FD4F69
:1003F000808191819093A1028093A00208955598E5
:100400008FEF9FEF9093090180930801089583E097
:1004100090E09093DE028093DD02E9EEF2E084EF5B
:1004200091E09183808328EC30E0338322839583AD
:100430008483EFEDF2E080ED97E09183808328EEF6
:1004400033E033832283958384838FEF9FEF9093F0
:100450000901809308010E94D4010E94A201811128
:100460000E94D612089582E090E09093DE0280937D
:10047000DD02E9EEF2E082E390E09183808384E69E
:1004800090E093838283EFEDF2E080ED97E091833B
:10049000808388EE93E0938382838FEF9FEF909326
:1004A0000901809308010E94D4010E94A2018111D8
:1004B0000E94D61208952091DD023091DE02215073
:1004C000310981E090E04091080150910901421703
:1004D000530714F480E090E008950E94A701892B4F
:1004E00059F40E945B02892B39F067E08AE00E9490
:1004F0007B110E94FF0108950E94A701892B11F42E
:100500000E94D401089580E891E00E945B1821E0E8
:10051000611572418105910509F020E0822F08954F
:1005200080EA91E00E9453181F928F9382E391E03A
:100530009F938F930E947F1588EA91E00E94531841
:100540001F928F938BE391E09F938F930E947F156F
:1005500080EB91E00E9453181F928F9384E491E006
:100560009F938F930E947F1588EB91E00E94531810
:100570001F928F938CE491E09F938F930E947F153D
:1005800088EC91E00E9453181F928F9385E591E0CB
:100590009F938F930E947F1580EC91E00E945318E7
:1005A0001F928F938EE591E09F938F930E947F150A
:1005B00080ED91E00E9461189F938F9387E691E010
:1005C0009F938F930E947F1580EE91E00E945B18AD
:1005D0009F938F937F936F9388E791E09F938F937F
:1005E0000E947F158DB79EB782960FB6F8949EBF76
:1005F0000FBE8DBF80E092E00E9453181F928F9330
:1006000087E891E09F938F930E947F1588E192E0A5
:100610000E9453181F928F938AE991E09F938F93C2
:100620000E947F1588E092E00E945B189F938F9351
:100630007F936F938BEA91E09F938F930E947F1536
:100640008DB79EB70E960FB6F8949EBF0FBE8DBFA6
:1006500008950F931F93CF93DF93F89440E052E1F6
:1006600060E070E080E891E00E94751880E00E94F0
:100670004E08682F80EA91E00E94671881E00E948E
:100680004E08682F88EA91E00E94671882E00E9475
:100690004E08682F80EB91E00E94671883E00E946B
:1006A0004E08682F88EB91E00E9467180E94860B25
:1006B000682F80EC91E00E9467180E94B710882391
:1006C00041F00E940111682F88EC91E00E946718A8
:1006D00005C068E088EC91E00E9467180E94360926
:1006E000BC0180ED91E00E947D180E94100DAC01CC
:1006F000990F660B770B80EE91E00E9475180E94AF
:100700006B0F682F80E092E00E9467180E944612EB
:10071000AC01990F660B770B88E092E00E94751888
:100720000E94620FC82F0E94590F8C1748F50E9433
:10073000590F082F10E0C0E0D0E0802F0E946E0F0C
:10074000682FCE01885E9D4F0E9467182896015041
:1007500011099AF700E210E00CC0802F0E946E0F82
:10076000682FCE01885E9D4F0E9467182896015021
:1007700011090E94620F90E00817190774F719C059
:100780000E94620F082F10E0C0E0D0E00CC0802F64
:100790000E946E0F682FCE01885E9D4F0E946718E1
:1007A00028960F5F1F4F0E94590F90E08017910706
:1007B00074F768E0CE01885E9D4F0E9467180E9422
:1007C00090027894DF91CF911F910F910895CF936C
:1007D000C82F0E949209882399F0E091F7020E2E0B
:1007E000000CFF0BE850FD4FC08363E370E08C2FDB
:1007F00090E00E946E088091F7028F5F8093F7026D
:10080000CF9108950E94C40780EA91E00E94531896
:1008100090E00E94E70388EA91E00E94531890E07C
:100820000E94E70380EB91E00E94531890E00E9441
:10083000E70388EB91E00E94531890E00E94E703E1
:100840000895CF9380EC91E00E945318C82F0E9426
:100850009209882321F08C2F0E94890B02C00E94EC
:100860007D0CCF910895CF9388EC91E00E945318AE
:10087000C82F0E949209882321F08C2F0E94B1106A
:1008800002C00E94E010CF9108950F931F93CF9361
:10089000DF9380E092E00E945318C82F80E00E940E
:1008A0007A0F8FEF8C0F0E947D0F10E0C8E1D2E02D
:1008B000CE010E945318082F612F0E94740F60EF21
:1008C00070E0802F90E00E946E0828961F5FCE0196
:1008D0000E9453180E9492098111EACF0E94590F79
:1008E0006FE070E090E00E946E08DF91CF911F9161
:1008F0000F9108950E9483028823E1F00E949411D1
:100900000E9489090E94DD110E943B090E947D0C12
:100910000E94BC120E9407020E9402040E9421044D
:100920000E9433040E9445040E9420010E949E0EF2
:100930001092A6020895811521E09207E9F038F49B
:10094000803C910591F0803E910561F011C08032AC
:1009500021E0920721F08034914059F009C080E8ED
:1009600090E0089580E490E0089580E290E008959A
:10097000089580EA90E0089580E690E008958F92CF
:100980009F92AF92BF92DF92EF92FF920F931F93CD
:10099000CF93DF938C01EB010E945B184B015C014C
:1009A000CE010E945318D82ECE0108960E945318EB
:1009B000E82ECE0140960E945318F82EB501A401EE
:1009C000C80180960E9475186D2DCE0180960E94F8
:1009D00067186E2DCE0188960E9467186F2DCE0184
:1009E000C0960E946718DF91CF911F910F91FF90E1
:1009F000EF90DF90BF90AF909F908F90089560E848
:100A000070E080E291E00E94BF0408950E94FF041C
:100A100060E670E080E091E00E94BF0408950E94CB
:100A2000060560E470E080EE90E00E94BF04089547
:100A30000E940F0560E270E080EC90E00E94BF042D
:100A40000895CF93DF93EC016FE50E9467186FE57F
:100A5000CE0108960E9467186FE5CE0140960E946D
:100A60006718DF91CF91089540E050E0BA0180EC23
:100A700090E00E94751840E050E0BA0180EE90E0EE
:100A80000E94751840E050E0BA0180E091E00E94B9
:100A9000751840E050E0BA0180E291E00E947518BC
:100AA00040E050E0BA0180E491E00E94751880E2D5
:100AB00090E00E94210580E490E00E94210580E6FC
:100AC00090E00E94210580E890E00E94210580EAE4
:100AD00090E00E94210544E352E160E070E080E68E
:100AE00091E00E947518089580E691E00E945B18DD
:100AF00021E030E0643372418105910511F020E07E
:100B000030E0C9010895CF92DF92EF92FF920E94E8
:100B1000100D6B017C0180E491E00E945B18C61609
:100B2000D706E806F90640F40E94740521E0892BF7
:100B300009F020E0822F01C081E0FF90EF90DF906C
:100B4000CF900895CF92DF92EF92FF920E947405AA
:100B5000892B09F442C00E94100D6B017C0180ECCE
:100B600090E00E945B186C157D058E059F05C0F115
:100B70000E94100D6B017C0180EE90E00E945B18DA
:100B80006C157D058E059F0570F10E94100D6B019F
:100B90007C0180E091E00E945B186C157D058E055C
:100BA0009F0520F10E94100D6B017C0180E291E015
:100BB0000E945B186C157D058E059F05D0F00E9484
:100BC000100D6B017C0180E491E00E945B186C15B4
:100BD0007D058E059F0580F011C080EC90E00EC071
:100BE00080EC90E00BC080EE90E008C080E091E0E7
:100BF00005C080E291E002C080E491E0FF90EF90B8
:100C0000DF90CF900895CF92DF92EF92FF921F93E3
:100C1000CF93DF9344E352E160E070E080E691E03F
:100C20000E9475180E94A205803E910591F020F463
:100C3000803C910589F012C0811521E0920731F0C6
:100C40008032914059F40E94FF0408C00E940605BA
:100C500005C00E940F0502C00E9418050E94100DD9
:100C60006B017C010E94A205B701A6010E947518C4
:100C7000C2EAD2E018810E94A2050E949B04612F63
:100C80000E94671819810E94A2050E949B04612F8F
:100C900008960E946718CA810E94A2050E949B04C0
:100CA0006C2F40960E9467180E949411DF91CF919B
:100CB0001F91FF90EF90DF90CF900895EF92FF92F9
:100CC0000F931F93CF93DF9368E08AE00E947B111C
:100CD00089EB91E09F938F930E947F150F900F9067
:100CE00000E010E00F2EF7E1EF2EF4E0FF2EF02DE4
:100CF0000E94B3110E94970E8823D1F3F7018081DF
:100D000091810E944115EC01982F91549A3398F4E7
:100D10000330110584F469E08AE0800F0E947B11A2
:100D2000F801EE55FD4FC083CE0199270E94BB15F7
:100D30000F5F1F4FDDCF8A3089F08F37C9F680E211
:100D400090E00E94BB151016110614F40150110911
:100D500069E08AE0800F0E947B11CACFF999FECF2B
:100D60000E940306DF91CF911F910F91FF90EF90AA
:100D70000895EF92FF920F931F93CF93DF936BE051
:100D80008AE00E947B118CE790E09F938F930E94F2
:100D900095156DE08AE00E947B110E9474050F900A
:100DA0000F90892B09F4DFC080EC90E00E945B1863
:100DB000162F072FF82EE92E80E390E00E9453189B
:100DC000D82F88E290E00E945318C82F80E290E06C
:100DD0000E945318EF92FF920F931F931F92DF937D
:100DE0001F92CF931F928F9382EF91E09F938F93E7
:100DF0000E947F156EE08AE00E947B1180EE90E0F9
:100E00000E945B18162F072FF82EE92E80E590E040
:100E10000E945318D82F88E490E00E945318C82FDE
:100E200080E490E00E945318EF92FF920F931F937B
:100E30001F92DF931F92CF931F928F9383E092E0D4
:100E40009F938F930E947F156FE08AE00E947B1131
:100E500080E091E00E945B18162F072FF82EE92EF4
:100E600080E790E00E945318D82F88E690E00E9417
:100E70005318C82F80E690E00E945318EF92FF921B
:100E80000F931F931F92DF931F92CF931F928F9305
:100E900085E192E09F938F930E947F158DB79EB757
:100EA00084960FB6F8949EBF0FBE8DBF60E18AE0B6
:100EB0000E947B1180E291E00E945B18162F072FA1
:100EC000F82EE92E80E990E00E945318D82F88E888
:100ED00090E00E945318C82F80E890E00E945318B9
:100EE000EF92FF920F931F931F92DF931F92CF9366
:100EF0001F928F9386E292E09F938F930E947F15BB
:100F000061E18AE00E947B1180E491E00E945B181D
:100F1000162F072FF82EE92E80EB90E00E94531831
:100F2000D82F88EA90E00E945318C82F80EA90E0FA
:100F30000E945318EF92FF920F931F931F92DF931B
:100F40001F92CF931F928F9388E392E09F938F938A
:100F50000E947F158DB79EB748960FB6F8949EBF36
:100F60000FBE8DBF0AC00E94340588E492E09F93B3
:100F70008F930E947F150F900F90DF91CF911F915B
:100F80000F91FF90EF9008951092F702089530911D
:100F9000F702131684F49091F802891771F0E9EFC3
:100FA000F2E090E003C02191281749F09F5F3913C8
:100FB000FACF8FEF08958FEF089580E00895892F7D
:100FC00008950E94C70791E08F3F09F490E0892FB0
:100FD0000895FF920F931F93CF93DF938091F702B1
:100FE00088300CF044C000E010E0D0E0C0E002C067
:100FF0000F5F1F4F2C2FCC0F330B2D5F3F4F200F58
:10100000311F2F703078332334F421503109206F91
:101010003F6F2F5F3F4F822FC22F6D2FDD0F770B5A
:101020006B5F7F4F67707078772334F4615071097C
:10103000686F7F6F6F5F7F4FD62F0E949809F82EE1
:1010400003361105B1F00E94B50F8111D1CF8F2D5C
:101050000E94E1078111CCCF8F2D0E9404118111D4
:10106000C7CF8F2D0E94760C8111C2CF04C088E0BB
:101070000FC088E00DC08091F702E82F082E000C09
:10108000FF0BE850FD4FF0828F5F8093F7028F2DAA
:10109000DF91CF911F910F91FF900895E82F880F56
:1010A000FF0BE850FD4F808108958823B4F0209114
:1010B000F702821794F48F5F821764F4E82F082EEA
:1010C000000CFF0BE850FD4F9081319790838F5FAC
:1010D0008217A4F321502093F70208951F93CF9312
:1010E000DF93C82F162F0E949009D82F8C2F0E94B3
:1010F0008D09412F6D2F0E944609DF91CF911F91DD
:101100000895CF93DF930E9489090E94DD1188E53D
:1011100092E090930B0180930A010E947D0C0E9443
:10112000BC120E9407020E94380F0E94590F6FE004
:101130000E946E080E94620F60EF0E946E080E947B
:10114000C407C3E00E94E907D82F0E9492098823B0
:1011500021F063E38D2F0E946E08C15099F7DF9153
:10116000CF91089580910A0190910B018B3F9105D9
:10117000A4F060910A0170910B0180E090E00E9460
:10118000071326E636E646E65FE30E946D130E94EB
:10119000D81270930B0160930A0108950F931F9367
:1011A000CF93DF930E94590FD82F0E94D80FC82FDA
:1011B00088230CF455C081E090E00E94FB0C0E9453
:1011C000590F182F8EEF8C0F8230C0F4812F0E94A0
:1011D000C7070E9455080E94330282E090E00E94F7
:1011E000FB0C0E94B2080E94E907082F0E94920996
:1011F000882321F063E3802F0E946E088CEF8C0F10
:10120000823050F40E94F81089E090E00E94FB0CBC
:101210000E94B2080E9433028AEF8C0F823050F491
:101220000E947D0C84E090E00E94FB0C0E94B208BA
:101230000E943302CD7FC13011F0C53029F40E94E5
:10124000800F60E00E946E0860EF8D2F0E946E0894
:101250006FE0812F0E946E080E94061281E001C09B
:1012600080E0DF91CF911F910F91089580910A0145
:1012700090910B01089588E592E090930B01809383
:101280000A01089580E80E94831008951F93CF9368
:10129000DF938031B0F46830A0F4142FC62FD82F1C
:1012A00081E00E94AB106C2F677080E1689F900115
:1012B00011248D2F8F70822B0E94AB10812F0E94E2
:1012C000AB10DF91CF911F9108950F931F93CF9390
:1012D000DF93803190F48B01C82F83E00E94AB1024
:1012E0008C2F8F700E94AB10E801085F1F4F89910F
:1012F0000E94AB10C017D107D1F7DF91CF911F919A
:101300000F91089584E00E94AB1082E00E94AB1020
:1013100008958FE00E94AB10089582958F70089514
:101320008F70089583FB882780F991E089270895BD
:1013300020E1829FC00111246770862B08950E94CE
:1013400042090E94120140E060E07BE480E090E00E
:101350000E94500E0E941F1278940895FF920F93DE
:101360001F93CF93DF9380E00E949D110E94941100
:101370000E94AA110E94BC110E948909CFE00F2E81
:10138000FFE0FF2EF02D0FEF10EFD5E16C2F8AE676
:1013900092E00E94190D0DC02FE78CE293E02150DE
:1013A00080409040E1F700C000000E9423018F3F81
:1013B000A9F50E94280D8111EFCF0E94EA14DC01EB
:1013C000CB0183709927AA27B078BB2354F40197E7
:1013D000A109B1098C6F9F6FAF6FBF6F0196A11DFF
:1013E000B11D81309105A105B10591F02CF4892B37
:1013F0008A2B8B2B59F0CACF82309105A105B105FC
:1014000049F00397A105B10539F0C0CFCD2FBECF6C
:10141000CF2DBCCFC02FBACFC12FB8CFDF91CF9186
:101420001F910F91FF9008950E9494110E948108CE
:101430000E94F20C0E9420010E949E0E08954F927D
:101440005F927F928F929F92AF92BF92CF92DF92E4
:10145000EF92FF920F931F93CF93DF930E94461258
:101460004B015C0100E01FEF0F2EFFED7F2EF02DF2
:101470000F2EF7E14F2EF4E05F2EF02D0E94BA10F0
:1014800081110E9411110E94D01081110E94E01060
:101490000E94E00C81110E94000C0E946D020E94CB
:1014A0003E12892B19F00E94200106C00E942301E0
:1014B000D82F8F3F09F09AC00E94970E882309F415
:1014C000A4C0F201808191810E944115C82F0111B1
:1014D00003C08B3151F496C0013019F48B3529F4D7
:1014E00093C0023009F488C07BC00E943E12892B51
:1014F00009F03FC008C0D11109C001C000E081E07F
:101500000E94970F50C000E0D12F01C0C12FD230F0
:1015100019F0812F813421F480E00E94970F43C09D
:10152000D33011F0843421F483E00E94970F3BC044
:10153000D13011F0823429F482E00E94970F33C039
:1015400000E08C2F8F7D803519F40E9437122BC05C
:10155000C33719F40E94290326C00E948302892BF5
:1015600011F18C2F8F7D8F34F1F481E08093A602EE
:1015700062C08C2F8F7D803521F40E94371200E0ED
:1015800012C000E0833519F40E9429030CC00E94A8
:101590008302892B41F08C2F8F7D8F3421F481E0E1
:1015A0008093A60248C00E9446126B017C010E94F3
:1015B0003609092E000CAA0BBB0B880D991DAA1D1C
:1015C000BB1DC816D906EA06FB0608F457CF0E94D1
:1015D000CE08882381F10E9446124B015C014ECF58
:1015E0000E943E12892B09F4ABCFC3CF0E943E125A
:1015F000892B09F480CF1CC00E943E12892B51F028
:1016000000E013C001E001C002E00E943E12892BFD
:1016100061F408C0C33409F471CF8C2F00E0C12FEE
:10162000D12F78CF0E948302BECFC12F872DAACFA2
:101630000E948302B8CFDF91CF911F910F91FF904D
:10164000EF90DF90CF90BF90AF909F908F907F9062
:101650005F904F9008950E94941165E08AE00E9487
:101660007B118CEA90E09F938F930E94951567E021
:101670008AE00E947B110E94100D9F938F937F93AD
:101680006F938CE792E09F938F930E947F150E9447
:10169000B9060E9483052DB73EB7285F3F4F0FB6AE
:1016A000F8943EBF0FBE2DBF81110E945E0669E017
:1016B0008AE00E947B118EE890E09F938F930E94B6
:1016C00095150E94B9060F900F900E9423018F3F3D
:1016D000E1F30E94941108950E949F098FEF81B950
:1016E000529A53980E94AE098091A602882319F05D
:1016F0000E947A0402C00E94140A0E941F0A80916C
:10170000A6028111F1CF0E942B0BEECF8091000336
:101710000895CF93DF93C82F809100030E94900912
:10172000D82F809100030E948D0940E06D2F0E9408
:101730004609C09300038C2F0E949009D82F8C2F4C
:101740000E948D0943E36D2F0E944609DF91CF91DE
:101750000895CF93C82F0E94B50F81110DC08C2F13
:101760000E94E10781110AC08C2F0E94041191E0B0
:10177000811105C090E003C091E001C091E0892F84
:10178000CF9108951F93CF93DF93182F809100037B
:101790000E948D09C82F809100030E949009D82FC4
:1017A0008FEF8C0F8E3020F48FEF8D0F8630E8F0A6
:1017B000C11106C0812F0E948D098F3041F417C0DE
:1017C000CF3029F4812F0E948D09882391F0D11107
:1017D00005C0812F0E94900981E00EC0D73059F4D6
:1017E000812F0E94900981E007C080E005C081E060
:1017F00003C081E001C081E0DF91CF911F91089586
:101800000F931F93CF93DF9360E080E00E949809CD
:10181000082F0E948F1483709078992324F40197E5
:101820008C6F9F6F019610E0C82FD0E0C130D105BA
:10183000D1F01CF4209741F042C0C230D10511F123
:10184000C330D10571F13BC0809100030E94900923
:10185000082F809100030E948D0961E0600F0E94B3
:101860009809082F2CC0809100030E949009082F2E
:10187000809100030E948D096FEF600F0E9498090C
:10188000082F1DC0809100030E949009082F8091AD
:1018900000030E948D09602F8F5F0E949809082F16
:1018A0000EC0809100030E949009082F80910003D0
:1018B0000E948D09602F81500E949809082F1F5F98
:1018C000802F0E94A90B882339F0143039F0802F23
:1018D0000E94C20B8111AACF153018F4802F0E94EC
:1018E000890BDF91CF911F910F91089591E0209185
:1018F0000003281390E0892F08951F93CF93DF935F
:101900000E948F14EC010E948F14BC0167707078E4
:10191000772334F461507109686F7F6F6F5F7F4F79
:10192000CE018F709078992324F40197806F9F6F78
:1019300001960E949809C82F13E61EC00E948F14BA
:10194000EC010E948F14BC0167707078772334F427
:1019500061507109686F7F6F6F5F7F4FCE018F702D
:101960009078992324F40197806F9F6F01960E94CD
:101970009809C82F115091F08C2F0E94B50F81113A
:10198000DDCF8C2F0E94E1078111D8CF0E94011179
:101990008C17A1F2809100038C1781F2C093000391
:1019A0008C2F0E949009C82F809100030E948D09FE
:1019B0004CE36C2F0E944609DF91CF911F9108954F
:1019C0000E94461220910C0130910D0140E050E040
:1019D0000E94021421E0672B682B692B09F020E09C
:1019E000822F08951092A7021092A8021092A902C5
:1019F0001092AA0208954091A7025091A802609106
:101A0000A9027091AA02480F591F611D711D4093D0
:101A1000A7025093A8026093A9027093AA020895A6
:101A20006091A7027091A8028091A9029091AA02E8
:101A3000089560930E019093AF028093AE021092CE
:101A4000B1021092B0021092AD021092AC02089551
:101A50000F931F93CF93DF93CDB7DEB728970FB6C1
:101A6000F894DEBF0FBECDBFE091B002F091B1029D
:101A7000309781F0149110FF06C01092B1021092BD
:101A8000B00200E06BC03196F093B102E093B00277
:101A900000E064C0E091AC02F091AD02309709F42F
:101AA00049C0CF0101969093AD028093AC02E081D2
:101AB000E1110AC01092AD021092AC0280E1809355
:101AC000AB0200E010E04AC08FE98E0F8A3170F45B
:101AD000F0E0EE0FFF1FE85FFF4F85919491909328
:101AE000B1028093B00200E010E038C08FEB8E0F9F
:101AF0008A3170F4F0E0EE0FFF1FE85BFF4F859135
:101B000094919093B1028093B00200E010E026C05F
:101B100080ED8E0F8A3000F5F0E0EE0FFF1FEA5ADD
:101B2000FF4F859194919093B1028093B00200E0B1
:101B300010E014C08091AE029091AF0201E00097D6
:101B400009F000E09093AD028093AC021092AF02D6
:101B50001092AE0210E002C000E010E00E94820984
:101B600020910E01FE013896CE010196112314F446
:101B7000208301C01082110F3197E817F907B1F7E0
:101B80001982BE016F5F7F4F8FE00E9465098091CF
:101B9000AB02882389F081508093AB02002311F0BF
:101BA000882311F090E003C091E001C091E081E052
:101BB000992329F080E003C00023A1F3F7CF2896F2
:101BC0000FB6F894DEBF0FBECDBFDF91CF911F914E
:101BD0000F910895CF93C82F8A3019F48DE00E9499
:101BE000EA0D9FB7907802C0992329F180910203F2
:101BF0008F3FD1F3F894E091010381E08E0F809341
:101C00000103F0E0ED5FFC4FC083809102038F5F22
:101C100080930203809101038F3F11F4109201031E
:101C2000E1ECF0E0808180628083992339F0789440
:101C300080E090E005C081E090E002C080E090E0AC
:101C4000CF910895809114048823E1F32FB7207871
:101C5000F894809102043091140490E0831B910960
:101C60005AF4E091020480911404F0E0E81BF109B9
:101C7000ED5EFB4F80810AC0E09102048091140464
:101C8000F0E0E81BF109ED5FFB4F808190911404B7
:101C9000915090931404222309F0789490E00895D1
:101CA0001092010310920203109202041092140485
:101CB000109213044093B202DC01CB01880F991FEC
:101CC000AA1FBB1F880F991FAA1FBB1F9C01AD0134
:101CD000220F331F441F551F60E072E18AE790E036
:101CE0000E942414BA01A9014F5F5F4F6F4F7F4FCD
:101CF000DB01CA011AF40196A11DB11DB595A79586
:101D00009795879501979093C5008093C400E1EC67
:101D1000F0E088E18083808180688083E7E1F4E0FF
:101D20008FE091E0938382839183808308959091E3
:101D3000140481E0911101C080E008951092020422
:101D40001092140408951F920F920FB60F9211244F
:101D50002F938F939F93EF93FF9380910203882398
:101D600029F1809101032091020390E0821B9109E7
:101D70005AF4E091010380910203F0E0E81BF109BD
:101D8000EE5FFB4F90810AC0E09101038091020356
:101D9000F0E0E81BF109ED5FFC4F908180910203B8
:101DA0008150809302039093C60005C0E1ECF0E0FF
:101DB00080818F7D8083FF91EF919F918F912F91F3
:101DC0000F900FBE0F901F9018951F920F920FB695
:101DD0000F9211242F933F934F935F936F937F93B1
:101DE0008F939F93AF93BF93CF93EF93FF93C09144
:101DF000C6008091B202882349F0809102038F3F90
:101E000029F060E070E08C2F0E94EA0D80911404AC
:101E1000803120F081E08093130418C0CD3009F4A4
:101E2000CAE0E091020481E08E0F80930204F0E0AA
:101E3000ED5FFB4FC083809114048F5F8093140487
:101E400080910204803111F410920204FF91EF910D
:101E5000CF91BF91AF919F918F917F916F915F9142
:101E60004F913F912F910F900FBE0F901F9018959B
:101E70000F931F93CF9382E08093B7021092B50225
:101E8000C1E0C093B60261E081E00E94980908EBCE
:101E900012E0F801808361E082E00E949809F80175
:101EA0008183C093B402C093B302CF911F910F916D
:101EB0000895E091B6020E2E000CFF0BE854FD4F82
:101EC00080810895E091B5020E2E000CFF0BE854BE
:101ED000FD4F808108958091B7020895E82FF0E0CA
:101EE000E854FD4F80810895E62FF0E0E854FD4F5F
:101EF000808308958093B60208958093B502089573
:101F00009091B502E92F092E000CFF0BE854FD4F0C
:101F100080819F5F913219F09093B50202C01092B8
:101F2000B5029091B70291509093B70208959091A5
:101F3000B4029130A9F028F0923041F0933059F07A
:101F40000895823089F08093B3020895882361F068
:101F50008093B3020895813039F08093B3020895DD
:101F6000833011F08093B30208959091B5023091BF
:101F7000B60240E00DC0E92F092E000CFF0BE8541B
:101F8000FD4F2081281789F09F5F91320CF0942F2C
:101F90009313F1CFE32F330FFF0BE854FD4F91E084
:101FA0002081281719F090E001C091E0892F089551
:101FB000CF93DF938091B702813208F096C0E09111
:101FC000B6020E2E000CFF0BE854FD4F80810E94DC
:101FD0008D09D82FC82FE091B6020E2E000CFF0BF2
:101FE000E854FD4F80810E949009682F9091B302C0
:101FF000913059F028F0923069F0933081F01BC095
:10200000873091F061E0680F16C0DF3079F0C1E0F1
:10201000CD0F11C0882361F06FEF680F0CC0DD2376
:1020200049F0CFEFCD0F07C060E005C0C0E003C0AE
:1020300067E001C0CFE08C2F0E949809C82F8091E3
:10204000B3029091B402981741F08093B4020E94B9
:10205000A201892B11F00E9433028C2F0E94B50F30
:10206000882351F0E091B5020E2E000CFF0BE854CE
:10207000FD4F8081C8133BC08091B6028F5F8132D3
:1020800019F08093B60202C01092B602E091B60237
:102090000E2E000CFF0BE854FD4FC0838091B70259
:1020A0008F5F8093B7028C2F90E00E94760C892B73
:1020B00031F08091B7028132E0F087E021C08C2FAF
:1020C0000E940411882331F08091B702813298F088
:1020D00085E016C08C2F0E94E107882371F0809163
:1020E000B702813260F083E00BC08DEF09C08EEF44
:1020F00007C086E005C084E003C081E001C082E043
:10210000DF91CF91089594B1906B94B92C9A90E59A
:102110009CBD883021F0803211F0823019F491E0BA
:102120009DBD01C01DBC803269F028F4883071F07B
:10213000803161F00EC0803429F0803851F48CB5C4
:1021400081608CBD8CB582608CBD03C08CB5816014
:102150008CBD2C9808958EBD0DB407FEFDCF8EB5B5
:1021600008958093150481E080931604089580916A
:10217000160408950E94461268597A43810991090C
:1021800020E23EE440E050E00E940214672B682BFE
:10219000692B21F40E94461281E0089580E00895A1
:1021A0000E94461220E23EE440E050E00E94021409
:1021B00021E0672B682B692B09F020E0822F08951E
:1021C000CF93809115040E949009C82F8091150427
:1021D0000E948D0940E06C2F0E94460960E080E07B
:1021E0000E9498098093150410921604CF910895C7
:1021F00060E080E00E949809809315041092160414
:10220000089580911504089590911604992339F04A
:1022100091E020911504281390E0892F089580E023
:1022200008951F93CF93DF930E94E0100E948F14B4
:10223000EC010E948F14BC0167707078772334F42E
:1022400061507109686F7F6F6F5F7F4FCE018F7034
:102250009078992324F40197806F9F6F01960E94D4
:102260009809C82F13E61EC00E948F14EC010E942B
:102270008F14BC0167707078772334F46150710952
:10228000686F7F6F6F5F7F4FCE018F70907899235B
:1022900024F40197806F9F6F01960E949809C82FC0
:1022A0001150A1F08C2F0E94B50F8111DDCF8C2F22
:1022B0000E94E1078111D8CF8C2F0E940411811157
:1022C000D3CF8C2F0E94760C8111CECFC0931504F2
:1022D0008C2F0E949009C82F809115040E948D09AF
:1022E0004CE36C2F0E94460981E080931604DF9135
:1022F000CF911F910895282F082E000C330B3F9388
:102300008F93862F062E000C990B9F936F938DED64
:1023100091E09F938F930E9495150F900F900F90CF
:102320000F900F900F90089588ED91E09F938F93F9
:102330000E9495150F900F9008951F928F9382ED34
:1023400091E09F938F930E9495150F900F900F909F
:102350000F9008958BEC91E09F938F930E949515B9
:102360000F900F90089584EC91E09F938F930E94BB
:1023700095150F900F90089563E083E00E947B1104
:102380008EEB91E09F938F930E94951565E083E01B
:102390000E947B1180E20E949D1184E991E09F934D
:1023A0008F930E94951585E20E949D110E94B906A7
:1023B0000F900F900F900F9008950E94AA1161E066
:1023C0008AE00E947B1186E892E09F938F930E949F
:1023D0007F1563E081E00E947B110E94100D9F93A6
:1023E0008F937F936F938CE892E09F938F930E94DB
:1023F0007F1563E08AE00E947B118DB79EB7089637
:102400000FB6F8949EBF0FBE8DBF08950E94AA110B
:1024100063E081E00E947B110E94100D9F938F93D7
:102420007F936F938CE792E09F938F930E947F1529
:102430000F900F900F900F900F900F9008951092A3
:10244000D9021092DA021092DB021092DC0216BC62
:102450008CE787BD82E084BD83E085BDEEE6F0E0D9
:1024600080818260808385B3827085BB0895EEE6AB
:10247000F0E0908182E089278083089580916E004A
:10248000869591E08927817090E008952FB7F894A0
:102490006091D9027091DA028091DB029091DC02A6
:1024A00022230CF47894089580913101882381F0DF
:1024B0005A9A0E946B0FEDEC8E9FE12D1124E69548
:1024C000E695E695F0E0E95DFE4F808182B916C0A1
:1024D0005A980E946B0F9DEC899F912D112496951F
:1024E00096959695990F292F220F220F920F891BEF
:1024F000E82FF0E0E35EFE4F808182B990913101D8
:1025000081E0891B8093310108951F920F920FB6CD
:102510000F9211242F933F934F935F936F937F9369
:102520008F939F93AF93BF93EF93FF938091D902C3
:102530009091DA02A091DB02B091DC020196A11D1C
:10254000B11D8093D9029093DA02A093DB02B0937D
:10255000DC020E945412FF91EF91BF91AF919F91C5
:102560008F917F916F915F914F913F912F910F903C
:102570000FBE0F901F901895109285001092840046
:10258000E1E8F0E080818A60808380E480938000CD
:1025900088EE93E090938900809388005598539833
:1025A000089590938900809388000895559A08951E
:1025B0000E944C1388F09F5798F0B92F9927B75174
:1025C000B0F0E1F0660F771F881F991F1AF0BA95D7
:1025D000C9F714C0B13091F00E946613B1E00895BC
:1025E0000C946613672F782F8827B85F39F0B93FAE
:1025F000CCF3869577956795B395D9F73EF490958A
:102600008095709561957F4F8F4F9F4F0895E89407
:1026100009C097FB3EF490958095709561957F4F2A
:102620008F4F9F4F9923A9F0F92F96E9BB279395D8
:10263000F695879577956795B795F111F8CFFAF4E8
:10264000BB0F11F460FF1BC06F5F7F4F8F4F9F4F19
:1026500016C0882311F096E911C0772321F09EE877
:10266000872F762F05C0662371F096E8862F70E0DD
:1026700060E02AF09A95660F771F881FDAF7880FB7
:102680009695879597F9089557FD9058440F551FD3
:1026900059F05F3F71F04795880F97FB991F61F0E4
:1026A0009F3F79F087950895121613061406551F5B
:1026B000F2CF4695F1DF08C0161617061806991FC7
:1026C000F1CF86957105610508940895E894BB27BC
:1026D00066277727CB0197F908950E9480130C9401
:1026E000F1130E94E31338F00E94EA1320F09523BF
:1026F00011F00C94DA130C94E01311240C9467136A
:102700000E94441370F3959FC1F3950F50E0551F3D
:10271000629FF001729FBB27F00DB11D639FAA2736
:10272000F00DB11DAA1F649F6627B00DA11D661F85
:10273000829F2227B00DA11D621F739FB00DA11DA6
:10274000621F839FA00D611D221F749F3327A00D60
:10275000611D231F849F600D211D822F762F6A2FFC
:1027600011249F5750409AF0F1F088234AF0EE0F61
:10277000FF1FBB1F661F771F881F91505040A9F78E
:102780009E3F510580F00C94DA130C9467135F3F61
:10279000E4F3983ED4F3869577956795B795F795CA
:1027A000E7959F5FC1F7FE2B880F911D9695879542
:1027B00097F9089597F99F6780E870E060E00895C1
:1027C0009FEF80EC089500240A9416161706180649
:1027D0000906089500240A94121613061406050625
:1027E0000895092E0394000C11F4882352F0BB0FB6
:1027F00040F4BF2B11F460FF04C06F5F7F4F8F4F19
:102800009F4F0895A1E21A2EAA1BBB1BFD010DC00C
:10281000AA1FBB1FEE1FFF1FA217B307E407F50790
:1028200020F0A21BB30BE40BF50B661F771F881F6C
:10283000991F1A9469F760957095809590959B0102
:10284000AC01BD01CF010895052E97FB1EF4009445
:102850000E943B1457FD07D00E94021407FC03D0CE
:102860004EF40C943B1450954095309521953F4F74
:102870004F4F5F4F089590958095709561957F4F6C
:102880008F4F9F4F08958F929F92AF92BF92CF929A
:10289000DF92EF92FF92CF93DF93EC016881798111
:1028A0008A819B81611571058105910521F464E29E
:1028B00079ED8BE597E02DE133EF41E050E00E94A8
:1028C000241449015A019B01AC01A7EAB1E40E941A
:1028D00092186B017C01ACEEB4EFA50194010E944B
:1028E000A018DC01CB018C0D9D1DAE1DBF1DB7FFD7
:1028F00003C00197A109B04888839983AA83BB8349
:102900009F77DF91CF91FF90EF90DF90CF90BF90B6
:10291000AF909F908F9008950E944314089580E097
:1029200091E00E9443140895A0E0B0E0809300017C
:1029300090930101A0930201B093030108958F9237
:102940009F92AF92BF92CF92DF92EF92FF92CF937E
:10295000DF93EC01688179818A819B816115710522
:102960008105910521F464E279ED8BE597E02DE195
:1029700033EF41E050E00E94241449015A019B01C9
:10298000AC01A7EAB1E40E9492186B017C01ACEEA5
:10299000B4EFA50194010E94A018DC01CB018C0DBD
:1029A0009D1DAE1DBF1DB7FF03C00197A109B04813
:1029B00088839983AA83BB83BC01CD019F77DF9174
:1029C000CF91FF90EF90DF90CF90BF90AF909F900E
:1029D0008F9008958F929F92AF92BF92CF92DF9285
:1029E000EF92FF92609104017091050180910601C0
:1029F00090910701611571058105910521F464E24B
:102A000079ED8BE597E02DE133EF41E050E00E9456
:102A1000241449015A019B01AC01A7EAB1E40E94C8
:102A200092186B017C01ACEEB4EFA50194010E94F9
:102A3000A018DC01CB018C0D9D1DAE1DBF1DB7FF85
:102A400003C00197A109B048809304019093050148
:102A5000A0930601B0930701BC01CD019F77FF90C1
:102A6000EF90DF90CF90BF90AF909F908F900895A0
:102A70006093040170930501809306019093070110
:102A80000895CF93DF93EC012B8120FF33C026FF05
:102A90000AC02F7B2B838E819F8101969F838E831B
:102AA0008A8190E029C022FF0FC0E881F9818081EE
:102AB000082E000C990B009719F420622B831AC082
:102AC0003196F983E8830EC0EA85FB85099597FF67
:102AD00009C02B81019611F080E201C080E1822BB8
:102AE0008B8308C02E813F812F5F3F4F3F832E8312
:102AF000992702C08FEF9FEFDF91CF910895A0E05B
:102B0000B0E0E5E8F5E10C94B518AE014B5F5F4F1E
:102B1000FA0161917191AF018091190490911A04A9
:102B20000E94C215E2E00C94D118A0E0B0E0EBE9FD
:102B3000F5E10C94B318AE01495F5F4FDA016D9176
:102B40007D91AD0107E114E0F80182819381DC0100
:102B500013962C911397286013962C930E94C215FC
:102B6000D8011296ED91FC9113972381277F23833F
:102B7000E4E00C94CF186091190470911A040E943B
:102B8000B9170895ABE0B0E0E8ECF5E10C94A518B6
:102B90006C017B018A01FC0117821682838181FF0F
:102BA000CCC1CE0101963C01F6019381F70193FD62
:102BB000859193FF81917F01882309F4BAC1853201
:102BC00039F493FD859193FF81917F01853229F43A
:102BD000B60190E00E94B917E7CF912C212C312C3F
:102BE000FFE1F315D8F08B3279F038F4803279F0C8
:102BF0008332A1F4232D20611DC08D3261F080331A
:102C000069F4232D216016C0832D8260382EE32DB8
:102C1000E4603E2E2AC0F32DF8601DC037FC2DC0A5
:102C200020ED280F2A3040F08E32B9F436FC81C1F5
:102C3000232D2064322E19C036FE06C08AE0989EED
:102C4000200D1124922E11C0EAE02E9E200D112499
:102C5000222EF32DF0623F2E08C08C3621F4832DF6
:102C60008068382E02C0883641F4F70193FD8591C3
:102C700093FF81917F018111B3CF982F9F7D955450
:102C8000933028F40C5F1F4F9FE399830DC0833668
:102C900031F0833771F0833509F059C021C0F80154
:102CA000808189830E5F1F4F88248394912C530168
:102CB00013C02801F2E04F0E511CF801A080B18032
:102CC00036FE03C0692D70E002C06FEF7FEFC501D3
:102CD0000E94AE174C018201F32DFF773F2E16C0E4
:102CE000280122E0420E511CF801A080B18036FE7E
:102CF00003C0692D70E002C06FEF7FEFC5010E9435
:102D0000A3174C01F32DF0683F2E820133FC1BC04A
:102D1000822D90E088169906B0F4B60180E290E02A
:102D20000E94B9172A94F4CFF50137FC859137FE3C
:102D300081915F01B60190E00E94B91721102A9499
:102D400021E0821A91088114910471F7E8C0843659
:102D500011F0893641F5F80137FE07C060817181B5
:102D6000828193810C5F1F4F08C060817181072EA3
:102D7000000C880B990B0E5F1F4FF32DFF763F2E33
:102D800097FF09C090958095709561957F4F8F4F03
:102D90009F4FF0683F2E2AE030E0A3010E94F51714
:102DA000882E861845C0853731F4232D2F7EB22E0C
:102DB0002AE030E025C0932D997FB92E8F36C1F0DF
:102DC00018F4883579F0B5C0803719F0883721F0CC
:102DD000B0C0E92FE061BE2EB4FE0DC0FB2DF46043
:102DE000BF2E09C034FE0AC0292F2660B22E06C0AD
:102DF00028E030E005C020E130E002C020E132E010
:102E0000F801B7FE07C060817181828193810C5FF8
:102E10001F4F06C06081718180E090E00E5F1F4F00
:102E2000A3010E94F517882E8618FB2DFF773F2EF1
:102E300036FE0DC0232D2E7FA22E891458F434FEA9
:102E40000BC032FC09C0832D8E7EA82E05C0B82C85
:102E5000A32C03C0B82C01C0B92CA4FE0FC0FE01E6
:102E6000E80DF11D8081803321F49A2D997EA92EE1
:102E700009C0A2FE06C0B394B39404C08A2D86781C
:102E800009F0B394A3FC11C0A0FE06C0B21488F4EC
:102E9000280C922C9B180EC0B21460F4B60180E28C
:102EA00090E00E94B917B394F7CFB21418F42B181E
:102EB00002C0982C212CA4FE10C0B60180E390E043
:102EC0000E94B917A2FE17C0A1FC03C088E790E0DA
:102ED00002C088E590E0B6010CC08A2D867859F0D2
:102EE000A1FE02C08BE201C080E2A7FC8DE2B60128
:102EF00090E00E94B917891438F4B60180E390E09D
:102F00000E94B9179A94F7CF8A94F301E80DF11D46
:102F10008081B60190E00E94B9178110F5CF222080
:102F200009F442CEB60180E290E00E94B9172A94DB
:102F3000F6CFF6018681978102C08FEF9FEF2B9627
:102F4000E2E10C94C118FC01059061507040011041
:102F5000D8F7809590958E0F9F1F0895FC016150C2
:102F6000704001900110D8F7809590958E0F9F1FAB
:102F700008950F931F93CF93DF93FB01238121FDCE
:102F800003C08FEF9FEF2CC022FF16C046815781F0
:102F9000248135814217530744F4A081B1819D01FA
:102FA0002F5F3F4F318320838C93268137812F5FA2
:102FB0003F4F3783268314C08B01EC01FB01008453
:102FC000F185E02D0995892BE1F6D80116968D91B2
:102FD0009C911797019617969C938E931697CE0106
:102FE000DF91CF911F910F910895FA01AA27283000
:102FF00051F1203181F1E8946F936E7F6E5F7F4FC6
:103000008F4F9F4FAF4FB1E03ED0B4E03CD0670F41
:10301000781F891F9A1FA11D680F791F8A1F911D94
:10302000A11D6A0F711D811D911DA11D20D009F4E4
:1030300068943F912AE0269F11243019305D319326
:10304000DEF6CF010895462F4770405D4193B3E00F
:103050000FD0C9F7F6CF462F4F70405D4A3318F0B6
:10306000495D31FD4052419302D0A9F7EACFB4E067
:10307000A6959795879577956795BA95C9F700971F
:103080006105710508959B01AC010A2E06945795C0
:10309000479537952795BA95C9F7620F731F841F17
:1030A000951FA01D0895F999FECF92BD81BDF89A94
:1030B000992780B50895A6E1B0E044E050E00C9473
:1030C0008418A8E1B0E042E050E00C948418262F68
:1030D000F999FECF1FBA92BD81BD20BD0FB6F894FD
:1030E000FA9AF99A0FBE01960895242F0E94681843
:1030F000252F0E9468180C947D180E946718272FAE
:103100000C946818DC01CB01FC01F999FECF06C0D4
:10311000F2BDE1BDF89A319600B40D924150504095
:10312000B8F708950E94DC18A59F900DB49F900DEC
:10313000A49F800D911D11240895B7FF0C9492183F
:103140000E949218821B930B08952F923F924F92E8
:103150005F926F927F928F929F92AF92BF92CF9227
:10316000DF92EF92FF920F931F93CF93DF93CDB730
:10317000DEB7CA1BDB0B0FB6F894DEBF0FBECDBFA8
:1031800009942A88398848885F846E847D848C8479
:103190009B84AA84B984C884DF80EE80FD800C8182
:1031A0001B81AA81B981CE0FD11D0FB6F894DEBF65
:1031B0000FBECDBFED010895A29FB001B39FC00126
:1031C000A39F700D811D1124911DB29F700D811D53
:0A31D0001124911D0895F894FFCF1B
:1031DA000100000001000000FFFF5802B0040F00C8
:1031EA0000000300000000EA0D220E00003F065B0B
:1031FA004F666D7D077F6F00065B4F666D7D077FAB
:10320A006F014631203A2575200A004632203A25B8
:10321A0075200A0046333A2575200A004634203ABA
:10322A002575200A005331203A2575200A005231AB
:10323A00203A2575200A0047616D6520537065653F
:10324A0064203A2575200A00472053636F7265206F
:10325A003A256C75200A00536E616B65204C656EC9
:10326A00677468203A2575200A00536E616B6520E1
:10327A0048656164203A2575200A00472074696D03
:10328A0065203A256C75200A00596F7527766520E6
:10329A00736574206120686967682073636F72655B
:1032AA002E20706C656173652073657420796F7563
:1032BA007220696E697469616C2062656C6F773A15
:1032CA00200046697273743A2025632563256320BA
:1032DA002564005365636F6E643A20256325632570
:1032EA00632025640054686972643A202563256363
:1032FA00256320256400466F75723A20256325638D
:10330A002563202564200A00466976653A202563EC
:10331A00256325632025640054686572652041721F
:10332A00652043757272656E746C79204E6F204801
:10333A0069676853636F72657300534E414B45204A
:10334A0042792034343335343336390053636F725B
:10335A00653A20257500536E616B650053636F7281
:06336A00653A203000006E
:00000001FF
