:100000000C94F3000C9410010C9410010C9410014A
:100010000C9410010C9450010C9410010C941001DC
:100020000C9410010C9410010C9410010C9410010C
:100030000C9410010C9410010C9410010C941001FC
:100040000C9479110C9410010C9410010C94100173
:100050000C94C70D0C94850D0C9410010C94100198
:100060000C9410010C9410010C9410010C941001CC
:100070000C9410010C9410010C94100123232348BC
:100080004947482053434F5245532323230050727E
:10009000657373206120627574746F6E20746F20B5
:1000A000737461727420616761696E0047414D45E8
:1000B000204F5645520021011E011A01160112015E
:1000C0000E010A0106010201FE0090018C01880167
:1000D000840180017C017801740171016D01690165
:1000E000650160015C01580154014F014B0147015A
:1000F00042013E01390134012F012A012501649298
:10010000927D6C92926D809EA0C17C92924DE4A2F1
:10011000A29D182848FF4492926D468A926342FE3F
:10012000037C92A27D868A92A2C3E0100E10E1C6E3
:10013000281028C7FC021C02FDF8040204F9FC0286
:1001400002FD8080FE80816492924DFE9098677CD3
:10015000828A7C03FE9090617C82827DFE2010FF6B
:10016000FE403040FFFE020203FE1028C7040202D8
:10017000FD82FE83FE1010FF7C82925DFE909081D6
:10018000FE929283FE82827D7C828245FE92926DF7
:100190007E90907F43535345323031302F37323089
:1001A0003120536E616B652050726F6A65637420F5
:1001B0006279204A61636B20456164696500536E12
:1001C000616B65001B5B3F323568001B5B3F32355E
:1001D0006C001B5B25646D001B5B324A001B5B25BA
:1001E000643B2564480011241FBECFEFD8E0DEBF7A
:1001F000CDBF12E0A0E0B1E0E6E3F0E302C005907D
:100200000D92A432B107D9F723E0A4E2B2E001C015
:100210001D92AE3BB207E1F70E94810A0C941918B7
:100220000C940000E8E6F0E0808182608083D99A37
:10023000ECE6F0E080818F608083109224020895C4
:100240001092240208958091240218163CF58091A2
:1002500025026FB7F894909124029230B4F021E017
:1002600030E091E0F901EB5DFD4F4081F901EC5D7B
:10027000FD4F40839F5F292F30E040912402042EE0
:10028000000C550B241735076CF390912402915004
:100290009093240266231CF4789408958FEF0895B8
:1002A0001F920F920FB60F9211242F933F934F93EB
:1002B0005F936F937F938F939F93EF93FF9343B1DC
:1002C0004F7080912402883064F580E090E0642FC4
:1002D00070E09B01082E02C0359527950A94E2F73D
:1002E00020FF1BC020912D0230E0082E02C0359562
:1002F00027950A94E2F720FD10C0E091240221E046
:100300002E0F209324020E2E000CFF0BEB5DFD4FF1
:10031000808320912402283024F4019684309105B2
:10032000C1F640932D02FF91EF919F918F917F91A4
:100330006F915F914F913F912F910F900FBE0F9052
:100340001F90189589B183FB882780F90895CF9273
:10035000DF92EF92FF920F931F930E942C11409116
:100360002E0250912F026A01550FEE08FF080091EE
:100370009402109195022091960230919702C00E3E
:10038000D11EE21EF31E21E030E06C157D058E05C6
:100390009F0510F020E030E0C9011F910F91FF9000
:1003A000EF90DF90CF900895CF93DF93CAE8D2E02B
:1003B000E985EF5FE987F0E0EE0FFF1FE657FD4F9D
:1003C000808191810E94CB110E942C116093940234
:1003D000709395028093960290939702E985F0E0DE
:1003E000E657FD4F868190E090932F0280932E0276
:1003F000DF91CF9108958AE0EAE6F2E0AAE8B2E060
:1004000001900D928A95E1F78FEF809373020E941D
:10041000D4010895559808950E94A701892B79F475
:1004200080919302823058F067E08AE00E946E105B
:1004300081E391E00E94BC140E940A0208950E9488
:10044000A701892B11F40E94D40108950E94D401C0
:100450000E94A20181110E94D01108950E94D4012E
:100460000E94A20181110E94D01108950E942E02C3
:10047000089580E891E00E94951721E0611572418E
:100480008105910509F020E0822F0895DF92EF9217
:10049000FF920F931F93CF93DF93CDB7DEB7629791
:1004A0000FB6F894DEBF0FBECDBFF89440E052E126
:1004B00060E070E080E891E00E94B31780E00E9465
:1004C0006707898381E00E9467078A8382E00E9430
:1004D00067078B8383E00E9467078C830E949D0AD5
:1004E0008E830E94E90B69877A878B879C870E949D
:1004F0004D0898878F830E94520E8D870E942C1181
:10050000092E000CAA0BBB0B8E879F87A88BB98B7B
:100510000E94700E8A8B0E94AA0F882321F00E94ED
:10052000F40F8D8302C088E08D8342E150E060EAE1
:1005300071E0CE0101960E949B170E946D0E182F4C
:100540000E946A0E811708F043C00E946D0ED82EDB
:10055000082F10E0013211051CF50F2EF0E3EF2EED
:10056000F2E0FF2EF02D802F0E94550E682FC7015C
:100570000E94A51788E0E80EF11C0F5F1F4F0132A3
:10058000110589F70D2D10E0119501951109000F46
:10059000111F000F111F000F111F085C1C4F02C01C
:1005A00000E312E0E12CF12C0CC08E2D0E94550EC0
:1005B000682FC8010E94A517085F1F4F8FEFE81A28
:1005C000F80A0E946A0E90E08E159F0574F719C014
:1005D0000E946D0EE82EF12C00E312E00CC08E2D6F
:1005E0000E94550E682FC8010E94A517085F1F4F73
:1005F0008FEFE81AF80A0E946A0E90E08E159F05A8
:1006000074F768E0C8010E94A517789462960FB647
:10061000F894DEBF0FBECDBFDF91CF911F910F9138
:10062000FF90EF90DF900895CF93C82F0E94A70806
:10063000882399F0E09198020E2E000CFF0BE756EC
:10064000FD4FC08363E370E08C2F90E00E9487072A
:10065000809198028F5F80939802CF910895CF93F5
:10066000C82F0E94A708882321F08C2F0E94A00A7F
:1006700002C00E94560BCF910895CF93C82F0E94BD
:10068000A708882321F08C2F0E94A40F02C00E948B
:10069000D30FCF9108950F931F93CF93DF9380E0F3
:1006A0000E94670E0E94520E81500E94640E10E05C
:1006B000C0E3D2E0CE010E948D17082F612F0E9467
:1006C0005E0E60EF70E0802F90E00E948707289612
:1006D0001F5FCE010E948D170E94A7088111EACFEB
:1006E0000E943B0E6FE070E090E00E948707DF9170
:1006F000CF911F910F910895CF93DF93CDB7DEB7C0
:1007000062970FB6F894DEBF0FBECDBF0E943902CC
:10071000882309F448C00E9487100E949E080E9406
:10072000D01042E150E060EA71E0CE0101960E94F3
:100730007D1769857A858B859C850E94F20B6E8575
:100740007F85888999890E943A110E94EB108F81D8
:1007500098850E9452088E8190E00E942F030E948B
:10076000B411898190E00E9414038A8190E00E9474
:1007700014038B8190E00E9414038C8190E00E940E
:1007800014038D8190E00E943D038D850E945B0ED5
:100790008A890E94440E0E944B030E9420010E94FD
:1007A000800D1092330262960FB6F894DEBF0FBE32
:1007B000CDBFDF91CF9108950F931F93CF93DF9318
:1007C000CDB7DEB727970FB6F894DEBF0FBECDBF0B
:1007D0008C0147E050E0BC01CE0101960E947D17DC
:1007E000B801605C7F4F47E050E0CE0101960E9467
:1007F0009B1727960FB6F894DEBF0FBECDBFDF91D3
:10080000CF911F910F91089580E091E00E94DC0349
:1008100008950E94040480EC90E00E94DC03089597
:100820000E94090480E890E00E94DC0308950E9481
:10083000100480E490E00E94DC030895CF93DF93DE
:10084000CDB7DEB727970FB6F894DEBF0FBECDBF8A
:1008500044E352E160E070E080E090E00E94B31772
:1008600080E289838A838B831C821D821E821F8281
:1008700047E050E060E470E0CE0101960E949B17D3
:1008800047E050E060E870E0CE0101960E949B17BF
:1008900047E050E060EC70E0CE0101960E949B17AB
:1008A00047E050E060E071E0CE0101960E949B17A6
:1008B00047E050E060E471E0CE0101960E949B1792
:1008C00027960FB6F894DEBF0FBECDBFDF91CF9154
:1008D000089580E090E00E94951721E030E06433B5
:1008E00072418105910511F020E030E0C9010895C1
:1008F000CF92DF92EF92FF92CF93DF93CDB7DEB727
:1009000027970FB6F894DEBF0FBECDBF0E94E90B4C
:100910006B017C0147E050E060E471E0CE0101969C
:100920000E947D178C819D81AE81BF81C816D9063A
:10093000EA06FB0640F40E94690421E0892B09F0D5
:1009400020E0822F01C081E027960FB6F894DEBF29
:100950000FBECDBFDF91CF91FF90EF90DF90CF9092
:100960000895CF92DF92EF92FF92CF93DF93CDB7AE
:10097000DEB727970FB6F894DEBF0FBECDBF0E943B
:100980006904892B09F45BC00E94E90B6B017C01AF
:1009900047E050E060E470E0CE0101960E947D17D0
:1009A0008C819D81AE81BF818C159D05AE05BF05F3
:1009B00008F448C047E050E060E870E0CE010196DE
:1009C0000E947D178C819D81AE81BF818C159D0514
:1009D000AE05BF05D0F147E050E060EC70E0CE011D
:1009E00001960E947D178C819D81AE81BF818C15FF
:1009F0009D05AE05BF0560F147E050E060E071E0A5
:100A0000CE0101960E947D178C819D81AE81BF81B0
:100A10008C159D05AE05BF05F0F047E050E060E4A1
:100A200071E0CE0101960E947D178C819D81AE817F
:100A3000BF818C159D05AE05BF0580F011C080E417
:100A400090E00EC080E490E00BC080E890E008C029
:100A500080EC90E005C080E091E002C080E491E08D
:100A600027960FB6F894DEBF0FBECDBFDF91CF91B2
:100A7000FF90EF90DF90CF9008950F931F93CF9347
:100A8000DF93CDB7DEB727970FB6F894DEBF0FBE62
:100A9000CDBF44E352E160E070E080E090E00E946E
:100AA000B3170E94B1048C018038910591F020F4B5
:100AB0008034910589F012C0803C910539F0011510
:100AC00081E0180759F40E94040408C00E94090438
:100AD00005C00E94100402C00E941704E0E3F2E087
:100AE0008081898381818A8382818B830E94E90B43
:100AF0006C837D838E839F8347E050E0B801CE01F5
:100B000001960E949B170E94871027960FB6F894B3
:100B1000DEBF0FBECDBFDF91CF911F910F91089522
:100B2000EF92FF920F931F93CF93DF9368E08AE0D9
:100B30000E946E108BE391E09F938F930E94791433
:100B40000F900F9000E010E00F2EF8EBEF2EF3E087
:100B5000FF2EF02D0E94A6100E94790D8823D1F35C
:100B6000F701808191810E943B14EC01982F9154F0
:100B70009A3398F40330110584F469E08AE0800F19
:100B80000E946E10F801E05DFD4FC083CE019927F1
:100B90000E94B5140F5F1F4FDDCF8A3021F4023061
:100BA0001105C4F211C08F37A9F680E290E00E94CF
:100BB000B5141016110614F40150110969E08AE009
:100BC000800F0E946E10C6CFF999FECF0E943D059E
:100BD000E0E3F2E080E2808381838283DF91CF9142
:100BE0001F910F91FF90EF900895CF93DF93CDB7B2
:100BF000DEB727970FB6F894DEBF0FBECDBF6BE010
:100C00008AE00E946E108CE790E09F938F930E9481
:100C10008F146DE08AE00E946E100E9469040F90AC
:100C20000F90892B09F4B6C047E050E060E470E013
:100C3000CE0101960E947D178F818F938E818F93B5
:100C40008D818F938C818F938B811F928F938A815B
:100C50001F928F9389811F928F9384E791E09F93D6
:100C60008F930E9479146EE08AE00E946E1047E034
:100C700050E060E870E0CE0101960E947D178F8100
:100C80008F938E818F938D818F938C818F938B81A6
:100C90001F928F938A811F928F9389811F928F93C6
:100CA00085E891E09F938F930E9479146FE08AE02A
:100CB0000E946E1047E050E060EC70E0CE010196BB
:100CC0000E947D178F818F938E818F938D818F935B
:100CD0008C818F938B811F928F938A811F928F9328
:100CE00089811F928F9387E991E09F938F930E9450
:100CF00079140FB6F894DEBF0FBECDBF60E18AE075
:100D00000E946E1047E050E060E071E0CE01019675
:100D10000E947D178F818F938E818F938D818F930A
:100D20008C818F938B811F928F938A811F928F93D7
:100D300089811F928F9388EA91E09F938F930E94FD
:100D4000791461E18AE00E946E1047E050E060E4AF
:100D500071E0CE0101960E947D178F818F938E8165
:100D60008F938D818F938C818F938B811F928F9323
:100D70008A811F928F9389811F928F938AEB91E0D2
:100D80009F938F930E9479140FB6F894DEBF0FBE25
:100D9000CDBF0AC00E941E048BEC91E09F938F93FD
:100DA0000E9479140F900F9027960FB6F894DEBF2B
:100DB0000FBECDBFDF91CF91089510929802089594
:100DC00030919802131684F490919902891771F06A
:100DD000EAE9F2E090E003C02191281749F09F5F13
:100DE0003913FACF8FEF08958FEF089580E00895BB
:100DF000892F08950E94E00691E08F3F09F490E06A
:100E0000892F0895FF920F931F93CF93DF938091C3
:100E1000980288300CF044C000E010E0D0E0C0E060
:100E200002C00F5F1F4F2C2FCC0F330B2D5F3F4F96
:100E3000200F311F2F703078332334F421503109C3
:100E4000206F3F6F2F5F3F4F822FC22F6D2FDD0F1F
:100E5000770B6B5F7F4F67707078772334F4615046
:100E60007109686F7F6F6F5F7F4FD62F0E94AD084B
:100E7000F82E03361105B1F00E94A80E8111D1CFD2
:100E80008F2D0E94FA068111CCCF8F2D0E94F70F73
:100E90008111C7CF8F2D0E944F0B8111C2CF04C08B
:100EA00088E00FC088E00DC080919802E82F082EDE
:100EB000000CFF0BE756FD4FF0828F5F8093980286
:100EC0008F2DDF91CF911F910F91FF900895E82F03
:100ED000880FFF0BE756FD4F808108958823B4F0FB
:100EE00020919802821794F48F5F821764F4E82FA0
:100EF000082E000CFF0BE756FD4F90813197908331
:100F00008F5F8217A4F321502093980208951F93B6
:100F1000CF93DF93C82F162F0E94A508D82F8C2FB0
:100F20000E94A208412F6D2F0E945B08DF91CF9194
:100F30001F910895CF93DF930E949E080E94D010C6
:100F400088E592E090930901809308010E94560B76
:100F50000E9426020E941A0E0E943B0E6FE00E9421
:100F600087070E94490E60EF0E9487070E94DD06F6
:100F7000C3E00E940207D82F0E94A708882321F00F
:100F800063E38D2F0E948707C15099F7DF91CF91BE
:100F9000089580910801909109018B3F9105A4F07B
:100FA000609108017091090180E090E00E940112B7
:100FB00026E636E646E65FE30E948F120E94D211D3
:100FC000709309016093080108950F931F93CF93C5
:100FD000DF930E943B0ED82F0E94CB0EC82F882390
:100FE0000CF455C081E090E00E94D40B0E943B0EAF
:100FF000182F8EEF8C0F8230C0F4812F0E94E006F4
:101000000E946E070E94360282E090E00E94D40B9C
:101010000E94C9070E940207082F0E94A708882380
:1010200021F063E3802F0E9487078CEF8C0F8230C2
:1010300050F40E94EB0F89E090E00E94D40B0E94D4
:10104000C9070E9436028AEF8C0F823050F40E944A
:10105000560B84E090E00E94D40B0E94C9070E94C6
:101060003602CD7FC13011F0C53029F40E94730ED5
:1010700060E00E94870760EF8D2F0E9487076FE076
:10108000812F0E9487070E94EB1081E001C080E061
:10109000DF91CF911F910F91089580910801909158
:1010A000090108959093090180930801089580E84B
:1010B0000E94760F08951F93CF93DF938031B0F491
:1010C0006830A0F4142FC62FD82F81E00E949E0F05
:1010D0006C2F677080E1689F900111248D2F8F70B5
:1010E000822B0E949E0F812F0E949E0FDF91CF9135
:1010F0001F9108950F931F93CF93DF93803190F446
:101100008B01C82F83E00E949E0F8C2F8F700E944E
:101110009E0FE801085F1F4F89910E949E0FC01724
:10112000D107D1F7DF91CF911F910F91089584E0FE
:101130000E949E0F82E00E949E0F08958FE00E9401
:101140009E0F089582958F7008958F70089583FB88
:10115000882780F991E08927089520E1829FC001C6
:1011600011246770862B08950E9457080E9412016F
:1011700040E060E07BE480E090E00E94320D0E945D
:10118000041178940895FF920F931F93CF93DF93E8
:1011900080E00E9490100E9487100E949D100E9483
:1011A000AF100E949E08CFE00F2EFFE0FF2EF02D23
:1011B0000FEF10EFD5E16C2F8DEE91E00E94FB0B4D
:1011C0000DC02FE78CE293E0215080409040E1F782
:1011D00000C000000E9423018F3FA9F50E940A0C65
:1011E0008111EFCF0E94E413DC01CB0183709927BA
:1011F000AA27B078BB2354F40197A109B1098C6FD9
:101200009F6FAF6FBF6F0196A11DB11D813091051A
:10121000A105B10591F02CF4892B8A2B8B2B59F069
:10122000CACF82309105A105B10549F00397A10508
:10123000B10539F0C0CFCD2FBECFCF2DBCCFC02F41
:10124000BACFC12FB8CFDF91CF911F910F91FF90EF
:1012500008950E9487100E949A070E94CB0B0E945B
:1012600020010E94800D08954F925F927F928F928D
:101270009F92AF92BF92CF92DF92EF92FF920F9325
:101280001F93CF93DF930E942C114B015C0100E070
:101290001FEF0F2EFFED7F2EF02D0F2EF8EB4F2EB0
:1012A000F3E05F2EF02D0E94AD0F81110E9404101B
:1012B0000E94C30F81110E94D30F0E94B90B8111AC
:1012C0000E94D90A0E940C020E942311892B19F056
:1012D0000E94200106C00E942301D82F8F3F09F0F1
:1012E0009AC00E94790D882309F4A4C0F20180817C
:1012F00091810E943B14C82F011103C08B3151F41E
:1013000096C0013019F48B3529F493C0023009F4EA
:1013100088C07BC00E942311892B09F03FC008C000
:10132000D11109C001C000E081E00E948A0E50C0C6
:1013300000E0D12F01C0C12FD23019F0812F8134AC
:1013400021F480E00E948A0E43C0D33011F084342F
:1013500021F483E00E948A0E3BC0D13011F0823428
:1013600029F482E00E948A0E33C000E08C2F8F7D2A
:10137000803519F40E941C112BC0C33719F40E9448
:10138000460226C00E943902892B11F18C2F8F7DD5
:101390008F34F1F481E08093330262C08C2F8F7D13
:1013A000803521F40E941C1100E012C000E083355A
:1013B00019F40E9446020CC00E943902892B41F0A8
:1013C0008C2F8F7D8F3421F481E08093330248C0CD
:1013D0000E942C116B017C010E944D08092E000C0B
:1013E000AA0BBB0B880D991DAA1DBB1DC816D906DB
:1013F000EA06FB0608F457CF0E94E507882381F12F
:101400000E942C114B015C014ECF0E942311892BAD
:1014100009F4ABCFC3CF0E942311892B09F480CFED
:101420001CC00E942311892B51F000E013C001E081
:1014300001C002E00E942311892B61F408C0C3346B
:1014400009F471CF8C2F00E0C12FD12F78CF0E94EB
:101450003902BECFC12F872DAACF0E943902B8CF43
:10146000DF91CF911F910F91FF90EF90DF90CF9080
:10147000BF90AF909F908F907F905F904F90089516
:101480000E94871065E08AE00E946E108CEA90E06E
:101490009F938F930E948F1467E08AE00E946E10E2
:1014A0000E94E90B9F938F937F936F938FEF91E04F
:1014B0009F938F930E9479140E94F5050E947804EF
:1014C0002DB73EB7285F3F4F0FB6F8943EBF0FBE13
:1014D0002DBF81110E94900569E08AE00E946E1084
:1014E0008EE890E09F938F930E948F140E94F505E1
:1014F0000F900F900E9423018F3FE1F30E9487100D
:1015000008950E94B4088FEF81B9529A53980E94AF
:10151000B4110E94C30880913302882319F00E94FD
:101520007C0302C00E9429090E9434098091330281
:101530008111F1CF0E94400AEECF8091A10208955F
:10154000CF93DF93C82F8091A1020E94A508D82FC6
:101550008091A1020E94A20840E06D2F0E945B08CA
:10156000C093A1028C2F0E94A508D82F8C2F0E9417
:10157000A20843E36D2F0E945B08DF91CF9108958D
:10158000CF93C82F0E94A80E81110DC08C2F0E94EE
:10159000FA0681110AC08C2F0E94F70F91E0811189
:1015A00005C090E003C091E001C091E0892FCF9188
:1015B00008951F93CF93DF9360E080E00E94AD0811
:1015C000182F0E94891383709078992324F401972F
:1015D0008C6F9F6F0196C82FD0E0C130A9F028F022
:1015E000C23009F1C33071F13BC08091A1020E9469
:1015F000A508182F8091A1020E94A20861E0610F46
:101600000E94AD08182F2CC08091A1020E94A5084D
:10161000182F8091A1020E94A2086FEF610F0E9413
:10162000AD08182F1DC08091A1020E94A508182F97
:101630008091A1020E94A208612F8F5F0E94AD08D5
:10164000182F0EC08091A1020E94A508182F80912A
:10165000A1020E94A208612F81500E94AD08182F9C
:10166000DF5F8C2F90E0019683709078992324F4AB
:1016700001978C6F9F6F0196C82F812F0E94C00A1F
:10168000882321F0D43009F0A8CF02C0D53018F457
:10169000812F0E94A00ADF91CF911F91089591E0C0
:1016A0002091A102281390E0892F08951F93CF93D2
:1016B000DF930E948913EC010E948913BC016770BB
:1016C0007078772334F461507109686F7F6F6F5FB2
:1016D0007F4FCE018F709078992324F40197806F0B
:1016E0009F6F01960E94AD08C82F13E61EC00E948E
:1016F0008913EC010E948913BC016770707877230D
:1017000034F461507109686F7F6F6F5F7F4FCE0156
:101710008F709078992324F40197806F9F6F0196C2
:101720000E94AD08C82F115091F08C2F0E94A80E76
:101730008111DDCF8C2F0E94FA068111D8CF0E9433
:10174000F40F8C17A1F28091A1028C1781F2C09343
:10175000A1028C2F0E94A508C82F8091A1020E948F
:10176000A20843E36C2F0E945B08DF91CF911F9189
:1017700008950E942C1120910A0130910B0140E044
:1017800050E00E94FC1221E0672B682B692B09F0C6
:1017900020E0822F089510923402109235021092A8
:1017A000360210923702089540913402509135026A
:1017B0006091360270913702480F591F611D711DEB
:1017C000409334025093350260933602709337028F
:1017D00008956091340270913502809136029091A3
:1017E0003702089560933402709335028093360275
:1017F00090933702089560930C0190933C0280937C
:101800003B0210923E0210923D0210923A02109258
:10181000390208950F931F93CF93DF93CDB7DEB7AF
:1018200028970FB6F894DEBF0FBECDBFE0913D0202
:10183000F0913E02309781F0149110FF06C0109293
:101840003E0210923D0200E06BC03196F0933E02E2
:10185000E0933D0200E064C0E0913902F0913A0269
:10186000309709F449C0CF01019690933A028093D2
:101870003902E081E1110AC010923A021092390255
:1018800080E18093380200E010E04AC08FE98E0FBB
:101890008A3170F4F0E0EE0FFF1FE85FFF4F859193
:1018A000949190933E0280933D0200E010E038C096
:1018B0008FEB8E0F8A3170F4F0E0EE0FFF1FE85BC4
:1018C000FF4F8591949190933E0280933D0200E0FA
:1018D00010E026C080ED8E0F8A3000F5F0E0EE0FAC
:1018E000FF1FEA5AFF4F8591949190933E02809397
:1018F0003D0200E010E014C080913B0290913C0258
:1019000001E0009709F000E090933A0280933902D9
:1019100010923C0210923B0210E002C000E010E086
:101920000E94970820910C01FE013896CE01019685
:10193000112314F4208301C01082110F3197E8178E
:10194000F907B1F71982BE016F5F7F4F8FE00E94E8
:101950007A0880913802882389F081508093380278
:10196000002311F0882311F090E003C091E001C042
:1019700091E081E0992329F080E003C00023A1F3E6
:10198000F7CF28960FB6F894DEBF0FBECDBFDF911C
:10199000CF911F910F910895CF93C82F8A3019F4DA
:1019A0008DE00E94CC0C9FB7907802C0992329F15A
:1019B0008091A3028F3FD1F3F894E091A20281E0DD
:1019C0008E0F8093A202F0E0EC55FD4FC083809112
:1019D000A3028F5F8093A3028091A2028F3F11F434
:1019E0001092A202E1ECF0E0808180628083992372
:1019F00039F0789480E090E005C081E090E002C08A
:101A000080E090E0CF9108958091B5038823E1F3C1
:101A10002FB72078F8948091A3033091B50390E01C
:101A2000831B91095AF4E091A3038091B503F0E080
:101A3000E81BF109EC54FC4F80810AC0E091A3033C
:101A40008091B503F0E0E81BF109EC55FC4F808173
:101A50009091B50391509093B503222309F07894A7
:101A600090E008951092A2021092A3021092A30394
:101A70001092B5031092B40340933F02DC01CB01F6
:101A8000880F991FAA1FBB1F880F991FAA1FBB1F72
:101A90009C01AD01220F331F441F551F60E072E10E
:101AA0008AE790E00E941E13BA01A9014F5F5F4FC1
:101AB0006F4F7F4FDB01CA011AF40196A11DB11DC2
:101AC000B595A7959795879501979093C5008093B5
:101AD000C400E1ECF0E088E180838081806880834D
:101AE000E8EBF3E08DE091E0938382839183808340
:101AF00008959091B50381E0911101C080E00895AF
:101B00001092A3031092B50308951F920F920FB67F
:101B10000F9211242F938F939F93EF93FF938091B4
:101B2000A302882329F18091A2022091A30290E0D0
:101B3000821B91095AF4E091A2028091A302F0E085
:101B4000E81BF109ED55FC4F90810AC0E091A2021B
:101B50008091A302F0E0E81BF109EC55FD4F908164
:101B60008091A30281508093A3029093C60005C088
:101B7000E1ECF0E080818F7D8083FF91EF919F9178
:101B80008F912F910F900FBE0F901F9018951F925D
:101B90000F920FB60F9211242F933F934F935F93A1
:101BA0006F937F938F939F93AF93BF93CF93EF9355
:101BB000FF93C091C60080913F02882349F0809135
:101BC000A3028F3F29F060E070E08C2F0E94CC0CC4
:101BD0008091B503803120F081E08093B40318C078
:101BE000CD3009F4CAE0E091A30381E08E0F809329
:101BF000A303F0E0EC55FC4FC0838091B5038F5FE9
:101C00008093B5038091A303803111F41092A30354
:101C1000FF91EF91CF91BF91AF919F918F917F9164
:101C20006F915F914F913F912F910F900FBE0F9049
:101C30001F9018950F931F93CF9382E080934402D7
:101C400010924202C1E0C093430261E081E00E9431
:101C5000AD0805E412E0F801808361E082E00E94B3
:101C6000AD08F8018183C0934102C0934002CF9137
:101C70001F910F910895E09143020E2E000CFF0B6F
:101C8000EB5BFD4F80810895809341028093400279
:101C90000895E09142020E2E000CFF0BEB5BFD4F0E
:101CA00080810895809144020895E82FF0E0EB5B75
:101CB000FD4F80810895809344020895E62FF0E05F
:101CC000EB5BFD4F808308958093430208958093DA
:101CD000420208958091430208958091420208953E
:101CE00080914102089590914202E92F092E000C43
:101CF000FF0BEB5BFD4F80819F5F913219F090935A
:101D0000420202C01092420290914402915090937C
:101D100044020895909141029130A9F028F0923048
:101D200041F0933059F00895823089F08093400259
:101D30000895882361F0809340020895813039F03E
:101D4000809340020895833011F0809340020895FB
:101D5000909142023091430240E00DC0E92F092EDC
:101D6000000CFF0BEB5BFD4F2081281789F09F5F74
:101D700091320CF0942F9313F1CFE32F330FFF0B1D
:101D8000EB5BFD4F91E02081281719F090E001C036
:101D900091E0892F0895CF93DF938091440281329F
:101DA00008F096C0E09143020E2E000CFF0BEB5B97
:101DB000FD4F80810E94A208D82FC82FE0914302D6
:101DC0000E2E000CFF0BEB5BFD4F80810E94A508DF
:101DD000682F90914002913059F028F0923069F0CC
:101DE000933081F01BC0873091F061E0680F16C01E
:101DF000DF3079F0C1E0CD0F11C0882361F06FEFC3
:101E0000680F0CC0DD2349F0CFEFCD0F07C060E0B5
:101E100005C0C0E003C067E001C0CFE08C2F0E9486
:101E2000AD08C82F8091400290914102981741F06F
:101E3000809341020E94A201892B11F00E94360278
:101E40008C2F0E94A80E882351F0E09142020E2EA2
:101E5000000CFF0BEB5BFD4F8081C8133BC08091F2
:101E600043028F5F813219F08093430202C01092C7
:101E70004302E09143020E2E000CFF0BEB5BFD4F83
:101E8000C083809144028F5F809344028C2F90E046
:101E90000E944F0B892B31F0809144028132E0F097
:101EA00087E021C08C2F0E94F70F882331F08091AA
:101EB0004402813298F085E016C08C2F0E94FA0609
:101EC000882371F080914402813260F083E00BC07E
:101ED0008DEF09C08EEF07C086E005C084E003C027
:101EE00081E001C082E0DF91CF91089594B1906BC1
:101EF00094B92C9A90E59CBD883021F0803211F085
:101F0000823019F491E09DBD01C01DBC803269F0A2
:101F100028F4883071F0803161F00EC0803429F0EF
:101F2000803851F48CB581608CBD8CB582608CBDDD
:101F300003C08CB581608CBD2C9808958EBD0DB406
:101F400007FEFDCF8EB508958093B60381E08093A0
:101F5000B70308958091B70308950E942C11685922
:101F60007A438109910920E23EE440E050E00E947A
:101F7000FC12672B682B692B21F40E942C1181E045
:101F8000089580E008950E942C1120E23EE440E094
:101F900050E00E94FC1221E0672B682B692B09F0AE
:101FA00020E0822F0895CF938091B6030E94A50868
:101FB000C82F8091B6030E94A20840E06C2F0E94B7
:101FC0005B0860E080E00E94AD088093B603109249
:101FD000B703CF91089560E080E00E94AD08809340
:101FE000B6031092B70308958091B60308959091B7
:101FF000B703992339F091E02091B603281390E0BC
:10200000892F089580E008951F93CF93DF930E9456
:10201000D30F0E948913EC010E948913BC016770E1
:102020007078772334F461507109686F7F6F6F5F48
:102030007F4FCE018F709078992324F40197806FA1
:102040009F6F01960E94AD08C82F13E61EC00E9424
:102050008913EC010E948913BC01677070787723A3
:1020600034F461507109686F7F6F6F5F7F4FCE01ED
:102070008F709078992324F40197806F9F6F019659
:102080000E94AD08C82F1150A1F08C2F0E94A80EFD
:102090008111DDCF8C2F0E94FA068111D8CF8C2FB1
:1020A0000E94F70F8111D3CF8C2F0E944F0B81110B
:1020B000CECFC093B6038C2F0E94A508C82F809165
:1020C000B6030E94A2084CE36C2F0E945B0881E0DB
:1020D0008093B703DF91CF911F910895282F082E89
:1020E000000C330B3F938F93862F062E000C990B19
:1020F0009F936F938DED91E09F938F930E948F1428
:102100000F900F900F900F900F900F90089588ED03
:1021100091E09F938F930E948F140F900F900895DA
:102120001F928F9382ED91E09F938F930E948F1463
:102130000F900F900F900F9008958BEC91E09F936C
:102140008F930E948F140F900F90089584EC91E06C
:102150009F938F930E948F140F900F90089563E0C8
:1021600083E00E946E108EEB91E09F938F930E940C
:102170008F1465E083E00E946E1080E20E94901050
:1021800084E991E09F938F930E948F1485E20E94CF
:1021900090100E94F5050F900F900F900F900895EA
:1021A0000E949D1061E08AE00E946E1089E092E03A
:1021B0009F938F930E94791463E081E00E946E10D8
:1021C0008FE092E09F938F930E9479140F900F906D
:1021D0000F900F9008950E949D1063E081E00E948F
:1021E0006E100E94E90B9F938F937F936F9388E10A
:1021F00092E09F938F930E9479140F900F900F900D
:102200000F900F900F90089510926602109267023F
:10221000109268021092690216BC8CE787BD82E0BA
:1022200084BD83E085BDEEE6F0E08081826080833E
:1022300085B3827085BB089590911B0181E0891B55
:1022400080931B01089520911B0181E090E02223DF
:1022500011F080E090E008952FB7F8946091660245
:1022600070916702809168029091690222230CF4B8
:10227000789408952FB7F89460936602709367027C
:10228000809368029093690222230CF47894089555
:1022900080913001882381F05A9A0E94520EEDEC11
:1022A0008E9FE12D1124E695E695E695F0E0EA5D36
:1022B000FE4F808182B916C05A980E94520E9DEC42
:1022C000899F912D1124969596959695990F292F72
:1022D000220F220F920F891BE82FF0E0E45EFE4FE1
:1022E000808182B99091300181E0891B8093300117
:1022F00008951F920F920FB60F9211242F933F93C0
:102300004F935F936F937F938F939F93AF93BF93FD
:10231000EF93FF9380911B01882399F080916602CF
:1023200090916702A0916802B09169020196A11D87
:10233000B11D8093660290936702A0936802B093E8
:1023400069020E944811FF91EF91BF91AF919F9157
:102350008F917F916F915F914F913F912F910F904E
:102360000FBE0F901F901895109285001092840058
:10237000E1E8F0E080818A60808380E480938000DF
:1023800088EE93E090938900809388005598539845
:102390000E94FB010895909389008093880008951E
:1023A000559A08950E946E1288F09F5798F0B92FA1
:1023B0009927B751B0F0E1F0660F771F881F991F7A
:1023C0001AF0BA95C9F714C0B13091F00E94881282
:1023D000B1E008950C948812672F782F8827B85F92
:1023E00039F0B93FCCF3869577956795B395D9F7D2
:1023F0003EF490958095709561957F4F8F4F9F4FDC
:102400000895E89409C097FB3EF4909580957095E7
:1024100061957F4F8F4F9F4F9923A9F0F92F96E930
:10242000BB279395F695879577956795B795F111A5
:10243000F8CFFAF4BB0F11F460FF1BC06F5F7F4F42
:102440008F4F9F4F16C0882311F096E911C0772354
:1024500021F09EE8872F762F05C0662371F096E85D
:10246000862F70E060E02AF09A95660F771F881F2C
:10247000DAF7880F9695879597F9089597F99F67EA
:1024800080E870E060E008959FEF80EC08950024FC
:102490000A941616170618060906089500240A94C9
:1024A00012161306140605060895092E0394000C4F
:1024B00011F4882352F0BB0F40F4BF2B11F460FFDE
:1024C00004C06F5F7F4F8F4F9F4F089557FD905807
:1024D000440F551F59F05F3F71F04795880F97FBE8
:1024E000991F61F09F3F79F08795089512161306A2
:1024F0001406551FF2CF4695F1DF08C016161706D1
:102500001806991FF1CF8695710561050894089505
:10251000E894BB2766277727CB0197F908950E9497
:10252000A2120C9455120E94471238F00E944E12CB
:1025300020F0952311F00C943E120C9444121124B7
:102540000C9489120E94661270F3959FC1F3950F47
:1025500050E0551F629FF001729FBB27F00DB11D27
:10256000639FAA27F00DB11DAA1F649F6627B00DB7
:10257000A11D661F829F2227B00DA11D621F739FA0
:10258000B00DA11D621F839FA00D611D221F749FAE
:102590003327A00D611D231F849F600D211D822FF5
:1025A000762F6A2F11249F5750409AF0F1F088231C
:1025B0004AF0EE0FFF1FBB1F661F771F881F915049
:1025C0005040A9F79E3F510580F00C943E120C94A8
:1025D00089125F3FE4F3983ED4F38695779567952B
:1025E000B795F795E7959F5FC1F7FE2B880F911D73
:1025F0009695879597F90895A1E21A2EAA1BBB1B01
:10260000FD010DC0AA1FBB1FEE1FFF1FA217B307BE
:10261000E407F50720F0A21BB30BE40BF50B661FD4
:10262000771F881F991F1A9469F760957095809598
:1026300090959B01AC01BD01CF010895052E97FB3C
:102640001EF400940E94351357FD07D00E94FC121F
:1026500007FC03D04EF40C943513509540953095FB
:1026600021953F4F4F4F5F4F0895909580957095FE
:1026700061957F4F8F4F9F4F08958F929F92AF929A
:10268000BF92CF92DF92EF92FF92CF93DF93EC0154
:10269000688179818A819B81611571058105910528
:1026A00021F464E279ED8BE597E02DE133EF41E031
:1026B00050E00E941E1349015A019B01AC01A7EA98
:1026C000B1E40E94C0176B017C01ACEEB4EFA50130
:1026D00094010E94CE17DC01CB018C0D9D1DAE1D17
:1026E000BF1DB7FF03C00197A109B0488883998334
:1026F000AA83BB839F77DF91CF91FF90EF90DF900C
:10270000CF90BF90AF909F908F9008950E943D13FF
:10271000089580E091E00E943D130895A0E0B0E0AC
:102720008093000190930101A0930201B0930301F3
:1027300008958F929F92AF92BF92CF92DF92EF92C5
:10274000FF92CF93DF93EC01688179818A819B812D
:10275000611571058105910521F464E279ED8BE540
:1027600097E02DE133EF41E050E00E941E13490154
:102770005A019B01AC01A7EAB1E40E94C0176B01AA
:102780007C01ACEEB4EFA50194010E94CE17DC01F0
:10279000CB018C0D9D1DAE1DBF1DB7FF03C0019762
:1027A000A109B04888839983AA83BB83BC01CD016A
:1027B0009F77DF91CF91FF90EF90DF90CF90BF9008
:1027C000AF909F908F9008958F929F92AF92BF92FB
:1027D000CF92DF92EF92FF92609104017091050118
:1027E00080910601909107016115710581059105A0
:1027F00021F464E279ED8BE597E02DE133EF41E0E0
:1028000050E00E941E1349015A019B01AC01A7EA46
:10281000B1E40E94C0176B017C01ACEEB4EFA501DE
:1028200094010E94CE17DC01CB018C0D9D1DAE1DC5
:10283000BF1DB7FF03C00197A109B04880930401F1
:1028400090930501A0930601B0930701BC01CD014F
:102850009F77FF90EF90DF90CF90BF90AF909F90C9
:102860008F90089560930401709305018093060191
:10287000909307010895CF93DF93EC012B8120FF04
:1028800033C026FF0AC02F7B2B838E819F81019648
:102890009F838E838A8190E029C022FF0FC0E88148
:1028A000F9818081082E000C990B009719F42062A1
:1028B0002B831AC03196F983E8830EC0EA85FB8525
:1028C000099597FF09C02B81019611F080E201C0A4
:1028D00080E1822B8B8308C02E813F812F5F3F4F89
:1028E0003F832E83992702C08FEF9FEFDF91CF9117
:1028F0000895A0E0B0E0EFE7F4E10C94E317AE0137
:102900004B5F5F4FFA0161917191AF018091BA0302
:102910009091BB030E94EC14E2E00C94FF17A0E03E
:10292000B0E0E5E9F4E10C94E117AE01495F5F4FD7
:10293000DA016D917D91AD0108EB13E0F801828120
:102940009381DC0113962C911397286013962C9396
:102950000E94EC14D8011296ED91FC9113972381FB
:10296000277F2383E4E00C94FD176091BA037091F4
:10297000BB030E94E31608950F931F93CF93DF9339
:10298000E091BA03F091BB03238121FF1BC08C01AE
:10299000D0E0C0E0F80181918F016091BA0370919D
:1029A000BB03DB011896ED91FC911997882331F058
:1029B0000995892B79F3DFEFCFEFECCF8AE009950A
:1029C000892B19F08FEF9FEF02C08D2F9C2FDF9185
:1029D000CF911F910F910895ABE0B0E0E2EFF4E1E9
:1029E0000C94D3176C017B018A01FC0117821682BB
:1029F000838181FFCCC1CE0101963C01F601938118
:102A0000F70193FD859193FF81917F01882309F45C
:102A1000BAC1853239F493FD859193FF81917F018D
:102A2000853229F4B60190E00E94E316E7CF912C9D
:102A3000212C312CFFE1F315D8F08B3279F038F4EA
:102A4000803279F08332A1F4232D20611DC08D32B4
:102A500061F0803369F4232D216016C0832D8260DC
:102A6000382EE32DE4603E2E2AC0F32DF8601DC001
:102A700037FC2DC020ED280F2A3040F08E32B9F4FB
:102A800036FC81C1232D2064322E19C036FE06C0CB
:102A90008AE0989E200D1124922E11C0EAE02E9E0D
:102AA000200D1124222EF32DF0623F2E08C08C360B
:102AB00021F4832D8068382E02C0883641F4F70156
:102AC00093FD859193FF81917F018111B3CF982F61
:102AD0009F7D9554933028F40C5F1F4F9FE399839B
:102AE0000DC0833631F0833771F0833509F059C05A
:102AF00021C0F801808189830E5F1F4F8824839451
:102B0000912C530113C02801F2E04F0E511CF80123
:102B1000A080B18036FE03C0692D70E002C06FEF67
:102B20007FEFC5010E94D8164C018201F32DFF777B
:102B30003F2E16C0280122E0420E511CF801A08051
:102B4000B18036FE03C0692D70E002C06FEF7FEFE9
:102B5000C5010E94CD164C01F32DF0683F2E820175
:102B600033FC1BC0822D90E088169906B0F4B601A4
:102B700080E290E00E94E3162A94F4CFF50137FC3E
:102B8000859137FE81915F01B60190E00E94E316C6
:102B900021102A9421E0821A91088114910471F77E
:102BA000E8C0843611F0893641F5F80137FE07C0D8
:102BB00060817181828193810C5F1F4F08C06081A9
:102BC0007181072E000C880B990B0E5F1F4FF32DA0
:102BD000FF763F2E97FF09C090958095709561957F
:102BE0007F4F8F4F9F4FF0683F2E2AE030E0A301C8
:102BF0000E941F17882E861845C0853731F4232D73
:102C00002F7EB22E2AE030E025C0932D997FB92E79
:102C10008F36C1F018F4883579F0B5C0803719F0D7
:102C2000883721F0B0C0E92FE061BE2EB4FE0DC0A0
:102C3000FB2DF460BF2E09C034FE0AC0292F266088
:102C4000B22E06C028E030E005C020E130E002C02E
:102C500020E132E0F801B7FE07C060817181828116
:102C600093810C5F1F4F06C06081718180E090E00E
:102C70000E5F1F4FA3010E941F17882E8618FB2D81
:102C8000FF773F2E36FE0DC0232D2E7FA22E8914F6
:102C900058F434FE0BC032FC09C0832D8E7EA82E62
:102CA00005C0B82CA32C03C0B82C01C0B92CA4FEBD
:102CB0000FC0FE01E80DF11D8081803321F49A2DB3
:102CC000997EA92E09C0A2FE06C0B394B39404C095
:102CD0008A2D867809F0B394A3FC11C0A0FE06C02B
:102CE000B21488F4280C922C9B180EC0B21460F415
:102CF000B60180E290E00E94E316B394F7CFB214DD
:102D000018F42B1802C0982C212CA4FE10C0B60178
:102D100080E390E00E94E316A2FE17C0A1FC03C06E
:102D200088E790E002C088E590E0B6010CC08A2DEB
:102D3000867859F0A1FE02C08BE201C080E2A7FCB8
:102D40008DE2B60190E00E94E316891438F4B601D2
:102D500080E390E00E94E3169A94F7CF8A94F301FF
:102D6000E80DF11D8081B60190E00E94E31681100C
:102D7000F5CF222009F442CEB60180E290E00E9415
:102D8000E3162A94F6CFF6018681978102C08FEF71
:102D90009FEF2B96E2E10C94EF17FC010590615038
:102DA00070400110D8F7809590958E0F9F1F089561
:102DB000FC016150704001900110D8F7809590950A
:102DC0008E0F9F1F08950F931F93CF93DF93FB01E7
:102DD000238121FD03C08FEF9FEF2CC022FF16C07F
:102DE00046815781248135814217530744F4A081DD
:102DF000B1819D012F5F3F4F318320838C932681CA
:102E000037812F5F3F4F3783268314C08B01EC013E
:102E1000FB010084F185E02D0995892BE1F6D801AD
:102E200016968D919C911797019617969C938E9369
:102E30001697CE01DF91CF911F910F910895FA015E
:102E4000AA27283051F1203181F1E8946F936E7FE9
:102E50006E5F7F4F8F4F9F4FAF4FB1E03ED0B4E0DA
:102E60003CD0670F781F891F9A1FA11D680F791F1B
:102E70008A1F911DA11D6A0F711D811D911DA11D2C
:102E800020D009F468943F912AE0269F112430193C
:102E9000305D3193DEF6CF010895462F4770405DD7
:102EA0004193B3E00FD0C9F7F6CF462F4F70405D86
:102EB0004A3318F0495D31FD4052419302D0A9F7E1
:102EC000EACFB4E0A6959795879577956795BA95DB
:102ED000C9F700976105710508959B01AC010A2EA1
:102EE00006945795479537952795BA95C9F7620F78
:102EF000731F841F951FA01D0895DC01CB01FC01E9
:102F0000F999FECF06C0F2BDE1BDF89A319600B442
:102F10000D9241505040B8F70895F999FECF92BDF7
:102F200081BDF89A992780B50895A6E1B0E044E004
:102F300050E00C947F17DC01CB0103C02D910E945F
:102F4000A61741505040D0F70895262FF999FECF8B
:102F50001FBA92BD81BD20BD0FB6F894FA9AF99AB6
:102F60000FBE01960895242F0E94A617252F0E94B8
:102F7000A6170C94BB170E94A517272F0C94A61711
:102F80000E940A18A59F900DB49F900DA49F800DDC
:102F9000911D11240895B7FF0C94C0170E94C0170B
:102FA000821B930B08952F923F924F925F926F92E4
:102FB0007F928F929F92AF92BF92CF92DF92EF92C9
:102FC000FF920F931F93CF93DF93CDB7DEB7CA1B4A
:102FD000DB0B0FB6F894DEBF0FBECDBF09942A8875
:102FE000398848885F846E847D848C849B84AA841D
:102FF000B984C884DF80EE80FD800C811B81AA81AA
:10300000B981CE0FD11D0FB6F894DEBF0FBECDBF74
:10301000ED010895A29FB001B39FC001A39F700D61
:10302000811D1124911DB29F700D811D1124911DD0
:063030000895F894FFCFA3
:1030360001000000010000005802B0040F0000006B
:103046000300000000CC0C040D0000013F065B4F9E
:10305600666D7D077F6F00065B4F666D7D077F6F30
:1030660001454E4420544F4E452000596F75277632
:103076006520736574206120686967682073636FD3
:1030860072652E20706C6561736520736574207996
:103096006F757220696E697469616C2062656C6F08
:1030A600773A200046697273743A202563256325B2
:1030B60063202564005365636F6E643A202563259B
:1030C6006325632025640054686972643A20256389
:1030D6002563256320256400466F757274683A205F
:1030E6002563256325632025640046696674683A6E
:1030F6002025632563256320256400546865726571
:10310600204172652043757272656E746C79204E2B
:103116006F204869676853636F72657300534E4149
:103126004B45204279203434333534333639005315
:10313600636F72653A20257500536E616B650053A7
:10314600636F72653A20200053636F72653A2025DB
:0431560038750000C8
:00000001FF
